{
  "_format": "hh-sol-artifact-1",
  "contractName": "ATestnetConsumer",
  "sourceName": "contracts/ATestnetConsumer.sol",
  "abi": [
    {
      "inputs": [],
      "stateMutability": "nonpayable",
      "type": "constructor"
    },
    {
      "anonymous": false,
      "inputs": [
        {
          "indexed": true,
          "internalType": "bytes32",
          "name": "id",
          "type": "bytes32"
        }
      ],
      "name": "ChainlinkCancelled",
      "type": "event"
    },
    {
      "anonymous": false,
      "inputs": [
        {
          "indexed": true,
          "internalType": "bytes32",
          "name": "id",
          "type": "bytes32"
        }
      ],
      "name": "ChainlinkFulfilled",
      "type": "event"
    },
    {
      "anonymous": false,
      "inputs": [
        {
          "indexed": true,
          "internalType": "bytes32",
          "name": "id",
          "type": "bytes32"
        }
      ],
      "name": "ChainlinkRequested",
      "type": "event"
    },
    {
      "anonymous": false,
      "inputs": [
        {
          "indexed": true,
          "internalType": "address",
          "name": "from",
          "type": "address"
        },
        {
          "indexed": true,
          "internalType": "address",
          "name": "to",
          "type": "address"
        }
      ],
      "name": "OwnershipTransferRequested",
      "type": "event"
    },
    {
      "anonymous": false,
      "inputs": [
        {
          "indexed": true,
          "internalType": "address",
          "name": "from",
          "type": "address"
        },
        {
          "indexed": true,
          "internalType": "address",
          "name": "to",
          "type": "address"
        }
      ],
      "name": "OwnershipTransferred",
      "type": "event"
    },
    {
      "anonymous": false,
      "inputs": [
        {
          "indexed": true,
          "internalType": "bytes32",
          "name": "requestId",
          "type": "bytes32"
        },
        {
          "indexed": true,
          "internalType": "uint256",
          "name": "price",
          "type": "uint256"
        }
      ],
      "name": "RequestEthereumPriceFulfilled",
      "type": "event"
    },
    {
      "inputs": [],
      "name": "acceptOwnership",
      "outputs": [],
      "stateMutability": "nonpayable",
      "type": "function"
    },
    {
      "inputs": [
        {
          "internalType": "bytes32",
          "name": "_requestId",
          "type": "bytes32"
        },
        {
          "internalType": "uint256",
          "name": "_payment",
          "type": "uint256"
        },
        {
          "internalType": "bytes4",
          "name": "_callbackFunctionId",
          "type": "bytes4"
        },
        {
          "internalType": "uint256",
          "name": "_expiration",
          "type": "uint256"
        }
      ],
      "name": "cancelRequest",
      "outputs": [],
      "stateMutability": "nonpayable",
      "type": "function"
    },
    {
      "inputs": [],
      "name": "currentPrice",
      "outputs": [
        {
          "internalType": "uint256",
          "name": "",
          "type": "uint256"
        }
      ],
      "stateMutability": "view",
      "type": "function"
    },
    {
      "inputs": [
        {
          "internalType": "bytes32",
          "name": "_requestId",
          "type": "bytes32"
        },
        {
          "internalType": "uint256",
          "name": "_price",
          "type": "uint256"
        }
      ],
      "name": "fulfillEthereumPrice",
      "outputs": [],
      "stateMutability": "nonpayable",
      "type": "function"
    },
    {
      "inputs": [],
      "name": "getChainlinkToken",
      "outputs": [
        {
          "internalType": "address",
          "name": "",
          "type": "address"
        }
      ],
      "stateMutability": "view",
      "type": "function"
    },
    {
      "inputs": [],
      "name": "owner",
      "outputs": [
        {
          "internalType": "address",
          "name": "",
          "type": "address"
        }
      ],
      "stateMutability": "view",
      "type": "function"
    },
    {
      "inputs": [
        {
          "internalType": "address",
          "name": "_oracle",
          "type": "address"
        },
        {
          "internalType": "string",
          "name": "_jobId",
          "type": "string"
        }
      ],
      "name": "requestEthereumPrice",
      "outputs": [],
      "stateMutability": "nonpayable",
      "type": "function"
    },
    {
      "inputs": [
        {
          "internalType": "address",
          "name": "to",
          "type": "address"
        }
      ],
      "name": "transferOwnership",
      "outputs": [],
      "stateMutability": "nonpayable",
      "type": "function"
    },
    {
      "inputs": [],
      "name": "withdrawLink",
      "outputs": [],
      "stateMutability": "nonpayable",
      "type": "function"
    }
  ],
  "bytecode": "0x6080604052600160045534801561001557600080fd5b50338060008161006c5760405162461bcd60e51b815260206004820152601860248201527f43616e6e6f7420736574206f776e657220746f207a65726f000000000000000060448201526064015b60405180910390fd5b600680546001600160a01b0319166001600160a01b038481169190911790915581161561009c5761009c816100c7565b5050506100c273779877a7b0d9e8603169ddbd7836e478b462478961017160201b60201c565b610193565b336001600160a01b0382160361011f5760405162461bcd60e51b815260206004820152601760248201527f43616e6e6f74207472616e7366657220746f2073656c660000000000000000006044820152606401610063565b600780546001600160a01b0319166001600160a01b03838116918217909255600654604051919216907fed8889f560326eb138920d842192f0eb3dd22b4f139c87a2c57538e05bae127890600090a350565b600280546001600160a01b0319166001600160a01b0392909216919091179055565b6113b8806101a26000396000f3fe608060405234801561001057600080fd5b50600436106100935760003560e01c806392cdaaf31161006657806392cdaaf3146100e05780639d1b464a146100f3578063ab643c101461010a578063ec65d0f81461011d578063f2fde38b1461013057600080fd5b8063165d35e11461009857806379ba5097146100bd5780638da5cb5b146100c75780638dc654a2146100d8575b600080fd5b6100a0610143565b6040516001600160a01b0390911681526020015b60405180910390f35b6100c561015c565b005b6006546001600160a01b03166100a0565b6100c561020f565b6100c56100ee366004610f0e565b610353565b6100fc60085481565b6040519081526020016100b4565b6100c5610118366004610f62565b610443565b6100c561012b366004611024565b61054d565b6100c561013e366004611070565b610561565b60006101576002546001600160a01b031690565b905090565b6007546001600160a01b031633146101b45760405162461bcd60e51b815260206004820152601660248201527526bab9ba10313290383937b837b9b2b21037bbb732b960511b60448201526064015b60405180910390fd5b600680546001600160a01b0319808216339081179093556007805490911690556040516001600160a01b03909116919082907f8be0079c531659141344cd1fd0a4f28419497f9722a3daafe3b4186f6b6457e090600090a350565b610217610572565b600061022b6002546001600160a01b031690565b6040516370a0823160e01b81523060048201529091506001600160a01b0382169063a9059cbb90339083906370a0823190602401602060405180830381865afa15801561027c573d6000803e3d6000fd5b505050506040513d601f19601f820116820180604052508101906102a0919061108b565b6040516001600160e01b031960e085901b1681526001600160a01b03909216600483015260248201526044016020604051808303816000875af11580156102eb573d6000803e3d6000fd5b505050506040513d601f19601f8201168201806040525081019061030f91906110a4565b6103505760405162461bcd60e51b81526020600482015260126024820152712ab730b13632903a37903a3930b739b332b960711b60448201526064016101ab565b50565b60008281526005602052604090205482906001600160a01b031633146103cc5760405162461bcd60e51b815260206004820152602860248201527f536f75726365206d75737420626520746865206f7261636c65206f6620746865604482015267081c995c5d595cdd60c21b60648201526084016101ab565b60008181526005602052604080822080546001600160a01b03191690555182917f7cc135e0cebb02c3480ae5d74d377283180a2601f8f644edf7987b009316c63a91a2604051829084907f794eb9e29f6750ede99e05248d997a9ab9fa23c4a7eaff8afa729080eb7c642890600090a35060085550565b61044b610572565b6000610467610459836105c7565b306392cdaaf360e01b6105e6565b90506104a96040518060400160405280600381526020016219d95d60ea1b8152506040518060600160405280603f8152602001611344603f913983919061060b565b6104f5604051806040016040528060048152602001630e0c2e8d60e31b815250604051806040016040528060038152602001621554d160ea1b8152508361060b9092919063ffffffff16565b60408051808201909152600581526474696d657360d81b602082015261051e908290606461062e565b6105478382600a610538670de0b6b3a764000060016110dc565b6105429190611109565b61064c565b50505050565b610555610572565b610547848484846106df565b610569610572565b610350816107b1565b6006546001600160a01b031633146105c55760405162461bcd60e51b815260206004820152601660248201527527b7363c9031b0b63630b1363290313c9037bbb732b960511b60448201526064016101ab565b565b8051600090829082036105dd5750600092915050565b50506020015190565b6105ee610ed3565b6105f6610ed3565b6106028186868661085b565b95945050505050565b608083015161061a90836108a1565b608083015161062990826108a1565b505050565b608083015161063d90836108a1565b608083015161062990826108b8565b60045460009061065d81600161111d565b600455835160408086015160808701515191516000936320214ca360e11b936106959386938493923092918a91600191602401611176565b60408051601f198184030181529190526020810180516001600160e01b03166001600160e01b03199093169290921790915290506106d58683868461091c565b9695505050505050565b60008481526005602052604080822080546001600160a01b0319811690915590516001600160a01b039091169186917fe1fe3afa0f7f761ff0a8b89086790efd5140d2907ebd5b7ff6bfcb5e075fd4c59190a2604051636ee4d55360e01b815260048101869052602481018590526001600160e01b031984166044820152606481018390526001600160a01b03821690636ee4d55390608401600060405180830381600087803b15801561079257600080fd5b505af11580156107a6573d6000803e3d6000fd5b505050505050505050565b336001600160a01b038216036108095760405162461bcd60e51b815260206004820152601760248201527f43616e6e6f74207472616e7366657220746f2073656c6600000000000000000060448201526064016101ab565b600780546001600160a01b0319166001600160a01b03838116918217909255600654604051919216907fed8889f560326eb138920d842192f0eb3dd22b4f139c87a2c57538e05bae127890600090a350565b610863610ed3565b6108738560800151610100610a7a565b50508284526001600160a01b03821660208501526001600160e01b031981166040850152835b949350505050565b6108ae8260038351610ae5565b6106298282610bf4565b67ffffffffffffffff198112156108d7576108d38282610c22565b5050565b67ffffffffffffffff8113156108f1576108d38282610c64565b60008112610905576108d382600083610ae5565b6108d3826001610917846000196111de565b610ae5565b6040516bffffffffffffffffffffffff193060601b1660208201526034810184905260009060540160408051808303601f1901815282825280516020918201206000818152600590925291812080546001600160a01b0319166001600160a01b038a1617905590925082917fb5e6e01e79f91267dc17b4e6314d5d4d03593d2ceee0fbb452b750bd70ea5af99190a2600254604051630200057560e51b81526001600160a01b0390911690634000aea0906109df90889087908790600401611205565b6020604051808303816000875af11580156109fe573d6000803e3d6000fd5b505050506040513d601f19601f82011682018060405250810190610a2291906110a4565b6108995760405162461bcd60e51b815260206004820152602360248201527f756e61626c6520746f207472616e73666572416e6443616c6c20746f206f7261604482015262636c6560e81b60648201526084016101ab565b604080518082019091526060815260006020820152610a9a60208361122c565b15610ac257610aaa60208361122c565b610ab5906020611240565b610abf908361111d565b91505b506020808301829052604080518085526000815283019091019052815b92915050565b60178167ffffffffffffffff1611610b0a576105478360e0600585901b168317610c87565b60ff8167ffffffffffffffff1611610b4857610b31836018611fe0600586901b1617610c87565b506105478367ffffffffffffffff83166001610cac565b61ffff8167ffffffffffffffff1611610b8757610b70836019611fe0600586901b1617610c87565b506105478367ffffffffffffffff83166002610cac565b63ffffffff8167ffffffffffffffff1611610bc857610bb183601a611fe0600586901b1617610c87565b506105478367ffffffffffffffff83166004610cac565b610bdd83601b611fe0600586901b1617610c87565b506105478367ffffffffffffffff83166008610cac565b604080518082019091526060815260006020820152610c1b83846000015151848551610cd2565b9392505050565b610c2d8260c3610c87565b506108d382610c3e836000196111de565b604051602001610c5091815260200190565b604051602081830303815290604052610dbc565b610c6f8260c2610c87565b506108d38282604051602001610c5091815260200190565b604080518082019091526060815260006020820152610c1b8384600001515184610dc9565b604080518082019091526060815260006020820152610899848560000151518585610e24565b6040805180820190915260608152600060208201528251821115610cf557600080fd5b6020850151610d04838661111d565b1115610d3757610d3785610d2787602001518786610d22919061111d565b610ea5565b610d329060026110dc565b610ebc565b600080865180518760208301019350808887011115610d565787860182525b505050602084015b60208410610d965780518252610d7560208361111d565b9150610d8260208261111d565b9050610d8f602085611240565b9350610d5e565b51815160001960208690036101000a019081169019919091161790525083949350505050565b6108ae8260028351610ae5565b60408051808201909152606081526000602082015283602001518310610dfe57610dfe8485602001516002610d3291906110dc565b8351805160208583010184815350808503610e1a576001810182525b5093949350505050565b6040805180820190915260608152600060208201526020850151610e48858461111d565b1115610e5c57610e5c85610d27868561111d565b60006001610e6c84610100611337565b610e769190611240565b9050855183868201018583198251161781525080518487011115610e9a5783860181525b509495945050505050565b600081831115610eb6575081610adf565b50919050565b8151610ec88383610a7a565b506105478382610bf4565b6040805160a0810182526000808252602080830182905282840182905260608084018390528451808601909552845283015290608082015290565b60008060408385031215610f2157600080fd5b50508035926020909101359150565b80356001600160a01b0381168114610f4757600080fd5b919050565b634e487b7160e01b600052604160045260246000fd5b60008060408385031215610f7557600080fd5b610f7e83610f30565b9150602083013567ffffffffffffffff80821115610f9b57600080fd5b818501915085601f830112610faf57600080fd5b813581811115610fc157610fc1610f4c565b604051601f8201601f19908116603f01168101908382118183101715610fe957610fe9610f4c565b8160405282815288602084870101111561100257600080fd5b8260208601602083013760006020848301015280955050505050509250929050565b6000806000806080858703121561103a57600080fd5b843593506020850135925060408501356001600160e01b03198116811461106057600080fd5b9396929550929360600135925050565b60006020828403121561108257600080fd5b610c1b82610f30565b60006020828403121561109d57600080fd5b5051919050565b6000602082840312156110b657600080fd5b81518015158114610c1b57600080fd5b634e487b7160e01b600052601160045260246000fd5b8082028115828204841417610adf57610adf6110c6565b634e487b7160e01b600052601260045260246000fd5b600082611118576111186110f3565b500490565b80820180821115610adf57610adf6110c6565b6000815180845260005b818110156111565760208185018101518683018201520161113a565b506000602082860101526020601f19601f83011685010191505092915050565b6001600160a01b0389811682526020820189905260408201889052861660608201526001600160e01b03198516608082015260a0810184905260c0810183905261010060e082018190526000906111cf83820185611130565b9b9a5050505050505050505050565b81810360008312801583831316838312821617156111fe576111fe6110c6565b5092915050565b60018060a01b03841681528260208201526060604082015260006106026060830184611130565b60008261123b5761123b6110f3565b500690565b81810381811115610adf57610adf6110c6565b600181815b8085111561128e578160001904821115611274576112746110c6565b8085161561128157918102915b93841c9390800290611258565b509250929050565b6000826112a557506001610adf565b816112b257506000610adf565b81600181146112c857600281146112d2576112ee565b6001915050610adf565b60ff8411156112e3576112e36110c6565b50506001821b610adf565b5060208310610133831016604e8410600b8410161715611311575081810a610adf565b61131b8383611253565b806000190482111561132f5761132f6110c6565b029392505050565b6000610c1b838361129656fe68747470733a2f2f6d696e2d6170692e63727970746f636f6d706172652e636f6d2f646174612f70726963653f6673796d3d455448267473796d733d555344a2646970667358221220d44c9d0fb6cbf38d7618e0f638e10b11ca4f260b7f92684ed3d2ac927926526664736f6c63430008130033",
  "linkReferences": {},
  "deployedLinkReferences": {}
}