{"@chainlink/contracts/src/v0.8/operatorforwarder/Operator.sol":{"Operator":{"abi":[{"inputs":[{"internalType":"address","name":"link","type":"address"},{"internalType":"address","name":"owner","type":"address"}],"stateMutability":"nonpayable","type":"constructor"},{"anonymous":false,"inputs":[{"indexed":false,"internalType":"address[]","name":"senders","type":"address[]"},{"indexed":false,"internalType":"address","name":"changedBy","type":"address"}],"name":"AuthorizedSendersChanged","type":"event"},{"anonymous":false,"inputs":[{"indexed":true,"internalType":"bytes32","name":"requestId","type":"bytes32"}],"name":"CancelOracleRequest","type":"event"},{"anonymous":false,"inputs":[{"indexed":true,"internalType":"bytes32","name":"specId","type":"bytes32"},{"indexed":false,"internalType":"address","name":"requester","type":"address"},{"indexed":false,"internalType":"bytes32","name":"requestId","type":"bytes32"},{"indexed":false,"internalType":"uint256","name":"payment","type":"uint256"},{"indexed":false,"internalType":"address","name":"callbackAddr","type":"address"},{"indexed":false,"internalType":"bytes4","name":"callbackFunctionId","type":"bytes4"},{"indexed":false,"internalType":"uint256","name":"cancelExpiration","type":"uint256"},{"indexed":false,"internalType":"uint256","name":"dataVersion","type":"uint256"},{"indexed":false,"internalType":"bytes","name":"data","type":"bytes"}],"name":"OracleRequest","type":"event"},{"anonymous":false,"inputs":[{"indexed":true,"internalType":"bytes32","name":"requestId","type":"bytes32"}],"name":"OracleResponse","type":"event"},{"anonymous":false,"inputs":[{"indexed":true,"internalType":"address","name":"acceptedContract","type":"address"}],"name":"OwnableContractAccepted","type":"event"},{"anonymous":false,"inputs":[{"indexed":true,"internalType":"address","name":"from","type":"address"},{"indexed":true,"internalType":"address","name":"to","type":"address"}],"name":"OwnershipTransferRequested","type":"event"},{"anonymous":false,"inputs":[{"indexed":true,"internalType":"address","name":"from","type":"address"},{"indexed":true,"internalType":"address","name":"to","type":"address"}],"name":"OwnershipTransferred","type":"event"},{"anonymous":false,"inputs":[{"indexed":false,"internalType":"address[]","name":"targets","type":"address[]"},{"indexed":false,"internalType":"address[]","name":"senders","type":"address[]"},{"indexed":false,"internalType":"address","name":"changedBy","type":"address"}],"name":"TargetsUpdatedAuthorizedSenders","type":"event"},{"inputs":[],"name":"EXPIRYTIME","outputs":[{"internalType":"uint256","name":"","type":"uint256"}],"stateMutability":"view","type":"function"},{"inputs":[{"internalType":"address[]","name":"targets","type":"address[]"},{"internalType":"address[]","name":"senders","type":"address[]"}],"name":"acceptAuthorizedReceivers","outputs":[],"stateMutability":"nonpayable","type":"function"},{"inputs":[{"internalType":"address[]","name":"ownable","type":"address[]"}],"name":"acceptOwnableContracts","outputs":[],"stateMutability":"nonpayable","type":"function"},{"inputs":[],"name":"acceptOwnership","outputs":[],"stateMutability":"nonpayable","type":"function"},{"inputs":[{"internalType":"bytes32","name":"requestId","type":"bytes32"},{"internalType":"uint256","name":"payment","type":"uint256"},{"internalType":"bytes4","name":"callbackFunc","type":"bytes4"},{"internalType":"uint256","name":"expiration","type":"uint256"}],"name":"cancelOracleRequest","outputs":[],"stateMutability":"nonpayable","type":"function"},{"inputs":[{"internalType":"uint256","name":"nonce","type":"uint256"},{"internalType":"uint256","name":"payment","type":"uint256"},{"internalType":"bytes4","name":"callbackFunc","type":"bytes4"},{"internalType":"uint256","name":"expiration","type":"uint256"}],"name":"cancelOracleRequestByRequester","outputs":[],"stateMutability":"nonpayable","type":"function"},{"inputs":[{"internalType":"address payable[]","name":"receivers","type":"address[]"},{"internalType":"uint256[]","name":"amounts","type":"uint256[]"}],"name":"distributeFunds","outputs":[],"stateMutability":"payable","type":"function"},{"inputs":[{"internalType":"bytes32","name":"requestId","type":"bytes32"},{"internalType":"uint256","name":"payment","type":"uint256"},{"internalType":"address","name":"callbackAddress","type":"address"},{"internalType":"bytes4","name":"callbackFunctionId","type":"bytes4"},{"internalType":"uint256","name":"expiration","type":"uint256"},{"internalType":"bytes32","name":"data","type":"bytes32"}],"name":"fulfillOracleRequest","outputs":[{"internalType":"bool","name":"","type":"bool"}],"stateMutability":"nonpayable","type":"function"},{"inputs":[{"internalType":"bytes32","name":"requestId","type":"bytes32"},{"internalType":"uint256","name":"payment","type":"uint256"},{"internalType":"address","name":"callbackAddress","type":"address"},{"internalType":"bytes4","name":"callbackFunctionId","type":"bytes4"},{"internalType":"uint256","name":"expiration","type":"uint256"},{"internalType":"bytes","name":"data","type":"bytes"}],"name":"fulfillOracleRequest2","outputs":[{"internalType":"bool","name":"","type":"bool"}],"stateMutability":"nonpayable","type":"function"},{"inputs":[],"name":"getAuthorizedSenders","outputs":[{"internalType":"address[]","name":"","type":"address[]"}],"stateMutability":"view","type":"function"},{"inputs":[],"name":"getChainlinkToken","outputs":[{"internalType":"address","name":"","type":"address"}],"stateMutability":"view","type":"function"},{"inputs":[{"internalType":"address","name":"sender","type":"address"}],"name":"isAuthorizedSender","outputs":[{"internalType":"bool","name":"","type":"bool"}],"stateMutability":"view","type":"function"},{"inputs":[{"internalType":"address","name":"sender","type":"address"},{"internalType":"uint256","name":"amount","type":"uint256"},{"internalType":"bytes","name":"data","type":"bytes"}],"name":"onTokenTransfer","outputs":[],"stateMutability":"nonpayable","type":"function"},{"inputs":[{"internalType":"address","name":"sender","type":"address"},{"internalType":"uint256","name":"payment","type":"uint256"},{"internalType":"bytes32","name":"specId","type":"bytes32"},{"internalType":"bytes4","name":"callbackFunctionId","type":"bytes4"},{"internalType":"uint256","name":"nonce","type":"uint256"},{"internalType":"uint256","name":"dataVersion","type":"uint256"},{"internalType":"bytes","name":"data","type":"bytes"}],"name":"operatorRequest","outputs":[],"stateMutability":"nonpayable","type":"function"},{"inputs":[{"internalType":"address","name":"sender","type":"address"},{"internalType":"uint256","name":"payment","type":"uint256"},{"internalType":"bytes32","name":"specId","type":"bytes32"},{"internalType":"address","name":"callbackAddress","type":"address"},{"internalType":"bytes4","name":"callbackFunctionId","type":"bytes4"},{"internalType":"uint256","name":"nonce","type":"uint256"},{"internalType":"uint256","name":"dataVersion","type":"uint256"},{"internalType":"bytes","name":"data","type":"bytes"}],"name":"oracleRequest","outputs":[],"stateMutability":"nonpayable","type":"function"},{"inputs":[],"name":"owner","outputs":[{"internalType":"address","name":"","type":"address"}],"stateMutability":"view","type":"function"},{"inputs":[{"internalType":"address","name":"to","type":"address"},{"internalType":"bytes","name":"data","type":"bytes"}],"name":"ownerForward","outputs":[],"stateMutability":"nonpayable","type":"function"},{"inputs":[{"internalType":"address","name":"to","type":"address"},{"internalType":"uint256","name":"value","type":"uint256"},{"internalType":"bytes","name":"data","type":"bytes"}],"name":"ownerTransferAndCall","outputs":[{"internalType":"bool","name":"success","type":"bool"}],"stateMutability":"nonpayable","type":"function"},{"inputs":[{"internalType":"address[]","name":"senders","type":"address[]"}],"name":"setAuthorizedSenders","outputs":[],"stateMutability":"nonpayable","type":"function"},{"inputs":[{"internalType":"address[]","name":"targets","type":"address[]"},{"internalType":"address[]","name":"senders","type":"address[]"}],"name":"setAuthorizedSendersOn","outputs":[],"stateMutability":"nonpayable","type":"function"},{"inputs":[{"internalType":"address[]","name":"ownable","type":"address[]"},{"internalType":"address","name":"newOwner","type":"address"}],"name":"transferOwnableContracts","outputs":[],"stateMutability":"nonpayable","type":"function"},{"inputs":[{"internalType":"address","name":"to","type":"address"}],"name":"transferOwnership","outputs":[],"stateMutability":"nonpayable","type":"function"},{"inputs":[],"name":"typeAndVersion","outputs":[{"internalType":"string","name":"","type":"string"}],"stateMutability":"view","type":"function"},{"inputs":[{"internalType":"address","name":"recipient","type":"address"},{"internalType":"uint256","name":"amount","type":"uint256"}],"name":"withdraw","outputs":[],"stateMutability":"nonpayable","type":"function"},{"inputs":[],"name":"withdrawable","outputs":[{"internalType":"uint256","name":"","type":"uint256"}],"stateMutability":"view","type":"function"}],"evm":{"bytecode":{"linkReferences":{},"object":"60a060405260016006553480156200001657600080fd5b5060405162002d8b38038062002d8b8339810160408190526200003991620001ab565b808060006001600160a01b038216620000995760405162461bcd60e51b815260206004820152601860248201527f43616e6e6f7420736574206f776e657220746f207a65726f000000000000000060448201526064015b60405180910390fd5b600280546001600160a01b0319166001600160a01b0384811691909117909155811615620000cc57620000cc81620000e2565b505050506001600160a01b0316608052620001e3565b336001600160a01b038216036200013c5760405162461bcd60e51b815260206004820152601760248201527f43616e6e6f74207472616e7366657220746f2073656c66000000000000000000604482015260640162000090565b600380546001600160a01b0319166001600160a01b03838116918217909255600254604051919216907fed8889f560326eb138920d842192f0eb3dd22b4f139c87a2c57538e05bae127890600090a350565b80516001600160a01b0381168114620001a657600080fd5b919050565b60008060408385031215620001bf57600080fd5b620001ca836200018e565b9150620001da602084016200018e565b90509250929050565b608051612b4d6200023e600039600081816101bc0152818161066d0152818161085701528181610a0b015281816112c70152818161143b015281816114ce015281816118ac01528181611ac00152611dec0152612b4d6000f3fe6080604052600436106101665760003560e01c80636ae0bc76116100d1578063a4c0ed361161008a578063f2fde38b11610064578063f2fde38b14610451578063f3fef3a314610471578063fa00763a14610491578063fc4a03ed146104ca57600080fd5b8063a4c0ed36146103f1578063eb007d9914610411578063ee56997b1461043157600080fd5b80636ae0bc761461034b5780636bd59ec01461036b5780636ee4d5531461037e57806379ba50971461039e5780638da5cb5b146103b3578063902fc370146103d157600080fd5b80633ec5bc14116101235780633ec5bc141461028257806340429946146102a25780634ab0d190146102c257806350188301146102f257806352043783146103155780635ffa62881461032b57600080fd5b806301994b991461016b578063033f49f71461018d578063165d35e1146101ad578063181f5a77146101f95780632408afaa146102405780633c6d41b914610262575b600080fd5b34801561017757600080fd5b5061018b610186366004612167565b6104ea565b005b34801561019957600080fd5b5061018b6101a8366004612200565b610662565b3480156101b957600080fd5b507f00000000000000000000000000000000000000000000000000000000000000005b6040516001600160a01b0390911681526020015b60405180910390f35b34801561020557600080fd5b506102336040518060400160405280600e81526020016d04f70657261746f7220312e302e360941b81525081565b6040516101f09190612279565b34801561024c57600080fd5b506102556107ea565b6040516101f091906122ac565b34801561026e57600080fd5b5061018b61027d366004612316565b61084c565b34801561028e57600080fd5b5061018b61029d3660046123a3565b6108fd565b3480156102ae57600080fd5b5061018b6102bd3660046123fa565b610a00565b3480156102ce57600080fd5b506102e26102dd36600461249d565b610ab2565b60405190151581526020016101f0565b3480156102fe57600080fd5b50610307610cd7565b6040519081526020016101f0565b34801561032157600080fd5b5061030761012c81565b34801561033757600080fd5b5061018b6103463660046124f7565b610ce6565b34801561035757600080fd5b506102e2610366366004612563565b610d20565b61018b6103793660046124f7565b610fc4565b34801561038a57600080fd5b5061018b6103993660046125e7565b61119a565b3480156103aa57600080fd5b5061018b611344565b3480156103bf57600080fd5b506002546001600160a01b03166101dc565b3480156103dd57600080fd5b506102e26103ec366004612624565b6113f2565b3480156103fd57600080fd5b5061018b61040c36600461268a565b6114c3565b34801561041d57600080fd5b5061018b61042c3660046125e7565b6115d3565b34801561043d57600080fd5b5061018b61044c366004612167565b611615565b34801561045d57600080fd5b5061018b61046c366004612757565b611842565b34801561047d57600080fd5b5061018b61048c36600461277b565b611856565b34801561049d57600080fd5b506102e26104ac366004612757565b6001600160a01b031660009081526020819052604090205460ff1690565b3480156104d657600080fd5b5061018b6104e53660046124f7565b611925565b6104f2611a2a565b6105175760405162461bcd60e51b815260040161050e906127a7565b60405180910390fd5b60005b8181101561065d5760016005600085858581811061053a5761053a6127de565b905060200201602081019061054f9190612757565b6001600160a01b031681526020810191909152604001600020805460ff1916911515919091179055828282818110610589576105896127de565b905060200201602081019061059e9190612757565b6001600160a01b03167f615a0c1cb00a60d4acd77ec67acf2f17f223ef0932d591052fabc33643fe7e8260405160405180910390a28282828181106105e5576105e56127de565b90506020020160208101906105fa9190612757565b6001600160a01b03166379ba50976040518163ffffffff1660e01b8152600401600060405180830381600087803b15801561063457600080fd5b505af1158015610648573d6000803e3d6000fd5b50505050806106569061280a565b905061051a565b505050565b61066a611a65565b827f00000000000000000000000000000000000000000000000000000000000000006001600160a01b0316816001600160a01b0316036106e25760405162461bcd60e51b815260206004820152601360248201527243616e6e6f742063616c6c20746f204c494e4b60681b604482015260640161050e565b836001600160a01b03163b60000361073c5760405162461bcd60e51b815260206004820152601a60248201527f4d75737420666f727761726420746f206120636f6e7472616374000000000000604482015260640161050e565b6000846001600160a01b03168484604051610758929190612823565b6000604051808303816000865af19150503d8060008114610795576040519150601f19603f3d011682016040523d82523d6000602084013e61079a565b606091505b50509050806107e35760405162461bcd60e51b8152602060048201526015602482015274119bdc9dd85c9919590818d85b1b0819985a5b1959605a1b604482015260640161050e565b5050505050565b6060600180548060200260200160405190810160405280929190818152602001828054801561084257602002820191906000526020600020905b81546001600160a01b03168152600190910190602001808311610824575b5050505050905090565b336001600160a01b037f000000000000000000000000000000000000000000000000000000000000000016146108945760405162461bcd60e51b815260040161050e90612833565b6000806108a58a8a8c8a8a8a611aba565b91509150877fd8d7ecc4800d25fa53ce0372f13a416d98907a7ef3d8d3bdd79cf4fe75529c658b848c8e8c878c8c8c6040516108e999989796959493929190612889565b60405180910390a250505050505050505050565b610905611a65565b60005b828110156109fa57600060056000868685818110610928576109286127de565b905060200201602081019061093d9190612757565b6001600160a01b031681526020810191909152604001600020805460ff1916911515919091179055838382818110610977576109776127de565b905060200201602081019061098c9190612757565b60405163f2fde38b60e01b81526001600160a01b038481166004830152919091169063f2fde38b90602401600060405180830381600087803b1580156109d157600080fd5b505af11580156109e5573d6000803e3d6000fd5b50505050806109f39061280a565b9050610908565b50505050565b336001600160a01b037f00000000000000000000000000000000000000000000000000000000000000001614610a485760405162461bcd60e51b815260040161050e90612833565b600080610a598b8b8a8a8a8a611aba565b91509150887fd8d7ecc4800d25fa53ce0372f13a416d98907a7ef3d8d3bdd79cf4fe75529c658c848d8f8c878c8c8c604051610a9d99989796959493929190612889565b60405180910390a25050505050505050505050565b6000610abc611c58565b600087815260046020526040812054889160089190911b60ff19169003610b255760405162461bcd60e51b815260206004820152601b60248201527f4d757374206861766520612076616c6964207265717565737449640000000000604482015260640161050e565b6001600160a01b038616600090815260056020526040902054869060ff1615610b905760405162461bcd60e51b815260206004820152601a60248201527f43616e6e6f742063616c6c206f776e656420636f6e7472616374000000000000604482015260640161050e565b610b9f89898989896001611caf565b60405189907f9e9bc7616d42c2835d05ae617e508454e63b30b934be8aa932ebc125e0e58a6490600090a262061a805a1015610c1d5760405162461bcd60e51b815260206004820181905260248201527f4d7573742070726f7669646520636f6e73756d657220656e6f75676820676173604482015260640161050e565b6000876001600160a01b0316878b87604051602401610c46929190918252602082015260400190565b60408051601f198184030181529181526020820180516001600160e01b03166001600160e01b0319909416939093179092529051610c8491906128f3565b6000604051808303816000865af19150503d8060008114610cc1576040519150601f19603f3d011682016040523d82523d6000602084013e610cc6565b606091505b50909b9a5050505050505050505050565b6000610ce1611dc6565b905090565b610cee611a2a565b610d0a5760405162461bcd60e51b815260040161050e906127a7565b610d1484846104ea565b6109fa84848484611925565b6000610d2a611c58565b600088815260046020526040812054899160089190911b60ff19169003610d935760405162461bcd60e51b815260206004820152601b60248201527f4d757374206861766520612076616c6964207265717565737449640000000000604482015260640161050e565b6001600160a01b038716600090815260056020526040902054879060ff1615610dfe5760405162461bcd60e51b815260206004820152601a60248201527f43616e6e6f742063616c6c206f776e656420636f6e7472616374000000000000604482015260640161050e565b8985856020811015610e525760405162461bcd60e51b815260206004820152601b60248201527f526573706f6e7365206d757374206265203e2033322062797465730000000000604482015260640161050e565b8135838114610ea35760405162461bcd60e51b815260206004820152601c60248201527f466972737420776f7264206d7573742062652072657175657374496400000000604482015260640161050e565b610eb28e8e8e8e8e6002611caf565b6040518e907f9e9bc7616d42c2835d05ae617e508454e63b30b934be8aa932ebc125e0e58a6490600090a262061a805a1015610f305760405162461bcd60e51b815260206004820181905260248201527f4d7573742070726f7669646520636f6e73756d657220656e6f75676820676173604482015260640161050e565b60008c6001600160a01b03168c8b8b604051602001610f519392919061290f565b60408051601f1981840301815290829052610f6b916128f3565b6000604051808303816000865af19150503d8060008114610fa8576040519150601f19603f3d011682016040523d82523d6000602084013e610fad565b606091505b509098505050505050505050979650505050505050565b8215801590610fd257508281145b61101e5760405162461bcd60e51b815260206004820152601760248201527f496e76616c6964206172726179206c656e677468287329000000000000000000604482015260640161050e565b3460005b8481101561115757600084848381811061103e5761103e6127de565b90506020020135905080836110539190612933565b92506000878784818110611069576110696127de565b905060200201602081019061107e9190612757565b6001600160a01b03168260405160006040518083038185875af1925050503d80600081146110c8576040519150601f19603f3d011682016040523d82523d6000602084013e6110cd565b606091505b50509050806111445760405162461bcd60e51b815260206004820152603a60248201527f416464726573733a20756e61626c6520746f2073656e642076616c75652c207260448201527f6563697069656e74206d61792068617665207265766572746564000000000000606482015260840161050e565b5050806111509061280a565b9050611022565b5080156107e35760405162461bcd60e51b8152602060048201526011602482015270151bdbc81b5d58da08115512081cd95b9d607a1b604482015260640161050e565b60006111a884338585611e69565b60008681526004602052604090205490915060081b60ff19908116908216146112135760405162461bcd60e51b815260206004820152601e60248201527f506172616d7320646f206e6f74206d6174636820726571756573742049440000604482015260640161050e565b4282111561125c5760405162461bcd60e51b815260206004820152601660248201527514995c5d595cdd081a5cc81b9bdd08195e1c1a5c995960521b604482015260640161050e565b6000858152600460205260408082208290555186917fa7842b9ec549398102c0d91b1b9919b2f20558aefdadf57528a95c6cd3292e9391a283600660008282546112a69190612933565b909155505060405163a9059cbb60e01b8152336004820152602481018590527f00000000000000000000000000000000000000000000000000000000000000006001600160a01b03169063a9059cbb906044016020604051808303816000875af1158015611318573d6000803e3d6000fd5b505050506040513d601f19601f8201168201806040525081019061133c919061294c565b505050505050565b6003546001600160a01b031633146113975760405162461bcd60e51b815260206004820152601660248201527526bab9ba10313290383937b837b9b2b21037bbb732b960511b604482015260640161050e565b600280546001600160a01b0319808216339081179093556003805490911690556040516001600160a01b03909116919082907f8be0079c531659141344cd1fd0a4f28419497f9722a3daafe3b4186f6b6457e090600090a350565b60006113fc611a65565b8380611406611dc6565b10156114245760405162461bcd60e51b815260040161050e9061296e565b604051630200057560e51b81526001600160a01b037f00000000000000000000000000000000000000000000000000000000000000001690634000aea0906114769089908990899089906004016129c3565b6020604051808303816000875af1158015611495573d6000803e3d6000fd5b505050506040513d601f19601f820116820180604052508101906114b9919061294c565b9695505050505050565b336001600160a01b037f0000000000000000000000000000000000000000000000000000000000000000161461150b5760405162461bcd60e51b815260040161050e90612833565b6020810151819061151c8183611ebe565b8460248401528360448401526000306001600160a01b03168460405161154291906128f3565b600060405180830381855af49150503d806000811461157d576040519150601f19603f3d011682016040523d82523d6000602084013e611582565b606091505b505090508061133c5760405162461bcd60e51b815260206004820152601860248201527f556e61626c6520746f2063726561746520726571756573740000000000000000604482015260640161050e565b6040516001600160601b03193360601b166020820152603481018590526109fa906054016040516020818303038152906040528051906020012084848461119a565b61161d611a2a565b6116395760405162461bcd60e51b815260040161050e906127a7565b806116865760405162461bcd60e51b815260206004820152601b60248201527f4d7573742068617665206174206c6561737420312073656e6465720000000000604482015260640161050e565b60015460005b818110156116f0576000806000600184815481106116ac576116ac6127de565b6000918252602080832091909101546001600160a01b031683528201929092526040019020805460ff19169115159190911790556116e98161280a565b905061168c565b5060005b828110156117f457600080858584818110611711576117116127de565b90506020020160208101906117269190612757565b6001600160a01b0316815260208101919091526040016000205460ff16156117905760405162461bcd60e51b815260206004820152601f60248201527f4d757374206e6f742068617665206475706c69636174652073656e6465727300604482015260640161050e565b60016000808686858181106117a7576117a76127de565b90506020020160208101906117bc9190612757565b6001600160a01b031681526020810191909152604001600020805460ff19169115159190911790556117ed8161280a565b90506116f4565b50611801600184846120ac565b507ff263cfb3e4298332e776194610cf9fdc09ccb3ada8b9aa39764d882e11fbf0a083833360405161183593929190612a34565b60405180910390a1505050565b61184a611a65565b61185381611f9d565b50565b61185e611a65565b8080611868611dc6565b10156118865760405162461bcd60e51b815260040161050e9061296e565b60405163a9059cbb60e01b81526001600160a01b038481166004830152602482018490527f0000000000000000000000000000000000000000000000000000000000000000169063a9059cbb906044016020604051808303816000875af11580156118f5573d6000803e3d6000fd5b505050506040513d601f19601f82011682018060405250810190611919919061294c565b61065d5761065d612a60565b61192d611a2a565b6119495760405162461bcd60e51b815260040161050e906127a7565b7f1bb185903e2cb2f1b303523128b60e314dea81df4f8d9b7351cadd344f6e77278484848433604051611980959493929190612a76565b60405180910390a160005b838110156107e3578484828181106119a5576119a56127de565b90506020020160208101906119ba9190612757565b6001600160a01b031663ee56997b84846040518363ffffffff1660e01b81526004016119e7929190612ab8565b600060405180830381600087803b158015611a0157600080fd5b505af1158015611a15573d6000803e3d6000fd5b5050505080611a239061280a565b905061198b565b3360009081526020819052604081205460ff1680610ce1575033611a566002546001600160a01b031690565b6001600160a01b031614905090565b6002546001600160a01b03163314611ab85760405162461bcd60e51b815260206004820152601660248201527527b7363c9031b0b63630b1363290313c9037bbb732b960511b604482015260640161050e565b565b600080857f00000000000000000000000000000000000000000000000000000000000000006001600160a01b0316816001600160a01b031603611b355760405162461bcd60e51b815260206004820152601360248201527243616e6e6f742063616c6c20746f204c494e4b60681b604482015260640161050e565b6040516001600160601b031960608b901b1660208201526034810186905260540160408051808303601f1901815291815281516020928301206000818152600490935291205490935060081b60ff191615611bc95760405162461bcd60e51b8152602060048201526014602482015273135d5cdd081d5cd94818481d5b9a5c5d5948125160621b604482015260640161050e565b611bd561012c42612ad4565b91506000611be589898986611e69565b905060405180604001604052808260ff19168152602001611c0587612047565b60ff908116909152600086815260046020908152604090912083519390910151909116600160f81b0260089290921c919091179055600654611c48908a90612ad4565b6006555050965096945050505050565b3360009081526020819052604090205460ff16611ab85760405162461bcd60e51b81526020600482015260156024820152742737ba1030baba3437b934bd32b21039b2b73232b960591b604482015260640161050e565b6000611cbd86868686611e69565b60008881526004602052604090205490915060081b60ff1990811690821614611d285760405162461bcd60e51b815260206004820152601e60248201527f506172616d7320646f206e6f74206d6174636820726571756573742049440000604482015260640161050e565b611d3182612047565b60008881526004602052604090205460ff918216600160f81b9091049091161115611d9e5760405162461bcd60e51b815260206004820152601860248201527f446174612076657273696f6e73206d757374206d617463680000000000000000604482015260640161050e565b85600654611dac9190612933565b600655505050600093845250506004602052506040812055565b60006001600654611dd79190612933565b6040516370a0823160e01b81523060048201527f00000000000000000000000000000000000000000000000000000000000000006001600160a01b0316906370a0823190602401602060405180830381865afa158015611e3b573d6000803e3d6000fd5b505050506040513d601f19601f82011682018060405250810190611e5f9190612ae7565b610ce19190612933565b6040805160208082019690965260609490941b6001600160601b031916848201526001600160e01b03199290921660548401526058808401919091528151808403909101815260789092019052805191012090565b611eca60026020612b00565b611ed5906004612ad4565b81511015611f1e5760405162461bcd60e51b8152602060048201526016602482015275092dcecc2d8d2c840e4cae2eacae6e840d8cadccee8d60531b604482015260640161050e565b6001600160e01b03198216633c6d41b960e01b1480611f4d57506001600160e01b031982166320214ca360e11b145b611f995760405162461bcd60e51b815260206004820152601e60248201527f4d757374207573652077686974656c69737465642066756e6374696f6e730000604482015260640161050e565b5050565b336001600160a01b03821603611ff55760405162461bcd60e51b815260206004820152601760248201527f43616e6e6f74207472616e7366657220746f2073656c66000000000000000000604482015260640161050e565b600380546001600160a01b0319166001600160a01b03838116918217909255600254604051919216907fed8889f560326eb138920d842192f0eb3dd22b4f139c87a2c57538e05bae127890600090a350565b600060ff8211156120a85760405162461bcd60e51b815260206004820152602560248201527f53616665436173743a2076616c756520646f65736e27742066697420696e2038604482015264206269747360d81b606482015260840161050e565b5090565b8280548282559060005260206000209081019282156120ff579160200282015b828111156120ff5781546001600160a01b0319166001600160a01b038435161782556020909201916001909101906120cc565b506120a89291505b808211156120a85760008155600101612107565b60008083601f84011261212d57600080fd5b50813567ffffffffffffffff81111561214557600080fd5b6020830191508360208260051b850101111561216057600080fd5b9250929050565b6000806020838503121561217a57600080fd5b823567ffffffffffffffff81111561219157600080fd5b61219d8582860161211b565b90969095509350505050565b6001600160a01b038116811461185357600080fd5b60008083601f8401126121d057600080fd5b50813567ffffffffffffffff8111156121e857600080fd5b60208301915083602082850101111561216057600080fd5b60008060006040848603121561221557600080fd5b8335612220816121a9565b9250602084013567ffffffffffffffff81111561223c57600080fd5b612248868287016121be565b9497909650939450505050565b60005b83811015612270578181015183820152602001612258565b50506000910152565b6020815260008251806020840152612298816040850160208701612255565b601f01601f19169190910160400192915050565b6020808252825182820181905260009190848201906040850190845b818110156122ed5783516001600160a01b0316835292840192918401916001016122c8565b50909695505050505050565b80356001600160e01b03198116811461231157600080fd5b919050565b60008060008060008060008060e0898b03121561233257600080fd5b883561233d816121a9565b9750602089013596506040890135955061235960608a016122f9565b94506080890135935060a0890135925060c089013567ffffffffffffffff81111561238357600080fd5b61238f8b828c016121be565b999c989b5096995094979396929594505050565b6000806000604084860312156123b857600080fd5b833567ffffffffffffffff8111156123cf57600080fd5b6123db8682870161211b565b90945092505060208401356123ef816121a9565b809150509250925092565b60008060008060008060008060006101008a8c03121561241957600080fd5b8935612424816121a9565b985060208a0135975060408a0135965060608a0135612442816121a9565b955061245060808b016122f9565b945060a08a0135935060c08a0135925060e08a013567ffffffffffffffff81111561247a57600080fd5b6124868c828d016121be565b915080935050809150509295985092959850929598565b60008060008060008060c087890312156124b657600080fd5b863595506020870135945060408701356124cf816121a9565b93506124dd606088016122f9565b92506080870135915060a087013590509295509295509295565b6000806000806040858703121561250d57600080fd5b843567ffffffffffffffff8082111561252557600080fd5b6125318883890161211b565b9096509450602087013591508082111561254a57600080fd5b506125578782880161211b565b95989497509550505050565b600080600080600080600060c0888a03121561257e57600080fd5b87359650602088013595506040880135612597816121a9565b94506125a5606089016122f9565b93506080880135925060a088013567ffffffffffffffff8111156125c857600080fd5b6125d48a828b016121be565b989b979a50959850939692959293505050565b600080600080608085870312156125fd57600080fd5b8435935060208501359250612614604086016122f9565b9396929550929360600135925050565b6000806000806060858703121561263a57600080fd5b8435612645816121a9565b935060208501359250604085013567ffffffffffffffff81111561266857600080fd5b612557878288016121be565b634e487b7160e01b600052604160045260246000fd5b60008060006060848603121561269f57600080fd5b83356126aa816121a9565b925060208401359150604084013567ffffffffffffffff808211156126ce57600080fd5b818601915086601f8301126126e257600080fd5b8135818111156126f4576126f4612674565b604051601f8201601f19908116603f0116810190838211818310171561271c5761271c612674565b8160405282815289602084870101111561273557600080fd5b8260208601602083013760006020848301015280955050505050509250925092565b60006020828403121561276957600080fd5b8135612774816121a9565b9392505050565b6000806040838503121561278e57600080fd5b8235612799816121a9565b946020939093013593505050565b6020808252601d908201527f43616e6e6f742073657420617574686f72697a65642073656e64657273000000604082015260600190565b634e487b7160e01b600052603260045260246000fd5b634e487b7160e01b600052601160045260246000fd5b60006001820161281c5761281c6127f4565b5060010190565b8183823760009101908152919050565b60208082526013908201527226bab9ba103ab9b2902624a725903a37b5b2b760691b604082015260600190565b81835281816020850137506000828201602090810191909152601f909101601f19169091010190565b6001600160a01b038a81168252602082018a905260408201899052871660608201526001600160e01b03198616608082015260a0810185905260c0810184905261010060e082018190526000906128e38382018587612860565b9c9b505050505050505050505050565b60008251612905818460208701612255565b9190910192915050565b6001600160e01b031984168152818360048301376000910160040190815292915050565b81810381811115612946576129466127f4565b92915050565b60006020828403121561295e57600080fd5b8151801515811461277457600080fd5b60208082526035908201527f416d6f756e74207265717565737465642069732067726561746572207468616e60408201527420776974686472617761626c652062616c616e636560581b606082015260800190565b60018060a01b03851681528360208201526060604082015260006114b9606083018486612860565b8183526000602080850194508260005b85811015612a29578135612a0e816121a9565b6001600160a01b0316875295820195908201906001016129fb565b509495945050505050565b604081526000612a486040830185876129eb565b905060018060a01b0383166020830152949350505050565b634e487b7160e01b600052600160045260246000fd5b606081526000612a8a6060830187896129eb565b8281036020840152612a9d8186886129eb565b91505060018060a01b03831660408301529695505050505050565b602081526000612acc6020830184866129eb565b949350505050565b80820180821115612946576129466127f4565b600060208284031215612af957600080fd5b5051919050565b8082028115828204841417612946576129466127f456fea264697066735822122073caa4e20a43aaf9e378989d943cd5e3c6335f5fe2bd80d62d88b9591c9d37e264736f6c63430008130033","opcodes":"PUSH1 0xA0 PUSH1 0x40 MSTORE PUSH1 0x1 PUSH1 0x6 SSTORE CALLVALUE DUP1 ISZERO PUSH3 0x16 JUMPI PUSH1 0x0 DUP1 REVERT JUMPDEST POP PUSH1 0x40 MLOAD PUSH3 0x2D8B CODESIZE SUB DUP1 PUSH3 0x2D8B DUP4 CODECOPY DUP2 ADD PUSH1 0x40 DUP2 SWAP1 MSTORE PUSH3 0x39 SWAP2 PUSH3 0x1AB JUMP JUMPDEST DUP1 DUP1 PUSH1 0x0 PUSH1 0x1 PUSH1 0x1 PUSH1 0xA0 SHL SUB DUP3 AND PUSH3 0x99 JUMPI PUSH1 0x40 MLOAD PUSH3 0x461BCD PUSH1 0xE5 SHL DUP2 MSTORE PUSH1 0x20 PUSH1 0x4 DUP3 ADD MSTORE PUSH1 0x18 PUSH1 0x24 DUP3 ADD MSTORE PUSH32 0x43616E6E6F7420736574206F776E657220746F207A65726F0000000000000000 PUSH1 0x44 DUP3 ADD MSTORE PUSH1 0x64 ADD JUMPDEST PUSH1 0x40 MLOAD DUP1 SWAP2 SUB SWAP1 REVERT JUMPDEST PUSH1 0x2 DUP1 SLOAD PUSH1 0x1 PUSH1 0x1 PUSH1 0xA0 SHL SUB NOT AND PUSH1 0x1 PUSH1 0x1 PUSH1 0xA0 SHL SUB DUP5 DUP2 AND SWAP2 SWAP1 SWAP2 OR SWAP1 SWAP2 SSTORE DUP2 AND ISZERO PUSH3 0xCC JUMPI PUSH3 0xCC DUP2 PUSH3 0xE2 JUMP JUMPDEST POP POP POP POP PUSH1 0x1 PUSH1 0x1 PUSH1 0xA0 SHL SUB AND PUSH1 0x80 MSTORE PUSH3 0x1E3 JUMP JUMPDEST CALLER PUSH1 0x1 PUSH1 0x1 PUSH1 0xA0 SHL SUB DUP3 AND SUB PUSH3 0x13C JUMPI PUSH1 0x40 MLOAD PUSH3 0x461BCD PUSH1 0xE5 SHL DUP2 MSTORE PUSH1 0x20 PUSH1 0x4 DUP3 ADD MSTORE PUSH1 0x17 PUSH1 0x24 DUP3 ADD MSTORE PUSH32 0x43616E6E6F74207472616E7366657220746F2073656C66000000000000000000 PUSH1 0x44 DUP3 ADD MSTORE PUSH1 0x64 ADD PUSH3 0x90 JUMP JUMPDEST PUSH1 0x3 DUP1 SLOAD PUSH1 0x1 PUSH1 0x1 PUSH1 0xA0 SHL SUB NOT AND PUSH1 0x1 PUSH1 0x1 PUSH1 0xA0 SHL SUB DUP4 DUP2 AND SWAP2 DUP3 OR SWAP1 SWAP3 SSTORE PUSH1 0x2 SLOAD PUSH1 0x40 MLOAD SWAP2 SWAP3 AND SWAP1 PUSH32 0xED8889F560326EB138920D842192F0EB3DD22B4F139C87A2C57538E05BAE1278 SWAP1 PUSH1 0x0 SWAP1 LOG3 POP JUMP JUMPDEST DUP1 MLOAD PUSH1 0x1 PUSH1 0x1 PUSH1 0xA0 SHL SUB DUP2 AND DUP2 EQ PUSH3 0x1A6 JUMPI PUSH1 0x0 DUP1 REVERT JUMPDEST SWAP2 SWAP1 POP JUMP JUMPDEST PUSH1 0x0 DUP1 PUSH1 0x40 DUP4 DUP6 SUB SLT ISZERO PUSH3 0x1BF JUMPI PUSH1 0x0 DUP1 REVERT JUMPDEST PUSH3 0x1CA DUP4 PUSH3 0x18E JUMP JUMPDEST SWAP2 POP PUSH3 0x1DA PUSH1 0x20 DUP5 ADD PUSH3 0x18E JUMP JUMPDEST SWAP1 POP SWAP3 POP SWAP3 SWAP1 POP JUMP JUMPDEST PUSH1 0x80 MLOAD PUSH2 0x2B4D PUSH3 0x23E PUSH1 0x0 CODECOPY PUSH1 0x0 DUP2 DUP2 PUSH2 0x1BC ADD MSTORE DUP2 DUP2 PUSH2 0x66D ADD MSTORE DUP2 DUP2 PUSH2 0x857 ADD MSTORE DUP2 DUP2 PUSH2 0xA0B ADD MSTORE DUP2 DUP2 PUSH2 0x12C7 ADD MSTORE DUP2 DUP2 PUSH2 0x143B ADD MSTORE DUP2 DUP2 PUSH2 0x14CE ADD MSTORE DUP2 DUP2 PUSH2 0x18AC ADD MSTORE DUP2 DUP2 PUSH2 0x1AC0 ADD MSTORE PUSH2 0x1DEC ADD MSTORE PUSH2 0x2B4D PUSH1 0x0 RETURN INVALID PUSH1 0x80 PUSH1 0x40 MSTORE PUSH1 0x4 CALLDATASIZE LT PUSH2 0x166 JUMPI PUSH1 0x0 CALLDATALOAD PUSH1 0xE0 SHR DUP1 PUSH4 0x6AE0BC76 GT PUSH2 0xD1 JUMPI DUP1 PUSH4 0xA4C0ED36 GT PUSH2 0x8A JUMPI DUP1 PUSH4 0xF2FDE38B GT PUSH2 0x64 JUMPI DUP1 PUSH4 0xF2FDE38B EQ PUSH2 0x451 JUMPI DUP1 PUSH4 0xF3FEF3A3 EQ PUSH2 0x471 JUMPI DUP1 PUSH4 0xFA00763A EQ PUSH2 0x491 JUMPI DUP1 PUSH4 0xFC4A03ED EQ PUSH2 0x4CA JUMPI PUSH1 0x0 DUP1 REVERT JUMPDEST DUP1 PUSH4 0xA4C0ED36 EQ PUSH2 0x3F1 JUMPI DUP1 PUSH4 0xEB007D99 EQ PUSH2 0x411 JUMPI DUP1 PUSH4 0xEE56997B EQ PUSH2 0x431 JUMPI PUSH1 0x0 DUP1 REVERT JUMPDEST DUP1 PUSH4 0x6AE0BC76 EQ PUSH2 0x34B JUMPI DUP1 PUSH4 0x6BD59EC0 EQ PUSH2 0x36B JUMPI DUP1 PUSH4 0x6EE4D553 EQ PUSH2 0x37E JUMPI DUP1 PUSH4 0x79BA5097 EQ PUSH2 0x39E JUMPI DUP1 PUSH4 0x8DA5CB5B EQ PUSH2 0x3B3 JUMPI DUP1 PUSH4 0x902FC370 EQ PUSH2 0x3D1 JUMPI PUSH1 0x0 DUP1 REVERT JUMPDEST DUP1 PUSH4 0x3EC5BC14 GT PUSH2 0x123 JUMPI DUP1 PUSH4 0x3EC5BC14 EQ PUSH2 0x282 JUMPI DUP1 PUSH4 0x40429946 EQ PUSH2 0x2A2 JUMPI DUP1 PUSH4 0x4AB0D190 EQ PUSH2 0x2C2 JUMPI DUP1 PUSH4 0x50188301 EQ PUSH2 0x2F2 JUMPI DUP1 PUSH4 0x52043783 EQ PUSH2 0x315 JUMPI DUP1 PUSH4 0x5FFA6288 EQ PUSH2 0x32B JUMPI PUSH1 0x0 DUP1 REVERT JUMPDEST DUP1 PUSH4 0x1994B99 EQ PUSH2 0x16B JUMPI DUP1 PUSH4 0x33F49F7 EQ PUSH2 0x18D JUMPI DUP1 PUSH4 0x165D35E1 EQ PUSH2 0x1AD JUMPI DUP1 PUSH4 0x181F5A77 EQ PUSH2 0x1F9 JUMPI DUP1 PUSH4 0x2408AFAA EQ PUSH2 0x240 JUMPI DUP1 PUSH4 0x3C6D41B9 EQ PUSH2 0x262 JUMPI JUMPDEST PUSH1 0x0 DUP1 REVERT JUMPDEST CALLVALUE DUP1 ISZERO PUSH2 0x177 JUMPI PUSH1 0x0 DUP1 REVERT JUMPDEST POP PUSH2 0x18B PUSH2 0x186 CALLDATASIZE PUSH1 0x4 PUSH2 0x2167 JUMP JUMPDEST PUSH2 0x4EA JUMP JUMPDEST STOP JUMPDEST CALLVALUE DUP1 ISZERO PUSH2 0x199 JUMPI PUSH1 0x0 DUP1 REVERT JUMPDEST POP PUSH2 0x18B PUSH2 0x1A8 CALLDATASIZE PUSH1 0x4 PUSH2 0x2200 JUMP JUMPDEST PUSH2 0x662 JUMP JUMPDEST CALLVALUE DUP1 ISZERO PUSH2 0x1B9 JUMPI PUSH1 0x0 DUP1 REVERT JUMPDEST POP PUSH32 0x0 JUMPDEST PUSH1 0x40 MLOAD PUSH1 0x1 PUSH1 0x1 PUSH1 0xA0 SHL SUB SWAP1 SWAP2 AND DUP2 MSTORE PUSH1 0x20 ADD JUMPDEST PUSH1 0x40 MLOAD DUP1 SWAP2 SUB SWAP1 RETURN JUMPDEST CALLVALUE DUP1 ISZERO PUSH2 0x205 JUMPI PUSH1 0x0 DUP1 REVERT JUMPDEST POP PUSH2 0x233 PUSH1 0x40 MLOAD DUP1 PUSH1 0x40 ADD PUSH1 0x40 MSTORE DUP1 PUSH1 0xE DUP2 MSTORE PUSH1 0x20 ADD PUSH14 0x4F70657261746F7220312E302E3 PUSH1 0x94 SHL DUP2 MSTORE POP DUP2 JUMP JUMPDEST PUSH1 0x40 MLOAD PUSH2 0x1F0 SWAP2 SWAP1 PUSH2 0x2279 JUMP JUMPDEST CALLVALUE DUP1 ISZERO PUSH2 0x24C JUMPI PUSH1 0x0 DUP1 REVERT JUMPDEST POP PUSH2 0x255 PUSH2 0x7EA JUMP JUMPDEST PUSH1 0x40 MLOAD PUSH2 0x1F0 SWAP2 SWAP1 PUSH2 0x22AC JUMP JUMPDEST CALLVALUE DUP1 ISZERO PUSH2 0x26E JUMPI PUSH1 0x0 DUP1 REVERT JUMPDEST POP PUSH2 0x18B PUSH2 0x27D CALLDATASIZE PUSH1 0x4 PUSH2 0x2316 JUMP JUMPDEST PUSH2 0x84C JUMP JUMPDEST CALLVALUE DUP1 ISZERO PUSH2 0x28E JUMPI PUSH1 0x0 DUP1 REVERT JUMPDEST POP PUSH2 0x18B PUSH2 0x29D CALLDATASIZE PUSH1 0x4 PUSH2 0x23A3 JUMP JUMPDEST PUSH2 0x8FD JUMP JUMPDEST CALLVALUE DUP1 ISZERO PUSH2 0x2AE JUMPI PUSH1 0x0 DUP1 REVERT JUMPDEST POP PUSH2 0x18B PUSH2 0x2BD CALLDATASIZE PUSH1 0x4 PUSH2 0x23FA JUMP JUMPDEST PUSH2 0xA00 JUMP JUMPDEST CALLVALUE DUP1 ISZERO PUSH2 0x2CE JUMPI PUSH1 0x0 DUP1 REVERT JUMPDEST POP PUSH2 0x2E2 PUSH2 0x2DD CALLDATASIZE PUSH1 0x4 PUSH2 0x249D JUMP JUMPDEST PUSH2 0xAB2 JUMP JUMPDEST PUSH1 0x40 MLOAD SWAP1 ISZERO ISZERO DUP2 MSTORE PUSH1 0x20 ADD PUSH2 0x1F0 JUMP JUMPDEST CALLVALUE DUP1 ISZERO PUSH2 0x2FE JUMPI PUSH1 0x0 DUP1 REVERT JUMPDEST POP PUSH2 0x307 PUSH2 0xCD7 JUMP JUMPDEST PUSH1 0x40 MLOAD SWAP1 DUP2 MSTORE PUSH1 0x20 ADD PUSH2 0x1F0 JUMP JUMPDEST CALLVALUE DUP1 ISZERO PUSH2 0x321 JUMPI PUSH1 0x0 DUP1 REVERT JUMPDEST POP PUSH2 0x307 PUSH2 0x12C DUP2 JUMP JUMPDEST CALLVALUE DUP1 ISZERO PUSH2 0x337 JUMPI PUSH1 0x0 DUP1 REVERT JUMPDEST POP PUSH2 0x18B PUSH2 0x346 CALLDATASIZE PUSH1 0x4 PUSH2 0x24F7 JUMP JUMPDEST PUSH2 0xCE6 JUMP JUMPDEST CALLVALUE DUP1 ISZERO PUSH2 0x357 JUMPI PUSH1 0x0 DUP1 REVERT JUMPDEST POP PUSH2 0x2E2 PUSH2 0x366 CALLDATASIZE PUSH1 0x4 PUSH2 0x2563 JUMP JUMPDEST PUSH2 0xD20 JUMP JUMPDEST PUSH2 0x18B PUSH2 0x379 CALLDATASIZE PUSH1 0x4 PUSH2 0x24F7 JUMP JUMPDEST PUSH2 0xFC4 JUMP JUMPDEST CALLVALUE DUP1 ISZERO PUSH2 0x38A JUMPI PUSH1 0x0 DUP1 REVERT JUMPDEST POP PUSH2 0x18B PUSH2 0x399 CALLDATASIZE PUSH1 0x4 PUSH2 0x25E7 JUMP JUMPDEST PUSH2 0x119A JUMP JUMPDEST CALLVALUE DUP1 ISZERO PUSH2 0x3AA JUMPI PUSH1 0x0 DUP1 REVERT JUMPDEST POP PUSH2 0x18B PUSH2 0x1344 JUMP JUMPDEST CALLVALUE DUP1 ISZERO PUSH2 0x3BF JUMPI PUSH1 0x0 DUP1 REVERT JUMPDEST POP PUSH1 0x2 SLOAD PUSH1 0x1 PUSH1 0x1 PUSH1 0xA0 SHL SUB AND PUSH2 0x1DC JUMP JUMPDEST CALLVALUE DUP1 ISZERO PUSH2 0x3DD JUMPI PUSH1 0x0 DUP1 REVERT JUMPDEST POP PUSH2 0x2E2 PUSH2 0x3EC CALLDATASIZE PUSH1 0x4 PUSH2 0x2624 JUMP JUMPDEST PUSH2 0x13F2 JUMP JUMPDEST CALLVALUE DUP1 ISZERO PUSH2 0x3FD JUMPI PUSH1 0x0 DUP1 REVERT JUMPDEST POP PUSH2 0x18B PUSH2 0x40C CALLDATASIZE PUSH1 0x4 PUSH2 0x268A JUMP JUMPDEST PUSH2 0x14C3 JUMP JUMPDEST CALLVALUE DUP1 ISZERO PUSH2 0x41D JUMPI PUSH1 0x0 DUP1 REVERT JUMPDEST POP PUSH2 0x18B PUSH2 0x42C CALLDATASIZE PUSH1 0x4 PUSH2 0x25E7 JUMP JUMPDEST PUSH2 0x15D3 JUMP JUMPDEST CALLVALUE DUP1 ISZERO PUSH2 0x43D JUMPI PUSH1 0x0 DUP1 REVERT JUMPDEST POP PUSH2 0x18B PUSH2 0x44C CALLDATASIZE PUSH1 0x4 PUSH2 0x2167 JUMP JUMPDEST PUSH2 0x1615 JUMP JUMPDEST CALLVALUE DUP1 ISZERO PUSH2 0x45D JUMPI PUSH1 0x0 DUP1 REVERT JUMPDEST POP PUSH2 0x18B PUSH2 0x46C CALLDATASIZE PUSH1 0x4 PUSH2 0x2757 JUMP JUMPDEST PUSH2 0x1842 JUMP JUMPDEST CALLVALUE DUP1 ISZERO PUSH2 0x47D JUMPI PUSH1 0x0 DUP1 REVERT JUMPDEST POP PUSH2 0x18B PUSH2 0x48C CALLDATASIZE PUSH1 0x4 PUSH2 0x277B JUMP JUMPDEST PUSH2 0x1856 JUMP JUMPDEST CALLVALUE DUP1 ISZERO PUSH2 0x49D JUMPI PUSH1 0x0 DUP1 REVERT JUMPDEST POP PUSH2 0x2E2 PUSH2 0x4AC CALLDATASIZE PUSH1 0x4 PUSH2 0x2757 JUMP JUMPDEST PUSH1 0x1 PUSH1 0x1 PUSH1 0xA0 SHL SUB AND PUSH1 0x0 SWAP1 DUP2 MSTORE PUSH1 0x20 DUP2 SWAP1 MSTORE PUSH1 0x40 SWAP1 KECCAK256 SLOAD PUSH1 0xFF AND SWAP1 JUMP JUMPDEST CALLVALUE DUP1 ISZERO PUSH2 0x4D6 JUMPI PUSH1 0x0 DUP1 REVERT JUMPDEST POP PUSH2 0x18B PUSH2 0x4E5 CALLDATASIZE PUSH1 0x4 PUSH2 0x24F7 JUMP JUMPDEST PUSH2 0x1925 JUMP JUMPDEST PUSH2 0x4F2 PUSH2 0x1A2A JUMP JUMPDEST PUSH2 0x517 JUMPI PUSH1 0x40 MLOAD PUSH3 0x461BCD PUSH1 0xE5 SHL DUP2 MSTORE PUSH1 0x4 ADD PUSH2 0x50E SWAP1 PUSH2 0x27A7 JUMP JUMPDEST PUSH1 0x40 MLOAD DUP1 SWAP2 SUB SWAP1 REVERT JUMPDEST PUSH1 0x0 JUMPDEST DUP2 DUP2 LT ISZERO PUSH2 0x65D JUMPI PUSH1 0x1 PUSH1 0x5 PUSH1 0x0 DUP6 DUP6 DUP6 DUP2 DUP2 LT PUSH2 0x53A JUMPI PUSH2 0x53A PUSH2 0x27DE JUMP JUMPDEST SWAP1 POP PUSH1 0x20 MUL ADD PUSH1 0x20 DUP2 ADD SWAP1 PUSH2 0x54F SWAP2 SWAP1 PUSH2 0x2757 JUMP JUMPDEST PUSH1 0x1 PUSH1 0x1 PUSH1 0xA0 SHL SUB AND DUP2 MSTORE PUSH1 0x20 DUP2 ADD SWAP2 SWAP1 SWAP2 MSTORE PUSH1 0x40 ADD PUSH1 0x0 KECCAK256 DUP1 SLOAD PUSH1 0xFF NOT AND SWAP2 ISZERO ISZERO SWAP2 SWAP1 SWAP2 OR SWAP1 SSTORE DUP3 DUP3 DUP3 DUP2 DUP2 LT PUSH2 0x589 JUMPI PUSH2 0x589 PUSH2 0x27DE JUMP JUMPDEST SWAP1 POP PUSH1 0x20 MUL ADD PUSH1 0x20 DUP2 ADD SWAP1 PUSH2 0x59E SWAP2 SWAP1 PUSH2 0x2757 JUMP JUMPDEST PUSH1 0x1 PUSH1 0x1 PUSH1 0xA0 SHL SUB AND PUSH32 0x615A0C1CB00A60D4ACD77EC67ACF2F17F223EF0932D591052FABC33643FE7E82 PUSH1 0x40 MLOAD PUSH1 0x40 MLOAD DUP1 SWAP2 SUB SWAP1 LOG2 DUP3 DUP3 DUP3 DUP2 DUP2 LT PUSH2 0x5E5 JUMPI PUSH2 0x5E5 PUSH2 0x27DE JUMP JUMPDEST SWAP1 POP PUSH1 0x20 MUL ADD PUSH1 0x20 DUP2 ADD SWAP1 PUSH2 0x5FA SWAP2 SWAP1 PUSH2 0x2757 JUMP JUMPDEST PUSH1 0x1 PUSH1 0x1 PUSH1 0xA0 SHL SUB AND PUSH4 0x79BA5097 PUSH1 0x40 MLOAD DUP2 PUSH4 0xFFFFFFFF AND PUSH1 0xE0 SHL DUP2 MSTORE PUSH1 0x4 ADD PUSH1 0x0 PUSH1 0x40 MLOAD DUP1 DUP4 SUB DUP2 PUSH1 0x0 DUP8 DUP1 EXTCODESIZE ISZERO DUP1 ISZERO PUSH2 0x634 JUMPI PUSH1 0x0 DUP1 REVERT JUMPDEST POP GAS CALL ISZERO DUP1 ISZERO PUSH2 0x648 JUMPI RETURNDATASIZE PUSH1 0x0 DUP1 RETURNDATACOPY RETURNDATASIZE PUSH1 0x0 REVERT JUMPDEST POP POP POP POP DUP1 PUSH2 0x656 SWAP1 PUSH2 0x280A JUMP JUMPDEST SWAP1 POP PUSH2 0x51A JUMP JUMPDEST POP POP POP JUMP JUMPDEST PUSH2 0x66A PUSH2 0x1A65 JUMP JUMPDEST DUP3 PUSH32 0x0 PUSH1 0x1 PUSH1 0x1 PUSH1 0xA0 SHL SUB AND DUP2 PUSH1 0x1 PUSH1 0x1 PUSH1 0xA0 SHL SUB AND SUB PUSH2 0x6E2 JUMPI PUSH1 0x40 MLOAD PUSH3 0x461BCD PUSH1 0xE5 SHL DUP2 MSTORE PUSH1 0x20 PUSH1 0x4 DUP3 ADD MSTORE PUSH1 0x13 PUSH1 0x24 DUP3 ADD MSTORE PUSH19 0x43616E6E6F742063616C6C20746F204C494E4B PUSH1 0x68 SHL PUSH1 0x44 DUP3 ADD MSTORE PUSH1 0x64 ADD PUSH2 0x50E JUMP JUMPDEST DUP4 PUSH1 0x1 PUSH1 0x1 PUSH1 0xA0 SHL SUB AND EXTCODESIZE PUSH1 0x0 SUB PUSH2 0x73C JUMPI PUSH1 0x40 MLOAD PUSH3 0x461BCD PUSH1 0xE5 SHL DUP2 MSTORE PUSH1 0x20 PUSH1 0x4 DUP3 ADD MSTORE PUSH1 0x1A PUSH1 0x24 DUP3 ADD MSTORE PUSH32 0x4D75737420666F727761726420746F206120636F6E7472616374000000000000 PUSH1 0x44 DUP3 ADD MSTORE PUSH1 0x64 ADD PUSH2 0x50E JUMP JUMPDEST PUSH1 0x0 DUP5 PUSH1 0x1 PUSH1 0x1 PUSH1 0xA0 SHL SUB AND DUP5 DUP5 PUSH1 0x40 MLOAD PUSH2 0x758 SWAP3 SWAP2 SWAP1 PUSH2 0x2823 JUMP JUMPDEST PUSH1 0x0 PUSH1 0x40 MLOAD DUP1 DUP4 SUB DUP2 PUSH1 0x0 DUP7 GAS CALL SWAP2 POP POP RETURNDATASIZE DUP1 PUSH1 0x0 DUP2 EQ PUSH2 0x795 JUMPI PUSH1 0x40 MLOAD SWAP2 POP PUSH1 0x1F NOT PUSH1 0x3F RETURNDATASIZE ADD AND DUP3 ADD PUSH1 0x40 MSTORE RETURNDATASIZE DUP3 MSTORE RETURNDATASIZE PUSH1 0x0 PUSH1 0x20 DUP5 ADD RETURNDATACOPY PUSH2 0x79A JUMP JUMPDEST PUSH1 0x60 SWAP2 POP JUMPDEST POP POP SWAP1 POP DUP1 PUSH2 0x7E3 JUMPI PUSH1 0x40 MLOAD PUSH3 0x461BCD PUSH1 0xE5 SHL DUP2 MSTORE PUSH1 0x20 PUSH1 0x4 DUP3 ADD MSTORE PUSH1 0x15 PUSH1 0x24 DUP3 ADD MSTORE PUSH21 0x119BDC9DD85C9919590818D85B1B0819985A5B1959 PUSH1 0x5A SHL PUSH1 0x44 DUP3 ADD MSTORE PUSH1 0x64 ADD PUSH2 0x50E JUMP JUMPDEST POP POP POP POP POP JUMP JUMPDEST PUSH1 0x60 PUSH1 0x1 DUP1 SLOAD DUP1 PUSH1 0x20 MUL PUSH1 0x20 ADD PUSH1 0x40 MLOAD SWAP1 DUP2 ADD PUSH1 0x40 MSTORE DUP1 SWAP3 SWAP2 SWAP1 DUP2 DUP2 MSTORE PUSH1 0x20 ADD DUP3 DUP1 SLOAD DUP1 ISZERO PUSH2 0x842 JUMPI PUSH1 0x20 MUL DUP3 ADD SWAP2 SWAP1 PUSH1 0x0 MSTORE PUSH1 0x20 PUSH1 0x0 KECCAK256 SWAP1 JUMPDEST DUP2 SLOAD PUSH1 0x1 PUSH1 0x1 PUSH1 0xA0 SHL SUB AND DUP2 MSTORE PUSH1 0x1 SWAP1 SWAP2 ADD SWAP1 PUSH1 0x20 ADD DUP1 DUP4 GT PUSH2 0x824 JUMPI JUMPDEST POP POP POP POP POP SWAP1 POP SWAP1 JUMP JUMPDEST CALLER PUSH1 0x1 PUSH1 0x1 PUSH1 0xA0 SHL SUB PUSH32 0x0 AND EQ PUSH2 0x894 JUMPI PUSH1 0x40 MLOAD PUSH3 0x461BCD PUSH1 0xE5 SHL DUP2 MSTORE PUSH1 0x4 ADD PUSH2 0x50E SWAP1 PUSH2 0x2833 JUMP JUMPDEST PUSH1 0x0 DUP1 PUSH2 0x8A5 DUP11 DUP11 DUP13 DUP11 DUP11 DUP11 PUSH2 0x1ABA JUMP JUMPDEST SWAP2 POP SWAP2 POP DUP8 PUSH32 0xD8D7ECC4800D25FA53CE0372F13A416D98907A7EF3D8D3BDD79CF4FE75529C65 DUP12 DUP5 DUP13 DUP15 DUP13 DUP8 DUP13 DUP13 DUP13 PUSH1 0x40 MLOAD PUSH2 0x8E9 SWAP10 SWAP9 SWAP8 SWAP7 SWAP6 SWAP5 SWAP4 SWAP3 SWAP2 SWAP1 PUSH2 0x2889 JUMP JUMPDEST PUSH1 0x40 MLOAD DUP1 SWAP2 SUB SWAP1 LOG2 POP POP POP POP POP POP POP POP POP POP JUMP JUMPDEST PUSH2 0x905 PUSH2 0x1A65 JUMP JUMPDEST PUSH1 0x0 JUMPDEST DUP3 DUP2 LT ISZERO PUSH2 0x9FA JUMPI PUSH1 0x0 PUSH1 0x5 PUSH1 0x0 DUP7 DUP7 DUP6 DUP2 DUP2 LT PUSH2 0x928 JUMPI PUSH2 0x928 PUSH2 0x27DE JUMP JUMPDEST SWAP1 POP PUSH1 0x20 MUL ADD PUSH1 0x20 DUP2 ADD SWAP1 PUSH2 0x93D SWAP2 SWAP1 PUSH2 0x2757 JUMP JUMPDEST PUSH1 0x1 PUSH1 0x1 PUSH1 0xA0 SHL SUB AND DUP2 MSTORE PUSH1 0x20 DUP2 ADD SWAP2 SWAP1 SWAP2 MSTORE PUSH1 0x40 ADD PUSH1 0x0 KECCAK256 DUP1 SLOAD PUSH1 0xFF NOT AND SWAP2 ISZERO ISZERO SWAP2 SWAP1 SWAP2 OR SWAP1 SSTORE DUP4 DUP4 DUP3 DUP2 DUP2 LT PUSH2 0x977 JUMPI PUSH2 0x977 PUSH2 0x27DE JUMP JUMPDEST SWAP1 POP PUSH1 0x20 MUL ADD PUSH1 0x20 DUP2 ADD SWAP1 PUSH2 0x98C SWAP2 SWAP1 PUSH2 0x2757 JUMP JUMPDEST PUSH1 0x40 MLOAD PUSH4 0xF2FDE38B PUSH1 0xE0 SHL DUP2 MSTORE PUSH1 0x1 PUSH1 0x1 PUSH1 0xA0 SHL SUB DUP5 DUP2 AND PUSH1 0x4 DUP4 ADD MSTORE SWAP2 SWAP1 SWAP2 AND SWAP1 PUSH4 0xF2FDE38B SWAP1 PUSH1 0x24 ADD PUSH1 0x0 PUSH1 0x40 MLOAD DUP1 DUP4 SUB DUP2 PUSH1 0x0 DUP8 DUP1 EXTCODESIZE ISZERO DUP1 ISZERO PUSH2 0x9D1 JUMPI PUSH1 0x0 DUP1 REVERT JUMPDEST POP GAS CALL ISZERO DUP1 ISZERO PUSH2 0x9E5 JUMPI RETURNDATASIZE PUSH1 0x0 DUP1 RETURNDATACOPY RETURNDATASIZE PUSH1 0x0 REVERT JUMPDEST POP POP POP POP DUP1 PUSH2 0x9F3 SWAP1 PUSH2 0x280A JUMP JUMPDEST SWAP1 POP PUSH2 0x908 JUMP JUMPDEST POP POP POP POP JUMP JUMPDEST CALLER PUSH1 0x1 PUSH1 0x1 PUSH1 0xA0 SHL SUB PUSH32 0x0 AND EQ PUSH2 0xA48 JUMPI PUSH1 0x40 MLOAD PUSH3 0x461BCD PUSH1 0xE5 SHL DUP2 MSTORE PUSH1 0x4 ADD PUSH2 0x50E SWAP1 PUSH2 0x2833 JUMP JUMPDEST PUSH1 0x0 DUP1 PUSH2 0xA59 DUP12 DUP12 DUP11 DUP11 DUP11 DUP11 PUSH2 0x1ABA JUMP JUMPDEST SWAP2 POP SWAP2 POP DUP9 PUSH32 0xD8D7ECC4800D25FA53CE0372F13A416D98907A7EF3D8D3BDD79CF4FE75529C65 DUP13 DUP5 DUP14 DUP16 DUP13 DUP8 DUP13 DUP13 DUP13 PUSH1 0x40 MLOAD PUSH2 0xA9D SWAP10 SWAP9 SWAP8 SWAP7 SWAP6 SWAP5 SWAP4 SWAP3 SWAP2 SWAP1 PUSH2 0x2889 JUMP JUMPDEST PUSH1 0x40 MLOAD DUP1 SWAP2 SUB SWAP1 LOG2 POP POP POP POP POP POP POP POP POP POP POP JUMP JUMPDEST PUSH1 0x0 PUSH2 0xABC PUSH2 0x1C58 JUMP JUMPDEST PUSH1 0x0 DUP8 DUP2 MSTORE PUSH1 0x4 PUSH1 0x20 MSTORE PUSH1 0x40 DUP2 KECCAK256 SLOAD DUP9 SWAP2 PUSH1 0x8 SWAP2 SWAP1 SWAP2 SHL PUSH1 0xFF NOT AND SWAP1 SUB PUSH2 0xB25 JUMPI PUSH1 0x40 MLOAD PUSH3 0x461BCD PUSH1 0xE5 SHL DUP2 MSTORE PUSH1 0x20 PUSH1 0x4 DUP3 ADD MSTORE PUSH1 0x1B PUSH1 0x24 DUP3 ADD MSTORE PUSH32 0x4D757374206861766520612076616C6964207265717565737449640000000000 PUSH1 0x44 DUP3 ADD MSTORE PUSH1 0x64 ADD PUSH2 0x50E JUMP JUMPDEST PUSH1 0x1 PUSH1 0x1 PUSH1 0xA0 SHL SUB DUP7 AND PUSH1 0x0 SWAP1 DUP2 MSTORE PUSH1 0x5 PUSH1 0x20 MSTORE PUSH1 0x40 SWAP1 KECCAK256 SLOAD DUP7 SWAP1 PUSH1 0xFF AND ISZERO PUSH2 0xB90 JUMPI PUSH1 0x40 MLOAD PUSH3 0x461BCD PUSH1 0xE5 SHL DUP2 MSTORE PUSH1 0x20 PUSH1 0x4 DUP3 ADD MSTORE PUSH1 0x1A PUSH1 0x24 DUP3 ADD MSTORE PUSH32 0x43616E6E6F742063616C6C206F776E656420636F6E7472616374000000000000 PUSH1 0x44 DUP3 ADD MSTORE PUSH1 0x64 ADD PUSH2 0x50E JUMP JUMPDEST PUSH2 0xB9F DUP10 DUP10 DUP10 DUP10 DUP10 PUSH1 0x1 PUSH2 0x1CAF JUMP JUMPDEST PUSH1 0x40 MLOAD DUP10 SWAP1 PUSH32 0x9E9BC7616D42C2835D05AE617E508454E63B30B934BE8AA932EBC125E0E58A64 SWAP1 PUSH1 0x0 SWAP1 LOG2 PUSH3 0x61A80 GAS LT ISZERO PUSH2 0xC1D JUMPI PUSH1 0x40 MLOAD PUSH3 0x461BCD PUSH1 0xE5 SHL DUP2 MSTORE PUSH1 0x20 PUSH1 0x4 DUP3 ADD DUP2 SWAP1 MSTORE PUSH1 0x24 DUP3 ADD MSTORE PUSH32 0x4D7573742070726F7669646520636F6E73756D657220656E6F75676820676173 PUSH1 0x44 DUP3 ADD MSTORE PUSH1 0x64 ADD PUSH2 0x50E JUMP JUMPDEST PUSH1 0x0 DUP8 PUSH1 0x1 PUSH1 0x1 PUSH1 0xA0 SHL SUB AND DUP8 DUP12 DUP8 PUSH1 0x40 MLOAD PUSH1 0x24 ADD PUSH2 0xC46 SWAP3 SWAP2 SWAP1 SWAP2 DUP3 MSTORE PUSH1 0x20 DUP3 ADD MSTORE PUSH1 0x40 ADD SWAP1 JUMP JUMPDEST PUSH1 0x40 DUP1 MLOAD PUSH1 0x1F NOT DUP2 DUP5 SUB ADD DUP2 MSTORE SWAP2 DUP2 MSTORE PUSH1 0x20 DUP3 ADD DUP1 MLOAD PUSH1 0x1 PUSH1 0x1 PUSH1 0xE0 SHL SUB AND PUSH1 0x1 PUSH1 0x1 PUSH1 0xE0 SHL SUB NOT SWAP1 SWAP5 AND SWAP4 SWAP1 SWAP4 OR SWAP1 SWAP3 MSTORE SWAP1 MLOAD PUSH2 0xC84 SWAP2 SWAP1 PUSH2 0x28F3 JUMP JUMPDEST PUSH1 0x0 PUSH1 0x40 MLOAD DUP1 DUP4 SUB DUP2 PUSH1 0x0 DUP7 GAS CALL SWAP2 POP POP RETURNDATASIZE DUP1 PUSH1 0x0 DUP2 EQ PUSH2 0xCC1 JUMPI PUSH1 0x40 MLOAD SWAP2 POP PUSH1 0x1F NOT PUSH1 0x3F RETURNDATASIZE ADD AND DUP3 ADD PUSH1 0x40 MSTORE RETURNDATASIZE DUP3 MSTORE RETURNDATASIZE PUSH1 0x0 PUSH1 0x20 DUP5 ADD RETURNDATACOPY PUSH2 0xCC6 JUMP JUMPDEST PUSH1 0x60 SWAP2 POP JUMPDEST POP SWAP1 SWAP12 SWAP11 POP POP POP POP POP POP POP POP POP POP POP JUMP JUMPDEST PUSH1 0x0 PUSH2 0xCE1 PUSH2 0x1DC6 JUMP JUMPDEST SWAP1 POP SWAP1 JUMP JUMPDEST PUSH2 0xCEE PUSH2 0x1A2A JUMP JUMPDEST PUSH2 0xD0A JUMPI PUSH1 0x40 MLOAD PUSH3 0x461BCD PUSH1 0xE5 SHL DUP2 MSTORE PUSH1 0x4 ADD PUSH2 0x50E SWAP1 PUSH2 0x27A7 JUMP JUMPDEST PUSH2 0xD14 DUP5 DUP5 PUSH2 0x4EA JUMP JUMPDEST PUSH2 0x9FA DUP5 DUP5 DUP5 DUP5 PUSH2 0x1925 JUMP JUMPDEST PUSH1 0x0 PUSH2 0xD2A PUSH2 0x1C58 JUMP JUMPDEST PUSH1 0x0 DUP9 DUP2 MSTORE PUSH1 0x4 PUSH1 0x20 MSTORE PUSH1 0x40 DUP2 KECCAK256 SLOAD DUP10 SWAP2 PUSH1 0x8 SWAP2 SWAP1 SWAP2 SHL PUSH1 0xFF NOT AND SWAP1 SUB PUSH2 0xD93 JUMPI PUSH1 0x40 MLOAD PUSH3 0x461BCD PUSH1 0xE5 SHL DUP2 MSTORE PUSH1 0x20 PUSH1 0x4 DUP3 ADD MSTORE PUSH1 0x1B PUSH1 0x24 DUP3 ADD MSTORE PUSH32 0x4D757374206861766520612076616C6964207265717565737449640000000000 PUSH1 0x44 DUP3 ADD MSTORE PUSH1 0x64 ADD PUSH2 0x50E JUMP JUMPDEST PUSH1 0x1 PUSH1 0x1 PUSH1 0xA0 SHL SUB DUP8 AND PUSH1 0x0 SWAP1 DUP2 MSTORE PUSH1 0x5 PUSH1 0x20 MSTORE PUSH1 0x40 SWAP1 KECCAK256 SLOAD DUP8 SWAP1 PUSH1 0xFF AND ISZERO PUSH2 0xDFE JUMPI PUSH1 0x40 MLOAD PUSH3 0x461BCD PUSH1 0xE5 SHL DUP2 MSTORE PUSH1 0x20 PUSH1 0x4 DUP3 ADD MSTORE PUSH1 0x1A PUSH1 0x24 DUP3 ADD MSTORE PUSH32 0x43616E6E6F742063616C6C206F776E656420636F6E7472616374000000000000 PUSH1 0x44 DUP3 ADD MSTORE PUSH1 0x64 ADD PUSH2 0x50E JUMP JUMPDEST DUP10 DUP6 DUP6 PUSH1 0x20 DUP2 LT ISZERO PUSH2 0xE52 JUMPI PUSH1 0x40 MLOAD PUSH3 0x461BCD PUSH1 0xE5 SHL DUP2 MSTORE PUSH1 0x20 PUSH1 0x4 DUP3 ADD MSTORE PUSH1 0x1B PUSH1 0x24 DUP3 ADD MSTORE PUSH32 0x526573706F6E7365206D757374206265203E2033322062797465730000000000 PUSH1 0x44 DUP3 ADD MSTORE PUSH1 0x64 ADD PUSH2 0x50E JUMP JUMPDEST DUP2 CALLDATALOAD DUP4 DUP2 EQ PUSH2 0xEA3 JUMPI PUSH1 0x40 MLOAD PUSH3 0x461BCD PUSH1 0xE5 SHL DUP2 MSTORE PUSH1 0x20 PUSH1 0x4 DUP3 ADD MSTORE PUSH1 0x1C PUSH1 0x24 DUP3 ADD MSTORE PUSH32 0x466972737420776F7264206D7573742062652072657175657374496400000000 PUSH1 0x44 DUP3 ADD MSTORE PUSH1 0x64 ADD PUSH2 0x50E JUMP JUMPDEST PUSH2 0xEB2 DUP15 DUP15 DUP15 DUP15 DUP15 PUSH1 0x2 PUSH2 0x1CAF JUMP JUMPDEST PUSH1 0x40 MLOAD DUP15 SWAP1 PUSH32 0x9E9BC7616D42C2835D05AE617E508454E63B30B934BE8AA932EBC125E0E58A64 SWAP1 PUSH1 0x0 SWAP1 LOG2 PUSH3 0x61A80 GAS LT ISZERO PUSH2 0xF30 JUMPI PUSH1 0x40 MLOAD PUSH3 0x461BCD PUSH1 0xE5 SHL DUP2 MSTORE PUSH1 0x20 PUSH1 0x4 DUP3 ADD DUP2 SWAP1 MSTORE PUSH1 0x24 DUP3 ADD MSTORE PUSH32 0x4D7573742070726F7669646520636F6E73756D657220656E6F75676820676173 PUSH1 0x44 DUP3 ADD MSTORE PUSH1 0x64 ADD PUSH2 0x50E JUMP JUMPDEST PUSH1 0x0 DUP13 PUSH1 0x1 PUSH1 0x1 PUSH1 0xA0 SHL SUB AND DUP13 DUP12 DUP12 PUSH1 0x40 MLOAD PUSH1 0x20 ADD PUSH2 0xF51 SWAP4 SWAP3 SWAP2 SWAP1 PUSH2 0x290F JUMP JUMPDEST PUSH1 0x40 DUP1 MLOAD PUSH1 0x1F NOT DUP2 DUP5 SUB ADD DUP2 MSTORE SWAP1 DUP3 SWAP1 MSTORE PUSH2 0xF6B SWAP2 PUSH2 0x28F3 JUMP JUMPDEST PUSH1 0x0 PUSH1 0x40 MLOAD DUP1 DUP4 SUB DUP2 PUSH1 0x0 DUP7 GAS CALL SWAP2 POP POP RETURNDATASIZE DUP1 PUSH1 0x0 DUP2 EQ PUSH2 0xFA8 JUMPI PUSH1 0x40 MLOAD SWAP2 POP PUSH1 0x1F NOT PUSH1 0x3F RETURNDATASIZE ADD AND DUP3 ADD PUSH1 0x40 MSTORE RETURNDATASIZE DUP3 MSTORE RETURNDATASIZE PUSH1 0x0 PUSH1 0x20 DUP5 ADD RETURNDATACOPY PUSH2 0xFAD JUMP JUMPDEST PUSH1 0x60 SWAP2 POP JUMPDEST POP SWAP1 SWAP9 POP POP POP POP POP POP POP POP POP SWAP8 SWAP7 POP POP POP POP POP POP POP JUMP JUMPDEST DUP3 ISZERO DUP1 ISZERO SWAP1 PUSH2 0xFD2 JUMPI POP DUP3 DUP2 EQ JUMPDEST PUSH2 0x101E JUMPI PUSH1 0x40 MLOAD PUSH3 0x461BCD PUSH1 0xE5 SHL DUP2 MSTORE PUSH1 0x20 PUSH1 0x4 DUP3 ADD MSTORE PUSH1 0x17 PUSH1 0x24 DUP3 ADD MSTORE PUSH32 0x496E76616C6964206172726179206C656E677468287329000000000000000000 PUSH1 0x44 DUP3 ADD MSTORE PUSH1 0x64 ADD PUSH2 0x50E JUMP JUMPDEST CALLVALUE PUSH1 0x0 JUMPDEST DUP5 DUP2 LT ISZERO PUSH2 0x1157 JUMPI PUSH1 0x0 DUP5 DUP5 DUP4 DUP2 DUP2 LT PUSH2 0x103E JUMPI PUSH2 0x103E PUSH2 0x27DE JUMP JUMPDEST SWAP1 POP PUSH1 0x20 MUL ADD CALLDATALOAD SWAP1 POP DUP1 DUP4 PUSH2 0x1053 SWAP2 SWAP1 PUSH2 0x2933 JUMP JUMPDEST SWAP3 POP PUSH1 0x0 DUP8 DUP8 DUP5 DUP2 DUP2 LT PUSH2 0x1069 JUMPI PUSH2 0x1069 PUSH2 0x27DE JUMP JUMPDEST SWAP1 POP PUSH1 0x20 MUL ADD PUSH1 0x20 DUP2 ADD SWAP1 PUSH2 0x107E SWAP2 SWAP1 PUSH2 0x2757 JUMP JUMPDEST PUSH1 0x1 PUSH1 0x1 PUSH1 0xA0 SHL SUB AND DUP3 PUSH1 0x40 MLOAD PUSH1 0x0 PUSH1 0x40 MLOAD DUP1 DUP4 SUB DUP2 DUP6 DUP8 GAS CALL SWAP3 POP POP POP RETURNDATASIZE DUP1 PUSH1 0x0 DUP2 EQ PUSH2 0x10C8 JUMPI PUSH1 0x40 MLOAD SWAP2 POP PUSH1 0x1F NOT PUSH1 0x3F RETURNDATASIZE ADD AND DUP3 ADD PUSH1 0x40 MSTORE RETURNDATASIZE DUP3 MSTORE RETURNDATASIZE PUSH1 0x0 PUSH1 0x20 DUP5 ADD RETURNDATACOPY PUSH2 0x10CD JUMP JUMPDEST PUSH1 0x60 SWAP2 POP JUMPDEST POP POP SWAP1 POP DUP1 PUSH2 0x1144 JUMPI PUSH1 0x40 MLOAD PUSH3 0x461BCD PUSH1 0xE5 SHL DUP2 MSTORE PUSH1 0x20 PUSH1 0x4 DUP3 ADD MSTORE PUSH1 0x3A PUSH1 0x24 DUP3 ADD MSTORE PUSH32 0x416464726573733A20756E61626C6520746F2073656E642076616C75652C2072 PUSH1 0x44 DUP3 ADD MSTORE PUSH32 0x6563697069656E74206D61792068617665207265766572746564000000000000 PUSH1 0x64 DUP3 ADD MSTORE PUSH1 0x84 ADD PUSH2 0x50E JUMP JUMPDEST POP POP DUP1 PUSH2 0x1150 SWAP1 PUSH2 0x280A JUMP JUMPDEST SWAP1 POP PUSH2 0x1022 JUMP JUMPDEST POP DUP1 ISZERO PUSH2 0x7E3 JUMPI PUSH1 0x40 MLOAD PUSH3 0x461BCD PUSH1 0xE5 SHL DUP2 MSTORE PUSH1 0x20 PUSH1 0x4 DUP3 ADD MSTORE PUSH1 0x11 PUSH1 0x24 DUP3 ADD MSTORE PUSH17 0x151BDBC81B5D58DA08115512081CD95B9D PUSH1 0x7A SHL PUSH1 0x44 DUP3 ADD MSTORE PUSH1 0x64 ADD PUSH2 0x50E JUMP JUMPDEST PUSH1 0x0 PUSH2 0x11A8 DUP5 CALLER DUP6 DUP6 PUSH2 0x1E69 JUMP JUMPDEST PUSH1 0x0 DUP7 DUP2 MSTORE PUSH1 0x4 PUSH1 0x20 MSTORE PUSH1 0x40 SWAP1 KECCAK256 SLOAD SWAP1 SWAP2 POP PUSH1 0x8 SHL PUSH1 0xFF NOT SWAP1 DUP2 AND SWAP1 DUP3 AND EQ PUSH2 0x1213 JUMPI PUSH1 0x40 MLOAD PUSH3 0x461BCD PUSH1 0xE5 SHL DUP2 MSTORE PUSH1 0x20 PUSH1 0x4 DUP3 ADD MSTORE PUSH1 0x1E PUSH1 0x24 DUP3 ADD MSTORE PUSH32 0x506172616D7320646F206E6F74206D6174636820726571756573742049440000 PUSH1 0x44 DUP3 ADD MSTORE PUSH1 0x64 ADD PUSH2 0x50E JUMP JUMPDEST TIMESTAMP DUP3 GT ISZERO PUSH2 0x125C JUMPI PUSH1 0x40 MLOAD PUSH3 0x461BCD PUSH1 0xE5 SHL DUP2 MSTORE PUSH1 0x20 PUSH1 0x4 DUP3 ADD MSTORE PUSH1 0x16 PUSH1 0x24 DUP3 ADD MSTORE PUSH22 0x14995C5D595CDD081A5CC81B9BDD08195E1C1A5C9959 PUSH1 0x52 SHL PUSH1 0x44 DUP3 ADD MSTORE PUSH1 0x64 ADD PUSH2 0x50E JUMP JUMPDEST PUSH1 0x0 DUP6 DUP2 MSTORE PUSH1 0x4 PUSH1 0x20 MSTORE PUSH1 0x40 DUP1 DUP3 KECCAK256 DUP3 SWAP1 SSTORE MLOAD DUP7 SWAP2 PUSH32 0xA7842B9EC549398102C0D91B1B9919B2F20558AEFDADF57528A95C6CD3292E93 SWAP2 LOG2 DUP4 PUSH1 0x6 PUSH1 0x0 DUP3 DUP3 SLOAD PUSH2 0x12A6 SWAP2 SWAP1 PUSH2 0x2933 JUMP JUMPDEST SWAP1 SWAP2 SSTORE POP POP PUSH1 0x40 MLOAD PUSH4 0xA9059CBB PUSH1 0xE0 SHL DUP2 MSTORE CALLER PUSH1 0x4 DUP3 ADD MSTORE PUSH1 0x24 DUP2 ADD DUP6 SWAP1 MSTORE PUSH32 0x0 PUSH1 0x1 PUSH1 0x1 PUSH1 0xA0 SHL SUB AND SWAP1 PUSH4 0xA9059CBB SWAP1 PUSH1 0x44 ADD PUSH1 0x20 PUSH1 0x40 MLOAD DUP1 DUP4 SUB DUP2 PUSH1 0x0 DUP8 GAS CALL ISZERO DUP1 ISZERO PUSH2 0x1318 JUMPI RETURNDATASIZE PUSH1 0x0 DUP1 RETURNDATACOPY RETURNDATASIZE PUSH1 0x0 REVERT JUMPDEST POP POP POP POP PUSH1 0x40 MLOAD RETURNDATASIZE PUSH1 0x1F NOT PUSH1 0x1F DUP3 ADD AND DUP3 ADD DUP1 PUSH1 0x40 MSTORE POP DUP2 ADD SWAP1 PUSH2 0x133C SWAP2 SWAP1 PUSH2 0x294C JUMP JUMPDEST POP POP POP POP POP POP JUMP JUMPDEST PUSH1 0x3 SLOAD PUSH1 0x1 PUSH1 0x1 PUSH1 0xA0 SHL SUB AND CALLER EQ PUSH2 0x1397 JUMPI PUSH1 0x40 MLOAD PUSH3 0x461BCD PUSH1 0xE5 SHL DUP2 MSTORE PUSH1 0x20 PUSH1 0x4 DUP3 ADD MSTORE PUSH1 0x16 PUSH1 0x24 DUP3 ADD MSTORE PUSH22 0x26BAB9BA10313290383937B837B9B2B21037BBB732B9 PUSH1 0x51 SHL PUSH1 0x44 DUP3 ADD MSTORE PUSH1 0x64 ADD PUSH2 0x50E JUMP JUMPDEST PUSH1 0x2 DUP1 SLOAD PUSH1 0x1 PUSH1 0x1 PUSH1 0xA0 SHL SUB NOT DUP1 DUP3 AND CALLER SWAP1 DUP2 OR SWAP1 SWAP4 SSTORE PUSH1 0x3 DUP1 SLOAD SWAP1 SWAP2 AND SWAP1 SSTORE PUSH1 0x40 MLOAD PUSH1 0x1 PUSH1 0x1 PUSH1 0xA0 SHL SUB SWAP1 SWAP2 AND SWAP2 SWAP1 DUP3 SWAP1 PUSH32 0x8BE0079C531659141344CD1FD0A4F28419497F9722A3DAAFE3B4186F6B6457E0 SWAP1 PUSH1 0x0 SWAP1 LOG3 POP JUMP JUMPDEST PUSH1 0x0 PUSH2 0x13FC PUSH2 0x1A65 JUMP JUMPDEST DUP4 DUP1 PUSH2 0x1406 PUSH2 0x1DC6 JUMP JUMPDEST LT ISZERO PUSH2 0x1424 JUMPI PUSH1 0x40 MLOAD PUSH3 0x461BCD PUSH1 0xE5 SHL DUP2 MSTORE PUSH1 0x4 ADD PUSH2 0x50E SWAP1 PUSH2 0x296E JUMP JUMPDEST PUSH1 0x40 MLOAD PUSH4 0x2000575 PUSH1 0xE5 SHL DUP2 MSTORE PUSH1 0x1 PUSH1 0x1 PUSH1 0xA0 SHL SUB PUSH32 0x0 AND SWAP1 PUSH4 0x4000AEA0 SWAP1 PUSH2 0x1476 SWAP1 DUP10 SWAP1 DUP10 SWAP1 DUP10 SWAP1 DUP10 SWAP1 PUSH1 0x4 ADD PUSH2 0x29C3 JUMP JUMPDEST PUSH1 0x20 PUSH1 0x40 MLOAD DUP1 DUP4 SUB DUP2 PUSH1 0x0 DUP8 GAS CALL ISZERO DUP1 ISZERO PUSH2 0x1495 JUMPI RETURNDATASIZE PUSH1 0x0 DUP1 RETURNDATACOPY RETURNDATASIZE PUSH1 0x0 REVERT JUMPDEST POP POP POP POP PUSH1 0x40 MLOAD RETURNDATASIZE PUSH1 0x1F NOT PUSH1 0x1F DUP3 ADD AND DUP3 ADD DUP1 PUSH1 0x40 MSTORE POP DUP2 ADD SWAP1 PUSH2 0x14B9 SWAP2 SWAP1 PUSH2 0x294C JUMP JUMPDEST SWAP7 SWAP6 POP POP POP POP POP POP JUMP JUMPDEST CALLER PUSH1 0x1 PUSH1 0x1 PUSH1 0xA0 SHL SUB PUSH32 0x0 AND EQ PUSH2 0x150B JUMPI PUSH1 0x40 MLOAD PUSH3 0x461BCD PUSH1 0xE5 SHL DUP2 MSTORE PUSH1 0x4 ADD PUSH2 0x50E SWAP1 PUSH2 0x2833 JUMP JUMPDEST PUSH1 0x20 DUP2 ADD MLOAD DUP2 SWAP1 PUSH2 0x151C DUP2 DUP4 PUSH2 0x1EBE JUMP JUMPDEST DUP5 PUSH1 0x24 DUP5 ADD MSTORE DUP4 PUSH1 0x44 DUP5 ADD MSTORE PUSH1 0x0 ADDRESS PUSH1 0x1 PUSH1 0x1 PUSH1 0xA0 SHL SUB AND DUP5 PUSH1 0x40 MLOAD PUSH2 0x1542 SWAP2 SWAP1 PUSH2 0x28F3 JUMP JUMPDEST PUSH1 0x0 PUSH1 0x40 MLOAD DUP1 DUP4 SUB DUP2 DUP6 GAS DELEGATECALL SWAP2 POP POP RETURNDATASIZE DUP1 PUSH1 0x0 DUP2 EQ PUSH2 0x157D JUMPI PUSH1 0x40 MLOAD SWAP2 POP PUSH1 0x1F NOT PUSH1 0x3F RETURNDATASIZE ADD AND DUP3 ADD PUSH1 0x40 MSTORE RETURNDATASIZE DUP3 MSTORE RETURNDATASIZE PUSH1 0x0 PUSH1 0x20 DUP5 ADD RETURNDATACOPY PUSH2 0x1582 JUMP JUMPDEST PUSH1 0x60 SWAP2 POP JUMPDEST POP POP SWAP1 POP DUP1 PUSH2 0x133C JUMPI PUSH1 0x40 MLOAD PUSH3 0x461BCD PUSH1 0xE5 SHL DUP2 MSTORE PUSH1 0x20 PUSH1 0x4 DUP3 ADD MSTORE PUSH1 0x18 PUSH1 0x24 DUP3 ADD MSTORE PUSH32 0x556E61626C6520746F2063726561746520726571756573740000000000000000 PUSH1 0x44 DUP3 ADD MSTORE PUSH1 0x64 ADD PUSH2 0x50E JUMP JUMPDEST PUSH1 0x40 MLOAD PUSH1 0x1 PUSH1 0x1 PUSH1 0x60 SHL SUB NOT CALLER PUSH1 0x60 SHL AND PUSH1 0x20 DUP3 ADD MSTORE PUSH1 0x34 DUP2 ADD DUP6 SWAP1 MSTORE PUSH2 0x9FA SWAP1 PUSH1 0x54 ADD PUSH1 0x40 MLOAD PUSH1 0x20 DUP2 DUP4 SUB SUB DUP2 MSTORE SWAP1 PUSH1 0x40 MSTORE DUP1 MLOAD SWAP1 PUSH1 0x20 ADD KECCAK256 DUP5 DUP5 DUP5 PUSH2 0x119A JUMP JUMPDEST PUSH2 0x161D PUSH2 0x1A2A JUMP JUMPDEST PUSH2 0x1639 JUMPI PUSH1 0x40 MLOAD PUSH3 0x461BCD PUSH1 0xE5 SHL DUP2 MSTORE PUSH1 0x4 ADD PUSH2 0x50E SWAP1 PUSH2 0x27A7 JUMP JUMPDEST DUP1 PUSH2 0x1686 JUMPI PUSH1 0x40 MLOAD PUSH3 0x461BCD PUSH1 0xE5 SHL DUP2 MSTORE PUSH1 0x20 PUSH1 0x4 DUP3 ADD MSTORE PUSH1 0x1B PUSH1 0x24 DUP3 ADD MSTORE PUSH32 0x4D7573742068617665206174206C6561737420312073656E6465720000000000 PUSH1 0x44 DUP3 ADD MSTORE PUSH1 0x64 ADD PUSH2 0x50E JUMP JUMPDEST PUSH1 0x1 SLOAD PUSH1 0x0 JUMPDEST DUP2 DUP2 LT ISZERO PUSH2 0x16F0 JUMPI PUSH1 0x0 DUP1 PUSH1 0x0 PUSH1 0x1 DUP5 DUP2 SLOAD DUP2 LT PUSH2 0x16AC JUMPI PUSH2 0x16AC PUSH2 0x27DE JUMP JUMPDEST PUSH1 0x0 SWAP2 DUP3 MSTORE PUSH1 0x20 DUP1 DUP4 KECCAK256 SWAP2 SWAP1 SWAP2 ADD SLOAD PUSH1 0x1 PUSH1 0x1 PUSH1 0xA0 SHL SUB AND DUP4 MSTORE DUP3 ADD SWAP3 SWAP1 SWAP3 MSTORE PUSH1 0x40 ADD SWAP1 KECCAK256 DUP1 SLOAD PUSH1 0xFF NOT AND SWAP2 ISZERO ISZERO SWAP2 SWAP1 SWAP2 OR SWAP1 SSTORE PUSH2 0x16E9 DUP2 PUSH2 0x280A JUMP JUMPDEST SWAP1 POP PUSH2 0x168C JUMP JUMPDEST POP PUSH1 0x0 JUMPDEST DUP3 DUP2 LT ISZERO PUSH2 0x17F4 JUMPI PUSH1 0x0 DUP1 DUP6 DUP6 DUP5 DUP2 DUP2 LT PUSH2 0x1711 JUMPI PUSH2 0x1711 PUSH2 0x27DE JUMP JUMPDEST SWAP1 POP PUSH1 0x20 MUL ADD PUSH1 0x20 DUP2 ADD SWAP1 PUSH2 0x1726 SWAP2 SWAP1 PUSH2 0x2757 JUMP JUMPDEST PUSH1 0x1 PUSH1 0x1 PUSH1 0xA0 SHL SUB AND DUP2 MSTORE PUSH1 0x20 DUP2 ADD SWAP2 SWAP1 SWAP2 MSTORE PUSH1 0x40 ADD PUSH1 0x0 KECCAK256 SLOAD PUSH1 0xFF AND ISZERO PUSH2 0x1790 JUMPI PUSH1 0x40 MLOAD PUSH3 0x461BCD PUSH1 0xE5 SHL DUP2 MSTORE PUSH1 0x20 PUSH1 0x4 DUP3 ADD MSTORE PUSH1 0x1F PUSH1 0x24 DUP3 ADD MSTORE PUSH32 0x4D757374206E6F742068617665206475706C69636174652073656E6465727300 PUSH1 0x44 DUP3 ADD MSTORE PUSH1 0x64 ADD PUSH2 0x50E JUMP JUMPDEST PUSH1 0x1 PUSH1 0x0 DUP1 DUP7 DUP7 DUP6 DUP2 DUP2 LT PUSH2 0x17A7 JUMPI PUSH2 0x17A7 PUSH2 0x27DE JUMP JUMPDEST SWAP1 POP PUSH1 0x20 MUL ADD PUSH1 0x20 DUP2 ADD SWAP1 PUSH2 0x17BC SWAP2 SWAP1 PUSH2 0x2757 JUMP JUMPDEST PUSH1 0x1 PUSH1 0x1 PUSH1 0xA0 SHL SUB AND DUP2 MSTORE PUSH1 0x20 DUP2 ADD SWAP2 SWAP1 SWAP2 MSTORE PUSH1 0x40 ADD PUSH1 0x0 KECCAK256 DUP1 SLOAD PUSH1 0xFF NOT AND SWAP2 ISZERO ISZERO SWAP2 SWAP1 SWAP2 OR SWAP1 SSTORE PUSH2 0x17ED DUP2 PUSH2 0x280A JUMP JUMPDEST SWAP1 POP PUSH2 0x16F4 JUMP JUMPDEST POP PUSH2 0x1801 PUSH1 0x1 DUP5 DUP5 PUSH2 0x20AC JUMP JUMPDEST POP PUSH32 0xF263CFB3E4298332E776194610CF9FDC09CCB3ADA8B9AA39764D882E11FBF0A0 DUP4 DUP4 CALLER PUSH1 0x40 MLOAD PUSH2 0x1835 SWAP4 SWAP3 SWAP2 SWAP1 PUSH2 0x2A34 JUMP JUMPDEST PUSH1 0x40 MLOAD DUP1 SWAP2 SUB SWAP1 LOG1 POP POP POP JUMP JUMPDEST PUSH2 0x184A PUSH2 0x1A65 JUMP JUMPDEST PUSH2 0x1853 DUP2 PUSH2 0x1F9D JUMP JUMPDEST POP JUMP JUMPDEST PUSH2 0x185E PUSH2 0x1A65 JUMP JUMPDEST DUP1 DUP1 PUSH2 0x1868 PUSH2 0x1DC6 JUMP JUMPDEST LT ISZERO PUSH2 0x1886 JUMPI PUSH1 0x40 MLOAD PUSH3 0x461BCD PUSH1 0xE5 SHL DUP2 MSTORE PUSH1 0x4 ADD PUSH2 0x50E SWAP1 PUSH2 0x296E JUMP JUMPDEST PUSH1 0x40 MLOAD PUSH4 0xA9059CBB PUSH1 0xE0 SHL DUP2 MSTORE PUSH1 0x1 PUSH1 0x1 PUSH1 0xA0 SHL SUB DUP5 DUP2 AND PUSH1 0x4 DUP4 ADD MSTORE PUSH1 0x24 DUP3 ADD DUP5 SWAP1 MSTORE PUSH32 0x0 AND SWAP1 PUSH4 0xA9059CBB SWAP1 PUSH1 0x44 ADD PUSH1 0x20 PUSH1 0x40 MLOAD DUP1 DUP4 SUB DUP2 PUSH1 0x0 DUP8 GAS CALL ISZERO DUP1 ISZERO PUSH2 0x18F5 JUMPI RETURNDATASIZE PUSH1 0x0 DUP1 RETURNDATACOPY RETURNDATASIZE PUSH1 0x0 REVERT JUMPDEST POP POP POP POP PUSH1 0x40 MLOAD RETURNDATASIZE PUSH1 0x1F NOT PUSH1 0x1F DUP3 ADD AND DUP3 ADD DUP1 PUSH1 0x40 MSTORE POP DUP2 ADD SWAP1 PUSH2 0x1919 SWAP2 SWAP1 PUSH2 0x294C JUMP JUMPDEST PUSH2 0x65D JUMPI PUSH2 0x65D PUSH2 0x2A60 JUMP JUMPDEST PUSH2 0x192D PUSH2 0x1A2A JUMP JUMPDEST PUSH2 0x1949 JUMPI PUSH1 0x40 MLOAD PUSH3 0x461BCD PUSH1 0xE5 SHL DUP2 MSTORE PUSH1 0x4 ADD PUSH2 0x50E SWAP1 PUSH2 0x27A7 JUMP JUMPDEST PUSH32 0x1BB185903E2CB2F1B303523128B60E314DEA81DF4F8D9B7351CADD344F6E7727 DUP5 DUP5 DUP5 DUP5 CALLER PUSH1 0x40 MLOAD PUSH2 0x1980 SWAP6 SWAP5 SWAP4 SWAP3 SWAP2 SWAP1 PUSH2 0x2A76 JUMP JUMPDEST PUSH1 0x40 MLOAD DUP1 SWAP2 SUB SWAP1 LOG1 PUSH1 0x0 JUMPDEST DUP4 DUP2 LT ISZERO PUSH2 0x7E3 JUMPI DUP5 DUP5 DUP3 DUP2 DUP2 LT PUSH2 0x19A5 JUMPI PUSH2 0x19A5 PUSH2 0x27DE JUMP JUMPDEST SWAP1 POP PUSH1 0x20 MUL ADD PUSH1 0x20 DUP2 ADD SWAP1 PUSH2 0x19BA SWAP2 SWAP1 PUSH2 0x2757 JUMP JUMPDEST PUSH1 0x1 PUSH1 0x1 PUSH1 0xA0 SHL SUB AND PUSH4 0xEE56997B DUP5 DUP5 PUSH1 0x40 MLOAD DUP4 PUSH4 0xFFFFFFFF AND PUSH1 0xE0 SHL DUP2 MSTORE PUSH1 0x4 ADD PUSH2 0x19E7 SWAP3 SWAP2 SWAP1 PUSH2 0x2AB8 JUMP JUMPDEST PUSH1 0x0 PUSH1 0x40 MLOAD DUP1 DUP4 SUB DUP2 PUSH1 0x0 DUP8 DUP1 EXTCODESIZE ISZERO DUP1 ISZERO PUSH2 0x1A01 JUMPI PUSH1 0x0 DUP1 REVERT JUMPDEST POP GAS CALL ISZERO DUP1 ISZERO PUSH2 0x1A15 JUMPI RETURNDATASIZE PUSH1 0x0 DUP1 RETURNDATACOPY RETURNDATASIZE PUSH1 0x0 REVERT JUMPDEST POP POP POP POP DUP1 PUSH2 0x1A23 SWAP1 PUSH2 0x280A JUMP JUMPDEST SWAP1 POP PUSH2 0x198B JUMP JUMPDEST CALLER PUSH1 0x0 SWAP1 DUP2 MSTORE PUSH1 0x20 DUP2 SWAP1 MSTORE PUSH1 0x40 DUP2 KECCAK256 SLOAD PUSH1 0xFF AND DUP1 PUSH2 0xCE1 JUMPI POP CALLER PUSH2 0x1A56 PUSH1 0x2 SLOAD PUSH1 0x1 PUSH1 0x1 PUSH1 0xA0 SHL SUB AND SWAP1 JUMP JUMPDEST PUSH1 0x1 PUSH1 0x1 PUSH1 0xA0 SHL SUB AND EQ SWAP1 POP SWAP1 JUMP JUMPDEST PUSH1 0x2 SLOAD PUSH1 0x1 PUSH1 0x1 PUSH1 0xA0 SHL SUB AND CALLER EQ PUSH2 0x1AB8 JUMPI PUSH1 0x40 MLOAD PUSH3 0x461BCD PUSH1 0xE5 SHL DUP2 MSTORE PUSH1 0x20 PUSH1 0x4 DUP3 ADD MSTORE PUSH1 0x16 PUSH1 0x24 DUP3 ADD MSTORE PUSH22 0x27B7363C9031B0B63630B1363290313C9037BBB732B9 PUSH1 0x51 SHL PUSH1 0x44 DUP3 ADD MSTORE PUSH1 0x64 ADD PUSH2 0x50E JUMP JUMPDEST JUMP JUMPDEST PUSH1 0x0 DUP1 DUP6 PUSH32 0x0 PUSH1 0x1 PUSH1 0x1 PUSH1 0xA0 SHL SUB AND DUP2 PUSH1 0x1 PUSH1 0x1 PUSH1 0xA0 SHL SUB AND SUB PUSH2 0x1B35 JUMPI PUSH1 0x40 MLOAD PUSH3 0x461BCD PUSH1 0xE5 SHL DUP2 MSTORE PUSH1 0x20 PUSH1 0x4 DUP3 ADD MSTORE PUSH1 0x13 PUSH1 0x24 DUP3 ADD MSTORE PUSH19 0x43616E6E6F742063616C6C20746F204C494E4B PUSH1 0x68 SHL PUSH1 0x44 DUP3 ADD MSTORE PUSH1 0x64 ADD PUSH2 0x50E JUMP JUMPDEST PUSH1 0x40 MLOAD PUSH1 0x1 PUSH1 0x1 PUSH1 0x60 SHL SUB NOT PUSH1 0x60 DUP12 SWAP1 SHL AND PUSH1 0x20 DUP3 ADD MSTORE PUSH1 0x34 DUP2 ADD DUP7 SWAP1 MSTORE PUSH1 0x54 ADD PUSH1 0x40 DUP1 MLOAD DUP1 DUP4 SUB PUSH1 0x1F NOT ADD DUP2 MSTORE SWAP2 DUP2 MSTORE DUP2 MLOAD PUSH1 0x20 SWAP3 DUP4 ADD KECCAK256 PUSH1 0x0 DUP2 DUP2 MSTORE PUSH1 0x4 SWAP1 SWAP4 MSTORE SWAP2 KECCAK256 SLOAD SWAP1 SWAP4 POP PUSH1 0x8 SHL PUSH1 0xFF NOT AND ISZERO PUSH2 0x1BC9 JUMPI PUSH1 0x40 MLOAD PUSH3 0x461BCD PUSH1 0xE5 SHL DUP2 MSTORE PUSH1 0x20 PUSH1 0x4 DUP3 ADD MSTORE PUSH1 0x14 PUSH1 0x24 DUP3 ADD MSTORE PUSH20 0x135D5CDD081D5CD94818481D5B9A5C5D59481251 PUSH1 0x62 SHL PUSH1 0x44 DUP3 ADD MSTORE PUSH1 0x64 ADD PUSH2 0x50E JUMP JUMPDEST PUSH2 0x1BD5 PUSH2 0x12C TIMESTAMP PUSH2 0x2AD4 JUMP JUMPDEST SWAP2 POP PUSH1 0x0 PUSH2 0x1BE5 DUP10 DUP10 DUP10 DUP7 PUSH2 0x1E69 JUMP JUMPDEST SWAP1 POP PUSH1 0x40 MLOAD DUP1 PUSH1 0x40 ADD PUSH1 0x40 MSTORE DUP1 DUP3 PUSH1 0xFF NOT AND DUP2 MSTORE PUSH1 0x20 ADD PUSH2 0x1C05 DUP8 PUSH2 0x2047 JUMP JUMPDEST PUSH1 0xFF SWAP1 DUP2 AND SWAP1 SWAP2 MSTORE PUSH1 0x0 DUP7 DUP2 MSTORE PUSH1 0x4 PUSH1 0x20 SWAP1 DUP2 MSTORE PUSH1 0x40 SWAP1 SWAP2 KECCAK256 DUP4 MLOAD SWAP4 SWAP1 SWAP2 ADD MLOAD SWAP1 SWAP2 AND PUSH1 0x1 PUSH1 0xF8 SHL MUL PUSH1 0x8 SWAP3 SWAP1 SWAP3 SHR SWAP2 SWAP1 SWAP2 OR SWAP1 SSTORE PUSH1 0x6 SLOAD PUSH2 0x1C48 SWAP1 DUP11 SWAP1 PUSH2 0x2AD4 JUMP JUMPDEST PUSH1 0x6 SSTORE POP POP SWAP7 POP SWAP7 SWAP5 POP POP POP POP POP JUMP JUMPDEST CALLER PUSH1 0x0 SWAP1 DUP2 MSTORE PUSH1 0x20 DUP2 SWAP1 MSTORE PUSH1 0x40 SWAP1 KECCAK256 SLOAD PUSH1 0xFF AND PUSH2 0x1AB8 JUMPI PUSH1 0x40 MLOAD PUSH3 0x461BCD PUSH1 0xE5 SHL DUP2 MSTORE PUSH1 0x20 PUSH1 0x4 DUP3 ADD MSTORE PUSH1 0x15 PUSH1 0x24 DUP3 ADD MSTORE PUSH21 0x2737BA1030BABA3437B934BD32B21039B2B73232B9 PUSH1 0x59 SHL PUSH1 0x44 DUP3 ADD MSTORE PUSH1 0x64 ADD PUSH2 0x50E JUMP JUMPDEST PUSH1 0x0 PUSH2 0x1CBD DUP7 DUP7 DUP7 DUP7 PUSH2 0x1E69 JUMP JUMPDEST PUSH1 0x0 DUP9 DUP2 MSTORE PUSH1 0x4 PUSH1 0x20 MSTORE PUSH1 0x40 SWAP1 KECCAK256 SLOAD SWAP1 SWAP2 POP PUSH1 0x8 SHL PUSH1 0xFF NOT SWAP1 DUP2 AND SWAP1 DUP3 AND EQ PUSH2 0x1D28 JUMPI PUSH1 0x40 MLOAD PUSH3 0x461BCD PUSH1 0xE5 SHL DUP2 MSTORE PUSH1 0x20 PUSH1 0x4 DUP3 ADD MSTORE PUSH1 0x1E PUSH1 0x24 DUP3 ADD MSTORE PUSH32 0x506172616D7320646F206E6F74206D6174636820726571756573742049440000 PUSH1 0x44 DUP3 ADD MSTORE PUSH1 0x64 ADD PUSH2 0x50E JUMP JUMPDEST PUSH2 0x1D31 DUP3 PUSH2 0x2047 JUMP JUMPDEST PUSH1 0x0 DUP9 DUP2 MSTORE PUSH1 0x4 PUSH1 0x20 MSTORE PUSH1 0x40 SWAP1 KECCAK256 SLOAD PUSH1 0xFF SWAP2 DUP3 AND PUSH1 0x1 PUSH1 0xF8 SHL SWAP1 SWAP2 DIV SWAP1 SWAP2 AND GT ISZERO PUSH2 0x1D9E JUMPI PUSH1 0x40 MLOAD PUSH3 0x461BCD PUSH1 0xE5 SHL DUP2 MSTORE PUSH1 0x20 PUSH1 0x4 DUP3 ADD MSTORE PUSH1 0x18 PUSH1 0x24 DUP3 ADD MSTORE PUSH32 0x446174612076657273696F6E73206D757374206D617463680000000000000000 PUSH1 0x44 DUP3 ADD MSTORE PUSH1 0x64 ADD PUSH2 0x50E JUMP JUMPDEST DUP6 PUSH1 0x6 SLOAD PUSH2 0x1DAC SWAP2 SWAP1 PUSH2 0x2933 JUMP JUMPDEST PUSH1 0x6 SSTORE POP POP POP PUSH1 0x0 SWAP4 DUP5 MSTORE POP POP PUSH1 0x4 PUSH1 0x20 MSTORE POP PUSH1 0x40 DUP2 KECCAK256 SSTORE JUMP JUMPDEST PUSH1 0x0 PUSH1 0x1 PUSH1 0x6 SLOAD PUSH2 0x1DD7 SWAP2 SWAP1 PUSH2 0x2933 JUMP JUMPDEST PUSH1 0x40 MLOAD PUSH4 0x70A08231 PUSH1 0xE0 SHL DUP2 MSTORE ADDRESS PUSH1 0x4 DUP3 ADD MSTORE PUSH32 0x0 PUSH1 0x1 PUSH1 0x1 PUSH1 0xA0 SHL SUB AND SWAP1 PUSH4 0x70A08231 SWAP1 PUSH1 0x24 ADD PUSH1 0x20 PUSH1 0x40 MLOAD DUP1 DUP4 SUB DUP2 DUP7 GAS STATICCALL ISZERO DUP1 ISZERO PUSH2 0x1E3B JUMPI RETURNDATASIZE PUSH1 0x0 DUP1 RETURNDATACOPY RETURNDATASIZE PUSH1 0x0 REVERT JUMPDEST POP POP POP POP PUSH1 0x40 MLOAD RETURNDATASIZE PUSH1 0x1F NOT PUSH1 0x1F DUP3 ADD AND DUP3 ADD DUP1 PUSH1 0x40 MSTORE POP DUP2 ADD SWAP1 PUSH2 0x1E5F SWAP2 SWAP1 PUSH2 0x2AE7 JUMP JUMPDEST PUSH2 0xCE1 SWAP2 SWAP1 PUSH2 0x2933 JUMP JUMPDEST PUSH1 0x40 DUP1 MLOAD PUSH1 0x20 DUP1 DUP3 ADD SWAP7 SWAP1 SWAP7 MSTORE PUSH1 0x60 SWAP5 SWAP1 SWAP5 SHL PUSH1 0x1 PUSH1 0x1 PUSH1 0x60 SHL SUB NOT AND DUP5 DUP3 ADD MSTORE PUSH1 0x1 PUSH1 0x1 PUSH1 0xE0 SHL SUB NOT SWAP3 SWAP1 SWAP3 AND PUSH1 0x54 DUP5 ADD MSTORE PUSH1 0x58 DUP1 DUP5 ADD SWAP2 SWAP1 SWAP2 MSTORE DUP2 MLOAD DUP1 DUP5 SUB SWAP1 SWAP2 ADD DUP2 MSTORE PUSH1 0x78 SWAP1 SWAP3 ADD SWAP1 MSTORE DUP1 MLOAD SWAP2 ADD KECCAK256 SWAP1 JUMP JUMPDEST PUSH2 0x1ECA PUSH1 0x2 PUSH1 0x20 PUSH2 0x2B00 JUMP JUMPDEST PUSH2 0x1ED5 SWAP1 PUSH1 0x4 PUSH2 0x2AD4 JUMP JUMPDEST DUP2 MLOAD LT ISZERO PUSH2 0x1F1E JUMPI PUSH1 0x40 MLOAD PUSH3 0x461BCD PUSH1 0xE5 SHL DUP2 MSTORE PUSH1 0x20 PUSH1 0x4 DUP3 ADD MSTORE PUSH1 0x16 PUSH1 0x24 DUP3 ADD MSTORE PUSH22 0x92DCECC2D8D2C840E4CAE2EACAE6E840D8CADCCEE8D PUSH1 0x53 SHL PUSH1 0x44 DUP3 ADD MSTORE PUSH1 0x64 ADD PUSH2 0x50E JUMP JUMPDEST PUSH1 0x1 PUSH1 0x1 PUSH1 0xE0 SHL SUB NOT DUP3 AND PUSH4 0x3C6D41B9 PUSH1 0xE0 SHL EQ DUP1 PUSH2 0x1F4D JUMPI POP PUSH1 0x1 PUSH1 0x1 PUSH1 0xE0 SHL SUB NOT DUP3 AND PUSH4 0x20214CA3 PUSH1 0xE1 SHL EQ JUMPDEST PUSH2 0x1F99 JUMPI PUSH1 0x40 MLOAD PUSH3 0x461BCD PUSH1 0xE5 SHL DUP2 MSTORE PUSH1 0x20 PUSH1 0x4 DUP3 ADD MSTORE PUSH1 0x1E PUSH1 0x24 DUP3 ADD MSTORE PUSH32 0x4D757374207573652077686974656C69737465642066756E6374696F6E730000 PUSH1 0x44 DUP3 ADD MSTORE PUSH1 0x64 ADD PUSH2 0x50E JUMP JUMPDEST POP POP JUMP JUMPDEST CALLER PUSH1 0x1 PUSH1 0x1 PUSH1 0xA0 SHL SUB DUP3 AND SUB PUSH2 0x1FF5 JUMPI PUSH1 0x40 MLOAD PUSH3 0x461BCD PUSH1 0xE5 SHL DUP2 MSTORE PUSH1 0x20 PUSH1 0x4 DUP3 ADD MSTORE PUSH1 0x17 PUSH1 0x24 DUP3 ADD MSTORE PUSH32 0x43616E6E6F74207472616E7366657220746F2073656C66000000000000000000 PUSH1 0x44 DUP3 ADD MSTORE PUSH1 0x64 ADD PUSH2 0x50E JUMP JUMPDEST PUSH1 0x3 DUP1 SLOAD PUSH1 0x1 PUSH1 0x1 PUSH1 0xA0 SHL SUB NOT AND PUSH1 0x1 PUSH1 0x1 PUSH1 0xA0 SHL SUB DUP4 DUP2 AND SWAP2 DUP3 OR SWAP1 SWAP3 SSTORE PUSH1 0x2 SLOAD PUSH1 0x40 MLOAD SWAP2 SWAP3 AND SWAP1 PUSH32 0xED8889F560326EB138920D842192F0EB3DD22B4F139C87A2C57538E05BAE1278 SWAP1 PUSH1 0x0 SWAP1 LOG3 POP JUMP JUMPDEST PUSH1 0x0 PUSH1 0xFF DUP3 GT ISZERO PUSH2 0x20A8 JUMPI PUSH1 0x40 MLOAD PUSH3 0x461BCD PUSH1 0xE5 SHL DUP2 MSTORE PUSH1 0x20 PUSH1 0x4 DUP3 ADD MSTORE PUSH1 0x25 PUSH1 0x24 DUP3 ADD MSTORE PUSH32 0x53616665436173743A2076616C756520646F65736E27742066697420696E2038 PUSH1 0x44 DUP3 ADD MSTORE PUSH5 0x2062697473 PUSH1 0xD8 SHL PUSH1 0x64 DUP3 ADD MSTORE PUSH1 0x84 ADD PUSH2 0x50E JUMP JUMPDEST POP SWAP1 JUMP JUMPDEST DUP3 DUP1 SLOAD DUP3 DUP3 SSTORE SWAP1 PUSH1 0x0 MSTORE PUSH1 0x20 PUSH1 0x0 KECCAK256 SWAP1 DUP2 ADD SWAP3 DUP3 ISZERO PUSH2 0x20FF JUMPI SWAP2 PUSH1 0x20 MUL DUP3 ADD JUMPDEST DUP3 DUP2 GT ISZERO PUSH2 0x20FF JUMPI DUP2 SLOAD PUSH1 0x1 PUSH1 0x1 PUSH1 0xA0 SHL SUB NOT AND PUSH1 0x1 PUSH1 0x1 PUSH1 0xA0 SHL SUB DUP5 CALLDATALOAD AND OR DUP3 SSTORE PUSH1 0x20 SWAP1 SWAP3 ADD SWAP2 PUSH1 0x1 SWAP1 SWAP2 ADD SWAP1 PUSH2 0x20CC JUMP JUMPDEST POP PUSH2 0x20A8 SWAP3 SWAP2 POP JUMPDEST DUP1 DUP3 GT ISZERO PUSH2 0x20A8 JUMPI PUSH1 0x0 DUP2 SSTORE PUSH1 0x1 ADD PUSH2 0x2107 JUMP JUMPDEST PUSH1 0x0 DUP1 DUP4 PUSH1 0x1F DUP5 ADD SLT PUSH2 0x212D JUMPI PUSH1 0x0 DUP1 REVERT JUMPDEST POP DUP2 CALLDATALOAD PUSH8 0xFFFFFFFFFFFFFFFF DUP2 GT ISZERO PUSH2 0x2145 JUMPI PUSH1 0x0 DUP1 REVERT JUMPDEST PUSH1 0x20 DUP4 ADD SWAP2 POP DUP4 PUSH1 0x20 DUP3 PUSH1 0x5 SHL DUP6 ADD ADD GT ISZERO PUSH2 0x2160 JUMPI PUSH1 0x0 DUP1 REVERT JUMPDEST SWAP3 POP SWAP3 SWAP1 POP JUMP JUMPDEST PUSH1 0x0 DUP1 PUSH1 0x20 DUP4 DUP6 SUB SLT ISZERO PUSH2 0x217A JUMPI PUSH1 0x0 DUP1 REVERT JUMPDEST DUP3 CALLDATALOAD PUSH8 0xFFFFFFFFFFFFFFFF DUP2 GT ISZERO PUSH2 0x2191 JUMPI PUSH1 0x0 DUP1 REVERT JUMPDEST PUSH2 0x219D DUP6 DUP3 DUP7 ADD PUSH2 0x211B JUMP JUMPDEST SWAP1 SWAP7 SWAP1 SWAP6 POP SWAP4 POP POP POP POP JUMP JUMPDEST PUSH1 0x1 PUSH1 0x1 PUSH1 0xA0 SHL SUB DUP2 AND DUP2 EQ PUSH2 0x1853 JUMPI PUSH1 0x0 DUP1 REVERT JUMPDEST PUSH1 0x0 DUP1 DUP4 PUSH1 0x1F DUP5 ADD SLT PUSH2 0x21D0 JUMPI PUSH1 0x0 DUP1 REVERT JUMPDEST POP DUP2 CALLDATALOAD PUSH8 0xFFFFFFFFFFFFFFFF DUP2 GT ISZERO PUSH2 0x21E8 JUMPI PUSH1 0x0 DUP1 REVERT JUMPDEST PUSH1 0x20 DUP4 ADD SWAP2 POP DUP4 PUSH1 0x20 DUP3 DUP6 ADD ADD GT ISZERO PUSH2 0x2160 JUMPI PUSH1 0x0 DUP1 REVERT JUMPDEST PUSH1 0x0 DUP1 PUSH1 0x0 PUSH1 0x40 DUP5 DUP7 SUB SLT ISZERO PUSH2 0x2215 JUMPI PUSH1 0x0 DUP1 REVERT JUMPDEST DUP4 CALLDATALOAD PUSH2 0x2220 DUP2 PUSH2 0x21A9 JUMP JUMPDEST SWAP3 POP PUSH1 0x20 DUP5 ADD CALLDATALOAD PUSH8 0xFFFFFFFFFFFFFFFF DUP2 GT ISZERO PUSH2 0x223C JUMPI PUSH1 0x0 DUP1 REVERT JUMPDEST PUSH2 0x2248 DUP7 DUP3 DUP8 ADD PUSH2 0x21BE JUMP JUMPDEST SWAP5 SWAP8 SWAP1 SWAP7 POP SWAP4 SWAP5 POP POP POP POP JUMP JUMPDEST PUSH1 0x0 JUMPDEST DUP4 DUP2 LT ISZERO PUSH2 0x2270 JUMPI DUP2 DUP2 ADD MLOAD DUP4 DUP3 ADD MSTORE PUSH1 0x20 ADD PUSH2 0x2258 JUMP JUMPDEST POP POP PUSH1 0x0 SWAP2 ADD MSTORE JUMP JUMPDEST PUSH1 0x20 DUP2 MSTORE PUSH1 0x0 DUP3 MLOAD DUP1 PUSH1 0x20 DUP5 ADD MSTORE PUSH2 0x2298 DUP2 PUSH1 0x40 DUP6 ADD PUSH1 0x20 DUP8 ADD PUSH2 0x2255 JUMP JUMPDEST PUSH1 0x1F ADD PUSH1 0x1F NOT AND SWAP2 SWAP1 SWAP2 ADD PUSH1 0x40 ADD SWAP3 SWAP2 POP POP JUMP JUMPDEST PUSH1 0x20 DUP1 DUP3 MSTORE DUP3 MLOAD DUP3 DUP3 ADD DUP2 SWAP1 MSTORE PUSH1 0x0 SWAP2 SWAP1 DUP5 DUP3 ADD SWAP1 PUSH1 0x40 DUP6 ADD SWAP1 DUP5 JUMPDEST DUP2 DUP2 LT ISZERO PUSH2 0x22ED JUMPI DUP4 MLOAD PUSH1 0x1 PUSH1 0x1 PUSH1 0xA0 SHL SUB AND DUP4 MSTORE SWAP3 DUP5 ADD SWAP3 SWAP2 DUP5 ADD SWAP2 PUSH1 0x1 ADD PUSH2 0x22C8 JUMP JUMPDEST POP SWAP1 SWAP7 SWAP6 POP POP POP POP POP POP JUMP JUMPDEST DUP1 CALLDATALOAD PUSH1 0x1 PUSH1 0x1 PUSH1 0xE0 SHL SUB NOT DUP2 AND DUP2 EQ PUSH2 0x2311 JUMPI PUSH1 0x0 DUP1 REVERT JUMPDEST SWAP2 SWAP1 POP JUMP JUMPDEST PUSH1 0x0 DUP1 PUSH1 0x0 DUP1 PUSH1 0x0 DUP1 PUSH1 0x0 DUP1 PUSH1 0xE0 DUP10 DUP12 SUB SLT ISZERO PUSH2 0x2332 JUMPI PUSH1 0x0 DUP1 REVERT JUMPDEST DUP9 CALLDATALOAD PUSH2 0x233D DUP2 PUSH2 0x21A9 JUMP JUMPDEST SWAP8 POP PUSH1 0x20 DUP10 ADD CALLDATALOAD SWAP7 POP PUSH1 0x40 DUP10 ADD CALLDATALOAD SWAP6 POP PUSH2 0x2359 PUSH1 0x60 DUP11 ADD PUSH2 0x22F9 JUMP JUMPDEST SWAP5 POP PUSH1 0x80 DUP10 ADD CALLDATALOAD SWAP4 POP PUSH1 0xA0 DUP10 ADD CALLDATALOAD SWAP3 POP PUSH1 0xC0 DUP10 ADD CALLDATALOAD PUSH8 0xFFFFFFFFFFFFFFFF DUP2 GT ISZERO PUSH2 0x2383 JUMPI PUSH1 0x0 DUP1 REVERT JUMPDEST PUSH2 0x238F DUP12 DUP3 DUP13 ADD PUSH2 0x21BE JUMP JUMPDEST SWAP10 SWAP13 SWAP9 SWAP12 POP SWAP7 SWAP10 POP SWAP5 SWAP8 SWAP4 SWAP7 SWAP3 SWAP6 SWAP5 POP POP POP JUMP JUMPDEST PUSH1 0x0 DUP1 PUSH1 0x0 PUSH1 0x40 DUP5 DUP7 SUB SLT ISZERO PUSH2 0x23B8 JUMPI PUSH1 0x0 DUP1 REVERT JUMPDEST DUP4 CALLDATALOAD PUSH8 0xFFFFFFFFFFFFFFFF DUP2 GT ISZERO PUSH2 0x23CF JUMPI PUSH1 0x0 DUP1 REVERT JUMPDEST PUSH2 0x23DB DUP7 DUP3 DUP8 ADD PUSH2 0x211B JUMP JUMPDEST SWAP1 SWAP5 POP SWAP3 POP POP PUSH1 0x20 DUP5 ADD CALLDATALOAD PUSH2 0x23EF DUP2 PUSH2 0x21A9 JUMP JUMPDEST DUP1 SWAP2 POP POP SWAP3 POP SWAP3 POP SWAP3 JUMP JUMPDEST PUSH1 0x0 DUP1 PUSH1 0x0 DUP1 PUSH1 0x0 DUP1 PUSH1 0x0 DUP1 PUSH1 0x0 PUSH2 0x100 DUP11 DUP13 SUB SLT ISZERO PUSH2 0x2419 JUMPI PUSH1 0x0 DUP1 REVERT JUMPDEST DUP10 CALLDATALOAD PUSH2 0x2424 DUP2 PUSH2 0x21A9 JUMP JUMPDEST SWAP9 POP PUSH1 0x20 DUP11 ADD CALLDATALOAD SWAP8 POP PUSH1 0x40 DUP11 ADD CALLDATALOAD SWAP7 POP PUSH1 0x60 DUP11 ADD CALLDATALOAD PUSH2 0x2442 DUP2 PUSH2 0x21A9 JUMP JUMPDEST SWAP6 POP PUSH2 0x2450 PUSH1 0x80 DUP12 ADD PUSH2 0x22F9 JUMP JUMPDEST SWAP5 POP PUSH1 0xA0 DUP11 ADD CALLDATALOAD SWAP4 POP PUSH1 0xC0 DUP11 ADD CALLDATALOAD SWAP3 POP PUSH1 0xE0 DUP11 ADD CALLDATALOAD PUSH8 0xFFFFFFFFFFFFFFFF DUP2 GT ISZERO PUSH2 0x247A JUMPI PUSH1 0x0 DUP1 REVERT JUMPDEST PUSH2 0x2486 DUP13 DUP3 DUP14 ADD PUSH2 0x21BE JUMP JUMPDEST SWAP2 POP DUP1 SWAP4 POP POP DUP1 SWAP2 POP POP SWAP3 SWAP6 SWAP9 POP SWAP3 SWAP6 SWAP9 POP SWAP3 SWAP6 SWAP9 JUMP JUMPDEST PUSH1 0x0 DUP1 PUSH1 0x0 DUP1 PUSH1 0x0 DUP1 PUSH1 0xC0 DUP8 DUP10 SUB SLT ISZERO PUSH2 0x24B6 JUMPI PUSH1 0x0 DUP1 REVERT JUMPDEST DUP7 CALLDATALOAD SWAP6 POP PUSH1 0x20 DUP8 ADD CALLDATALOAD SWAP5 POP PUSH1 0x40 DUP8 ADD CALLDATALOAD PUSH2 0x24CF DUP2 PUSH2 0x21A9 JUMP JUMPDEST SWAP4 POP PUSH2 0x24DD PUSH1 0x60 DUP9 ADD PUSH2 0x22F9 JUMP JUMPDEST SWAP3 POP PUSH1 0x80 DUP8 ADD CALLDATALOAD SWAP2 POP PUSH1 0xA0 DUP8 ADD CALLDATALOAD SWAP1 POP SWAP3 SWAP6 POP SWAP3 SWAP6 POP SWAP3 SWAP6 JUMP JUMPDEST PUSH1 0x0 DUP1 PUSH1 0x0 DUP1 PUSH1 0x40 DUP6 DUP8 SUB SLT ISZERO PUSH2 0x250D JUMPI PUSH1 0x0 DUP1 REVERT JUMPDEST DUP5 CALLDATALOAD PUSH8 0xFFFFFFFFFFFFFFFF DUP1 DUP3 GT ISZERO PUSH2 0x2525 JUMPI PUSH1 0x0 DUP1 REVERT JUMPDEST PUSH2 0x2531 DUP9 DUP4 DUP10 ADD PUSH2 0x211B JUMP JUMPDEST SWAP1 SWAP7 POP SWAP5 POP PUSH1 0x20 DUP8 ADD CALLDATALOAD SWAP2 POP DUP1 DUP3 GT ISZERO PUSH2 0x254A JUMPI PUSH1 0x0 DUP1 REVERT JUMPDEST POP PUSH2 0x2557 DUP8 DUP3 DUP9 ADD PUSH2 0x211B JUMP JUMPDEST SWAP6 SWAP9 SWAP5 SWAP8 POP SWAP6 POP POP POP POP JUMP JUMPDEST PUSH1 0x0 DUP1 PUSH1 0x0 DUP1 PUSH1 0x0 DUP1 PUSH1 0x0 PUSH1 0xC0 DUP9 DUP11 SUB SLT ISZERO PUSH2 0x257E JUMPI PUSH1 0x0 DUP1 REVERT JUMPDEST DUP8 CALLDATALOAD SWAP7 POP PUSH1 0x20 DUP9 ADD CALLDATALOAD SWAP6 POP PUSH1 0x40 DUP9 ADD CALLDATALOAD PUSH2 0x2597 DUP2 PUSH2 0x21A9 JUMP JUMPDEST SWAP5 POP PUSH2 0x25A5 PUSH1 0x60 DUP10 ADD PUSH2 0x22F9 JUMP JUMPDEST SWAP4 POP PUSH1 0x80 DUP9 ADD CALLDATALOAD SWAP3 POP PUSH1 0xA0 DUP9 ADD CALLDATALOAD PUSH8 0xFFFFFFFFFFFFFFFF DUP2 GT ISZERO PUSH2 0x25C8 JUMPI PUSH1 0x0 DUP1 REVERT JUMPDEST PUSH2 0x25D4 DUP11 DUP3 DUP12 ADD PUSH2 0x21BE JUMP JUMPDEST SWAP9 SWAP12 SWAP8 SWAP11 POP SWAP6 SWAP9 POP SWAP4 SWAP7 SWAP3 SWAP6 SWAP3 SWAP4 POP POP POP JUMP JUMPDEST PUSH1 0x0 DUP1 PUSH1 0x0 DUP1 PUSH1 0x80 DUP6 DUP8 SUB SLT ISZERO PUSH2 0x25FD JUMPI PUSH1 0x0 DUP1 REVERT JUMPDEST DUP5 CALLDATALOAD SWAP4 POP PUSH1 0x20 DUP6 ADD CALLDATALOAD SWAP3 POP PUSH2 0x2614 PUSH1 0x40 DUP7 ADD PUSH2 0x22F9 JUMP JUMPDEST SWAP4 SWAP7 SWAP3 SWAP6 POP SWAP3 SWAP4 PUSH1 0x60 ADD CALLDATALOAD SWAP3 POP POP JUMP JUMPDEST PUSH1 0x0 DUP1 PUSH1 0x0 DUP1 PUSH1 0x60 DUP6 DUP8 SUB SLT ISZERO PUSH2 0x263A JUMPI PUSH1 0x0 DUP1 REVERT JUMPDEST DUP5 CALLDATALOAD PUSH2 0x2645 DUP2 PUSH2 0x21A9 JUMP JUMPDEST SWAP4 POP PUSH1 0x20 DUP6 ADD CALLDATALOAD SWAP3 POP PUSH1 0x40 DUP6 ADD CALLDATALOAD PUSH8 0xFFFFFFFFFFFFFFFF DUP2 GT ISZERO PUSH2 0x2668 JUMPI PUSH1 0x0 DUP1 REVERT JUMPDEST PUSH2 0x2557 DUP8 DUP3 DUP9 ADD PUSH2 0x21BE JUMP JUMPDEST PUSH4 0x4E487B71 PUSH1 0xE0 SHL PUSH1 0x0 MSTORE PUSH1 0x41 PUSH1 0x4 MSTORE PUSH1 0x24 PUSH1 0x0 REVERT JUMPDEST PUSH1 0x0 DUP1 PUSH1 0x0 PUSH1 0x60 DUP5 DUP7 SUB SLT ISZERO PUSH2 0x269F JUMPI PUSH1 0x0 DUP1 REVERT JUMPDEST DUP4 CALLDATALOAD PUSH2 0x26AA DUP2 PUSH2 0x21A9 JUMP JUMPDEST SWAP3 POP PUSH1 0x20 DUP5 ADD CALLDATALOAD SWAP2 POP PUSH1 0x40 DUP5 ADD CALLDATALOAD PUSH8 0xFFFFFFFFFFFFFFFF DUP1 DUP3 GT ISZERO PUSH2 0x26CE JUMPI PUSH1 0x0 DUP1 REVERT JUMPDEST DUP2 DUP7 ADD SWAP2 POP DUP7 PUSH1 0x1F DUP4 ADD SLT PUSH2 0x26E2 JUMPI PUSH1 0x0 DUP1 REVERT JUMPDEST DUP2 CALLDATALOAD DUP2 DUP2 GT ISZERO PUSH2 0x26F4 JUMPI PUSH2 0x26F4 PUSH2 0x2674 JUMP JUMPDEST PUSH1 0x40 MLOAD PUSH1 0x1F DUP3 ADD PUSH1 0x1F NOT SWAP1 DUP2 AND PUSH1 0x3F ADD AND DUP2 ADD SWAP1 DUP4 DUP3 GT DUP2 DUP4 LT OR ISZERO PUSH2 0x271C JUMPI PUSH2 0x271C PUSH2 0x2674 JUMP JUMPDEST DUP2 PUSH1 0x40 MSTORE DUP3 DUP2 MSTORE DUP10 PUSH1 0x20 DUP5 DUP8 ADD ADD GT ISZERO PUSH2 0x2735 JUMPI PUSH1 0x0 DUP1 REVERT JUMPDEST DUP3 PUSH1 0x20 DUP7 ADD PUSH1 0x20 DUP4 ADD CALLDATACOPY PUSH1 0x0 PUSH1 0x20 DUP5 DUP4 ADD ADD MSTORE DUP1 SWAP6 POP POP POP POP POP POP SWAP3 POP SWAP3 POP SWAP3 JUMP JUMPDEST PUSH1 0x0 PUSH1 0x20 DUP3 DUP5 SUB SLT ISZERO PUSH2 0x2769 JUMPI PUSH1 0x0 DUP1 REVERT JUMPDEST DUP2 CALLDATALOAD PUSH2 0x2774 DUP2 PUSH2 0x21A9 JUMP JUMPDEST SWAP4 SWAP3 POP POP POP JUMP JUMPDEST PUSH1 0x0 DUP1 PUSH1 0x40 DUP4 DUP6 SUB SLT ISZERO PUSH2 0x278E JUMPI PUSH1 0x0 DUP1 REVERT JUMPDEST DUP3 CALLDATALOAD PUSH2 0x2799 DUP2 PUSH2 0x21A9 JUMP JUMPDEST SWAP5 PUSH1 0x20 SWAP4 SWAP1 SWAP4 ADD CALLDATALOAD SWAP4 POP POP POP JUMP JUMPDEST PUSH1 0x20 DUP1 DUP3 MSTORE PUSH1 0x1D SWAP1 DUP3 ADD MSTORE PUSH32 0x43616E6E6F742073657420617574686F72697A65642073656E64657273000000 PUSH1 0x40 DUP3 ADD MSTORE PUSH1 0x60 ADD SWAP1 JUMP JUMPDEST PUSH4 0x4E487B71 PUSH1 0xE0 SHL PUSH1 0x0 MSTORE PUSH1 0x32 PUSH1 0x4 MSTORE PUSH1 0x24 PUSH1 0x0 REVERT JUMPDEST PUSH4 0x4E487B71 PUSH1 0xE0 SHL PUSH1 0x0 MSTORE PUSH1 0x11 PUSH1 0x4 MSTORE PUSH1 0x24 PUSH1 0x0 REVERT JUMPDEST PUSH1 0x0 PUSH1 0x1 DUP3 ADD PUSH2 0x281C JUMPI PUSH2 0x281C PUSH2 0x27F4 JUMP JUMPDEST POP PUSH1 0x1 ADD SWAP1 JUMP JUMPDEST DUP2 DUP4 DUP3 CALLDATACOPY PUSH1 0x0 SWAP2 ADD SWAP1 DUP2 MSTORE SWAP2 SWAP1 POP JUMP JUMPDEST PUSH1 0x20 DUP1 DUP3 MSTORE PUSH1 0x13 SWAP1 DUP3 ADD MSTORE PUSH19 0x26BAB9BA103AB9B2902624A725903A37B5B2B7 PUSH1 0x69 SHL PUSH1 0x40 DUP3 ADD MSTORE PUSH1 0x60 ADD SWAP1 JUMP JUMPDEST DUP2 DUP4 MSTORE DUP2 DUP2 PUSH1 0x20 DUP6 ADD CALLDATACOPY POP PUSH1 0x0 DUP3 DUP3 ADD PUSH1 0x20 SWAP1 DUP2 ADD SWAP2 SWAP1 SWAP2 MSTORE PUSH1 0x1F SWAP1 SWAP2 ADD PUSH1 0x1F NOT AND SWAP1 SWAP2 ADD ADD SWAP1 JUMP JUMPDEST PUSH1 0x1 PUSH1 0x1 PUSH1 0xA0 SHL SUB DUP11 DUP2 AND DUP3 MSTORE PUSH1 0x20 DUP3 ADD DUP11 SWAP1 MSTORE PUSH1 0x40 DUP3 ADD DUP10 SWAP1 MSTORE DUP8 AND PUSH1 0x60 DUP3 ADD MSTORE PUSH1 0x1 PUSH1 0x1 PUSH1 0xE0 SHL SUB NOT DUP7 AND PUSH1 0x80 DUP3 ADD MSTORE PUSH1 0xA0 DUP2 ADD DUP6 SWAP1 MSTORE PUSH1 0xC0 DUP2 ADD DUP5 SWAP1 MSTORE PUSH2 0x100 PUSH1 0xE0 DUP3 ADD DUP2 SWAP1 MSTORE PUSH1 0x0 SWAP1 PUSH2 0x28E3 DUP4 DUP3 ADD DUP6 DUP8 PUSH2 0x2860 JUMP JUMPDEST SWAP13 SWAP12 POP POP POP POP POP POP POP POP POP POP POP POP JUMP JUMPDEST PUSH1 0x0 DUP3 MLOAD PUSH2 0x2905 DUP2 DUP5 PUSH1 0x20 DUP8 ADD PUSH2 0x2255 JUMP JUMPDEST SWAP2 SWAP1 SWAP2 ADD SWAP3 SWAP2 POP POP JUMP JUMPDEST PUSH1 0x1 PUSH1 0x1 PUSH1 0xE0 SHL SUB NOT DUP5 AND DUP2 MSTORE DUP2 DUP4 PUSH1 0x4 DUP4 ADD CALLDATACOPY PUSH1 0x0 SWAP2 ADD PUSH1 0x4 ADD SWAP1 DUP2 MSTORE SWAP3 SWAP2 POP POP JUMP JUMPDEST DUP2 DUP2 SUB DUP2 DUP2 GT ISZERO PUSH2 0x2946 JUMPI PUSH2 0x2946 PUSH2 0x27F4 JUMP JUMPDEST SWAP3 SWAP2 POP POP JUMP JUMPDEST PUSH1 0x0 PUSH1 0x20 DUP3 DUP5 SUB SLT ISZERO PUSH2 0x295E JUMPI PUSH1 0x0 DUP1 REVERT JUMPDEST DUP2 MLOAD DUP1 ISZERO ISZERO DUP2 EQ PUSH2 0x2774 JUMPI PUSH1 0x0 DUP1 REVERT JUMPDEST PUSH1 0x20 DUP1 DUP3 MSTORE PUSH1 0x35 SWAP1 DUP3 ADD MSTORE PUSH32 0x416D6F756E74207265717565737465642069732067726561746572207468616E PUSH1 0x40 DUP3 ADD MSTORE PUSH21 0x20776974686472617761626C652062616C616E6365 PUSH1 0x58 SHL PUSH1 0x60 DUP3 ADD MSTORE PUSH1 0x80 ADD SWAP1 JUMP JUMPDEST PUSH1 0x1 DUP1 PUSH1 0xA0 SHL SUB DUP6 AND DUP2 MSTORE DUP4 PUSH1 0x20 DUP3 ADD MSTORE PUSH1 0x60 PUSH1 0x40 DUP3 ADD MSTORE PUSH1 0x0 PUSH2 0x14B9 PUSH1 0x60 DUP4 ADD DUP5 DUP7 PUSH2 0x2860 JUMP JUMPDEST DUP2 DUP4 MSTORE PUSH1 0x0 PUSH1 0x20 DUP1 DUP6 ADD SWAP5 POP DUP3 PUSH1 0x0 JUMPDEST DUP6 DUP2 LT ISZERO PUSH2 0x2A29 JUMPI DUP2 CALLDATALOAD PUSH2 0x2A0E DUP2 PUSH2 0x21A9 JUMP JUMPDEST PUSH1 0x1 PUSH1 0x1 PUSH1 0xA0 SHL SUB AND DUP8 MSTORE SWAP6 DUP3 ADD SWAP6 SWAP1 DUP3 ADD SWAP1 PUSH1 0x1 ADD PUSH2 0x29FB JUMP JUMPDEST POP SWAP5 SWAP6 SWAP5 POP POP POP POP POP JUMP JUMPDEST PUSH1 0x40 DUP2 MSTORE PUSH1 0x0 PUSH2 0x2A48 PUSH1 0x40 DUP4 ADD DUP6 DUP8 PUSH2 0x29EB JUMP JUMPDEST SWAP1 POP PUSH1 0x1 DUP1 PUSH1 0xA0 SHL SUB DUP4 AND PUSH1 0x20 DUP4 ADD MSTORE SWAP5 SWAP4 POP POP POP POP JUMP JUMPDEST PUSH4 0x4E487B71 PUSH1 0xE0 SHL PUSH1 0x0 MSTORE PUSH1 0x1 PUSH1 0x4 MSTORE PUSH1 0x24 PUSH1 0x0 REVERT JUMPDEST PUSH1 0x60 DUP2 MSTORE PUSH1 0x0 PUSH2 0x2A8A PUSH1 0x60 DUP4 ADD DUP8 DUP10 PUSH2 0x29EB JUMP JUMPDEST DUP3 DUP2 SUB PUSH1 0x20 DUP5 ADD MSTORE PUSH2 0x2A9D DUP2 DUP7 DUP9 PUSH2 0x29EB JUMP JUMPDEST SWAP2 POP POP PUSH1 0x1 DUP1 PUSH1 0xA0 SHL SUB DUP4 AND PUSH1 0x40 DUP4 ADD MSTORE SWAP7 SWAP6 POP POP POP POP POP POP JUMP JUMPDEST PUSH1 0x20 DUP2 MSTORE PUSH1 0x0 PUSH2 0x2ACC PUSH1 0x20 DUP4 ADD DUP5 DUP7 PUSH2 0x29EB JUMP JUMPDEST SWAP5 SWAP4 POP POP POP POP JUMP JUMPDEST DUP1 DUP3 ADD DUP1 DUP3 GT ISZERO PUSH2 0x2946 JUMPI PUSH2 0x2946 PUSH2 0x27F4 JUMP JUMPDEST PUSH1 0x0 PUSH1 0x20 DUP3 DUP5 SUB SLT ISZERO PUSH2 0x2AF9 JUMPI PUSH1 0x0 DUP1 REVERT JUMPDEST POP MLOAD SWAP2 SWAP1 POP JUMP JUMPDEST DUP1 DUP3 MUL DUP2 ISZERO DUP3 DUP3 DIV DUP5 EQ OR PUSH2 0x2946 JUMPI PUSH2 0x2946 PUSH2 0x27F4 JUMP INVALID LOG2 PUSH5 0x6970667358 0x22 SLT KECCAK256 PUSH20 0xCAA4E20A43AAF9E378989D943CD5E3C6335F5FE2 0xBD DUP1 0xD6 0x2D DUP9 0xB9 MSIZE SHR SWAP14 CALLDATACOPY 0xE2 PUSH5 0x736F6C6343 STOP ADDMOD SGT STOP CALLER "},"methodIdentifiers":{"EXPIRYTIME()":"52043783","acceptAuthorizedReceivers(address[],address[])":"5ffa6288","acceptOwnableContracts(address[])":"01994b99","acceptOwnership()":"79ba5097","cancelOracleRequest(bytes32,uint256,bytes4,uint256)":"6ee4d553","cancelOracleRequestByRequester(uint256,uint256,bytes4,uint256)":"eb007d99","distributeFunds(address[],uint256[])":"6bd59ec0","fulfillOracleRequest(bytes32,uint256,address,bytes4,uint256,bytes32)":"4ab0d190","fulfillOracleRequest2(bytes32,uint256,address,bytes4,uint256,bytes)":"6ae0bc76","getAuthorizedSenders()":"2408afaa","getChainlinkToken()":"165d35e1","isAuthorizedSender(address)":"fa00763a","onTokenTransfer(address,uint256,bytes)":"a4c0ed36","operatorRequest(address,uint256,bytes32,bytes4,uint256,uint256,bytes)":"3c6d41b9","oracleRequest(address,uint256,bytes32,address,bytes4,uint256,uint256,bytes)":"40429946","owner()":"8da5cb5b","ownerForward(address,bytes)":"033f49f7","ownerTransferAndCall(address,uint256,bytes)":"902fc370","setAuthorizedSenders(address[])":"ee56997b","setAuthorizedSendersOn(address[],address[])":"fc4a03ed","transferOwnableContracts(address[],address)":"3ec5bc14","transferOwnership(address)":"f2fde38b","typeAndVersion()":"181f5a77","withdraw(address,uint256)":"f3fef3a3","withdrawable()":"50188301"}},"storageLayout":{"storage":[{"astId":1097,"contract":"@chainlink/contracts/src/v0.8/operatorforwarder/Operator.sol:Operator","label":"s_authorizedSenders","offset":0,"slot":"0","type":"t_mapping(t_address,t_bool)"},{"astId":1100,"contract":"@chainlink/contracts/src/v0.8/operatorforwarder/Operator.sol:Operator","label":"s_authorizedSenderList","offset":0,"slot":"1","type":"t_array(t_address)dyn_storage"},{"astId":2501,"contract":"@chainlink/contracts/src/v0.8/operatorforwarder/Operator.sol:Operator","label":"s_owner","offset":0,"slot":"2","type":"t_address"},{"astId":2503,"contract":"@chainlink/contracts/src/v0.8/operatorforwarder/Operator.sol:Operator","label":"s_pendingOwner","offset":0,"slot":"3","type":"t_address"},{"astId":1405,"contract":"@chainlink/contracts/src/v0.8/operatorforwarder/Operator.sol:Operator","label":"s_commitments","offset":0,"slot":"4","type":"t_mapping(t_bytes32,t_struct(Commitment)1361_storage)"},{"astId":1409,"contract":"@chainlink/contracts/src/v0.8/operatorforwarder/Operator.sol:Operator","label":"s_owned","offset":0,"slot":"5","type":"t_mapping(t_address,t_bool)"},{"astId":1412,"contract":"@chainlink/contracts/src/v0.8/operatorforwarder/Operator.sol:Operator","label":"s_tokensInEscrow","offset":0,"slot":"6","type":"t_uint256"}],"types":{"t_address":{"encoding":"inplace","label":"address","numberOfBytes":"20"},"t_array(t_address)dyn_storage":{"base":"t_address","encoding":"dynamic_array","label":"address[]","numberOfBytes":"32"},"t_bool":{"encoding":"inplace","label":"bool","numberOfBytes":"1"},"t_bytes31":{"encoding":"inplace","label":"bytes31","numberOfBytes":"31"},"t_bytes32":{"encoding":"inplace","label":"bytes32","numberOfBytes":"32"},"t_mapping(t_address,t_bool)":{"encoding":"mapping","key":"t_address","label":"mapping(address => bool)","numberOfBytes":"32","value":"t_bool"},"t_mapping(t_bytes32,t_struct(Commitment)1361_storage)":{"encoding":"mapping","key":"t_bytes32","label":"mapping(bytes32 => struct Operator.Commitment)","numberOfBytes":"32","value":"t_struct(Commitment)1361_storage"},"t_struct(Commitment)1361_storage":{"encoding":"inplace","label":"struct Operator.Commitment","members":[{"astId":1358,"contract":"@chainlink/contracts/src/v0.8/operatorforwarder/Operator.sol:Operator","label":"paramsHash","offset":0,"slot":"0","type":"t_bytes31"},{"astId":1360,"contract":"@chainlink/contracts/src/v0.8/operatorforwarder/Operator.sol:Operator","label":"dataVersion","offset":31,"slot":"0","type":"t_uint8"}],"numberOfBytes":"32"},"t_uint256":{"encoding":"inplace","label":"uint256","numberOfBytes":"32"},"t_uint8":{"encoding":"inplace","label":"uint8","numberOfBytes":"1"}}}}}}