{"contracts/HighLevelOracle.sol":{"HighLevelOracle":{"abi":[{"inputs":[],"stateMutability":"nonpayable","type":"constructor"},{"anonymous":false,"inputs":[{"indexed":true,"internalType":"bytes32","name":"id","type":"bytes32"}],"name":"ChainlinkCancelled","type":"event"},{"anonymous":false,"inputs":[{"indexed":true,"internalType":"bytes32","name":"id","type":"bytes32"}],"name":"ChainlinkFulfilled","type":"event"},{"anonymous":false,"inputs":[{"indexed":true,"internalType":"bytes32","name":"id","type":"bytes32"}],"name":"ChainlinkRequested","type":"event"},{"anonymous":false,"inputs":[{"indexed":true,"internalType":"bytes32","name":"requestId","type":"bytes32"}],"name":"EthereumPriceRequested","type":"event"},{"anonymous":false,"inputs":[{"indexed":true,"internalType":"address","name":"from","type":"address"},{"indexed":true,"internalType":"address","name":"to","type":"address"}],"name":"OwnershipTransferRequested","type":"event"},{"anonymous":false,"inputs":[{"indexed":true,"internalType":"address","name":"from","type":"address"},{"indexed":true,"internalType":"address","name":"to","type":"address"}],"name":"OwnershipTransferred","type":"event"},{"anonymous":false,"inputs":[{"indexed":true,"internalType":"bytes32","name":"requestId","type":"bytes32"},{"indexed":true,"internalType":"uint256","name":"price","type":"uint256"}],"name":"RequestEthereumPriceFulfilled","type":"event"},{"inputs":[],"name":"acceptOwnership","outputs":[],"stateMutability":"nonpayable","type":"function"},{"inputs":[{"internalType":"bytes32","name":"_requestId","type":"bytes32"},{"internalType":"uint256","name":"_payment","type":"uint256"},{"internalType":"bytes4","name":"_callbackFunctionId","type":"bytes4"},{"internalType":"uint256","name":"_expiration","type":"uint256"}],"name":"cancelRequest","outputs":[],"stateMutability":"nonpayable","type":"function"},{"inputs":[],"name":"currentPrice","outputs":[{"internalType":"uint256","name":"","type":"uint256"}],"stateMutability":"view","type":"function"},{"inputs":[{"internalType":"bytes32","name":"_requestId","type":"bytes32"},{"internalType":"uint256","name":"_price","type":"uint256"}],"name":"fulfillEthereumPrice","outputs":[],"stateMutability":"nonpayable","type":"function"},{"inputs":[],"name":"getChainlinkToken","outputs":[{"internalType":"address","name":"","type":"address"}],"stateMutability":"view","type":"function"},{"inputs":[],"name":"owner","outputs":[{"internalType":"address","name":"","type":"address"}],"stateMutability":"view","type":"function"},{"inputs":[{"internalType":"address","name":"_oracle","type":"address"},{"internalType":"string","name":"_jobId","type":"string"}],"name":"requestEthereumPrice","outputs":[],"stateMutability":"nonpayable","type":"function"},{"inputs":[{"internalType":"address","name":"to","type":"address"}],"name":"transferOwnership","outputs":[],"stateMutability":"nonpayable","type":"function"},{"inputs":[],"name":"withdrawLink","outputs":[],"stateMutability":"nonpayable","type":"function"}],"evm":{"bytecode":{"linkReferences":{},"object":"6080604052600160045534801561001557600080fd5b50338060008161006c5760405162461bcd60e51b815260206004820152601860248201527f43616e6e6f7420736574206f776e657220746f207a65726f000000000000000060448201526064015b60405180910390fd5b600680546001600160a01b0319166001600160a01b038481169190911790915581161561009c5761009c816100c7565b5050506100c273779877a7b0d9e8603169ddbd7836e478b462478961017160201b60201c565b610193565b336001600160a01b0382160361011f5760405162461bcd60e51b815260206004820152601760248201527f43616e6e6f74207472616e7366657220746f2073656c660000000000000000006044820152606401610063565b600780546001600160a01b0319166001600160a01b03838116918217909255600654604051919216907fed8889f560326eb138920d842192f0eb3dd22b4f139c87a2c57538e05bae127890600090a350565b600280546001600160a01b0319166001600160a01b0392909216919091179055565b61138a806101a26000396000f3fe608060405234801561001057600080fd5b50600436106100935760003560e01c806392cdaaf31161006657806392cdaaf3146100e05780639d1b464a146100f3578063ab643c101461010a578063ec65d0f81461011d578063f2fde38b1461013057600080fd5b8063165d35e11461009857806379ba5097146100bd5780638da5cb5b146100c75780638dc654a2146100d8575b600080fd5b6100a0610143565b6040516001600160a01b0390911681526020015b60405180910390f35b6100c561015c565b005b6006546001600160a01b03166100a0565b6100c561020f565b6100c56100ee366004610f1f565b610353565b6100fc60085481565b6040519081526020016100b4565b6100c5610118366004610f73565b610443565b6100c561012b366004611035565b610558565b6100c561013e366004611081565b610572565b60006101576002546001600160a01b031690565b905090565b6007546001600160a01b031633146101b45760405162461bcd60e51b815260206004820152601660248201527526bab9ba10313290383937b837b9b2b21037bbb732b960511b60448201526064015b60405180910390fd5b600680546001600160a01b0319808216339081179093556007805490911690556040516001600160a01b03909116919082907f8be0079c531659141344cd1fd0a4f28419497f9722a3daafe3b4186f6b6457e090600090a350565b610217610583565b600061022b6002546001600160a01b031690565b6040516370a0823160e01b81523060048201529091506001600160a01b0382169063a9059cbb90339083906370a0823190602401602060405180830381865afa15801561027c573d6000803e3d6000fd5b505050506040513d601f19601f820116820180604052508101906102a0919061109c565b6040516001600160e01b031960e085901b1681526001600160a01b03909216600483015260248201526044016020604051808303816000875af11580156102eb573d6000803e3d6000fd5b505050506040513d601f19601f8201168201806040525081019061030f91906110b5565b6103505760405162461bcd60e51b81526020600482015260126024820152712ab730b13632903a37903a3930b739b332b960711b60448201526064016101ab565b50565b60008281526005602052604090205482906001600160a01b031633146103cc5760405162461bcd60e51b815260206004820152602860248201527f536f75726365206d75737420626520746865206f7261636c65206f6620746865604482015267081c995c5d595cdd60c21b60648201526084016101ab565b60008181526005602052604080822080546001600160a01b03191690555182917f7cc135e0cebb02c3480ae5d74d377283180a2601f8f644edf7987b009316c63a91a2604051829084907f794eb9e29f6750ede99e05248d997a9ab9fa23c4a7eaff8afa729080eb7c642890600090a35060085550565b61044b610583565b6000610467610459836105d8565b306392cdaaf360e01b6105f7565b90506104b5604051806040016040528060048152602001630e0c2e8d60e31b815250604051806040016040528060038152602001621554d160ea1b8152508361061c9092919063ffffffff16565b60408051808201909152600581526474696d657360d81b60208201526104de908290606461063f565b60006105098483600a6104fa670de0b6b3a764000060016110ed565b610504919061111a565b61065d565b60008181526009602052604080822080546001600160a01b031916331790555191925082917ff98d7a37e55105e3a3a0542a6e342405a0dacb863d7476fc531d11cbc7bdaf9c9190a250505050565b610560610583565b61056c848484846106f0565b50505050565b61057a610583565b610350816107c2565b6006546001600160a01b031633146105d65760405162461bcd60e51b815260206004820152601660248201527527b7363c9031b0b63630b1363290313c9037bbb732b960511b60448201526064016101ab565b565b8051600090829082036105ee5750600092915050565b50506020015190565b6105ff610ee4565b610607610ee4565b6106138186868661086c565b95945050505050565b608083015161062b90836108b2565b608083015161063a90826108b2565b505050565b608083015161064e90836108b2565b608083015161063a90826108c9565b60045460009061066e81600161112e565b600455835160408086015160808701515191516000936320214ca360e11b936106a69386938493923092918a91600191602401611187565b60408051601f198184030181529190526020810180516001600160e01b03166001600160e01b03199093169290921790915290506106e68683868461092d565b9695505050505050565b60008481526005602052604080822080546001600160a01b0319811690915590516001600160a01b039091169186917fe1fe3afa0f7f761ff0a8b89086790efd5140d2907ebd5b7ff6bfcb5e075fd4c59190a2604051636ee4d55360e01b815260048101869052602481018590526001600160e01b031984166044820152606481018390526001600160a01b03821690636ee4d55390608401600060405180830381600087803b1580156107a357600080fd5b505af11580156107b7573d6000803e3d6000fd5b505050505050505050565b336001600160a01b0382160361081a5760405162461bcd60e51b815260206004820152601760248201527f43616e6e6f74207472616e7366657220746f2073656c6600000000000000000060448201526064016101ab565b600780546001600160a01b0319166001600160a01b03838116918217909255600654604051919216907fed8889f560326eb138920d842192f0eb3dd22b4f139c87a2c57538e05bae127890600090a350565b610874610ee4565b6108848560800151610100610a8b565b50508284526001600160a01b03821660208501526001600160e01b031981166040850152835b949350505050565b6108bf8260038351610af6565b61063a8282610c05565b67ffffffffffffffff198112156108e8576108e48282610c33565b5050565b67ffffffffffffffff811315610902576108e48282610c75565b60008112610916576108e482600083610af6565b6108e4826001610928846000196111ef565b610af6565b6040516bffffffffffffffffffffffff193060601b1660208201526034810184905260009060540160408051808303601f1901815282825280516020918201206000818152600590925291812080546001600160a01b0319166001600160a01b038a1617905590925082917fb5e6e01e79f91267dc17b4e6314d5d4d03593d2ceee0fbb452b750bd70ea5af99190a2600254604051630200057560e51b81526001600160a01b0390911690634000aea0906109f090889087908790600401611216565b6020604051808303816000875af1158015610a0f573d6000803e3d6000fd5b505050506040513d601f19601f82011682018060405250810190610a3391906110b5565b6108aa5760405162461bcd60e51b815260206004820152602360248201527f756e61626c6520746f207472616e73666572416e6443616c6c20746f206f7261604482015262636c6560e81b60648201526084016101ab565b604080518082019091526060815260006020820152610aab60208361123d565b15610ad357610abb60208361123d565b610ac6906020611251565b610ad0908361112e565b91505b506020808301829052604080518085526000815283019091019052815b92915050565b60178167ffffffffffffffff1611610b1b5761056c8360e0600585901b168317610c98565b60ff8167ffffffffffffffff1611610b5957610b42836018611fe0600586901b1617610c98565b5061056c8367ffffffffffffffff83166001610cbd565b61ffff8167ffffffffffffffff1611610b9857610b81836019611fe0600586901b1617610c98565b5061056c8367ffffffffffffffff83166002610cbd565b63ffffffff8167ffffffffffffffff1611610bd957610bc283601a611fe0600586901b1617610c98565b5061056c8367ffffffffffffffff83166004610cbd565b610bee83601b611fe0600586901b1617610c98565b5061056c8367ffffffffffffffff83166008610cbd565b604080518082019091526060815260006020820152610c2c83846000015151848551610ce3565b9392505050565b610c3e8260c3610c98565b506108e482610c4f836000196111ef565b604051602001610c6191815260200190565b604051602081830303815290604052610dcd565b610c808260c2610c98565b506108e48282604051602001610c6191815260200190565b604080518082019091526060815260006020820152610c2c8384600001515184610dda565b6040805180820190915260608152600060208201526108aa848560000151518585610e35565b6040805180820190915260608152600060208201528251821115610d0657600080fd5b6020850151610d15838661112e565b1115610d4857610d4885610d3887602001518786610d33919061112e565b610eb6565b610d439060026110ed565b610ecd565b600080865180518760208301019350808887011115610d675787860182525b505050602084015b60208410610da75780518252610d8660208361112e565b9150610d9360208261112e565b9050610da0602085611251565b9350610d6f565b51815160001960208690036101000a019081169019919091161790525083949350505050565b6108bf8260028351610af6565b60408051808201909152606081526000602082015283602001518310610e0f57610e0f8485602001516002610d4391906110ed565b8351805160208583010184815350808503610e2b576001810182525b5093949350505050565b6040805180820190915260608152600060208201526020850151610e59858461112e565b1115610e6d57610e6d85610d38868561112e565b60006001610e7d84610100611348565b610e879190611251565b9050855183868201018583198251161781525080518487011115610eab5783860181525b509495945050505050565b600081831115610ec7575081610af0565b50919050565b8151610ed98383610a8b565b5061056c8382610c05565b6040805160a0810182526000808252602080830182905282840182905260608084018390528451808601909552845283015290608082015290565b60008060408385031215610f3257600080fd5b50508035926020909101359150565b80356001600160a01b0381168114610f5857600080fd5b919050565b634e487b7160e01b600052604160045260246000fd5b60008060408385031215610f8657600080fd5b610f8f83610f41565b9150602083013567ffffffffffffffff80821115610fac57600080fd5b818501915085601f830112610fc057600080fd5b813581811115610fd257610fd2610f5d565b604051601f8201601f19908116603f01168101908382118183101715610ffa57610ffa610f5d565b8160405282815288602084870101111561101357600080fd5b8260208601602083013760006020848301015280955050505050509250929050565b6000806000806080858703121561104b57600080fd5b843593506020850135925060408501356001600160e01b03198116811461107157600080fd5b9396929550929360600135925050565b60006020828403121561109357600080fd5b610c2c82610f41565b6000602082840312156110ae57600080fd5b5051919050565b6000602082840312156110c757600080fd5b81518015158114610c2c57600080fd5b634e487b7160e01b600052601160045260246000fd5b8082028115828204841417610af057610af06110d7565b634e487b7160e01b600052601260045260246000fd5b60008261112957611129611104565b500490565b80820180821115610af057610af06110d7565b6000815180845260005b818110156111675760208185018101518683018201520161114b565b506000602082860101526020601f19601f83011685010191505092915050565b6001600160a01b0389811682526020820189905260408201889052861660608201526001600160e01b03198516608082015260a0810184905260c0810183905261010060e082018190526000906111e083820185611141565b9b9a5050505050505050505050565b818103600083128015838313168383128216171561120f5761120f6110d7565b5092915050565b60018060a01b03841681528260208201526060604082015260006106136060830184611141565b60008261124c5761124c611104565b500690565b81810381811115610af057610af06110d7565b600181815b8085111561129f578160001904821115611285576112856110d7565b8085161561129257918102915b93841c9390800290611269565b509250929050565b6000826112b657506001610af0565b816112c357506000610af0565b81600181146112d957600281146112e3576112ff565b6001915050610af0565b60ff8411156112f4576112f46110d7565b50506001821b610af0565b5060208310610133831016604e8410600b8410161715611322575081810a610af0565b61132c8383611264565b8060001904821115611340576113406110d7565b029392505050565b6000610c2c83836112a756fea2646970667358221220869db9bdd25928f3ab4e07dd33610674d5eba6e846383092d08101ba11112b4264736f6c63430008130033","opcodes":"PUSH1 0x80 PUSH1 0x40 MSTORE PUSH1 0x1 PUSH1 0x4 SSTORE CALLVALUE DUP1 ISZERO PUSH2 0x15 JUMPI PUSH1 0x0 DUP1 REVERT JUMPDEST POP CALLER DUP1 PUSH1 0x0 DUP2 PUSH2 0x6C JUMPI PUSH1 0x40 MLOAD PUSH3 0x461BCD PUSH1 0xE5 SHL DUP2 MSTORE PUSH1 0x20 PUSH1 0x4 DUP3 ADD MSTORE PUSH1 0x18 PUSH1 0x24 DUP3 ADD MSTORE PUSH32 0x43616E6E6F7420736574206F776E657220746F207A65726F0000000000000000 PUSH1 0x44 DUP3 ADD MSTORE PUSH1 0x64 ADD JUMPDEST PUSH1 0x40 MLOAD DUP1 SWAP2 SUB SWAP1 REVERT JUMPDEST PUSH1 0x6 DUP1 SLOAD PUSH1 0x1 PUSH1 0x1 PUSH1 0xA0 SHL SUB NOT AND PUSH1 0x1 PUSH1 0x1 PUSH1 0xA0 SHL SUB DUP5 DUP2 AND SWAP2 SWAP1 SWAP2 OR SWAP1 SWAP2 SSTORE DUP2 AND ISZERO PUSH2 0x9C JUMPI PUSH2 0x9C DUP2 PUSH2 0xC7 JUMP JUMPDEST POP POP POP PUSH2 0xC2 PUSH20 0x779877A7B0D9E8603169DDBD7836E478B4624789 PUSH2 0x171 PUSH1 0x20 SHL PUSH1 0x20 SHR JUMP JUMPDEST PUSH2 0x193 JUMP JUMPDEST CALLER PUSH1 0x1 PUSH1 0x1 PUSH1 0xA0 SHL SUB DUP3 AND SUB PUSH2 0x11F JUMPI PUSH1 0x40 MLOAD PUSH3 0x461BCD PUSH1 0xE5 SHL DUP2 MSTORE PUSH1 0x20 PUSH1 0x4 DUP3 ADD MSTORE PUSH1 0x17 PUSH1 0x24 DUP3 ADD MSTORE PUSH32 0x43616E6E6F74207472616E7366657220746F2073656C66000000000000000000 PUSH1 0x44 DUP3 ADD MSTORE PUSH1 0x64 ADD PUSH2 0x63 JUMP JUMPDEST PUSH1 0x7 DUP1 SLOAD PUSH1 0x1 PUSH1 0x1 PUSH1 0xA0 SHL SUB NOT AND PUSH1 0x1 PUSH1 0x1 PUSH1 0xA0 SHL SUB DUP4 DUP2 AND SWAP2 DUP3 OR SWAP1 SWAP3 SSTORE PUSH1 0x6 SLOAD PUSH1 0x40 MLOAD SWAP2 SWAP3 AND SWAP1 PUSH32 0xED8889F560326EB138920D842192F0EB3DD22B4F139C87A2C57538E05BAE1278 SWAP1 PUSH1 0x0 SWAP1 LOG3 POP JUMP JUMPDEST PUSH1 0x2 DUP1 SLOAD PUSH1 0x1 PUSH1 0x1 PUSH1 0xA0 SHL SUB NOT AND PUSH1 0x1 PUSH1 0x1 PUSH1 0xA0 SHL SUB SWAP3 SWAP1 SWAP3 AND SWAP2 SWAP1 SWAP2 OR SWAP1 SSTORE JUMP JUMPDEST PUSH2 0x138A DUP1 PUSH2 0x1A2 PUSH1 0x0 CODECOPY PUSH1 0x0 RETURN INVALID PUSH1 0x80 PUSH1 0x40 MSTORE CALLVALUE DUP1 ISZERO PUSH2 0x10 JUMPI PUSH1 0x0 DUP1 REVERT JUMPDEST POP PUSH1 0x4 CALLDATASIZE LT PUSH2 0x93 JUMPI PUSH1 0x0 CALLDATALOAD PUSH1 0xE0 SHR DUP1 PUSH4 0x92CDAAF3 GT PUSH2 0x66 JUMPI DUP1 PUSH4 0x92CDAAF3 EQ PUSH2 0xE0 JUMPI DUP1 PUSH4 0x9D1B464A EQ PUSH2 0xF3 JUMPI DUP1 PUSH4 0xAB643C10 EQ PUSH2 0x10A JUMPI DUP1 PUSH4 0xEC65D0F8 EQ PUSH2 0x11D JUMPI DUP1 PUSH4 0xF2FDE38B EQ PUSH2 0x130 JUMPI PUSH1 0x0 DUP1 REVERT JUMPDEST DUP1 PUSH4 0x165D35E1 EQ PUSH2 0x98 JUMPI DUP1 PUSH4 0x79BA5097 EQ PUSH2 0xBD JUMPI DUP1 PUSH4 0x8DA5CB5B EQ PUSH2 0xC7 JUMPI DUP1 PUSH4 0x8DC654A2 EQ PUSH2 0xD8 JUMPI JUMPDEST PUSH1 0x0 DUP1 REVERT JUMPDEST PUSH2 0xA0 PUSH2 0x143 JUMP JUMPDEST PUSH1 0x40 MLOAD PUSH1 0x1 PUSH1 0x1 PUSH1 0xA0 SHL SUB SWAP1 SWAP2 AND DUP2 MSTORE PUSH1 0x20 ADD JUMPDEST PUSH1 0x40 MLOAD DUP1 SWAP2 SUB SWAP1 RETURN JUMPDEST PUSH2 0xC5 PUSH2 0x15C JUMP JUMPDEST STOP JUMPDEST PUSH1 0x6 SLOAD PUSH1 0x1 PUSH1 0x1 PUSH1 0xA0 SHL SUB AND PUSH2 0xA0 JUMP JUMPDEST PUSH2 0xC5 PUSH2 0x20F JUMP JUMPDEST PUSH2 0xC5 PUSH2 0xEE CALLDATASIZE PUSH1 0x4 PUSH2 0xF1F JUMP JUMPDEST PUSH2 0x353 JUMP JUMPDEST PUSH2 0xFC PUSH1 0x8 SLOAD DUP2 JUMP JUMPDEST PUSH1 0x40 MLOAD SWAP1 DUP2 MSTORE PUSH1 0x20 ADD PUSH2 0xB4 JUMP JUMPDEST PUSH2 0xC5 PUSH2 0x118 CALLDATASIZE PUSH1 0x4 PUSH2 0xF73 JUMP JUMPDEST PUSH2 0x443 JUMP JUMPDEST PUSH2 0xC5 PUSH2 0x12B CALLDATASIZE PUSH1 0x4 PUSH2 0x1035 JUMP JUMPDEST PUSH2 0x558 JUMP JUMPDEST PUSH2 0xC5 PUSH2 0x13E CALLDATASIZE PUSH1 0x4 PUSH2 0x1081 JUMP JUMPDEST PUSH2 0x572 JUMP JUMPDEST PUSH1 0x0 PUSH2 0x157 PUSH1 0x2 SLOAD PUSH1 0x1 PUSH1 0x1 PUSH1 0xA0 SHL SUB AND SWAP1 JUMP JUMPDEST SWAP1 POP SWAP1 JUMP JUMPDEST PUSH1 0x7 SLOAD PUSH1 0x1 PUSH1 0x1 PUSH1 0xA0 SHL SUB AND CALLER EQ PUSH2 0x1B4 JUMPI PUSH1 0x40 MLOAD PUSH3 0x461BCD PUSH1 0xE5 SHL DUP2 MSTORE PUSH1 0x20 PUSH1 0x4 DUP3 ADD MSTORE PUSH1 0x16 PUSH1 0x24 DUP3 ADD MSTORE PUSH22 0x26BAB9BA10313290383937B837B9B2B21037BBB732B9 PUSH1 0x51 SHL PUSH1 0x44 DUP3 ADD MSTORE PUSH1 0x64 ADD JUMPDEST PUSH1 0x40 MLOAD DUP1 SWAP2 SUB SWAP1 REVERT JUMPDEST PUSH1 0x6 DUP1 SLOAD PUSH1 0x1 PUSH1 0x1 PUSH1 0xA0 SHL SUB NOT DUP1 DUP3 AND CALLER SWAP1 DUP2 OR SWAP1 SWAP4 SSTORE PUSH1 0x7 DUP1 SLOAD SWAP1 SWAP2 AND SWAP1 SSTORE PUSH1 0x40 MLOAD PUSH1 0x1 PUSH1 0x1 PUSH1 0xA0 SHL SUB SWAP1 SWAP2 AND SWAP2 SWAP1 DUP3 SWAP1 PUSH32 0x8BE0079C531659141344CD1FD0A4F28419497F9722A3DAAFE3B4186F6B6457E0 SWAP1 PUSH1 0x0 SWAP1 LOG3 POP JUMP JUMPDEST PUSH2 0x217 PUSH2 0x583 JUMP JUMPDEST PUSH1 0x0 PUSH2 0x22B PUSH1 0x2 SLOAD PUSH1 0x1 PUSH1 0x1 PUSH1 0xA0 SHL SUB AND SWAP1 JUMP JUMPDEST PUSH1 0x40 MLOAD PUSH4 0x70A08231 PUSH1 0xE0 SHL DUP2 MSTORE ADDRESS PUSH1 0x4 DUP3 ADD MSTORE SWAP1 SWAP2 POP PUSH1 0x1 PUSH1 0x1 PUSH1 0xA0 SHL SUB DUP3 AND SWAP1 PUSH4 0xA9059CBB SWAP1 CALLER SWAP1 DUP4 SWAP1 PUSH4 0x70A08231 SWAP1 PUSH1 0x24 ADD PUSH1 0x20 PUSH1 0x40 MLOAD DUP1 DUP4 SUB DUP2 DUP7 GAS STATICCALL ISZERO DUP1 ISZERO PUSH2 0x27C JUMPI RETURNDATASIZE PUSH1 0x0 DUP1 RETURNDATACOPY RETURNDATASIZE PUSH1 0x0 REVERT JUMPDEST POP POP POP POP PUSH1 0x40 MLOAD RETURNDATASIZE PUSH1 0x1F NOT PUSH1 0x1F DUP3 ADD AND DUP3 ADD DUP1 PUSH1 0x40 MSTORE POP DUP2 ADD SWAP1 PUSH2 0x2A0 SWAP2 SWAP1 PUSH2 0x109C JUMP JUMPDEST PUSH1 0x40 MLOAD PUSH1 0x1 PUSH1 0x1 PUSH1 0xE0 SHL SUB NOT PUSH1 0xE0 DUP6 SWAP1 SHL AND DUP2 MSTORE PUSH1 0x1 PUSH1 0x1 PUSH1 0xA0 SHL SUB SWAP1 SWAP3 AND PUSH1 0x4 DUP4 ADD MSTORE PUSH1 0x24 DUP3 ADD MSTORE PUSH1 0x44 ADD PUSH1 0x20 PUSH1 0x40 MLOAD DUP1 DUP4 SUB DUP2 PUSH1 0x0 DUP8 GAS CALL ISZERO DUP1 ISZERO PUSH2 0x2EB JUMPI RETURNDATASIZE PUSH1 0x0 DUP1 RETURNDATACOPY RETURNDATASIZE PUSH1 0x0 REVERT JUMPDEST POP POP POP POP PUSH1 0x40 MLOAD RETURNDATASIZE PUSH1 0x1F NOT PUSH1 0x1F DUP3 ADD AND DUP3 ADD DUP1 PUSH1 0x40 MSTORE POP DUP2 ADD SWAP1 PUSH2 0x30F SWAP2 SWAP1 PUSH2 0x10B5 JUMP JUMPDEST PUSH2 0x350 JUMPI PUSH1 0x40 MLOAD PUSH3 0x461BCD PUSH1 0xE5 SHL DUP2 MSTORE PUSH1 0x20 PUSH1 0x4 DUP3 ADD MSTORE PUSH1 0x12 PUSH1 0x24 DUP3 ADD MSTORE PUSH18 0x2AB730B13632903A37903A3930B739B332B9 PUSH1 0x71 SHL PUSH1 0x44 DUP3 ADD MSTORE PUSH1 0x64 ADD PUSH2 0x1AB JUMP JUMPDEST POP JUMP JUMPDEST PUSH1 0x0 DUP3 DUP2 MSTORE PUSH1 0x5 PUSH1 0x20 MSTORE PUSH1 0x40 SWAP1 KECCAK256 SLOAD DUP3 SWAP1 PUSH1 0x1 PUSH1 0x1 PUSH1 0xA0 SHL SUB AND CALLER EQ PUSH2 0x3CC JUMPI PUSH1 0x40 MLOAD PUSH3 0x461BCD PUSH1 0xE5 SHL DUP2 MSTORE PUSH1 0x20 PUSH1 0x4 DUP3 ADD MSTORE PUSH1 0x28 PUSH1 0x24 DUP3 ADD MSTORE PUSH32 0x536F75726365206D75737420626520746865206F7261636C65206F6620746865 PUSH1 0x44 DUP3 ADD MSTORE PUSH8 0x81C995C5D595CDD PUSH1 0xC2 SHL PUSH1 0x64 DUP3 ADD MSTORE PUSH1 0x84 ADD PUSH2 0x1AB JUMP JUMPDEST PUSH1 0x0 DUP2 DUP2 MSTORE PUSH1 0x5 PUSH1 0x20 MSTORE PUSH1 0x40 DUP1 DUP3 KECCAK256 DUP1 SLOAD PUSH1 0x1 PUSH1 0x1 PUSH1 0xA0 SHL SUB NOT AND SWAP1 SSTORE MLOAD DUP3 SWAP2 PUSH32 0x7CC135E0CEBB02C3480AE5D74D377283180A2601F8F644EDF7987B009316C63A SWAP2 LOG2 PUSH1 0x40 MLOAD DUP3 SWAP1 DUP5 SWAP1 PUSH32 0x794EB9E29F6750EDE99E05248D997A9AB9FA23C4A7EAFF8AFA729080EB7C6428 SWAP1 PUSH1 0x0 SWAP1 LOG3 POP PUSH1 0x8 SSTORE POP JUMP JUMPDEST PUSH2 0x44B PUSH2 0x583 JUMP JUMPDEST PUSH1 0x0 PUSH2 0x467 PUSH2 0x459 DUP4 PUSH2 0x5D8 JUMP JUMPDEST ADDRESS PUSH4 0x92CDAAF3 PUSH1 0xE0 SHL PUSH2 0x5F7 JUMP JUMPDEST SWAP1 POP PUSH2 0x4B5 PUSH1 0x40 MLOAD DUP1 PUSH1 0x40 ADD PUSH1 0x40 MSTORE DUP1 PUSH1 0x4 DUP2 MSTORE PUSH1 0x20 ADD PUSH4 0xE0C2E8D PUSH1 0xE3 SHL DUP2 MSTORE POP PUSH1 0x40 MLOAD DUP1 PUSH1 0x40 ADD PUSH1 0x40 MSTORE DUP1 PUSH1 0x3 DUP2 MSTORE PUSH1 0x20 ADD PUSH3 0x1554D1 PUSH1 0xEA SHL DUP2 MSTORE POP DUP4 PUSH2 0x61C SWAP1 SWAP3 SWAP2 SWAP1 PUSH4 0xFFFFFFFF AND JUMP JUMPDEST PUSH1 0x40 DUP1 MLOAD DUP1 DUP3 ADD SWAP1 SWAP2 MSTORE PUSH1 0x5 DUP2 MSTORE PUSH5 0x74696D6573 PUSH1 0xD8 SHL PUSH1 0x20 DUP3 ADD MSTORE PUSH2 0x4DE SWAP1 DUP3 SWAP1 PUSH1 0x64 PUSH2 0x63F JUMP JUMPDEST PUSH1 0x0 PUSH2 0x509 DUP5 DUP4 PUSH1 0xA PUSH2 0x4FA PUSH8 0xDE0B6B3A7640000 PUSH1 0x1 PUSH2 0x10ED JUMP JUMPDEST PUSH2 0x504 SWAP2 SWAP1 PUSH2 0x111A JUMP JUMPDEST PUSH2 0x65D JUMP JUMPDEST PUSH1 0x0 DUP2 DUP2 MSTORE PUSH1 0x9 PUSH1 0x20 MSTORE PUSH1 0x40 DUP1 DUP3 KECCAK256 DUP1 SLOAD PUSH1 0x1 PUSH1 0x1 PUSH1 0xA0 SHL SUB NOT AND CALLER OR SWAP1 SSTORE MLOAD SWAP2 SWAP3 POP DUP3 SWAP2 PUSH32 0xF98D7A37E55105E3A3A0542A6E342405A0DACB863D7476FC531D11CBC7BDAF9C SWAP2 SWAP1 LOG2 POP POP POP POP JUMP JUMPDEST PUSH2 0x560 PUSH2 0x583 JUMP JUMPDEST PUSH2 0x56C DUP5 DUP5 DUP5 DUP5 PUSH2 0x6F0 JUMP JUMPDEST POP POP POP POP JUMP JUMPDEST PUSH2 0x57A PUSH2 0x583 JUMP JUMPDEST PUSH2 0x350 DUP2 PUSH2 0x7C2 JUMP JUMPDEST PUSH1 0x6 SLOAD PUSH1 0x1 PUSH1 0x1 PUSH1 0xA0 SHL SUB AND CALLER EQ PUSH2 0x5D6 JUMPI PUSH1 0x40 MLOAD PUSH3 0x461BCD PUSH1 0xE5 SHL DUP2 MSTORE PUSH1 0x20 PUSH1 0x4 DUP3 ADD MSTORE PUSH1 0x16 PUSH1 0x24 DUP3 ADD MSTORE PUSH22 0x27B7363C9031B0B63630B1363290313C9037BBB732B9 PUSH1 0x51 SHL PUSH1 0x44 DUP3 ADD MSTORE PUSH1 0x64 ADD PUSH2 0x1AB JUMP JUMPDEST JUMP JUMPDEST DUP1 MLOAD PUSH1 0x0 SWAP1 DUP3 SWAP1 DUP3 SUB PUSH2 0x5EE JUMPI POP PUSH1 0x0 SWAP3 SWAP2 POP POP JUMP JUMPDEST POP POP PUSH1 0x20 ADD MLOAD SWAP1 JUMP JUMPDEST PUSH2 0x5FF PUSH2 0xEE4 JUMP JUMPDEST PUSH2 0x607 PUSH2 0xEE4 JUMP JUMPDEST PUSH2 0x613 DUP2 DUP7 DUP7 DUP7 PUSH2 0x86C JUMP JUMPDEST SWAP6 SWAP5 POP POP POP POP POP JUMP JUMPDEST PUSH1 0x80 DUP4 ADD MLOAD PUSH2 0x62B SWAP1 DUP4 PUSH2 0x8B2 JUMP JUMPDEST PUSH1 0x80 DUP4 ADD MLOAD PUSH2 0x63A SWAP1 DUP3 PUSH2 0x8B2 JUMP JUMPDEST POP POP POP JUMP JUMPDEST PUSH1 0x80 DUP4 ADD MLOAD PUSH2 0x64E SWAP1 DUP4 PUSH2 0x8B2 JUMP JUMPDEST PUSH1 0x80 DUP4 ADD MLOAD PUSH2 0x63A SWAP1 DUP3 PUSH2 0x8C9 JUMP JUMPDEST PUSH1 0x4 SLOAD PUSH1 0x0 SWAP1 PUSH2 0x66E DUP2 PUSH1 0x1 PUSH2 0x112E JUMP JUMPDEST PUSH1 0x4 SSTORE DUP4 MLOAD PUSH1 0x40 DUP1 DUP7 ADD MLOAD PUSH1 0x80 DUP8 ADD MLOAD MLOAD SWAP2 MLOAD PUSH1 0x0 SWAP4 PUSH4 0x20214CA3 PUSH1 0xE1 SHL SWAP4 PUSH2 0x6A6 SWAP4 DUP7 SWAP4 DUP5 SWAP4 SWAP3 ADDRESS SWAP3 SWAP2 DUP11 SWAP2 PUSH1 0x1 SWAP2 PUSH1 0x24 ADD PUSH2 0x1187 JUMP JUMPDEST PUSH1 0x40 DUP1 MLOAD PUSH1 0x1F NOT DUP2 DUP5 SUB ADD DUP2 MSTORE SWAP2 SWAP1 MSTORE PUSH1 0x20 DUP2 ADD DUP1 MLOAD PUSH1 0x1 PUSH1 0x1 PUSH1 0xE0 SHL SUB AND PUSH1 0x1 PUSH1 0x1 PUSH1 0xE0 SHL SUB NOT SWAP1 SWAP4 AND SWAP3 SWAP1 SWAP3 OR SWAP1 SWAP2 MSTORE SWAP1 POP PUSH2 0x6E6 DUP7 DUP4 DUP7 DUP5 PUSH2 0x92D JUMP JUMPDEST SWAP7 SWAP6 POP POP POP POP POP POP JUMP JUMPDEST PUSH1 0x0 DUP5 DUP2 MSTORE PUSH1 0x5 PUSH1 0x20 MSTORE PUSH1 0x40 DUP1 DUP3 KECCAK256 DUP1 SLOAD PUSH1 0x1 PUSH1 0x1 PUSH1 0xA0 SHL SUB NOT DUP2 AND SWAP1 SWAP2 SSTORE SWAP1 MLOAD PUSH1 0x1 PUSH1 0x1 PUSH1 0xA0 SHL SUB SWAP1 SWAP2 AND SWAP2 DUP7 SWAP2 PUSH32 0xE1FE3AFA0F7F761FF0A8B89086790EFD5140D2907EBD5B7FF6BFCB5E075FD4C5 SWAP2 SWAP1 LOG2 PUSH1 0x40 MLOAD PUSH4 0x6EE4D553 PUSH1 0xE0 SHL DUP2 MSTORE PUSH1 0x4 DUP2 ADD DUP7 SWAP1 MSTORE PUSH1 0x24 DUP2 ADD DUP6 SWAP1 MSTORE PUSH1 0x1 PUSH1 0x1 PUSH1 0xE0 SHL SUB NOT DUP5 AND PUSH1 0x44 DUP3 ADD MSTORE PUSH1 0x64 DUP2 ADD DUP4 SWAP1 MSTORE PUSH1 0x1 PUSH1 0x1 PUSH1 0xA0 SHL SUB DUP3 AND SWAP1 PUSH4 0x6EE4D553 SWAP1 PUSH1 0x84 ADD PUSH1 0x0 PUSH1 0x40 MLOAD DUP1 DUP4 SUB DUP2 PUSH1 0x0 DUP8 DUP1 EXTCODESIZE ISZERO DUP1 ISZERO PUSH2 0x7A3 JUMPI PUSH1 0x0 DUP1 REVERT JUMPDEST POP GAS CALL ISZERO DUP1 ISZERO PUSH2 0x7B7 JUMPI RETURNDATASIZE PUSH1 0x0 DUP1 RETURNDATACOPY RETURNDATASIZE PUSH1 0x0 REVERT JUMPDEST POP POP POP POP POP POP POP POP POP JUMP JUMPDEST CALLER PUSH1 0x1 PUSH1 0x1 PUSH1 0xA0 SHL SUB DUP3 AND SUB PUSH2 0x81A JUMPI PUSH1 0x40 MLOAD PUSH3 0x461BCD PUSH1 0xE5 SHL DUP2 MSTORE PUSH1 0x20 PUSH1 0x4 DUP3 ADD MSTORE PUSH1 0x17 PUSH1 0x24 DUP3 ADD MSTORE PUSH32 0x43616E6E6F74207472616E7366657220746F2073656C66000000000000000000 PUSH1 0x44 DUP3 ADD MSTORE PUSH1 0x64 ADD PUSH2 0x1AB JUMP JUMPDEST PUSH1 0x7 DUP1 SLOAD PUSH1 0x1 PUSH1 0x1 PUSH1 0xA0 SHL SUB NOT AND PUSH1 0x1 PUSH1 0x1 PUSH1 0xA0 SHL SUB DUP4 DUP2 AND SWAP2 DUP3 OR SWAP1 SWAP3 SSTORE PUSH1 0x6 SLOAD PUSH1 0x40 MLOAD SWAP2 SWAP3 AND SWAP1 PUSH32 0xED8889F560326EB138920D842192F0EB3DD22B4F139C87A2C57538E05BAE1278 SWAP1 PUSH1 0x0 SWAP1 LOG3 POP JUMP JUMPDEST PUSH2 0x874 PUSH2 0xEE4 JUMP JUMPDEST PUSH2 0x884 DUP6 PUSH1 0x80 ADD MLOAD PUSH2 0x100 PUSH2 0xA8B JUMP JUMPDEST POP POP DUP3 DUP5 MSTORE PUSH1 0x1 PUSH1 0x1 PUSH1 0xA0 SHL SUB DUP3 AND PUSH1 0x20 DUP6 ADD MSTORE PUSH1 0x1 PUSH1 0x1 PUSH1 0xE0 SHL SUB NOT DUP2 AND PUSH1 0x40 DUP6 ADD MSTORE DUP4 JUMPDEST SWAP5 SWAP4 POP POP POP POP JUMP JUMPDEST PUSH2 0x8BF DUP3 PUSH1 0x3 DUP4 MLOAD PUSH2 0xAF6 JUMP JUMPDEST PUSH2 0x63A DUP3 DUP3 PUSH2 0xC05 JUMP JUMPDEST PUSH8 0xFFFFFFFFFFFFFFFF NOT DUP2 SLT ISZERO PUSH2 0x8E8 JUMPI PUSH2 0x8E4 DUP3 DUP3 PUSH2 0xC33 JUMP JUMPDEST POP POP JUMP JUMPDEST PUSH8 0xFFFFFFFFFFFFFFFF DUP2 SGT ISZERO PUSH2 0x902 JUMPI PUSH2 0x8E4 DUP3 DUP3 PUSH2 0xC75 JUMP JUMPDEST PUSH1 0x0 DUP2 SLT PUSH2 0x916 JUMPI PUSH2 0x8E4 DUP3 PUSH1 0x0 DUP4 PUSH2 0xAF6 JUMP JUMPDEST PUSH2 0x8E4 DUP3 PUSH1 0x1 PUSH2 0x928 DUP5 PUSH1 0x0 NOT PUSH2 0x11EF JUMP JUMPDEST PUSH2 0xAF6 JUMP JUMPDEST PUSH1 0x40 MLOAD PUSH12 0xFFFFFFFFFFFFFFFFFFFFFFFF NOT ADDRESS PUSH1 0x60 SHL AND PUSH1 0x20 DUP3 ADD MSTORE PUSH1 0x34 DUP2 ADD DUP5 SWAP1 MSTORE PUSH1 0x0 SWAP1 PUSH1 0x54 ADD PUSH1 0x40 DUP1 MLOAD DUP1 DUP4 SUB PUSH1 0x1F NOT ADD DUP2 MSTORE DUP3 DUP3 MSTORE DUP1 MLOAD PUSH1 0x20 SWAP2 DUP3 ADD KECCAK256 PUSH1 0x0 DUP2 DUP2 MSTORE PUSH1 0x5 SWAP1 SWAP3 MSTORE SWAP2 DUP2 KECCAK256 DUP1 SLOAD PUSH1 0x1 PUSH1 0x1 PUSH1 0xA0 SHL SUB NOT AND PUSH1 0x1 PUSH1 0x1 PUSH1 0xA0 SHL SUB DUP11 AND OR SWAP1 SSTORE SWAP1 SWAP3 POP DUP3 SWAP2 PUSH32 0xB5E6E01E79F91267DC17B4E6314D5D4D03593D2CEEE0FBB452B750BD70EA5AF9 SWAP2 SWAP1 LOG2 PUSH1 0x2 SLOAD PUSH1 0x40 MLOAD PUSH4 0x2000575 PUSH1 0xE5 SHL DUP2 MSTORE PUSH1 0x1 PUSH1 0x1 PUSH1 0xA0 SHL SUB SWAP1 SWAP2 AND SWAP1 PUSH4 0x4000AEA0 SWAP1 PUSH2 0x9F0 SWAP1 DUP9 SWAP1 DUP8 SWAP1 DUP8 SWAP1 PUSH1 0x4 ADD PUSH2 0x1216 JUMP JUMPDEST PUSH1 0x20 PUSH1 0x40 MLOAD DUP1 DUP4 SUB DUP2 PUSH1 0x0 DUP8 GAS CALL ISZERO DUP1 ISZERO PUSH2 0xA0F JUMPI RETURNDATASIZE PUSH1 0x0 DUP1 RETURNDATACOPY RETURNDATASIZE PUSH1 0x0 REVERT JUMPDEST POP POP POP POP PUSH1 0x40 MLOAD RETURNDATASIZE PUSH1 0x1F NOT PUSH1 0x1F DUP3 ADD AND DUP3 ADD DUP1 PUSH1 0x40 MSTORE POP DUP2 ADD SWAP1 PUSH2 0xA33 SWAP2 SWAP1 PUSH2 0x10B5 JUMP JUMPDEST PUSH2 0x8AA JUMPI PUSH1 0x40 MLOAD PUSH3 0x461BCD PUSH1 0xE5 SHL DUP2 MSTORE PUSH1 0x20 PUSH1 0x4 DUP3 ADD MSTORE PUSH1 0x23 PUSH1 0x24 DUP3 ADD MSTORE PUSH32 0x756E61626C6520746F207472616E73666572416E6443616C6C20746F206F7261 PUSH1 0x44 DUP3 ADD MSTORE PUSH3 0x636C65 PUSH1 0xE8 SHL PUSH1 0x64 DUP3 ADD MSTORE PUSH1 0x84 ADD PUSH2 0x1AB JUMP JUMPDEST PUSH1 0x40 DUP1 MLOAD DUP1 DUP3 ADD SWAP1 SWAP2 MSTORE PUSH1 0x60 DUP2 MSTORE PUSH1 0x0 PUSH1 0x20 DUP3 ADD MSTORE PUSH2 0xAAB PUSH1 0x20 DUP4 PUSH2 0x123D JUMP JUMPDEST ISZERO PUSH2 0xAD3 JUMPI PUSH2 0xABB PUSH1 0x20 DUP4 PUSH2 0x123D JUMP JUMPDEST PUSH2 0xAC6 SWAP1 PUSH1 0x20 PUSH2 0x1251 JUMP JUMPDEST PUSH2 0xAD0 SWAP1 DUP4 PUSH2 0x112E JUMP JUMPDEST SWAP2 POP JUMPDEST POP PUSH1 0x20 DUP1 DUP4 ADD DUP3 SWAP1 MSTORE PUSH1 0x40 DUP1 MLOAD DUP1 DUP6 MSTORE PUSH1 0x0 DUP2 MSTORE DUP4 ADD SWAP1 SWAP2 ADD SWAP1 MSTORE DUP2 JUMPDEST SWAP3 SWAP2 POP POP JUMP JUMPDEST PUSH1 0x17 DUP2 PUSH8 0xFFFFFFFFFFFFFFFF AND GT PUSH2 0xB1B JUMPI PUSH2 0x56C DUP4 PUSH1 0xE0 PUSH1 0x5 DUP6 SWAP1 SHL AND DUP4 OR PUSH2 0xC98 JUMP JUMPDEST PUSH1 0xFF DUP2 PUSH8 0xFFFFFFFFFFFFFFFF AND GT PUSH2 0xB59 JUMPI PUSH2 0xB42 DUP4 PUSH1 0x18 PUSH2 0x1FE0 PUSH1 0x5 DUP7 SWAP1 SHL AND OR PUSH2 0xC98 JUMP JUMPDEST POP PUSH2 0x56C DUP4 PUSH8 0xFFFFFFFFFFFFFFFF DUP4 AND PUSH1 0x1 PUSH2 0xCBD JUMP JUMPDEST PUSH2 0xFFFF DUP2 PUSH8 0xFFFFFFFFFFFFFFFF AND GT PUSH2 0xB98 JUMPI PUSH2 0xB81 DUP4 PUSH1 0x19 PUSH2 0x1FE0 PUSH1 0x5 DUP7 SWAP1 SHL AND OR PUSH2 0xC98 JUMP JUMPDEST POP PUSH2 0x56C DUP4 PUSH8 0xFFFFFFFFFFFFFFFF DUP4 AND PUSH1 0x2 PUSH2 0xCBD JUMP JUMPDEST PUSH4 0xFFFFFFFF DUP2 PUSH8 0xFFFFFFFFFFFFFFFF AND GT PUSH2 0xBD9 JUMPI PUSH2 0xBC2 DUP4 PUSH1 0x1A PUSH2 0x1FE0 PUSH1 0x5 DUP7 SWAP1 SHL AND OR PUSH2 0xC98 JUMP JUMPDEST POP PUSH2 0x56C DUP4 PUSH8 0xFFFFFFFFFFFFFFFF DUP4 AND PUSH1 0x4 PUSH2 0xCBD JUMP JUMPDEST PUSH2 0xBEE DUP4 PUSH1 0x1B PUSH2 0x1FE0 PUSH1 0x5 DUP7 SWAP1 SHL AND OR PUSH2 0xC98 JUMP JUMPDEST POP PUSH2 0x56C DUP4 PUSH8 0xFFFFFFFFFFFFFFFF DUP4 AND PUSH1 0x8 PUSH2 0xCBD JUMP JUMPDEST PUSH1 0x40 DUP1 MLOAD DUP1 DUP3 ADD SWAP1 SWAP2 MSTORE PUSH1 0x60 DUP2 MSTORE PUSH1 0x0 PUSH1 0x20 DUP3 ADD MSTORE PUSH2 0xC2C DUP4 DUP5 PUSH1 0x0 ADD MLOAD MLOAD DUP5 DUP6 MLOAD PUSH2 0xCE3 JUMP JUMPDEST SWAP4 SWAP3 POP POP POP JUMP JUMPDEST PUSH2 0xC3E DUP3 PUSH1 0xC3 PUSH2 0xC98 JUMP JUMPDEST POP PUSH2 0x8E4 DUP3 PUSH2 0xC4F DUP4 PUSH1 0x0 NOT PUSH2 0x11EF JUMP JUMPDEST PUSH1 0x40 MLOAD PUSH1 0x20 ADD PUSH2 0xC61 SWAP2 DUP2 MSTORE PUSH1 0x20 ADD SWAP1 JUMP JUMPDEST PUSH1 0x40 MLOAD PUSH1 0x20 DUP2 DUP4 SUB SUB DUP2 MSTORE SWAP1 PUSH1 0x40 MSTORE PUSH2 0xDCD JUMP JUMPDEST PUSH2 0xC80 DUP3 PUSH1 0xC2 PUSH2 0xC98 JUMP JUMPDEST POP PUSH2 0x8E4 DUP3 DUP3 PUSH1 0x40 MLOAD PUSH1 0x20 ADD PUSH2 0xC61 SWAP2 DUP2 MSTORE PUSH1 0x20 ADD SWAP1 JUMP JUMPDEST PUSH1 0x40 DUP1 MLOAD DUP1 DUP3 ADD SWAP1 SWAP2 MSTORE PUSH1 0x60 DUP2 MSTORE PUSH1 0x0 PUSH1 0x20 DUP3 ADD MSTORE PUSH2 0xC2C DUP4 DUP5 PUSH1 0x0 ADD MLOAD MLOAD DUP5 PUSH2 0xDDA JUMP JUMPDEST PUSH1 0x40 DUP1 MLOAD DUP1 DUP3 ADD SWAP1 SWAP2 MSTORE PUSH1 0x60 DUP2 MSTORE PUSH1 0x0 PUSH1 0x20 DUP3 ADD MSTORE PUSH2 0x8AA DUP5 DUP6 PUSH1 0x0 ADD MLOAD MLOAD DUP6 DUP6 PUSH2 0xE35 JUMP JUMPDEST PUSH1 0x40 DUP1 MLOAD DUP1 DUP3 ADD SWAP1 SWAP2 MSTORE PUSH1 0x60 DUP2 MSTORE PUSH1 0x0 PUSH1 0x20 DUP3 ADD MSTORE DUP3 MLOAD DUP3 GT ISZERO PUSH2 0xD06 JUMPI PUSH1 0x0 DUP1 REVERT JUMPDEST PUSH1 0x20 DUP6 ADD MLOAD PUSH2 0xD15 DUP4 DUP7 PUSH2 0x112E JUMP JUMPDEST GT ISZERO PUSH2 0xD48 JUMPI PUSH2 0xD48 DUP6 PUSH2 0xD38 DUP8 PUSH1 0x20 ADD MLOAD DUP8 DUP7 PUSH2 0xD33 SWAP2 SWAP1 PUSH2 0x112E JUMP JUMPDEST PUSH2 0xEB6 JUMP JUMPDEST PUSH2 0xD43 SWAP1 PUSH1 0x2 PUSH2 0x10ED JUMP JUMPDEST PUSH2 0xECD JUMP JUMPDEST PUSH1 0x0 DUP1 DUP7 MLOAD DUP1 MLOAD DUP8 PUSH1 0x20 DUP4 ADD ADD SWAP4 POP DUP1 DUP9 DUP8 ADD GT ISZERO PUSH2 0xD67 JUMPI DUP8 DUP7 ADD DUP3 MSTORE JUMPDEST POP POP POP PUSH1 0x20 DUP5 ADD JUMPDEST PUSH1 0x20 DUP5 LT PUSH2 0xDA7 JUMPI DUP1 MLOAD DUP3 MSTORE PUSH2 0xD86 PUSH1 0x20 DUP4 PUSH2 0x112E JUMP JUMPDEST SWAP2 POP PUSH2 0xD93 PUSH1 0x20 DUP3 PUSH2 0x112E JUMP JUMPDEST SWAP1 POP PUSH2 0xDA0 PUSH1 0x20 DUP6 PUSH2 0x1251 JUMP JUMPDEST SWAP4 POP PUSH2 0xD6F JUMP JUMPDEST MLOAD DUP2 MLOAD PUSH1 0x0 NOT PUSH1 0x20 DUP7 SWAP1 SUB PUSH2 0x100 EXP ADD SWAP1 DUP2 AND SWAP1 NOT SWAP2 SWAP1 SWAP2 AND OR SWAP1 MSTORE POP DUP4 SWAP5 SWAP4 POP POP POP POP JUMP JUMPDEST PUSH2 0x8BF DUP3 PUSH1 0x2 DUP4 MLOAD PUSH2 0xAF6 JUMP JUMPDEST PUSH1 0x40 DUP1 MLOAD DUP1 DUP3 ADD SWAP1 SWAP2 MSTORE PUSH1 0x60 DUP2 MSTORE PUSH1 0x0 PUSH1 0x20 DUP3 ADD MSTORE DUP4 PUSH1 0x20 ADD MLOAD DUP4 LT PUSH2 0xE0F JUMPI PUSH2 0xE0F DUP5 DUP6 PUSH1 0x20 ADD MLOAD PUSH1 0x2 PUSH2 0xD43 SWAP2 SWAP1 PUSH2 0x10ED JUMP JUMPDEST DUP4 MLOAD DUP1 MLOAD PUSH1 0x20 DUP6 DUP4 ADD ADD DUP5 DUP2 MSTORE8 POP DUP1 DUP6 SUB PUSH2 0xE2B JUMPI PUSH1 0x1 DUP2 ADD DUP3 MSTORE JUMPDEST POP SWAP4 SWAP5 SWAP4 POP POP POP POP JUMP JUMPDEST PUSH1 0x40 DUP1 MLOAD DUP1 DUP3 ADD SWAP1 SWAP2 MSTORE PUSH1 0x60 DUP2 MSTORE PUSH1 0x0 PUSH1 0x20 DUP3 ADD MSTORE PUSH1 0x20 DUP6 ADD MLOAD PUSH2 0xE59 DUP6 DUP5 PUSH2 0x112E JUMP JUMPDEST GT ISZERO PUSH2 0xE6D JUMPI PUSH2 0xE6D DUP6 PUSH2 0xD38 DUP7 DUP6 PUSH2 0x112E JUMP JUMPDEST PUSH1 0x0 PUSH1 0x1 PUSH2 0xE7D DUP5 PUSH2 0x100 PUSH2 0x1348 JUMP JUMPDEST PUSH2 0xE87 SWAP2 SWAP1 PUSH2 0x1251 JUMP JUMPDEST SWAP1 POP DUP6 MLOAD DUP4 DUP7 DUP3 ADD ADD DUP6 DUP4 NOT DUP3 MLOAD AND OR DUP2 MSTORE POP DUP1 MLOAD DUP5 DUP8 ADD GT ISZERO PUSH2 0xEAB JUMPI DUP4 DUP7 ADD DUP2 MSTORE JUMPDEST POP SWAP5 SWAP6 SWAP5 POP POP POP POP POP JUMP JUMPDEST PUSH1 0x0 DUP2 DUP4 GT ISZERO PUSH2 0xEC7 JUMPI POP DUP2 PUSH2 0xAF0 JUMP JUMPDEST POP SWAP2 SWAP1 POP JUMP JUMPDEST DUP2 MLOAD PUSH2 0xED9 DUP4 DUP4 PUSH2 0xA8B JUMP JUMPDEST POP PUSH2 0x56C DUP4 DUP3 PUSH2 0xC05 JUMP JUMPDEST PUSH1 0x40 DUP1 MLOAD PUSH1 0xA0 DUP2 ADD DUP3 MSTORE PUSH1 0x0 DUP1 DUP3 MSTORE PUSH1 0x20 DUP1 DUP4 ADD DUP3 SWAP1 MSTORE DUP3 DUP5 ADD DUP3 SWAP1 MSTORE PUSH1 0x60 DUP1 DUP5 ADD DUP4 SWAP1 MSTORE DUP5 MLOAD DUP1 DUP7 ADD SWAP1 SWAP6 MSTORE DUP5 MSTORE DUP4 ADD MSTORE SWAP1 PUSH1 0x80 DUP3 ADD MSTORE SWAP1 JUMP JUMPDEST PUSH1 0x0 DUP1 PUSH1 0x40 DUP4 DUP6 SUB SLT ISZERO PUSH2 0xF32 JUMPI PUSH1 0x0 DUP1 REVERT JUMPDEST POP POP DUP1 CALLDATALOAD SWAP3 PUSH1 0x20 SWAP1 SWAP2 ADD CALLDATALOAD SWAP2 POP JUMP JUMPDEST DUP1 CALLDATALOAD PUSH1 0x1 PUSH1 0x1 PUSH1 0xA0 SHL SUB DUP2 AND DUP2 EQ PUSH2 0xF58 JUMPI PUSH1 0x0 DUP1 REVERT JUMPDEST SWAP2 SWAP1 POP JUMP JUMPDEST PUSH4 0x4E487B71 PUSH1 0xE0 SHL PUSH1 0x0 MSTORE PUSH1 0x41 PUSH1 0x4 MSTORE PUSH1 0x24 PUSH1 0x0 REVERT JUMPDEST PUSH1 0x0 DUP1 PUSH1 0x40 DUP4 DUP6 SUB SLT ISZERO PUSH2 0xF86 JUMPI PUSH1 0x0 DUP1 REVERT JUMPDEST PUSH2 0xF8F DUP4 PUSH2 0xF41 JUMP JUMPDEST SWAP2 POP PUSH1 0x20 DUP4 ADD CALLDATALOAD PUSH8 0xFFFFFFFFFFFFFFFF DUP1 DUP3 GT ISZERO PUSH2 0xFAC JUMPI PUSH1 0x0 DUP1 REVERT JUMPDEST DUP2 DUP6 ADD SWAP2 POP DUP6 PUSH1 0x1F DUP4 ADD SLT PUSH2 0xFC0 JUMPI PUSH1 0x0 DUP1 REVERT JUMPDEST DUP2 CALLDATALOAD DUP2 DUP2 GT ISZERO PUSH2 0xFD2 JUMPI PUSH2 0xFD2 PUSH2 0xF5D JUMP JUMPDEST PUSH1 0x40 MLOAD PUSH1 0x1F DUP3 ADD PUSH1 0x1F NOT SWAP1 DUP2 AND PUSH1 0x3F ADD AND DUP2 ADD SWAP1 DUP4 DUP3 GT DUP2 DUP4 LT OR ISZERO PUSH2 0xFFA JUMPI PUSH2 0xFFA PUSH2 0xF5D JUMP JUMPDEST DUP2 PUSH1 0x40 MSTORE DUP3 DUP2 MSTORE DUP9 PUSH1 0x20 DUP5 DUP8 ADD ADD GT ISZERO PUSH2 0x1013 JUMPI PUSH1 0x0 DUP1 REVERT JUMPDEST DUP3 PUSH1 0x20 DUP7 ADD PUSH1 0x20 DUP4 ADD CALLDATACOPY PUSH1 0x0 PUSH1 0x20 DUP5 DUP4 ADD ADD MSTORE DUP1 SWAP6 POP POP POP POP POP POP SWAP3 POP SWAP3 SWAP1 POP JUMP JUMPDEST PUSH1 0x0 DUP1 PUSH1 0x0 DUP1 PUSH1 0x80 DUP6 DUP8 SUB SLT ISZERO PUSH2 0x104B JUMPI PUSH1 0x0 DUP1 REVERT JUMPDEST DUP5 CALLDATALOAD SWAP4 POP PUSH1 0x20 DUP6 ADD CALLDATALOAD SWAP3 POP PUSH1 0x40 DUP6 ADD CALLDATALOAD PUSH1 0x1 PUSH1 0x1 PUSH1 0xE0 SHL SUB NOT DUP2 AND DUP2 EQ PUSH2 0x1071 JUMPI PUSH1 0x0 DUP1 REVERT JUMPDEST SWAP4 SWAP7 SWAP3 SWAP6 POP SWAP3 SWAP4 PUSH1 0x60 ADD CALLDATALOAD SWAP3 POP POP JUMP JUMPDEST PUSH1 0x0 PUSH1 0x20 DUP3 DUP5 SUB SLT ISZERO PUSH2 0x1093 JUMPI PUSH1 0x0 DUP1 REVERT JUMPDEST PUSH2 0xC2C DUP3 PUSH2 0xF41 JUMP JUMPDEST PUSH1 0x0 PUSH1 0x20 DUP3 DUP5 SUB SLT ISZERO PUSH2 0x10AE JUMPI PUSH1 0x0 DUP1 REVERT JUMPDEST POP MLOAD SWAP2 SWAP1 POP JUMP JUMPDEST PUSH1 0x0 PUSH1 0x20 DUP3 DUP5 SUB SLT ISZERO PUSH2 0x10C7 JUMPI PUSH1 0x0 DUP1 REVERT JUMPDEST DUP2 MLOAD DUP1 ISZERO ISZERO DUP2 EQ PUSH2 0xC2C JUMPI PUSH1 0x0 DUP1 REVERT JUMPDEST PUSH4 0x4E487B71 PUSH1 0xE0 SHL PUSH1 0x0 MSTORE PUSH1 0x11 PUSH1 0x4 MSTORE PUSH1 0x24 PUSH1 0x0 REVERT JUMPDEST DUP1 DUP3 MUL DUP2 ISZERO DUP3 DUP3 DIV DUP5 EQ OR PUSH2 0xAF0 JUMPI PUSH2 0xAF0 PUSH2 0x10D7 JUMP JUMPDEST PUSH4 0x4E487B71 PUSH1 0xE0 SHL PUSH1 0x0 MSTORE PUSH1 0x12 PUSH1 0x4 MSTORE PUSH1 0x24 PUSH1 0x0 REVERT JUMPDEST PUSH1 0x0 DUP3 PUSH2 0x1129 JUMPI PUSH2 0x1129 PUSH2 0x1104 JUMP JUMPDEST POP DIV SWAP1 JUMP JUMPDEST DUP1 DUP3 ADD DUP1 DUP3 GT ISZERO PUSH2 0xAF0 JUMPI PUSH2 0xAF0 PUSH2 0x10D7 JUMP JUMPDEST PUSH1 0x0 DUP2 MLOAD DUP1 DUP5 MSTORE PUSH1 0x0 JUMPDEST DUP2 DUP2 LT ISZERO PUSH2 0x1167 JUMPI PUSH1 0x20 DUP2 DUP6 ADD DUP2 ADD MLOAD DUP7 DUP4 ADD DUP3 ADD MSTORE ADD PUSH2 0x114B JUMP JUMPDEST POP PUSH1 0x0 PUSH1 0x20 DUP3 DUP7 ADD ADD MSTORE PUSH1 0x20 PUSH1 0x1F NOT PUSH1 0x1F DUP4 ADD AND DUP6 ADD ADD SWAP2 POP POP SWAP3 SWAP2 POP POP JUMP JUMPDEST PUSH1 0x1 PUSH1 0x1 PUSH1 0xA0 SHL SUB DUP10 DUP2 AND DUP3 MSTORE PUSH1 0x20 DUP3 ADD DUP10 SWAP1 MSTORE PUSH1 0x40 DUP3 ADD DUP9 SWAP1 MSTORE DUP7 AND PUSH1 0x60 DUP3 ADD MSTORE PUSH1 0x1 PUSH1 0x1 PUSH1 0xE0 SHL SUB NOT DUP6 AND PUSH1 0x80 DUP3 ADD MSTORE PUSH1 0xA0 DUP2 ADD DUP5 SWAP1 MSTORE PUSH1 0xC0 DUP2 ADD DUP4 SWAP1 MSTORE PUSH2 0x100 PUSH1 0xE0 DUP3 ADD DUP2 SWAP1 MSTORE PUSH1 0x0 SWAP1 PUSH2 0x11E0 DUP4 DUP3 ADD DUP6 PUSH2 0x1141 JUMP JUMPDEST SWAP12 SWAP11 POP POP POP POP POP POP POP POP POP POP POP JUMP JUMPDEST DUP2 DUP2 SUB PUSH1 0x0 DUP4 SLT DUP1 ISZERO DUP4 DUP4 SGT AND DUP4 DUP4 SLT DUP3 AND OR ISZERO PUSH2 0x120F JUMPI PUSH2 0x120F PUSH2 0x10D7 JUMP JUMPDEST POP SWAP3 SWAP2 POP POP JUMP JUMPDEST PUSH1 0x1 DUP1 PUSH1 0xA0 SHL SUB DUP5 AND DUP2 MSTORE DUP3 PUSH1 0x20 DUP3 ADD MSTORE PUSH1 0x60 PUSH1 0x40 DUP3 ADD MSTORE PUSH1 0x0 PUSH2 0x613 PUSH1 0x60 DUP4 ADD DUP5 PUSH2 0x1141 JUMP JUMPDEST PUSH1 0x0 DUP3 PUSH2 0x124C JUMPI PUSH2 0x124C PUSH2 0x1104 JUMP JUMPDEST POP MOD SWAP1 JUMP JUMPDEST DUP2 DUP2 SUB DUP2 DUP2 GT ISZERO PUSH2 0xAF0 JUMPI PUSH2 0xAF0 PUSH2 0x10D7 JUMP JUMPDEST PUSH1 0x1 DUP2 DUP2 JUMPDEST DUP1 DUP6 GT ISZERO PUSH2 0x129F JUMPI DUP2 PUSH1 0x0 NOT DIV DUP3 GT ISZERO PUSH2 0x1285 JUMPI PUSH2 0x1285 PUSH2 0x10D7 JUMP JUMPDEST DUP1 DUP6 AND ISZERO PUSH2 0x1292 JUMPI SWAP2 DUP2 MUL SWAP2 JUMPDEST SWAP4 DUP5 SHR SWAP4 SWAP1 DUP1 MUL SWAP1 PUSH2 0x1269 JUMP JUMPDEST POP SWAP3 POP SWAP3 SWAP1 POP JUMP JUMPDEST PUSH1 0x0 DUP3 PUSH2 0x12B6 JUMPI POP PUSH1 0x1 PUSH2 0xAF0 JUMP JUMPDEST DUP2 PUSH2 0x12C3 JUMPI POP PUSH1 0x0 PUSH2 0xAF0 JUMP JUMPDEST DUP2 PUSH1 0x1 DUP2 EQ PUSH2 0x12D9 JUMPI PUSH1 0x2 DUP2 EQ PUSH2 0x12E3 JUMPI PUSH2 0x12FF JUMP JUMPDEST PUSH1 0x1 SWAP2 POP POP PUSH2 0xAF0 JUMP JUMPDEST PUSH1 0xFF DUP5 GT ISZERO PUSH2 0x12F4 JUMPI PUSH2 0x12F4 PUSH2 0x10D7 JUMP JUMPDEST POP POP PUSH1 0x1 DUP3 SHL PUSH2 0xAF0 JUMP JUMPDEST POP PUSH1 0x20 DUP4 LT PUSH2 0x133 DUP4 LT AND PUSH1 0x4E DUP5 LT PUSH1 0xB DUP5 LT AND OR ISZERO PUSH2 0x1322 JUMPI POP DUP2 DUP2 EXP PUSH2 0xAF0 JUMP JUMPDEST PUSH2 0x132C DUP4 DUP4 PUSH2 0x1264 JUMP JUMPDEST DUP1 PUSH1 0x0 NOT DIV DUP3 GT ISZERO PUSH2 0x1340 JUMPI PUSH2 0x1340 PUSH2 0x10D7 JUMP JUMPDEST MUL SWAP4 SWAP3 POP POP POP JUMP JUMPDEST PUSH1 0x0 PUSH2 0xC2C DUP4 DUP4 PUSH2 0x12A7 JUMP INVALID LOG2 PUSH5 0x6970667358 0x22 SLT KECCAK256 DUP7 SWAP14 0xB9 0xBD 0xD2 MSIZE 0x28 RETURN 0xAB 0x4E SMOD 0xDD CALLER PUSH2 0x674 0xD5 0xEB 0xA6 0xE8 CHAINID CODESIZE ADDRESS SWAP3 0xD0 DUP2 ADD 0xBA GT GT 0x2B TIMESTAMP PUSH5 0x736F6C6343 STOP ADDMOD SGT STOP CALLER "},"methodIdentifiers":{"acceptOwnership()":"79ba5097","cancelRequest(bytes32,uint256,bytes4,uint256)":"ec65d0f8","currentPrice()":"9d1b464a","fulfillEthereumPrice(bytes32,uint256)":"92cdaaf3","getChainlinkToken()":"165d35e1","owner()":"8da5cb5b","requestEthereumPrice(address,string)":"ab643c10","transferOwnership(address)":"f2fde38b","withdrawLink()":"8dc654a2"}},"storageLayout":{"storage":[{"astId":325,"contract":"contracts/HighLevelOracle.sol:HighLevelOracle","label":"s_ens","offset":0,"slot":"0","type":"t_contract(ENSInterface)982"},{"astId":327,"contract":"contracts/HighLevelOracle.sol:HighLevelOracle","label":"s_ensNode","offset":0,"slot":"1","type":"t_bytes32"},{"astId":330,"contract":"contracts/HighLevelOracle.sol:HighLevelOracle","label":"s_link","offset":0,"slot":"2","type":"t_contract(LinkTokenInterface)1382"},{"astId":333,"contract":"contracts/HighLevelOracle.sol:HighLevelOracle","label":"s_oracle","offset":0,"slot":"3","type":"t_contract(OperatorInterface)1047"},{"astId":336,"contract":"contracts/HighLevelOracle.sol:HighLevelOracle","label":"s_requestCount","offset":0,"slot":"4","type":"t_uint256"},{"astId":340,"contract":"contracts/HighLevelOracle.sol:HighLevelOracle","label":"s_pendingRequests","offset":0,"slot":"5","type":"t_mapping(t_bytes32,t_address)"},{"astId":1117,"contract":"contracts/HighLevelOracle.sol:HighLevelOracle","label":"s_owner","offset":0,"slot":"6","type":"t_address"},{"astId":1119,"contract":"contracts/HighLevelOracle.sol:HighLevelOracle","label":"s_pendingOwner","offset":0,"slot":"7","type":"t_address"},{"astId":2389,"contract":"contracts/HighLevelOracle.sol:HighLevelOracle","label":"currentPrice","offset":0,"slot":"8","type":"t_uint256"},{"astId":2393,"contract":"contracts/HighLevelOracle.sol:HighLevelOracle","label":"requestStorage","offset":0,"slot":"9","type":"t_mapping(t_bytes32,t_address)"}],"types":{"t_address":{"encoding":"inplace","label":"address","numberOfBytes":"20"},"t_bytes32":{"encoding":"inplace","label":"bytes32","numberOfBytes":"32"},"t_contract(ENSInterface)982":{"encoding":"inplace","label":"contract ENSInterface","numberOfBytes":"20"},"t_contract(LinkTokenInterface)1382":{"encoding":"inplace","label":"contract LinkTokenInterface","numberOfBytes":"20"},"t_contract(OperatorInterface)1047":{"encoding":"inplace","label":"contract OperatorInterface","numberOfBytes":"20"},"t_mapping(t_bytes32,t_address)":{"encoding":"mapping","key":"t_bytes32","label":"mapping(bytes32 => address)","numberOfBytes":"32","value":"t_address"},"t_uint256":{"encoding":"inplace","label":"uint256","numberOfBytes":"32"}}}}}}