{
  "_format": "hh-sol-artifact-1",
  "contractName": "HighLevelOracleCOPY",
  "sourceName": "contracts/HighLevelOracle copy.sol",
  "abi": [
    {
      "inputs": [
        {
          "internalType": "address",
          "name": "_oracleToken",
          "type": "address"
        },
        {
          "internalType": "address",
          "name": "_oracle",
          "type": "address"
        }
      ],
      "stateMutability": "nonpayable",
      "type": "constructor"
    },
    {
      "anonymous": false,
      "inputs": [
        {
          "indexed": true,
          "internalType": "bytes32",
          "name": "id",
          "type": "bytes32"
        }
      ],
      "name": "ChainlinkCancelled",
      "type": "event"
    },
    {
      "anonymous": false,
      "inputs": [
        {
          "indexed": true,
          "internalType": "bytes32",
          "name": "id",
          "type": "bytes32"
        }
      ],
      "name": "ChainlinkFulfilled",
      "type": "event"
    },
    {
      "anonymous": false,
      "inputs": [
        {
          "indexed": true,
          "internalType": "bytes32",
          "name": "id",
          "type": "bytes32"
        }
      ],
      "name": "ChainlinkRequested",
      "type": "event"
    },
    {
      "anonymous": false,
      "inputs": [
        {
          "indexed": true,
          "internalType": "bytes32",
          "name": "requestId",
          "type": "bytes32"
        }
      ],
      "name": "EthereumPriceRequested",
      "type": "event"
    },
    {
      "anonymous": false,
      "inputs": [
        {
          "indexed": true,
          "internalType": "string",
          "name": "jobID",
          "type": "string"
        },
        {
          "indexed": true,
          "internalType": "string",
          "name": "methodName",
          "type": "string"
        }
      ],
      "name": "MethodJobIdSet",
      "type": "event"
    },
    {
      "anonymous": false,
      "inputs": [
        {
          "indexed": true,
          "internalType": "address",
          "name": "from",
          "type": "address"
        },
        {
          "indexed": true,
          "internalType": "address",
          "name": "to",
          "type": "address"
        }
      ],
      "name": "OwnershipTransferRequested",
      "type": "event"
    },
    {
      "anonymous": false,
      "inputs": [
        {
          "indexed": true,
          "internalType": "address",
          "name": "from",
          "type": "address"
        },
        {
          "indexed": true,
          "internalType": "address",
          "name": "to",
          "type": "address"
        }
      ],
      "name": "OwnershipTransferred",
      "type": "event"
    },
    {
      "anonymous": false,
      "inputs": [
        {
          "indexed": true,
          "internalType": "bytes32",
          "name": "requestId",
          "type": "bytes32"
        },
        {
          "indexed": true,
          "internalType": "uint256",
          "name": "price",
          "type": "uint256"
        }
      ],
      "name": "RequestEthereumPriceFulfilled",
      "type": "event"
    },
    {
      "inputs": [],
      "name": "acceptOwnership",
      "outputs": [],
      "stateMutability": "nonpayable",
      "type": "function"
    },
    {
      "inputs": [
        {
          "internalType": "bytes32",
          "name": "_requestId",
          "type": "bytes32"
        },
        {
          "internalType": "uint256",
          "name": "_payment",
          "type": "uint256"
        },
        {
          "internalType": "bytes4",
          "name": "_callbackFunctionId",
          "type": "bytes4"
        },
        {
          "internalType": "uint256",
          "name": "_expiration",
          "type": "uint256"
        }
      ],
      "name": "cancelRequest",
      "outputs": [],
      "stateMutability": "nonpayable",
      "type": "function"
    },
    {
      "inputs": [],
      "name": "currentPrice",
      "outputs": [
        {
          "internalType": "uint256",
          "name": "",
          "type": "uint256"
        }
      ],
      "stateMutability": "view",
      "type": "function"
    },
    {
      "inputs": [
        {
          "internalType": "bytes32",
          "name": "_requestId",
          "type": "bytes32"
        },
        {
          "internalType": "uint256",
          "name": "_price",
          "type": "uint256"
        }
      ],
      "name": "fulfillEthereumPrice",
      "outputs": [],
      "stateMutability": "nonpayable",
      "type": "function"
    },
    {
      "inputs": [],
      "name": "getChainlinkToken",
      "outputs": [
        {
          "internalType": "address",
          "name": "",
          "type": "address"
        }
      ],
      "stateMutability": "view",
      "type": "function"
    },
    {
      "inputs": [],
      "name": "owner",
      "outputs": [
        {
          "internalType": "address",
          "name": "",
          "type": "address"
        }
      ],
      "stateMutability": "view",
      "type": "function"
    },
    {
      "inputs": [
        {
          "internalType": "string",
          "name": "_coin",
          "type": "string"
        }
      ],
      "name": "requestCoinPrice",
      "outputs": [],
      "stateMutability": "nonpayable",
      "type": "function"
    },
    {
      "inputs": [
        {
          "internalType": "string",
          "name": "_jobId",
          "type": "string"
        },
        {
          "internalType": "string",
          "name": "_methodName",
          "type": "string"
        }
      ],
      "name": "setMethodJobID",
      "outputs": [],
      "stateMutability": "nonpayable",
      "type": "function"
    },
    {
      "inputs": [
        {
          "internalType": "address",
          "name": "to",
          "type": "address"
        }
      ],
      "name": "transferOwnership",
      "outputs": [],
      "stateMutability": "nonpayable",
      "type": "function"
    },
    {
      "inputs": [],
      "name": "withdrawLink",
      "outputs": [],
      "stateMutability": "nonpayable",
      "type": "function"
    }
  ],
  "bytecode": "0x6080604052600160045534801561001557600080fd5b50604051610e6f380380610e6f833981016040819052610034916101da565b338060008161008a5760405162461bcd60e51b815260206004820152601860248201527f43616e6e6f7420736574206f776e657220746f207a65726f000000000000000060448201526064015b60405180910390fd5b600680546001600160a01b0319166001600160a01b03848116919091179091558116156100ba576100ba816100f2565b5050506100cc8261019c60201b60201c565b600980546001600160a01b0319166001600160a01b03929092169190911790555061020d565b336001600160a01b0382160361014a5760405162461bcd60e51b815260206004820152601760248201527f43616e6e6f74207472616e7366657220746f2073656c660000000000000000006044820152606401610081565b600780546001600160a01b0319166001600160a01b03838116918217909255600654604051919216907fed8889f560326eb138920d842192f0eb3dd22b4f139c87a2c57538e05bae127890600090a350565b600280546001600160a01b0319166001600160a01b0392909216919091179055565b80516001600160a01b03811681146101d557600080fd5b919050565b600080604083850312156101ed57600080fd5b6101f6836101be565b9150610204602084016101be565b90509250929050565b610c538061021c6000396000f3fe608060405234801561001057600080fd5b506004361061009e5760003560e01c806392cdaaf31161006657806392cdaaf3146100fe5780639d1b464a14610111578063cf517ab514610128578063ec65d0f81461013b578063f2fde38b1461014e57600080fd5b8063165d35e1146100a357806329515a11146100c857806379ba5097146100dd5780638da5cb5b146100e55780638dc654a2146100f6575b600080fd5b6100ab610161565b6040516001600160a01b0390911681526020015b60405180910390f35b6100db6100d63660046108da565b61017a565b005b6100db61028c565b6006546001600160a01b03166100ab565b6100db61033a565b6100db61010c366004610946565b61047e565b61011a60085481565b6040519081526020016100bf565b6100db610136366004610968565b61056e565b6100db6101493660046109aa565b610676565b6100db61015c3660046109f6565b610690565b60006101756002546001600160a01b031690565b905090565b6101826106a1565b826101cd5760405162461bcd60e51b81526020600482015260166024820152754a6f622049442063616e6e6f7420626520656d70747960501b60448201526064015b60405180910390fd5b8383600a600061021286868080601f0160208091040260200160405190810160405280939291908181526020018383808284376000920191909152506106f692505050565b8152602001908152602001600020918261022d929190610ac4565b50818160405161023e929190610b85565b60405180910390208484604051610256929190610b85565b604051908190038120907f1775fe42fc626944920796797476b335faca3c00bde9f5430a0aa202193036e890600090a350505050565b6007546001600160a01b031633146102df5760405162461bcd60e51b815260206004820152601660248201527526bab9ba10313290383937b837b9b2b21037bbb732b960511b60448201526064016101c4565b600680546001600160a01b0319808216339081179093556007805490911690556040516001600160a01b03909116919082907f8be0079c531659141344cd1fd0a4f28419497f9722a3daafe3b4186f6b6457e090600090a350565b6103426106a1565b60006103566002546001600160a01b031690565b6040516370a0823160e01b81523060048201529091506001600160a01b0382169063a9059cbb90339083906370a0823190602401602060405180830381865afa1580156103a7573d6000803e3d6000fd5b505050506040513d601f19601f820116820180604052508101906103cb9190610b95565b6040516001600160e01b031960e085901b1681526001600160a01b03909216600483015260248201526044016020604051808303816000875af1158015610416573d6000803e3d6000fd5b505050506040513d601f19601f8201168201806040525081019061043a9190610bae565b61047b5760405162461bcd60e51b81526020600482015260126024820152712ab730b13632903a37903a3930b739b332b960711b60448201526064016101c4565b50565b60008281526005602052604090205482906001600160a01b031633146104f75760405162461bcd60e51b815260206004820152602860248201527f536f75726365206d75737420626520746865206f7261636c65206f6620746865604482015267081c995c5d595cdd60c21b60648201526084016101c4565b60008181526005602052604080822080546001600160a01b03191690555182917f7cc135e0cebb02c3480ae5d74d377283180a2601f8f644edf7987b009316c63a91a2604051829084907f794eb9e29f6750ede99e05248d997a9ab9fa23c4a7eaff8afa729080eb7c642890600090a35060085550565b60006105826002546001600160a01b031690565b90506001600160a01b0381166323b872dd3330600a6105aa670de0b6b3a76400006001610bd0565b6105b49190610bfb565b6040516001600160e01b031960e086901b1681526001600160a01b03938416600482015292909116602483015260448201526064016020604051808303816000875af1158015610608573d6000803e3d6000fd5b505050506040513d601f19601f8201168201806040525081019061062c9190610bae565b6106715760405162461bcd60e51b8152602060048201526016602482015275556e61626c6520746f207472616e736665722066656560501b60448201526064016101c4565b505050565b61067e6106a1565b61068a84848484610715565b50505050565b6106986106a1565b61047b816107e7565b6006546001600160a01b031633146106f45760405162461bcd60e51b815260206004820152601660248201527527b7363c9031b0b63630b1363290313c9037bbb732b960511b60448201526064016101c4565b565b80516000908290820361070c5750600092915050565b50506020015190565b60008481526005602052604080822080546001600160a01b0319811690915590516001600160a01b039091169186917fe1fe3afa0f7f761ff0a8b89086790efd5140d2907ebd5b7ff6bfcb5e075fd4c59190a2604051636ee4d55360e01b815260048101869052602481018590526001600160e01b031984166044820152606481018390526001600160a01b03821690636ee4d55390608401600060405180830381600087803b1580156107c857600080fd5b505af11580156107dc573d6000803e3d6000fd5b505050505050505050565b336001600160a01b0382160361083f5760405162461bcd60e51b815260206004820152601760248201527f43616e6e6f74207472616e7366657220746f2073656c6600000000000000000060448201526064016101c4565b600780546001600160a01b0319166001600160a01b03838116918217909255600654604051919216907fed8889f560326eb138920d842192f0eb3dd22b4f139c87a2c57538e05bae127890600090a350565b60008083601f8401126108a357600080fd5b50813567ffffffffffffffff8111156108bb57600080fd5b6020830191508360208285010111156108d357600080fd5b9250929050565b600080600080604085870312156108f057600080fd5b843567ffffffffffffffff8082111561090857600080fd5b61091488838901610891565b9096509450602087013591508082111561092d57600080fd5b5061093a87828801610891565b95989497509550505050565b6000806040838503121561095957600080fd5b50508035926020909101359150565b6000806020838503121561097b57600080fd5b823567ffffffffffffffff81111561099257600080fd5b61099e85828601610891565b90969095509350505050565b600080600080608085870312156109c057600080fd5b843593506020850135925060408501356001600160e01b0319811681146109e657600080fd5b9396929550929360600135925050565b600060208284031215610a0857600080fd5b81356001600160a01b0381168114610a1f57600080fd5b9392505050565b634e487b7160e01b600052604160045260246000fd5b600181811c90821680610a5057607f821691505b602082108103610a7057634e487b7160e01b600052602260045260246000fd5b50919050565b601f82111561067157600081815260208120601f850160051c81016020861015610a9d5750805b601f850160051c820191505b81811015610abc57828155600101610aa9565b505050505050565b67ffffffffffffffff831115610adc57610adc610a26565b610af083610aea8354610a3c565b83610a76565b6000601f841160018114610b245760008515610b0c5750838201355b600019600387901b1c1916600186901b178355610b7e565b600083815260209020601f19861690835b82811015610b555786850135825560209485019460019092019101610b35565b5086821015610b725760001960f88860031b161c19848701351681555b505060018560011b0183555b5050505050565b8183823760009101908152919050565b600060208284031215610ba757600080fd5b5051919050565b600060208284031215610bc057600080fd5b81518015158114610a1f57600080fd5b8082028115828204841417610bf557634e487b7160e01b600052601160045260246000fd5b92915050565b600082610c1857634e487b7160e01b600052601260045260246000fd5b50049056fea2646970667358221220c24b1dc105289921eb7c31193b3c6083d85a5dc2e80e8c98444e14a20505a88564736f6c63430008130033",
  "linkReferences": {},
  "deployedLinkReferences": {}
}