{
  "_format": "hh-sol-artifact-1",
  "contractName": "HighLevelOracle",
  "sourceName": "contracts/HighLevelOracle.sol",
  "abi": [
    {
      "inputs": [],
      "stateMutability": "nonpayable",
      "type": "constructor"
    },
    {
      "anonymous": false,
      "inputs": [
        {
          "indexed": true,
          "internalType": "bytes32",
          "name": "id",
          "type": "bytes32"
        }
      ],
      "name": "ChainlinkCancelled",
      "type": "event"
    },
    {
      "anonymous": false,
      "inputs": [
        {
          "indexed": true,
          "internalType": "bytes32",
          "name": "id",
          "type": "bytes32"
        }
      ],
      "name": "ChainlinkFulfilled",
      "type": "event"
    },
    {
      "anonymous": false,
      "inputs": [
        {
          "indexed": true,
          "internalType": "bytes32",
          "name": "id",
          "type": "bytes32"
        }
      ],
      "name": "ChainlinkRequested",
      "type": "event"
    },
    {
      "anonymous": false,
      "inputs": [
        {
          "indexed": true,
          "internalType": "bytes32",
          "name": "requestId",
          "type": "bytes32"
        }
      ],
      "name": "EthereumPriceRequested",
      "type": "event"
    },
    {
      "anonymous": false,
      "inputs": [
        {
          "indexed": true,
          "internalType": "address",
          "name": "from",
          "type": "address"
        },
        {
          "indexed": true,
          "internalType": "address",
          "name": "to",
          "type": "address"
        }
      ],
      "name": "OwnershipTransferRequested",
      "type": "event"
    },
    {
      "anonymous": false,
      "inputs": [
        {
          "indexed": true,
          "internalType": "address",
          "name": "from",
          "type": "address"
        },
        {
          "indexed": true,
          "internalType": "address",
          "name": "to",
          "type": "address"
        }
      ],
      "name": "OwnershipTransferred",
      "type": "event"
    },
    {
      "anonymous": false,
      "inputs": [
        {
          "indexed": true,
          "internalType": "bytes32",
          "name": "requestId",
          "type": "bytes32"
        },
        {
          "indexed": true,
          "internalType": "uint256",
          "name": "price",
          "type": "uint256"
        }
      ],
      "name": "RequestEthereumPriceFulfilled",
      "type": "event"
    },
    {
      "inputs": [],
      "name": "acceptOwnership",
      "outputs": [],
      "stateMutability": "nonpayable",
      "type": "function"
    },
    {
      "inputs": [
        {
          "internalType": "bytes32",
          "name": "_requestId",
          "type": "bytes32"
        },
        {
          "internalType": "uint256",
          "name": "_payment",
          "type": "uint256"
        },
        {
          "internalType": "bytes4",
          "name": "_callbackFunctionId",
          "type": "bytes4"
        },
        {
          "internalType": "uint256",
          "name": "_expiration",
          "type": "uint256"
        }
      ],
      "name": "cancelRequest",
      "outputs": [],
      "stateMutability": "nonpayable",
      "type": "function"
    },
    {
      "inputs": [],
      "name": "currentPrice",
      "outputs": [
        {
          "internalType": "uint256",
          "name": "",
          "type": "uint256"
        }
      ],
      "stateMutability": "view",
      "type": "function"
    },
    {
      "inputs": [
        {
          "internalType": "bytes32",
          "name": "_requestId",
          "type": "bytes32"
        },
        {
          "internalType": "uint256",
          "name": "_price",
          "type": "uint256"
        }
      ],
      "name": "fulfillEthereumPrice",
      "outputs": [],
      "stateMutability": "nonpayable",
      "type": "function"
    },
    {
      "inputs": [],
      "name": "getChainlinkToken",
      "outputs": [
        {
          "internalType": "address",
          "name": "",
          "type": "address"
        }
      ],
      "stateMutability": "view",
      "type": "function"
    },
    {
      "inputs": [],
      "name": "owner",
      "outputs": [
        {
          "internalType": "address",
          "name": "",
          "type": "address"
        }
      ],
      "stateMutability": "view",
      "type": "function"
    },
    {
      "inputs": [
        {
          "internalType": "address",
          "name": "_oracle",
          "type": "address"
        },
        {
          "internalType": "string",
          "name": "_jobId",
          "type": "string"
        }
      ],
      "name": "requestEthereumPrice",
      "outputs": [],
      "stateMutability": "nonpayable",
      "type": "function"
    },
    {
      "inputs": [
        {
          "internalType": "address",
          "name": "to",
          "type": "address"
        }
      ],
      "name": "transferOwnership",
      "outputs": [],
      "stateMutability": "nonpayable",
      "type": "function"
    },
    {
      "inputs": [],
      "name": "withdrawLink",
      "outputs": [],
      "stateMutability": "nonpayable",
      "type": "function"
    }
  ],
  "bytecode": "0x6080604052600160045534801561001557600080fd5b50338060008161006c5760405162461bcd60e51b815260206004820152601860248201527f43616e6e6f7420736574206f776e657220746f207a65726f000000000000000060448201526064015b60405180910390fd5b600680546001600160a01b0319166001600160a01b038481169190911790915581161561009c5761009c816100c7565b5050506100c273779877a7b0d9e8603169ddbd7836e478b462478961017160201b60201c565b610193565b336001600160a01b0382160361011f5760405162461bcd60e51b815260206004820152601760248201527f43616e6e6f74207472616e7366657220746f2073656c660000000000000000006044820152606401610063565b600780546001600160a01b0319166001600160a01b03838116918217909255600654604051919216907fed8889f560326eb138920d842192f0eb3dd22b4f139c87a2c57538e05bae127890600090a350565b600280546001600160a01b0319166001600160a01b0392909216919091179055565b61138a806101a26000396000f3fe608060405234801561001057600080fd5b50600436106100935760003560e01c806392cdaaf31161006657806392cdaaf3146100e05780639d1b464a146100f3578063ab643c101461010a578063ec65d0f81461011d578063f2fde38b1461013057600080fd5b8063165d35e11461009857806379ba5097146100bd5780638da5cb5b146100c75780638dc654a2146100d8575b600080fd5b6100a0610143565b6040516001600160a01b0390911681526020015b60405180910390f35b6100c561015c565b005b6006546001600160a01b03166100a0565b6100c561020f565b6100c56100ee366004610f1f565b610353565b6100fc60085481565b6040519081526020016100b4565b6100c5610118366004610f73565b610443565b6100c561012b366004611035565b610558565b6100c561013e366004611081565b610572565b60006101576002546001600160a01b031690565b905090565b6007546001600160a01b031633146101b45760405162461bcd60e51b815260206004820152601660248201527526bab9ba10313290383937b837b9b2b21037bbb732b960511b60448201526064015b60405180910390fd5b600680546001600160a01b0319808216339081179093556007805490911690556040516001600160a01b03909116919082907f8be0079c531659141344cd1fd0a4f28419497f9722a3daafe3b4186f6b6457e090600090a350565b610217610583565b600061022b6002546001600160a01b031690565b6040516370a0823160e01b81523060048201529091506001600160a01b0382169063a9059cbb90339083906370a0823190602401602060405180830381865afa15801561027c573d6000803e3d6000fd5b505050506040513d601f19601f820116820180604052508101906102a0919061109c565b6040516001600160e01b031960e085901b1681526001600160a01b03909216600483015260248201526044016020604051808303816000875af11580156102eb573d6000803e3d6000fd5b505050506040513d601f19601f8201168201806040525081019061030f91906110b5565b6103505760405162461bcd60e51b81526020600482015260126024820152712ab730b13632903a37903a3930b739b332b960711b60448201526064016101ab565b50565b60008281526005602052604090205482906001600160a01b031633146103cc5760405162461bcd60e51b815260206004820152602860248201527f536f75726365206d75737420626520746865206f7261636c65206f6620746865604482015267081c995c5d595cdd60c21b60648201526084016101ab565b60008181526005602052604080822080546001600160a01b03191690555182917f7cc135e0cebb02c3480ae5d74d377283180a2601f8f644edf7987b009316c63a91a2604051829084907f794eb9e29f6750ede99e05248d997a9ab9fa23c4a7eaff8afa729080eb7c642890600090a35060085550565b61044b610583565b6000610467610459836105d8565b306392cdaaf360e01b6105f7565b90506104b5604051806040016040528060048152602001630e0c2e8d60e31b815250604051806040016040528060038152602001621554d160ea1b8152508361061c9092919063ffffffff16565b60408051808201909152600581526474696d657360d81b60208201526104de908290606461063f565b60006105098483600a6104fa670de0b6b3a764000060016110ed565b610504919061111a565b61065d565b60008181526009602052604080822080546001600160a01b031916331790555191925082917ff98d7a37e55105e3a3a0542a6e342405a0dacb863d7476fc531d11cbc7bdaf9c9190a250505050565b610560610583565b61056c848484846106f0565b50505050565b61057a610583565b610350816107c2565b6006546001600160a01b031633146105d65760405162461bcd60e51b815260206004820152601660248201527527b7363c9031b0b63630b1363290313c9037bbb732b960511b60448201526064016101ab565b565b8051600090829082036105ee5750600092915050565b50506020015190565b6105ff610ee4565b610607610ee4565b6106138186868661086c565b95945050505050565b608083015161062b90836108b2565b608083015161063a90826108b2565b505050565b608083015161064e90836108b2565b608083015161063a90826108c9565b60045460009061066e81600161112e565b600455835160408086015160808701515191516000936320214ca360e11b936106a69386938493923092918a91600191602401611187565b60408051601f198184030181529190526020810180516001600160e01b03166001600160e01b03199093169290921790915290506106e68683868461092d565b9695505050505050565b60008481526005602052604080822080546001600160a01b0319811690915590516001600160a01b039091169186917fe1fe3afa0f7f761ff0a8b89086790efd5140d2907ebd5b7ff6bfcb5e075fd4c59190a2604051636ee4d55360e01b815260048101869052602481018590526001600160e01b031984166044820152606481018390526001600160a01b03821690636ee4d55390608401600060405180830381600087803b1580156107a357600080fd5b505af11580156107b7573d6000803e3d6000fd5b505050505050505050565b336001600160a01b0382160361081a5760405162461bcd60e51b815260206004820152601760248201527f43616e6e6f74207472616e7366657220746f2073656c6600000000000000000060448201526064016101ab565b600780546001600160a01b0319166001600160a01b03838116918217909255600654604051919216907fed8889f560326eb138920d842192f0eb3dd22b4f139c87a2c57538e05bae127890600090a350565b610874610ee4565b6108848560800151610100610a8b565b50508284526001600160a01b03821660208501526001600160e01b031981166040850152835b949350505050565b6108bf8260038351610af6565b61063a8282610c05565b67ffffffffffffffff198112156108e8576108e48282610c33565b5050565b67ffffffffffffffff811315610902576108e48282610c75565b60008112610916576108e482600083610af6565b6108e4826001610928846000196111ef565b610af6565b6040516bffffffffffffffffffffffff193060601b1660208201526034810184905260009060540160408051808303601f1901815282825280516020918201206000818152600590925291812080546001600160a01b0319166001600160a01b038a1617905590925082917fb5e6e01e79f91267dc17b4e6314d5d4d03593d2ceee0fbb452b750bd70ea5af99190a2600254604051630200057560e51b81526001600160a01b0390911690634000aea0906109f090889087908790600401611216565b6020604051808303816000875af1158015610a0f573d6000803e3d6000fd5b505050506040513d601f19601f82011682018060405250810190610a3391906110b5565b6108aa5760405162461bcd60e51b815260206004820152602360248201527f756e61626c6520746f207472616e73666572416e6443616c6c20746f206f7261604482015262636c6560e81b60648201526084016101ab565b604080518082019091526060815260006020820152610aab60208361123d565b15610ad357610abb60208361123d565b610ac6906020611251565b610ad0908361112e565b91505b506020808301829052604080518085526000815283019091019052815b92915050565b60178167ffffffffffffffff1611610b1b5761056c8360e0600585901b168317610c98565b60ff8167ffffffffffffffff1611610b5957610b42836018611fe0600586901b1617610c98565b5061056c8367ffffffffffffffff83166001610cbd565b61ffff8167ffffffffffffffff1611610b9857610b81836019611fe0600586901b1617610c98565b5061056c8367ffffffffffffffff83166002610cbd565b63ffffffff8167ffffffffffffffff1611610bd957610bc283601a611fe0600586901b1617610c98565b5061056c8367ffffffffffffffff83166004610cbd565b610bee83601b611fe0600586901b1617610c98565b5061056c8367ffffffffffffffff83166008610cbd565b604080518082019091526060815260006020820152610c2c83846000015151848551610ce3565b9392505050565b610c3e8260c3610c98565b506108e482610c4f836000196111ef565b604051602001610c6191815260200190565b604051602081830303815290604052610dcd565b610c808260c2610c98565b506108e48282604051602001610c6191815260200190565b604080518082019091526060815260006020820152610c2c8384600001515184610dda565b6040805180820190915260608152600060208201526108aa848560000151518585610e35565b6040805180820190915260608152600060208201528251821115610d0657600080fd5b6020850151610d15838661112e565b1115610d4857610d4885610d3887602001518786610d33919061112e565b610eb6565b610d439060026110ed565b610ecd565b600080865180518760208301019350808887011115610d675787860182525b505050602084015b60208410610da75780518252610d8660208361112e565b9150610d9360208261112e565b9050610da0602085611251565b9350610d6f565b51815160001960208690036101000a019081169019919091161790525083949350505050565b6108bf8260028351610af6565b60408051808201909152606081526000602082015283602001518310610e0f57610e0f8485602001516002610d4391906110ed565b8351805160208583010184815350808503610e2b576001810182525b5093949350505050565b6040805180820190915260608152600060208201526020850151610e59858461112e565b1115610e6d57610e6d85610d38868561112e565b60006001610e7d84610100611348565b610e879190611251565b9050855183868201018583198251161781525080518487011115610eab5783860181525b509495945050505050565b600081831115610ec7575081610af0565b50919050565b8151610ed98383610a8b565b5061056c8382610c05565b6040805160a0810182526000808252602080830182905282840182905260608084018390528451808601909552845283015290608082015290565b60008060408385031215610f3257600080fd5b50508035926020909101359150565b80356001600160a01b0381168114610f5857600080fd5b919050565b634e487b7160e01b600052604160045260246000fd5b60008060408385031215610f8657600080fd5b610f8f83610f41565b9150602083013567ffffffffffffffff80821115610fac57600080fd5b818501915085601f830112610fc057600080fd5b813581811115610fd257610fd2610f5d565b604051601f8201601f19908116603f01168101908382118183101715610ffa57610ffa610f5d565b8160405282815288602084870101111561101357600080fd5b8260208601602083013760006020848301015280955050505050509250929050565b6000806000806080858703121561104b57600080fd5b843593506020850135925060408501356001600160e01b03198116811461107157600080fd5b9396929550929360600135925050565b60006020828403121561109357600080fd5b610c2c82610f41565b6000602082840312156110ae57600080fd5b5051919050565b6000602082840312156110c757600080fd5b81518015158114610c2c57600080fd5b634e487b7160e01b600052601160045260246000fd5b8082028115828204841417610af057610af06110d7565b634e487b7160e01b600052601260045260246000fd5b60008261112957611129611104565b500490565b80820180821115610af057610af06110d7565b6000815180845260005b818110156111675760208185018101518683018201520161114b565b506000602082860101526020601f19601f83011685010191505092915050565b6001600160a01b0389811682526020820189905260408201889052861660608201526001600160e01b03198516608082015260a0810184905260c0810183905261010060e082018190526000906111e083820185611141565b9b9a5050505050505050505050565b818103600083128015838313168383128216171561120f5761120f6110d7565b5092915050565b60018060a01b03841681528260208201526060604082015260006106136060830184611141565b60008261124c5761124c611104565b500690565b81810381811115610af057610af06110d7565b600181815b8085111561129f578160001904821115611285576112856110d7565b8085161561129257918102915b93841c9390800290611269565b509250929050565b6000826112b657506001610af0565b816112c357506000610af0565b81600181146112d957600281146112e3576112ff565b6001915050610af0565b60ff8411156112f4576112f46110d7565b50506001821b610af0565b5060208310610133831016604e8410600b8410161715611322575081810a610af0565b61132c8383611264565b8060001904821115611340576113406110d7565b029392505050565b6000610c2c83836112a756fea2646970667358221220869db9bdd25928f3ab4e07dd33610674d5eba6e846383092d08101ba11112b4264736f6c63430008130033",
  "linkReferences": {},
  "deployedLinkReferences": {}
}