{
  "_format": "hh-sol-artifact-1",
  "contractName": "HighLevelOracle",
  "sourceName": "contracts/HighLevelOracle.sol",
  "abi": [
    {
      "inputs": [
        {
          "internalType": "address",
          "name": "_oracleToken",
          "type": "address"
        },
        {
          "internalType": "address",
          "name": "_oracle",
          "type": "address"
        }
      ],
      "stateMutability": "nonpayable",
      "type": "constructor"
    },
    {
      "anonymous": false,
      "inputs": [
        {
          "indexed": true,
          "internalType": "bytes32",
          "name": "id",
          "type": "bytes32"
        }
      ],
      "name": "ChainlinkCancelled",
      "type": "event"
    },
    {
      "anonymous": false,
      "inputs": [
        {
          "indexed": true,
          "internalType": "bytes32",
          "name": "id",
          "type": "bytes32"
        }
      ],
      "name": "ChainlinkFulfilled",
      "type": "event"
    },
    {
      "anonymous": false,
      "inputs": [
        {
          "indexed": true,
          "internalType": "bytes32",
          "name": "id",
          "type": "bytes32"
        }
      ],
      "name": "ChainlinkRequested",
      "type": "event"
    },
    {
      "anonymous": false,
      "inputs": [
        {
          "indexed": true,
          "internalType": "bytes32",
          "name": "requestId",
          "type": "bytes32"
        }
      ],
      "name": "EthereumPriceRequested",
      "type": "event"
    },
    {
      "anonymous": false,
      "inputs": [
        {
          "indexed": true,
          "internalType": "address",
          "name": "from",
          "type": "address"
        },
        {
          "indexed": true,
          "internalType": "address",
          "name": "to",
          "type": "address"
        }
      ],
      "name": "OwnershipTransferRequested",
      "type": "event"
    },
    {
      "anonymous": false,
      "inputs": [
        {
          "indexed": true,
          "internalType": "address",
          "name": "from",
          "type": "address"
        },
        {
          "indexed": true,
          "internalType": "address",
          "name": "to",
          "type": "address"
        }
      ],
      "name": "OwnershipTransferred",
      "type": "event"
    },
    {
      "anonymous": false,
      "inputs": [
        {
          "indexed": true,
          "internalType": "bytes32",
          "name": "requestId",
          "type": "bytes32"
        },
        {
          "indexed": true,
          "internalType": "uint256",
          "name": "price",
          "type": "uint256"
        }
      ],
      "name": "RequestEthereumPriceFulfilled",
      "type": "event"
    },
    {
      "inputs": [],
      "name": "acceptOwnership",
      "outputs": [],
      "stateMutability": "nonpayable",
      "type": "function"
    },
    {
      "inputs": [
        {
          "internalType": "bytes32",
          "name": "_requestId",
          "type": "bytes32"
        },
        {
          "internalType": "uint256",
          "name": "_payment",
          "type": "uint256"
        },
        {
          "internalType": "bytes4",
          "name": "_callbackFunctionId",
          "type": "bytes4"
        },
        {
          "internalType": "uint256",
          "name": "_expiration",
          "type": "uint256"
        }
      ],
      "name": "cancelRequest",
      "outputs": [],
      "stateMutability": "nonpayable",
      "type": "function"
    },
    {
      "inputs": [],
      "name": "currentPrice",
      "outputs": [
        {
          "internalType": "uint256",
          "name": "",
          "type": "uint256"
        }
      ],
      "stateMutability": "view",
      "type": "function"
    },
    {
      "inputs": [
        {
          "internalType": "bytes32",
          "name": "_requestId",
          "type": "bytes32"
        },
        {
          "internalType": "uint256",
          "name": "_price",
          "type": "uint256"
        }
      ],
      "name": "fulfillEthereumPrice",
      "outputs": [],
      "stateMutability": "nonpayable",
      "type": "function"
    },
    {
      "inputs": [],
      "name": "getChainlinkToken",
      "outputs": [
        {
          "internalType": "address",
          "name": "",
          "type": "address"
        }
      ],
      "stateMutability": "view",
      "type": "function"
    },
    {
      "inputs": [],
      "name": "owner",
      "outputs": [
        {
          "internalType": "address",
          "name": "",
          "type": "address"
        }
      ],
      "stateMutability": "view",
      "type": "function"
    },
    {
      "inputs": [
        {
          "internalType": "string",
          "name": "_coin",
          "type": "string"
        }
      ],
      "name": "requestCoinPrice",
      "outputs": [],
      "stateMutability": "nonpayable",
      "type": "function"
    },
    {
      "inputs": [
        {
          "internalType": "string",
          "name": "_jobId",
          "type": "string"
        },
        {
          "internalType": "uint256",
          "name": "_requestType",
          "type": "uint256"
        }
      ],
      "name": "setJobIDToRequestType",
      "outputs": [],
      "stateMutability": "nonpayable",
      "type": "function"
    },
    {
      "inputs": [
        {
          "internalType": "address",
          "name": "to",
          "type": "address"
        }
      ],
      "name": "transferOwnership",
      "outputs": [],
      "stateMutability": "nonpayable",
      "type": "function"
    },
    {
      "inputs": [],
      "name": "withdrawLink",
      "outputs": [],
      "stateMutability": "nonpayable",
      "type": "function"
    }
  ],
  "bytecode": "0x608060405260016004553480156200001657600080fd5b5060405162001ad738038062001ad78339810160408190526200003991620001e9565b3380600081620000905760405162461bcd60e51b815260206004820152601860248201527f43616e6e6f7420736574206f776e657220746f207a65726f000000000000000060448201526064015b60405180910390fd5b600680546001600160a01b0319166001600160a01b0384811691909117909155811615620000c357620000c381620000fe565b505050620000d782620001aa60201b60201c565b600980546001600160a01b0319166001600160a01b03929092169190911790555062000221565b336001600160a01b03821603620001585760405162461bcd60e51b815260206004820152601760248201527f43616e6e6f74207472616e7366657220746f2073656c66000000000000000000604482015260640162000087565b600780546001600160a01b0319166001600160a01b03838116918217909255600654604051919216907fed8889f560326eb138920d842192f0eb3dd22b4f139c87a2c57538e05bae127890600090a350565b600280546001600160a01b0319166001600160a01b0392909216919091179055565b80516001600160a01b0381168114620001e457600080fd5b919050565b60008060408385031215620001fd57600080fd5b6200020883620001cc565b91506200021860208401620001cc565b90509250929050565b6118a680620002316000396000f3fe608060405234801561001057600080fd5b506004361061009e5760003560e01c80639d1b464a116100665780639d1b464a146100fe578063a368258914610115578063cf517ab514610128578063ec65d0f81461013b578063f2fde38b1461014e57600080fd5b8063165d35e1146100a357806379ba5097146100c85780638da5cb5b146100d25780638dc654a2146100e357806392cdaaf3146100eb575b600080fd5b6100ab610161565b6040516001600160a01b0390911681526020015b60405180910390f35b6100d061017a565b005b6006546001600160a01b03166100ab565b6100d061022d565b6100d06100f93660046112a2565b610371565b61010760085481565b6040519081526020016100bf565b6100d06101233660046112da565b610461565b6100d061013636600461138f565b6104d0565b6100d0610149366004611401565b6108e0565b6100d061015c36600461144d565b6108fa565b60006101756002546001600160a01b031690565b905090565b6007546001600160a01b031633146101d25760405162461bcd60e51b815260206004820152601660248201527526bab9ba10313290383937b837b9b2b21037bbb732b960511b60448201526064015b60405180910390fd5b600680546001600160a01b0319808216339081179093556007805490911690556040516001600160a01b03909116919082907f8be0079c531659141344cd1fd0a4f28419497f9722a3daafe3b4186f6b6457e090600090a350565b61023561090b565b60006102496002546001600160a01b031690565b6040516370a0823160e01b81523060048201529091506001600160a01b0382169063a9059cbb90339083906370a0823190602401602060405180830381865afa15801561029a573d6000803e3d6000fd5b505050506040513d601f19601f820116820180604052508101906102be9190611476565b6040516001600160e01b031960e085901b1681526001600160a01b03909216600483015260248201526044016020604051808303816000875af1158015610309573d6000803e3d6000fd5b505050506040513d601f19601f8201168201806040525081019061032d919061148f565b61036e5760405162461bcd60e51b81526020600482015260126024820152712ab730b13632903a37903a3930b739b332b960711b60448201526064016101c9565b50565b60008281526005602052604090205482906001600160a01b031633146103ea5760405162461bcd60e51b815260206004820152602860248201527f536f75726365206d75737420626520746865206f7261636c65206f6620746865604482015267081c995c5d595cdd60c21b60648201526084016101c9565b60008181526005602052604080822080546001600160a01b03191690555182917f7cc135e0cebb02c3480ae5d74d377283180a2601f8f644edf7987b009316c63a91a2604051829084907f794eb9e29f6750ede99e05248d997a9ab9fa23c4a7eaff8afa729080eb7c642890600090a35060085550565b61046961090b565b60008251116104b35760405162461bcd60e51b81526020600482015260166024820152754a6f622049442063616e6e6f7420626520656d70747960501b60448201526064016101c9565b6000818152600a602052604090206104cb8382611533565b505050565b60006104e46002546001600160a01b031690565b90506001600160a01b0381166323b872dd3330600a61050c670de0b6b3a76400006001611609565b6105169190611636565b6040516001600160e01b031960e086901b1681526001600160a01b03938416600482015292909116602483015260448201526064016020604051808303816000875af115801561056a573d6000803e3d6000fd5b505050506040513d601f19601f8201168201806040525081019061058e919061148f565b6105d35760405162461bcd60e51b8152602060048201526016602482015275556e61626c6520746f207472616e736665722066656560501b60448201526064016101c9565b60016000818152600a6020527fbbc70db1b6c7afd11e79c0fb0051300458f1a3acb8ee9789d9b6b26c61ad9bc7805461060b906114b1565b80601f0160208091040260200160405190810160405280929190818152602001828054610637906114b1565b80156106845780601f1061065957610100808354040283529160200191610684565b820191906000526020600020905b81548152906001019060200180831161066757829003601f168201915b5050505050905060008151116106e85760405162461bcd60e51b815260206004820152602360248201527f4a6f62204944206e6f742073657420666f722072657175657374436f696e507260448201526269636560e81b60648201526084016101c9565b6000828152600a60205260408120805461079a9161078c91610709906114b1565b80601f0160208091040260200160405190810160405280929190818152602001828054610735906114b1565b80156107825780601f1061075757610100808354040283529160200191610782565b820191906000526020600020905b81548152906001019060200180831161076557829003601f168201915b5050505050610960565b306392cdaaf360e01b61097f565b90506107fc6040518060400160405280600481526020016331b7b4b760e11b81525087878080601f0160208091040260200160405190810160405280939291908181526020018383808284376000920191909152508694939250506109a49050565b610848604051806040016040528060048152602001630e0c2e8d60e31b815250604051806040016040528060038152602001621554d160ea1b815250836109a49092919063ffffffff16565b60408051808201909152600581526474696d657360d81b602082015261087190829060646109c2565b6009546000906108a9906001600160a01b031683600a61089a670de0b6b3a76400006001611609565b6108a49190611636565b6109e0565b60405190915081907ff98d7a37e55105e3a3a0542a6e342405a0dacb863d7476fc531d11cbc7bdaf9c90600090a250505050505050565b6108e861090b565b6108f484848484610a73565b50505050565b61090261090b565b61036e81610b45565b6006546001600160a01b0316331461095e5760405162461bcd60e51b815260206004820152601660248201527527b7363c9031b0b63630b1363290313c9037bbb732b960511b60448201526064016101c9565b565b8051600090829082036109765750600092915050565b50506020015190565b610987611267565b61098f611267565b61099b81868686610bef565b95945050505050565b60808301516109b39083610c35565b60808301516104cb9082610c35565b60808301516109d19083610c35565b60808301516104cb9082610c4c565b6004546000906109f181600161164a565b600455835160408086015160808701515191516000936320214ca360e11b93610a299386938493923092918a916001916024016116a3565b60408051601f198184030181529190526020810180516001600160e01b03166001600160e01b0319909316929092179091529050610a6986838684610cb0565b9695505050505050565b60008481526005602052604080822080546001600160a01b0319811690915590516001600160a01b039091169186917fe1fe3afa0f7f761ff0a8b89086790efd5140d2907ebd5b7ff6bfcb5e075fd4c59190a2604051636ee4d55360e01b815260048101869052602481018590526001600160e01b031984166044820152606481018390526001600160a01b03821690636ee4d55390608401600060405180830381600087803b158015610b2657600080fd5b505af1158015610b3a573d6000803e3d6000fd5b505050505050505050565b336001600160a01b03821603610b9d5760405162461bcd60e51b815260206004820152601760248201527f43616e6e6f74207472616e7366657220746f2073656c6600000000000000000060448201526064016101c9565b600780546001600160a01b0319166001600160a01b03838116918217909255600654604051919216907fed8889f560326eb138920d842192f0eb3dd22b4f139c87a2c57538e05bae127890600090a350565b610bf7611267565b610c078560800151610100610e0e565b50508284526001600160a01b03821660208501526001600160e01b031981166040850152835b949350505050565b610c428260038351610e79565b6104cb8282610f88565b67ffffffffffffffff19811215610c6b57610c678282610fb6565b5050565b67ffffffffffffffff811315610c8557610c678282610ff8565b60008112610c9957610c6782600083610e79565b610c67826001610cab8460001961170b565b610e79565b6040516bffffffffffffffffffffffff193060601b1660208201526034810184905260009060540160408051808303601f1901815282825280516020918201206000818152600590925291812080546001600160a01b0319166001600160a01b038a1617905590925082917fb5e6e01e79f91267dc17b4e6314d5d4d03593d2ceee0fbb452b750bd70ea5af99190a2600254604051630200057560e51b81526001600160a01b0390911690634000aea090610d7390889087908790600401611732565b6020604051808303816000875af1158015610d92573d6000803e3d6000fd5b505050506040513d601f19601f82011682018060405250810190610db6919061148f565b610c2d5760405162461bcd60e51b815260206004820152602360248201527f756e61626c6520746f207472616e73666572416e6443616c6c20746f206f7261604482015262636c6560e81b60648201526084016101c9565b604080518082019091526060815260006020820152610e2e602083611759565b15610e5657610e3e602083611759565b610e4990602061176d565b610e53908361164a565b91505b506020808301829052604080518085526000815283019091019052815b92915050565b60178167ffffffffffffffff1611610e9e576108f48360e0600585901b16831761101b565b60ff8167ffffffffffffffff1611610edc57610ec5836018611fe0600586901b161761101b565b506108f48367ffffffffffffffff83166001611040565b61ffff8167ffffffffffffffff1611610f1b57610f04836019611fe0600586901b161761101b565b506108f48367ffffffffffffffff83166002611040565b63ffffffff8167ffffffffffffffff1611610f5c57610f4583601a611fe0600586901b161761101b565b506108f48367ffffffffffffffff83166004611040565b610f7183601b611fe0600586901b161761101b565b506108f48367ffffffffffffffff83166008611040565b604080518082019091526060815260006020820152610faf83846000015151848551611066565b9392505050565b610fc18260c361101b565b50610c6782610fd28360001961170b565b604051602001610fe491815260200190565b604051602081830303815290604052611150565b6110038260c261101b565b50610c678282604051602001610fe491815260200190565b604080518082019091526060815260006020820152610faf838460000151518461115d565b604080518082019091526060815260006020820152610c2d8485600001515185856111b8565b604080518082019091526060815260006020820152825182111561108957600080fd5b6020850151611098838661164a565b11156110cb576110cb856110bb876020015187866110b6919061164a565b611239565b6110c6906002611609565b611250565b6000808651805187602083010193508088870111156110ea5787860182525b505050602084015b6020841061112a578051825261110960208361164a565b915061111660208261164a565b905061112360208561176d565b93506110f2565b51815160001960208690036101000a019081169019919091161790525083949350505050565b610c428260028351610e79565b604080518082019091526060815260006020820152836020015183106111925761119284856020015160026110c69190611609565b83518051602085830101848153508085036111ae576001810182525b5093949350505050565b60408051808201909152606081526000602082015260208501516111dc858461164a565b11156111f0576111f0856110bb868561164a565b6000600161120084610100611864565b61120a919061176d565b905085518386820101858319825116178152508051848701111561122e5783860181525b509495945050505050565b60008183111561124a575081610e73565b50919050565b815161125c8383610e0e565b506108f48382610f88565b6040805160a0810182526000808252602080830182905282840182905260608084018390528451808601909552845283015290608082015290565b600080604083850312156112b557600080fd5b50508035926020909101359150565b634e487b7160e01b600052604160045260246000fd5b600080604083850312156112ed57600080fd5b823567ffffffffffffffff8082111561130557600080fd5b818501915085601f83011261131957600080fd5b81358181111561132b5761132b6112c4565b604051601f8201601f19908116603f01168101908382118183101715611353576113536112c4565b8160405282815288602084870101111561136c57600080fd5b826020860160208301376000602093820184015298969091013596505050505050565b600080602083850312156113a257600080fd5b823567ffffffffffffffff808211156113ba57600080fd5b818501915085601f8301126113ce57600080fd5b8135818111156113dd57600080fd5b8660208285010111156113ef57600080fd5b60209290920196919550909350505050565b6000806000806080858703121561141757600080fd5b843593506020850135925060408501356001600160e01b03198116811461143d57600080fd5b9396929550929360600135925050565b60006020828403121561145f57600080fd5b81356001600160a01b0381168114610faf57600080fd5b60006020828403121561148857600080fd5b5051919050565b6000602082840312156114a157600080fd5b81518015158114610faf57600080fd5b600181811c908216806114c557607f821691505b60208210810361124a57634e487b7160e01b600052602260045260246000fd5b601f8211156104cb57600081815260208120601f850160051c8101602086101561150c5750805b601f850160051c820191505b8181101561152b57828155600101611518565b505050505050565b815167ffffffffffffffff81111561154d5761154d6112c4565b6115618161155b84546114b1565b846114e5565b602080601f831160018114611596576000841561157e5750858301515b600019600386901b1c1916600185901b17855561152b565b600085815260208120601f198616915b828110156115c5578886015182559484019460019091019084016115a6565b50858210156115e35787850151600019600388901b60f8161c191681555b5050505050600190811b01905550565b634e487b7160e01b600052601160045260246000fd5b8082028115828204841417610e7357610e736115f3565b634e487b7160e01b600052601260045260246000fd5b60008261164557611645611620565b500490565b80820180821115610e7357610e736115f3565b6000815180845260005b8181101561168357602081850181015186830182015201611667565b506000602082860101526020601f19601f83011685010191505092915050565b6001600160a01b0389811682526020820189905260408201889052861660608201526001600160e01b03198516608082015260a0810184905260c0810183905261010060e082018190526000906116fc8382018561165d565b9b9a5050505050505050505050565b818103600083128015838313168383128216171561172b5761172b6115f3565b5092915050565b60018060a01b038416815282602082015260606040820152600061099b606083018461165d565b60008261176857611768611620565b500690565b81810381811115610e7357610e736115f3565b600181815b808511156117bb5781600019048211156117a1576117a16115f3565b808516156117ae57918102915b93841c9390800290611785565b509250929050565b6000826117d257506001610e73565b816117df57506000610e73565b81600181146117f557600281146117ff5761181b565b6001915050610e73565b60ff841115611810576118106115f3565b50506001821b610e73565b5060208310610133831016604e8410600b841016171561183e575081810a610e73565b6118488383611780565b806000190482111561185c5761185c6115f3565b029392505050565b6000610faf83836117c356fea26469706673582212201fe7d8a0c7f458b169516c10270e615f05c7c07f4b281db3bb14d73e74507fa664736f6c63430008130033",
  "linkReferences": {},
  "deployedLinkReferences": {}
}