{
  "_format": "hh-sol-artifact-1",
  "contractName": "HighLevelOracle",
  "sourceName": "contracts/HighLevelOracle.sol",
  "abi": [
    {
      "inputs": [
        {
          "internalType": "address",
          "name": "_oracleToken",
          "type": "address"
        },
        {
          "internalType": "address",
          "name": "_oracle",
          "type": "address"
        }
      ],
      "stateMutability": "nonpayable",
      "type": "constructor"
    },
    {
      "anonymous": false,
      "inputs": [
        {
          "indexed": true,
          "internalType": "bytes32",
          "name": "id",
          "type": "bytes32"
        }
      ],
      "name": "ChainlinkCancelled",
      "type": "event"
    },
    {
      "anonymous": false,
      "inputs": [
        {
          "indexed": true,
          "internalType": "bytes32",
          "name": "id",
          "type": "bytes32"
        }
      ],
      "name": "ChainlinkFulfilled",
      "type": "event"
    },
    {
      "anonymous": false,
      "inputs": [
        {
          "indexed": true,
          "internalType": "bytes32",
          "name": "id",
          "type": "bytes32"
        }
      ],
      "name": "ChainlinkRequested",
      "type": "event"
    },
    {
      "anonymous": false,
      "inputs": [
        {
          "indexed": true,
          "internalType": "bytes32",
          "name": "requestId",
          "type": "bytes32"
        },
        {
          "indexed": true,
          "internalType": "string",
          "name": "coin",
          "type": "string"
        }
      ],
      "name": "EthereumPriceRequested",
      "type": "event"
    },
    {
      "anonymous": false,
      "inputs": [
        {
          "indexed": true,
          "internalType": "address",
          "name": "from",
          "type": "address"
        },
        {
          "indexed": true,
          "internalType": "address",
          "name": "to",
          "type": "address"
        }
      ],
      "name": "OwnershipTransferRequested",
      "type": "event"
    },
    {
      "anonymous": false,
      "inputs": [
        {
          "indexed": true,
          "internalType": "address",
          "name": "from",
          "type": "address"
        },
        {
          "indexed": true,
          "internalType": "address",
          "name": "to",
          "type": "address"
        }
      ],
      "name": "OwnershipTransferred",
      "type": "event"
    },
    {
      "anonymous": false,
      "inputs": [
        {
          "indexed": true,
          "internalType": "bytes32",
          "name": "requestId",
          "type": "bytes32"
        },
        {
          "indexed": true,
          "internalType": "uint256",
          "name": "price",
          "type": "uint256"
        },
        {
          "indexed": true,
          "internalType": "string",
          "name": "coin",
          "type": "string"
        }
      ],
      "name": "RequestEthereumPriceFulfilled",
      "type": "event"
    },
    {
      "inputs": [],
      "name": "acceptOwnership",
      "outputs": [],
      "stateMutability": "nonpayable",
      "type": "function"
    },
    {
      "inputs": [
        {
          "internalType": "bytes32",
          "name": "_requestId",
          "type": "bytes32"
        },
        {
          "internalType": "uint256",
          "name": "_payment",
          "type": "uint256"
        },
        {
          "internalType": "bytes4",
          "name": "_callbackFunctionId",
          "type": "bytes4"
        },
        {
          "internalType": "uint256",
          "name": "_expiration",
          "type": "uint256"
        }
      ],
      "name": "cancelRequest",
      "outputs": [],
      "stateMutability": "nonpayable",
      "type": "function"
    },
    {
      "inputs": [],
      "name": "currentPrice",
      "outputs": [
        {
          "internalType": "uint256",
          "name": "",
          "type": "uint256"
        }
      ],
      "stateMutability": "view",
      "type": "function"
    },
    {
      "inputs": [
        {
          "internalType": "bytes32",
          "name": "_requestId",
          "type": "bytes32"
        },
        {
          "internalType": "uint256",
          "name": "_price",
          "type": "uint256"
        },
        {
          "internalType": "string",
          "name": "_coin",
          "type": "string"
        }
      ],
      "name": "fulfillCoinPrice",
      "outputs": [],
      "stateMutability": "nonpayable",
      "type": "function"
    },
    {
      "inputs": [],
      "name": "getChainlinkToken",
      "outputs": [
        {
          "internalType": "address",
          "name": "",
          "type": "address"
        }
      ],
      "stateMutability": "view",
      "type": "function"
    },
    {
      "inputs": [],
      "name": "owner",
      "outputs": [
        {
          "internalType": "address",
          "name": "",
          "type": "address"
        }
      ],
      "stateMutability": "view",
      "type": "function"
    },
    {
      "inputs": [
        {
          "internalType": "string",
          "name": "_coin",
          "type": "string"
        }
      ],
      "name": "requestCryptocompareCoinPrice",
      "outputs": [],
      "stateMutability": "nonpayable",
      "type": "function"
    },
    {
      "inputs": [
        {
          "internalType": "string",
          "name": "_jobId",
          "type": "string"
        },
        {
          "internalType": "uint256",
          "name": "_requestType",
          "type": "uint256"
        }
      ],
      "name": "setJobIDToRequestType",
      "outputs": [],
      "stateMutability": "nonpayable",
      "type": "function"
    },
    {
      "inputs": [
        {
          "internalType": "address",
          "name": "to",
          "type": "address"
        }
      ],
      "name": "transferOwnership",
      "outputs": [],
      "stateMutability": "nonpayable",
      "type": "function"
    },
    {
      "inputs": [],
      "name": "withdrawLink",
      "outputs": [],
      "stateMutability": "nonpayable",
      "type": "function"
    }
  ],
  "bytecode": "0x608060405260016004553480156200001657600080fd5b5060405162001b6a38038062001b6a8339810160408190526200003991620001e9565b3380600081620000905760405162461bcd60e51b815260206004820152601860248201527f43616e6e6f7420736574206f776e657220746f207a65726f000000000000000060448201526064015b60405180910390fd5b600680546001600160a01b0319166001600160a01b0384811691909117909155811615620000c357620000c381620000fe565b505050620000d782620001aa60201b60201c565b600980546001600160a01b0319166001600160a01b03929092169190911790555062000221565b336001600160a01b03821603620001585760405162461bcd60e51b815260206004820152601760248201527f43616e6e6f74207472616e7366657220746f2073656c66000000000000000000604482015260640162000087565b600780546001600160a01b0319166001600160a01b03838116918217909255600654604051919216907fed8889f560326eb138920d842192f0eb3dd22b4f139c87a2c57538e05bae127890600090a350565b600280546001600160a01b0319166001600160a01b0392909216919091179055565b80516001600160a01b0381168114620001e457600080fd5b919050565b60008060408385031215620001fd57600080fd5b6200020883620001cc565b91506200021860208401620001cc565b90509250929050565b61193980620002316000396000f3fe608060405234801561001057600080fd5b506004361061009e5760003560e01c8063a368258911610066578063a368258914610102578063affb856314610115578063ec65d0f814610128578063eee78bc81461013b578063f2fde38b1461014e57600080fd5b8063165d35e1146100a357806379ba5097146100c85780638da5cb5b146100d25780638dc654a2146100e35780639d1b464a146100eb575b600080fd5b6100ab610161565b6040516001600160a01b0390911681526020015b60405180910390f35b6100d061017a565b005b6006546001600160a01b03166100ab565b6100d061022d565b6100f460085481565b6040519081526020016100bf565b6100d061011036600461135b565b610371565b6100d061012336600461139f565b6103e0565b6100d06101363660046113ee565b6104e6565b6100d061014936600461143a565b610500565b6100d061015c3660046114ab565b61091a565b60006101756002546001600160a01b031690565b905090565b6007546001600160a01b031633146101d25760405162461bcd60e51b815260206004820152601660248201527526bab9ba10313290383937b837b9b2b21037bbb732b960511b60448201526064015b60405180910390fd5b600680546001600160a01b0319808216339081179093556007805490911690556040516001600160a01b03909116919082907f8be0079c531659141344cd1fd0a4f28419497f9722a3daafe3b4186f6b6457e090600090a350565b61023561092b565b60006102496002546001600160a01b031690565b6040516370a0823160e01b81523060048201529091506001600160a01b0382169063a9059cbb90339083906370a0823190602401602060405180830381865afa15801561029a573d6000803e3d6000fd5b505050506040513d601f19601f820116820180604052508101906102be91906114d4565b6040516001600160e01b031960e085901b1681526001600160a01b03909216600483015260248201526044016020604051808303816000875af1158015610309573d6000803e3d6000fd5b505050506040513d601f19601f8201168201806040525081019061032d91906114ed565b61036e5760405162461bcd60e51b81526020600482015260126024820152712ab730b13632903a37903a3930b739b332b960711b60448201526064016101c9565b50565b61037961092b565b60008251116103c35760405162461bcd60e51b81526020600482015260166024820152754a6f622049442063616e6e6f7420626520656d70747960501b60448201526064016101c9565b6000818152600a602052604090206103db8382611591565b505050565b60008381526005602052604090205483906001600160a01b031633146104595760405162461bcd60e51b815260206004820152602860248201527f536f75726365206d75737420626520746865206f7261636c65206f6620746865604482015267081c995c5d595cdd60c21b60648201526084016101c9565b60008181526005602052604080822080546001600160a01b03191690555182917f7cc135e0cebb02c3480ae5d74d377283180a2601f8f644edf7987b009316c63a91a2816040516104aa9190611674565b60405190819003812090849086907f0dff8cfb42d17b717034c4e74d993bf575bd9e2e70d95f622768d5a09a0dc3a790600090a4505060085550565b6104ee61092b565b6104fa84848484610980565b50505050565b60006105146002546001600160a01b031690565b90506001600160a01b0381166323b872dd3330600a61053c670de0b6b3a764000060016116a6565b61054691906116d3565b6040516001600160e01b031960e086901b1681526001600160a01b03938416600482015292909116602483015260448201526064016020604051808303816000875af115801561059a573d6000803e3d6000fd5b505050506040513d601f19601f820116820180604052508101906105be91906114ed565b6106035760405162461bcd60e51b8152602060048201526016602482015275556e61626c6520746f207472616e736665722066656560501b60448201526064016101c9565b60016000818152600a6020527fbbc70db1b6c7afd11e79c0fb0051300458f1a3acb8ee9789d9b6b26c61ad9bc7805461063b9061150f565b80601f01602080910402602001604051908101604052809291908181526020018280546106679061150f565b80156106b45780601f10610689576101008083540402835291602001916106b4565b820191906000526020600020905b81548152906001019060200180831161069757829003601f168201915b50505050509050600081511161070c5760405162461bcd60e51b815260206004820152601e60248201527f4a6f62204944206e6f742073657420666f72207265717565737454797065000060448201526064016101c9565b6000828152600a6020526040812080546107be916107b09161072d9061150f565b80601f01602080910402602001604051908101604052809291908181526020018280546107599061150f565b80156107a65780601f1061077b576101008083540402835291602001916107a6565b820191906000526020600020905b81548152906001019060200180831161078957829003601f168201915b5050505050610a52565b3063affb856360e01b610a71565b90506108206040518060400160405280600481526020016331b7b4b760e11b81525087878080601f016020809104026020016040519081016040528093929190818152602001838380828437600092019190915250869493925050610a969050565b61086c604051806040016040528060048152602001630e0c2e8d60e31b815250604051806040016040528060038152602001621554d160ea1b81525083610a969092919063ffffffff16565b60408051808201909152600581526474696d657360d81b60208201526108959082906064610ab4565b6009546000906108cd906001600160a01b031683600a6108be670de0b6b3a764000060016116a6565b6108c891906116d3565b610ad2565b905086866040516108df9291906116e7565b6040519081900381209082907fada108c2627885da7b8df5d9b0d4ee454c489d9d30d849bab7ebc52eb433ff2690600090a350505050505050565b61092261092b565b61036e81610b65565b6006546001600160a01b0316331461097e5760405162461bcd60e51b815260206004820152601660248201527527b7363c9031b0b63630b1363290313c9037bbb732b960511b60448201526064016101c9565b565b60008481526005602052604080822080546001600160a01b0319811690915590516001600160a01b039091169186917fe1fe3afa0f7f761ff0a8b89086790efd5140d2907ebd5b7ff6bfcb5e075fd4c59190a2604051636ee4d55360e01b815260048101869052602481018590526001600160e01b031984166044820152606481018390526001600160a01b03821690636ee4d55390608401600060405180830381600087803b158015610a3357600080fd5b505af1158015610a47573d6000803e3d6000fd5b505050505050505050565b805160009082908203610a685750600092915050565b50506020015190565b610a7961127e565b610a8161127e565b610a8d81868686610c0f565b95945050505050565b6080830151610aa59083610c55565b60808301516103db9082610c55565b6080830151610ac39083610c55565b60808301516103db9082610c6c565b600454600090610ae38160016116f7565b600455835160408086015160808701515191516000936320214ca360e11b93610b1b9386938493923092918a91600191602401611736565b60408051601f198184030181529190526020810180516001600160e01b03166001600160e01b0319909316929092179091529050610b5b86838684610ccf565b9695505050505050565b336001600160a01b03821603610bbd5760405162461bcd60e51b815260206004820152601760248201527f43616e6e6f74207472616e7366657220746f2073656c6600000000000000000060448201526064016101c9565b600780546001600160a01b0319166001600160a01b03838116918217909255600654604051919216907fed8889f560326eb138920d842192f0eb3dd22b4f139c87a2c57538e05bae127890600090a350565b610c1761127e565b610c278560800151610100610e2d565b50508284526001600160a01b03821660208501526001600160e01b031981166040850152835b949350505050565b610c628260038351610e98565b6103db8282610f9f565b67ffffffffffffffff19811215610c8b57610c878282610fcd565b5050565b6001600160401b03811315610ca457610c87828261100f565b60008112610cb857610c8782600083610e98565b610c87826001610cca8460001961179e565b610e98565b6040516bffffffffffffffffffffffff193060601b1660208201526034810184905260009060540160408051808303601f1901815282825280516020918201206000818152600590925291812080546001600160a01b0319166001600160a01b038a1617905590925082917fb5e6e01e79f91267dc17b4e6314d5d4d03593d2ceee0fbb452b750bd70ea5af99190a2600254604051630200057560e51b81526001600160a01b0390911690634000aea090610d92908890879087906004016117c5565b6020604051808303816000875af1158015610db1573d6000803e3d6000fd5b505050506040513d601f19601f82011682018060405250810190610dd591906114ed565b610c4d5760405162461bcd60e51b815260206004820152602360248201527f756e61626c6520746f207472616e73666572416e6443616c6c20746f206f7261604482015262636c6560e81b60648201526084016101c9565b604080518082019091526060815260006020820152610e4d6020836117ec565b15610e7557610e5d6020836117ec565b610e68906020611800565b610e7290836116f7565b91505b506020808301829052604080518085526000815283019091019052815b92915050565b6017816001600160401b031611610ebc576104fa8360e0600585901b168317611032565b60ff816001600160401b031611610ef857610ee2836018611fe0600586901b1617611032565b506104fa836001600160401b0383166001611057565b61ffff816001600160401b031611610f3557610f1f836019611fe0600586901b1617611032565b506104fa836001600160401b0383166002611057565b63ffffffff816001600160401b031611610f7457610f5e83601a611fe0600586901b1617611032565b506104fa836001600160401b0383166004611057565b610f8983601b611fe0600586901b1617611032565b506104fa836001600160401b0383166008611057565b604080518082019091526060815260006020820152610fc68384600001515184855161107d565b9392505050565b610fd88260c3611032565b50610c8782610fe98360001961179e565b604051602001610ffb91815260200190565b604051602081830303815290604052611167565b61101a8260c2611032565b50610c878282604051602001610ffb91815260200190565b604080518082019091526060815260006020820152610fc68384600001515184611174565b604080518082019091526060815260006020820152610c4d8485600001515185856111cf565b60408051808201909152606081526000602082015282518211156110a057600080fd5b60208501516110af83866116f7565b11156110e2576110e2856110d2876020015187866110cd91906116f7565b611250565b6110dd9060026116a6565b611267565b6000808651805187602083010193508088870111156111015787860182525b505050602084015b6020841061114157805182526111206020836116f7565b915061112d6020826116f7565b905061113a602085611800565b9350611109565b51815160001960208690036101000a019081169019919091161790525083949350505050565b610c628260028351610e98565b604080518082019091526060815260006020820152836020015183106111a9576111a984856020015160026110dd91906116a6565b83518051602085830101848153508085036111c5576001810182525b5093949350505050565b60408051808201909152606081526000602082015260208501516111f385846116f7565b111561120757611207856110d286856116f7565b60006001611217846101006118f7565b6112219190611800565b90508551838682010185831982511617815250805184870111156112455783860181525b509495945050505050565b600081831115611261575081610e92565b50919050565b81516112738383610e2d565b506104fa8382610f9f565b6040805160a0810182526000808252602080830182905282840182905260608084018390528451808601909552845283015290608082015290565b634e487b7160e01b600052604160045260246000fd5b600082601f8301126112e057600080fd5b81356001600160401b03808211156112fa576112fa6112b9565b604051601f8301601f19908116603f01168101908282118183101715611322576113226112b9565b8160405283815286602085880101111561133b57600080fd5b836020870160208301376000602085830101528094505050505092915050565b6000806040838503121561136e57600080fd5b82356001600160401b0381111561138457600080fd5b611390858286016112cf565b95602094909401359450505050565b6000806000606084860312156113b457600080fd5b833592506020840135915060408401356001600160401b038111156113d857600080fd5b6113e4868287016112cf565b9150509250925092565b6000806000806080858703121561140457600080fd5b843593506020850135925060408501356001600160e01b03198116811461142a57600080fd5b9396929550929360600135925050565b6000806020838503121561144d57600080fd5b82356001600160401b038082111561146457600080fd5b818501915085601f83011261147857600080fd5b81358181111561148757600080fd5b86602082850101111561149957600080fd5b60209290920196919550909350505050565b6000602082840312156114bd57600080fd5b81356001600160a01b0381168114610fc657600080fd5b6000602082840312156114e657600080fd5b5051919050565b6000602082840312156114ff57600080fd5b81518015158114610fc657600080fd5b600181811c9082168061152357607f821691505b60208210810361126157634e487b7160e01b600052602260045260246000fd5b601f8211156103db57600081815260208120601f850160051c8101602086101561156a5750805b601f850160051c820191505b8181101561158957828155600101611576565b505050505050565b81516001600160401b038111156115aa576115aa6112b9565b6115be816115b8845461150f565b84611543565b602080601f8311600181146115f357600084156115db5750858301515b600019600386901b1c1916600185901b178555611589565b600085815260208120601f198616915b8281101561162257888601518255948401946001909101908401611603565b50858210156116405787850151600019600388901b60f8161c191681555b5050505050600190811b01905550565b60005b8381101561166b578181015183820152602001611653565b50506000910152565b60008251611686818460208701611650565b9190910192915050565b634e487b7160e01b600052601160045260246000fd5b8082028115828204841417610e9257610e92611690565b634e487b7160e01b600052601260045260246000fd5b6000826116e2576116e26116bd565b500490565b8183823760009101908152919050565b80820180821115610e9257610e92611690565b60008151808452611722816020860160208601611650565b601f01601f19169290920160200192915050565b6001600160a01b0389811682526020820189905260408201889052861660608201526001600160e01b03198516608082015260a0810184905260c0810183905261010060e0820181905260009061178f8382018561170a565b9b9a5050505050505050505050565b81810360008312801583831316838312821617156117be576117be611690565b5092915050565b60018060a01b0384168152826020820152606060408201526000610a8d606083018461170a565b6000826117fb576117fb6116bd565b500690565b81810381811115610e9257610e92611690565b600181815b8085111561184e57816000190482111561183457611834611690565b8085161561184157918102915b93841c9390800290611818565b509250929050565b60008261186557506001610e92565b8161187257506000610e92565b81600181146118885760028114611892576118ae565b6001915050610e92565b60ff8411156118a3576118a3611690565b50506001821b610e92565b5060208310610133831016604e8410600b84101617156118d1575081810a610e92565b6118db8383611813565b80600019048211156118ef576118ef611690565b029392505050565b6000610fc6838361185656fea26469706673582212200f840cfe144db0814c598dbfa646640290ff1db07391ddc3e6f9946447e8cdc664736f6c63430008130033",
  "linkReferences": {},
  "deployedLinkReferences": {}
}