{
  "_format": "hh-sol-artifact-1",
  "contractName": "HighLevelOracle",
  "sourceName": "contracts/HighLevelOracle.sol",
  "abi": [
    {
      "inputs": [
        {
          "internalType": "address",
          "name": "_oracleToken",
          "type": "address"
        },
        {
          "internalType": "address",
          "name": "_oracle",
          "type": "address"
        }
      ],
      "stateMutability": "nonpayable",
      "type": "constructor"
    },
    {
      "anonymous": false,
      "inputs": [
        {
          "indexed": true,
          "internalType": "bytes32",
          "name": "id",
          "type": "bytes32"
        }
      ],
      "name": "ChainlinkCancelled",
      "type": "event"
    },
    {
      "anonymous": false,
      "inputs": [
        {
          "indexed": true,
          "internalType": "bytes32",
          "name": "id",
          "type": "bytes32"
        }
      ],
      "name": "ChainlinkFulfilled",
      "type": "event"
    },
    {
      "anonymous": false,
      "inputs": [
        {
          "indexed": true,
          "internalType": "bytes32",
          "name": "id",
          "type": "bytes32"
        }
      ],
      "name": "ChainlinkRequested",
      "type": "event"
    },
    {
      "anonymous": false,
      "inputs": [
        {
          "indexed": true,
          "internalType": "bytes32",
          "name": "requestId",
          "type": "bytes32"
        }
      ],
      "name": "EthereumPriceRequested",
      "type": "event"
    },
    {
      "anonymous": false,
      "inputs": [
        {
          "indexed": true,
          "internalType": "address",
          "name": "from",
          "type": "address"
        },
        {
          "indexed": true,
          "internalType": "address",
          "name": "to",
          "type": "address"
        }
      ],
      "name": "OwnershipTransferRequested",
      "type": "event"
    },
    {
      "anonymous": false,
      "inputs": [
        {
          "indexed": true,
          "internalType": "address",
          "name": "from",
          "type": "address"
        },
        {
          "indexed": true,
          "internalType": "address",
          "name": "to",
          "type": "address"
        }
      ],
      "name": "OwnershipTransferred",
      "type": "event"
    },
    {
      "anonymous": false,
      "inputs": [
        {
          "indexed": true,
          "internalType": "bytes32",
          "name": "requestId",
          "type": "bytes32"
        },
        {
          "indexed": true,
          "internalType": "uint256",
          "name": "price",
          "type": "uint256"
        }
      ],
      "name": "RequestEthereumPriceFulfilled",
      "type": "event"
    },
    {
      "inputs": [],
      "name": "acceptOwnership",
      "outputs": [],
      "stateMutability": "nonpayable",
      "type": "function"
    },
    {
      "inputs": [
        {
          "internalType": "bytes32",
          "name": "_requestId",
          "type": "bytes32"
        },
        {
          "internalType": "uint256",
          "name": "_payment",
          "type": "uint256"
        },
        {
          "internalType": "bytes4",
          "name": "_callbackFunctionId",
          "type": "bytes4"
        },
        {
          "internalType": "uint256",
          "name": "_expiration",
          "type": "uint256"
        }
      ],
      "name": "cancelRequest",
      "outputs": [],
      "stateMutability": "nonpayable",
      "type": "function"
    },
    {
      "inputs": [],
      "name": "currentPrice",
      "outputs": [
        {
          "internalType": "uint256",
          "name": "",
          "type": "uint256"
        }
      ],
      "stateMutability": "view",
      "type": "function"
    },
    {
      "inputs": [
        {
          "internalType": "bytes32",
          "name": "_requestId",
          "type": "bytes32"
        },
        {
          "internalType": "uint256",
          "name": "_price",
          "type": "uint256"
        }
      ],
      "name": "fulfillEthereumPrice",
      "outputs": [],
      "stateMutability": "nonpayable",
      "type": "function"
    },
    {
      "inputs": [],
      "name": "getChainlinkToken",
      "outputs": [
        {
          "internalType": "address",
          "name": "",
          "type": "address"
        }
      ],
      "stateMutability": "view",
      "type": "function"
    },
    {
      "inputs": [],
      "name": "owner",
      "outputs": [
        {
          "internalType": "address",
          "name": "",
          "type": "address"
        }
      ],
      "stateMutability": "view",
      "type": "function"
    },
    {
      "inputs": [
        {
          "internalType": "string",
          "name": "_coin",
          "type": "string"
        }
      ],
      "name": "requestCoinPrice",
      "outputs": [],
      "stateMutability": "nonpayable",
      "type": "function"
    },
    {
      "inputs": [],
      "name": "requestEthereumPrice",
      "outputs": [],
      "stateMutability": "nonpayable",
      "type": "function"
    },
    {
      "inputs": [
        {
          "internalType": "string",
          "name": "_jobId",
          "type": "string"
        }
      ],
      "name": "setRequestCoinPriceJob",
      "outputs": [],
      "stateMutability": "nonpayable",
      "type": "function"
    },
    {
      "inputs": [
        {
          "internalType": "string",
          "name": "_jobId",
          "type": "string"
        }
      ],
      "name": "setRequestEthereumPriceJob",
      "outputs": [],
      "stateMutability": "nonpayable",
      "type": "function"
    },
    {
      "inputs": [
        {
          "internalType": "address",
          "name": "to",
          "type": "address"
        }
      ],
      "name": "transferOwnership",
      "outputs": [],
      "stateMutability": "nonpayable",
      "type": "function"
    },
    {
      "inputs": [],
      "name": "withdrawLink",
      "outputs": [],
      "stateMutability": "nonpayable",
      "type": "function"
    }
  ],
  "bytecode": "0x608060405260016004553480156200001657600080fd5b5060405162001ddc38038062001ddc8339810160408190526200003991620001e9565b3380600081620000905760405162461bcd60e51b815260206004820152601860248201527f43616e6e6f7420736574206f776e657220746f207a65726f000000000000000060448201526064015b60405180910390fd5b600680546001600160a01b0319166001600160a01b0384811691909117909155811615620000c357620000c381620000fe565b505050620000d782620001aa60201b60201c565b600980546001600160a01b0319166001600160a01b03929092169190911790555062000221565b336001600160a01b03821603620001585760405162461bcd60e51b815260206004820152601760248201527f43616e6e6f74207472616e7366657220746f2073656c66000000000000000000604482015260640162000087565b600780546001600160a01b0319166001600160a01b03838116918217909255600654604051919216907fed8889f560326eb138920d842192f0eb3dd22b4f139c87a2c57538e05bae127890600090a350565b600280546001600160a01b0319166001600160a01b0392909216919091179055565b80516001600160a01b0381168114620001e457600080fd5b919050565b60008060408385031215620001fd57600080fd5b6200020883620001cc565b91506200021860208401620001cc565b90509250929050565b611bab80620002316000396000f3fe608060405234801561001057600080fd5b50600436106100b45760003560e01c806392cdaaf31161007157806392cdaaf3146101275780639d1b464a1461013a578063cf517ab514610151578063d7f29c6314610164578063ec65d0f81461016c578063f2fde38b1461017f57600080fd5b8063165d35e1146100b957806347b51bc5146100de57806378204ce8146100f357806379ba5097146101065780638da5cb5b1461010e5780638dc654a21461011f575b600080fd5b6100c1610192565b6040516001600160a01b0390911681526020015b60405180910390f35b6100f16100ec3660046115c1565b6101ab565b005b6100f16101013660046115c1565b61023b565b6100f16102c2565b6006546001600160a01b03166100c1565b6100f1610370565b6100f1610135366004611672565b6104b4565b61014360085481565b6040519081526020016100d5565b6100f161015f366004611694565b6105a4565b6100f16109d2565b6100f161017a366004611706565b610be8565b6100f161018d366004611752565b610c02565b60006101a66002546001600160a01b031690565b905090565b6101b3610c13565b60008151116102025760405162461bcd60e51b81526020600482015260166024820152754a6f622049442063616e6e6f7420626520656d70747960501b60448201526064015b60405180910390fd5b6002600052600a6020527fbff4442b8ed600beeb8e26b1279a0f0d14c6edfaec26d968ee13c86f7d4c2ba861023782826117fd565b5050565b610243610c13565b600081511161028d5760405162461bcd60e51b81526020600482015260166024820152754a6f622049442063616e6e6f7420626520656d70747960501b60448201526064016101f9565b6001600052600a6020527fbbc70db1b6c7afd11e79c0fb0051300458f1a3acb8ee9789d9b6b26c61ad9bc761023782826117fd565b6007546001600160a01b031633146103155760405162461bcd60e51b815260206004820152601660248201527526bab9ba10313290383937b837b9b2b21037bbb732b960511b60448201526064016101f9565b600680546001600160a01b0319808216339081179093556007805490911690556040516001600160a01b03909116919082907f8be0079c531659141344cd1fd0a4f28419497f9722a3daafe3b4186f6b6457e090600090a350565b610378610c13565b600061038c6002546001600160a01b031690565b6040516370a0823160e01b81523060048201529091506001600160a01b0382169063a9059cbb90339083906370a0823190602401602060405180830381865afa1580156103dd573d6000803e3d6000fd5b505050506040513d601f19601f8201168201806040525081019061040191906118bd565b6040516001600160e01b031960e085901b1681526001600160a01b03909216600483015260248201526044016020604051808303816000875af115801561044c573d6000803e3d6000fd5b505050506040513d601f19601f8201168201806040525081019061047091906118d6565b6104b15760405162461bcd60e51b81526020600482015260126024820152712ab730b13632903a37903a3930b739b332b960711b60448201526064016101f9565b50565b60008281526005602052604090205482906001600160a01b0316331461052d5760405162461bcd60e51b815260206004820152602860248201527f536f75726365206d75737420626520746865206f7261636c65206f6620746865604482015267081c995c5d595cdd60c21b60648201526084016101f9565b60008181526005602052604080822080546001600160a01b03191690555182917f7cc135e0cebb02c3480ae5d74d377283180a2601f8f644edf7987b009316c63a91a2604051829084907f794eb9e29f6750ede99e05248d997a9ab9fa23c4a7eaff8afa729080eb7c642890600090a35060085550565b60006105b86002546001600160a01b031690565b90506001600160a01b0381166323b872dd3330600a6105e0670de0b6b3a7640000600161190e565b6105ea919061193b565b6040516001600160e01b031960e086901b1681526001600160a01b03938416600482015292909116602483015260448201526064016020604051808303816000875af115801561063e573d6000803e3d6000fd5b505050506040513d601f19601f8201168201806040525081019061066291906118d6565b6106a75760405162461bcd60e51b8152602060048201526016602482015275556e61626c6520746f207472616e736665722066656560501b60448201526064016101f9565b60016000908152600a6020527fbbc70db1b6c7afd11e79c0fb0051300458f1a3acb8ee9789d9b6b26c61ad9bc780546106df9061177b565b80601f016020809104026020016040519081016040528092919081815260200182805461070b9061177b565b80156107585780601f1061072d57610100808354040283529160200191610758565b820191906000526020600020905b81548152906001019060200180831161073b57829003601f168201915b5050505050905060008151116107bc5760405162461bcd60e51b815260206004820152602360248201527f4a6f62204944206e6f742073657420666f722072657175657374436f696e507260448201526269636560e81b60648201526084016101f9565b60016000908152600a6020527fbbc70db1b6c7afd11e79c0fb0051300458f1a3acb8ee9789d9b6b26c61ad9bc7805461088d9161087f916107fc9061177b565b80601f01602080910402602001604051908101604052809291908181526020018280546108289061177b565b80156108755780601f1061084a57610100808354040283529160200191610875565b820191906000526020600020905b81548152906001019060200180831161085857829003601f168201915b5050505050610c68565b306392cdaaf360e01b610c87565b90506108ef6040518060400160405280600481526020016331b7b4b760e11b81525086868080601f016020809104026020016040519081016040528093929190818152602001838380828437600092019190915250869493925050610cac9050565b61093b604051806040016040528060048152602001630e0c2e8d60e31b815250604051806040016040528060038152602001621554d160ea1b81525083610cac9092919063ffffffff16565b60408051808201909152600581526474696d657360d81b60208201526109649082906064610ccf565b60095460009061099c906001600160a01b031683600a61098d670de0b6b3a7640000600161190e565b610997919061193b565b610ced565b60405190915081907ff98d7a37e55105e3a3a0542a6e342405a0dacb863d7476fc531d11cbc7bdaf9c90600090a2505050505050565b60006109e66002546001600160a01b031690565b90506001600160a01b0381166323b872dd3330600a610a0e670de0b6b3a7640000600161190e565b610a18919061193b565b6040516001600160e01b031960e086901b1681526001600160a01b03938416600482015292909116602483015260448201526064016020604051808303816000875af1158015610a6c573d6000803e3d6000fd5b505050506040513d601f19601f82011682018060405250810190610a9091906118d6565b610ad55760405162461bcd60e51b8152602060048201526016602482015275556e61626c6520746f207472616e736665722066656560501b60448201526064016101f9565b60026000908152600a6020527fbff4442b8ed600beeb8e26b1279a0f0d14c6edfaec26d968ee13c86f7d4c2ba88054610b159161087f916107fc9061177b565b9050610b63604051806040016040528060048152602001630e0c2e8d60e31b815250604051806040016040528060038152602001621554d160ea1b81525083610cac9092919063ffffffff16565b60408051808201909152600581526474696d657360d81b6020820152610b8c9082906064610ccf565b600954600090610bb5906001600160a01b031683600a61098d670de0b6b3a7640000600161190e565b60405190915081907ff98d7a37e55105e3a3a0542a6e342405a0dacb863d7476fc531d11cbc7bdaf9c90600090a2505050565b610bf0610c13565b610bfc84848484610d80565b50505050565b610c0a610c13565b6104b181610e52565b6006546001600160a01b03163314610c665760405162461bcd60e51b815260206004820152601660248201527527b7363c9031b0b63630b1363290313c9037bbb732b960511b60448201526064016101f9565b565b805160009082908203610c7e5750600092915050565b50506020015190565b610c8f611570565b610c97611570565b610ca381868686610efc565b95945050505050565b6080830151610cbb9083610f42565b6080830151610cca9082610f42565b505050565b6080830151610cde9083610f42565b6080830151610cca9082610f59565b600454600090610cfe81600161194f565b600455835160408086015160808701515191516000936320214ca360e11b93610d369386938493923092918a916001916024016119a8565b60408051601f198184030181529190526020810180516001600160e01b03166001600160e01b0319909316929092179091529050610d7686838684610fb9565b9695505050505050565b60008481526005602052604080822080546001600160a01b0319811690915590516001600160a01b039091169186917fe1fe3afa0f7f761ff0a8b89086790efd5140d2907ebd5b7ff6bfcb5e075fd4c59190a2604051636ee4d55360e01b815260048101869052602481018590526001600160e01b031984166044820152606481018390526001600160a01b03821690636ee4d55390608401600060405180830381600087803b158015610e3357600080fd5b505af1158015610e47573d6000803e3d6000fd5b505050505050505050565b336001600160a01b03821603610eaa5760405162461bcd60e51b815260206004820152601760248201527f43616e6e6f74207472616e7366657220746f2073656c6600000000000000000060448201526064016101f9565b600780546001600160a01b0319166001600160a01b03838116918217909255600654604051919216907fed8889f560326eb138920d842192f0eb3dd22b4f139c87a2c57538e05bae127890600090a350565b610f04611570565b610f148560800151610100611117565b50508284526001600160a01b03821660208501526001600160e01b031981166040850152835b949350505050565b610f4f8260038351611182565b610cca8282611291565b67ffffffffffffffff19811215610f745761023782826112bf565b67ffffffffffffffff811315610f8e576102378282611301565b60008112610fa25761023782600083611182565b610237826001610fb484600019611a10565b611182565b6040516bffffffffffffffffffffffff193060601b1660208201526034810184905260009060540160408051808303601f1901815282825280516020918201206000818152600590925291812080546001600160a01b0319166001600160a01b038a1617905590925082917fb5e6e01e79f91267dc17b4e6314d5d4d03593d2ceee0fbb452b750bd70ea5af99190a2600254604051630200057560e51b81526001600160a01b0390911690634000aea09061107c90889087908790600401611a37565b6020604051808303816000875af115801561109b573d6000803e3d6000fd5b505050506040513d601f19601f820116820180604052508101906110bf91906118d6565b610f3a5760405162461bcd60e51b815260206004820152602360248201527f756e61626c6520746f207472616e73666572416e6443616c6c20746f206f7261604482015262636c6560e81b60648201526084016101f9565b604080518082019091526060815260006020820152611137602083611a5e565b1561115f57611147602083611a5e565b611152906020611a72565b61115c908361194f565b91505b506020808301829052604080518085526000815283019091019052815b92915050565b60178167ffffffffffffffff16116111a757610bfc8360e0600585901b168317611324565b60ff8167ffffffffffffffff16116111e5576111ce836018611fe0600586901b1617611324565b50610bfc8367ffffffffffffffff83166001611349565b61ffff8167ffffffffffffffff16116112245761120d836019611fe0600586901b1617611324565b50610bfc8367ffffffffffffffff83166002611349565b63ffffffff8167ffffffffffffffff16116112655761124e83601a611fe0600586901b1617611324565b50610bfc8367ffffffffffffffff83166004611349565b61127a83601b611fe0600586901b1617611324565b50610bfc8367ffffffffffffffff83166008611349565b6040805180820190915260608152600060208201526112b88384600001515184855161136f565b9392505050565b6112ca8260c3611324565b50610237826112db83600019611a10565b6040516020016112ed91815260200190565b604051602081830303815290604052611459565b61130c8260c2611324565b5061023782826040516020016112ed91815260200190565b6040805180820190915260608152600060208201526112b88384600001515184611466565b604080518082019091526060815260006020820152610f3a8485600001515185856114c1565b604080518082019091526060815260006020820152825182111561139257600080fd5b60208501516113a1838661194f565b11156113d4576113d4856113c4876020015187866113bf919061194f565b611542565b6113cf90600261190e565b611559565b6000808651805187602083010193508088870111156113f35787860182525b505050602084015b60208410611433578051825261141260208361194f565b915061141f60208261194f565b905061142c602085611a72565b93506113fb565b51815160001960208690036101000a019081169019919091161790525083949350505050565b610f4f8260028351611182565b6040805180820190915260608152600060208201528360200151831061149b5761149b84856020015160026113cf919061190e565b83518051602085830101848153508085036114b7576001810182525b5093949350505050565b60408051808201909152606081526000602082015260208501516114e5858461194f565b11156114f9576114f9856113c4868561194f565b6000600161150984610100611b69565b6115139190611a72565b90508551838682010185831982511617815250805184870111156115375783860181525b509495945050505050565b60008183111561155357508161117c565b50919050565b81516115658383611117565b50610bfc8382611291565b6040805160a0810182526000808252602080830182905282840182905260608084018390528451808601909552845283015290608082015290565b634e487b7160e01b600052604160045260246000fd5b6000602082840312156115d357600080fd5b813567ffffffffffffffff808211156115eb57600080fd5b818401915084601f8301126115ff57600080fd5b813581811115611611576116116115ab565b604051601f8201601f19908116603f01168101908382118183101715611639576116396115ab565b8160405282815287602084870101111561165257600080fd5b826020860160208301376000928101602001929092525095945050505050565b6000806040838503121561168557600080fd5b50508035926020909101359150565b600080602083850312156116a757600080fd5b823567ffffffffffffffff808211156116bf57600080fd5b818501915085601f8301126116d357600080fd5b8135818111156116e257600080fd5b8660208285010111156116f457600080fd5b60209290920196919550909350505050565b6000806000806080858703121561171c57600080fd5b843593506020850135925060408501356001600160e01b03198116811461174257600080fd5b9396929550929360600135925050565b60006020828403121561176457600080fd5b81356001600160a01b03811681146112b857600080fd5b600181811c9082168061178f57607f821691505b60208210810361155357634e487b7160e01b600052602260045260246000fd5b601f821115610cca57600081815260208120601f850160051c810160208610156117d65750805b601f850160051c820191505b818110156117f5578281556001016117e2565b505050505050565b815167ffffffffffffffff811115611817576118176115ab565b61182b81611825845461177b565b846117af565b602080601f83116001811461186057600084156118485750858301515b600019600386901b1c1916600185901b1785556117f5565b600085815260208120601f198616915b8281101561188f57888601518255948401946001909101908401611870565b50858210156118ad5787850151600019600388901b60f8161c191681555b5050505050600190811b01905550565b6000602082840312156118cf57600080fd5b5051919050565b6000602082840312156118e857600080fd5b815180151581146112b857600080fd5b634e487b7160e01b600052601160045260246000fd5b808202811582820484141761117c5761117c6118f8565b634e487b7160e01b600052601260045260246000fd5b60008261194a5761194a611925565b500490565b8082018082111561117c5761117c6118f8565b6000815180845260005b818110156119885760208185018101518683018201520161196c565b506000602082860101526020601f19601f83011685010191505092915050565b6001600160a01b0389811682526020820189905260408201889052861660608201526001600160e01b03198516608082015260a0810184905260c0810183905261010060e08201819052600090611a0183820185611962565b9b9a5050505050505050505050565b8181036000831280158383131683831282161715611a3057611a306118f8565b5092915050565b60018060a01b0384168152826020820152606060408201526000610ca36060830184611962565b600082611a6d57611a6d611925565b500690565b8181038181111561117c5761117c6118f8565b600181815b80851115611ac0578160001904821115611aa657611aa66118f8565b80851615611ab357918102915b93841c9390800290611a8a565b509250929050565b600082611ad75750600161117c565b81611ae45750600061117c565b8160018114611afa5760028114611b0457611b20565b600191505061117c565b60ff841115611b1557611b156118f8565b50506001821b61117c565b5060208310610133831016604e8410600b8410161715611b43575081810a61117c565b611b4d8383611a85565b8060001904821115611b6157611b616118f8565b029392505050565b60006112b88383611ac856fea264697066735822122070c9d2b662dc396e1cd643e42d65cfd68b99f0b220dafc2c9dacb70faca5d0c164736f6c63430008130033",
  "linkReferences": {},
  "deployedLinkReferences": {}
}