{
  "_format": "hh-sol-artifact-1",
  "contractName": "HighLevelOracle",
  "sourceName": "contracts/HighLevelOracle.sol",
  "abi": [
    {
      "inputs": [
        {
          "internalType": "address",
          "name": "_oracleToken",
          "type": "address"
        },
        {
          "internalType": "address",
          "name": "_oracle",
          "type": "address"
        }
      ],
      "stateMutability": "nonpayable",
      "type": "constructor"
    },
    {
      "anonymous": false,
      "inputs": [
        {
          "indexed": true,
          "internalType": "bytes32",
          "name": "id",
          "type": "bytes32"
        }
      ],
      "name": "ChainlinkCancelled",
      "type": "event"
    },
    {
      "anonymous": false,
      "inputs": [
        {
          "indexed": true,
          "internalType": "bytes32",
          "name": "id",
          "type": "bytes32"
        }
      ],
      "name": "ChainlinkFulfilled",
      "type": "event"
    },
    {
      "anonymous": false,
      "inputs": [
        {
          "indexed": true,
          "internalType": "bytes32",
          "name": "id",
          "type": "bytes32"
        }
      ],
      "name": "ChainlinkRequested",
      "type": "event"
    },
    {
      "anonymous": false,
      "inputs": [
        {
          "indexed": true,
          "internalType": "bytes32",
          "name": "requestId",
          "type": "bytes32"
        }
      ],
      "name": "EthereumPriceRequested",
      "type": "event"
    },
    {
      "anonymous": false,
      "inputs": [
        {
          "indexed": true,
          "internalType": "address",
          "name": "from",
          "type": "address"
        },
        {
          "indexed": true,
          "internalType": "address",
          "name": "to",
          "type": "address"
        }
      ],
      "name": "OwnershipTransferRequested",
      "type": "event"
    },
    {
      "anonymous": false,
      "inputs": [
        {
          "indexed": true,
          "internalType": "address",
          "name": "from",
          "type": "address"
        },
        {
          "indexed": true,
          "internalType": "address",
          "name": "to",
          "type": "address"
        }
      ],
      "name": "OwnershipTransferred",
      "type": "event"
    },
    {
      "anonymous": false,
      "inputs": [
        {
          "indexed": true,
          "internalType": "bytes32",
          "name": "requestId",
          "type": "bytes32"
        },
        {
          "indexed": true,
          "internalType": "uint256",
          "name": "price",
          "type": "uint256"
        }
      ],
      "name": "RequestEthereumPriceFulfilled",
      "type": "event"
    },
    {
      "inputs": [],
      "name": "acceptOwnership",
      "outputs": [],
      "stateMutability": "nonpayable",
      "type": "function"
    },
    {
      "inputs": [
        {
          "internalType": "bytes32",
          "name": "_requestId",
          "type": "bytes32"
        },
        {
          "internalType": "uint256",
          "name": "_payment",
          "type": "uint256"
        },
        {
          "internalType": "bytes4",
          "name": "_callbackFunctionId",
          "type": "bytes4"
        },
        {
          "internalType": "uint256",
          "name": "_expiration",
          "type": "uint256"
        }
      ],
      "name": "cancelRequest",
      "outputs": [],
      "stateMutability": "nonpayable",
      "type": "function"
    },
    {
      "inputs": [],
      "name": "currentPrice",
      "outputs": [
        {
          "internalType": "uint256",
          "name": "",
          "type": "uint256"
        }
      ],
      "stateMutability": "view",
      "type": "function"
    },
    {
      "inputs": [
        {
          "internalType": "bytes32",
          "name": "_requestId",
          "type": "bytes32"
        },
        {
          "internalType": "uint256",
          "name": "_price",
          "type": "uint256"
        }
      ],
      "name": "fulfillEthereumPrice",
      "outputs": [],
      "stateMutability": "nonpayable",
      "type": "function"
    },
    {
      "inputs": [],
      "name": "getChainlinkToken",
      "outputs": [
        {
          "internalType": "address",
          "name": "",
          "type": "address"
        }
      ],
      "stateMutability": "view",
      "type": "function"
    },
    {
      "inputs": [],
      "name": "owner",
      "outputs": [
        {
          "internalType": "address",
          "name": "",
          "type": "address"
        }
      ],
      "stateMutability": "view",
      "type": "function"
    },
    {
      "inputs": [
        {
          "internalType": "string",
          "name": "_coin",
          "type": "string"
        }
      ],
      "name": "requestCoinPrice",
      "outputs": [],
      "stateMutability": "nonpayable",
      "type": "function"
    },
    {
      "inputs": [],
      "name": "requestEthereumPrice",
      "outputs": [],
      "stateMutability": "nonpayable",
      "type": "function"
    },
    {
      "inputs": [
        {
          "internalType": "string",
          "name": "_jobId",
          "type": "string"
        }
      ],
      "name": "setRequestCoinPriceJob",
      "outputs": [],
      "stateMutability": "nonpayable",
      "type": "function"
    },
    {
      "inputs": [
        {
          "internalType": "string",
          "name": "_jobId",
          "type": "string"
        }
      ],
      "name": "setRequestEthereumPriceJob",
      "outputs": [],
      "stateMutability": "nonpayable",
      "type": "function"
    },
    {
      "inputs": [
        {
          "internalType": "address",
          "name": "to",
          "type": "address"
        }
      ],
      "name": "transferOwnership",
      "outputs": [],
      "stateMutability": "nonpayable",
      "type": "function"
    },
    {
      "inputs": [],
      "name": "withdrawLink",
      "outputs": [],
      "stateMutability": "nonpayable",
      "type": "function"
    }
  ],
  "bytecode": "0x608060405260016004553480156200001657600080fd5b5060405162001cb138038062001cb18339810160408190526200003991620001e9565b3380600081620000905760405162461bcd60e51b815260206004820152601860248201527f43616e6e6f7420736574206f776e657220746f207a65726f000000000000000060448201526064015b60405180910390fd5b600680546001600160a01b0319166001600160a01b0384811691909117909155811615620000c357620000c381620000fe565b505050620000d782620001aa60201b60201c565b600980546001600160a01b0319166001600160a01b03929092169190911790555062000221565b336001600160a01b03821603620001585760405162461bcd60e51b815260206004820152601760248201527f43616e6e6f74207472616e7366657220746f2073656c66000000000000000000604482015260640162000087565b600780546001600160a01b0319166001600160a01b03838116918217909255600654604051919216907fed8889f560326eb138920d842192f0eb3dd22b4f139c87a2c57538e05bae127890600090a350565b600280546001600160a01b0319166001600160a01b0392909216919091179055565b80516001600160a01b0381168114620001e457600080fd5b919050565b60008060408385031215620001fd57600080fd5b6200020883620001cc565b91506200021860208401620001cc565b90509250929050565b611a8080620002316000396000f3fe608060405234801561001057600080fd5b50600436106100b45760003560e01c806392cdaaf31161007157806392cdaaf3146101275780639d1b464a1461013a578063cf517ab514610151578063d7f29c6314610164578063ec65d0f81461016c578063f2fde38b1461017f57600080fd5b8063165d35e1146100b957806347b51bc5146100de57806378204ce8146100f357806379ba5097146101065780638da5cb5b1461010e5780638dc654a21461011f575b600080fd5b6100c1610192565b6040516001600160a01b0390911681526020015b60405180910390f35b6100f16100ec366004611480565b6101ab565b005b6100f1610101366004611480565b610239565b6100f1610297565b6006546001600160a01b03166100c1565b6100f1610345565b6100f1610135366004611531565b610489565b61014360085481565b6040519081526020016100d5565b6100f161015f366004611553565b610579565b6100f16108a4565b6100f161017a3660046115c5565b610aa7565b6100f161018d366004611611565b610ac1565b60006101a66002546001600160a01b031690565b905090565b6101b3610ad2565b60008151116102025760405162461bcd60e51b81526020600482015260166024820152754a6f622049442063616e6e6f7420626520656d70747960501b60448201526064015b60405180910390fd5b80600b600060015b600281111561021b5761021b61163a565b8152602001908152602001600020908161023591906116d2565b5050565b610241610ad2565b600081511161028b5760405162461bcd60e51b81526020600482015260166024820152754a6f622049442063616e6e6f7420626520656d70747960501b60448201526064016101f9565b80600b6000600261020a565b6007546001600160a01b031633146102ea5760405162461bcd60e51b815260206004820152601660248201527526bab9ba10313290383937b837b9b2b21037bbb732b960511b60448201526064016101f9565b600680546001600160a01b0319808216339081179093556007805490911690556040516001600160a01b03909116919082907f8be0079c531659141344cd1fd0a4f28419497f9722a3daafe3b4186f6b6457e090600090a350565b61034d610ad2565b60006103616002546001600160a01b031690565b6040516370a0823160e01b81523060048201529091506001600160a01b0382169063a9059cbb90339083906370a0823190602401602060405180830381865afa1580156103b2573d6000803e3d6000fd5b505050506040513d601f19601f820116820180604052508101906103d69190611792565b6040516001600160e01b031960e085901b1681526001600160a01b03909216600483015260248201526044016020604051808303816000875af1158015610421573d6000803e3d6000fd5b505050506040513d601f19601f8201168201806040525081019061044591906117ab565b6104865760405162461bcd60e51b81526020600482015260126024820152712ab730b13632903a37903a3930b739b332b960711b60448201526064016101f9565b50565b60008281526005602052604090205482906001600160a01b031633146105025760405162461bcd60e51b815260206004820152602860248201527f536f75726365206d75737420626520746865206f7261636c65206f6620746865604482015267081c995c5d595cdd60c21b60648201526084016101f9565b60008181526005602052604080822080546001600160a01b03191690555182917f7cc135e0cebb02c3480ae5d74d377283180a2601f8f644edf7987b009316c63a91a2604051829084907f794eb9e29f6750ede99e05248d997a9ab9fa23c4a7eaff8afa729080eb7c642890600090a35060085550565b600061058d6002546001600160a01b031690565b90506001600160a01b0381166323b872dd3330600a6105b5670de0b6b3a764000060016117e3565b6105bf9190611810565b6040516001600160e01b031960e086901b1681526001600160a01b03938416600482015292909116602483015260448201526064016020604051808303816000875af1158015610613573d6000803e3d6000fd5b505050506040513d601f19601f8201168201806040525081019061063791906117ab565b61067c5760405162461bcd60e51b8152602060048201526016602482015275556e61626c6520746f207472616e736665722066656560501b60448201526064016101f9565b6000610745610737600b8360025b600281111561069b5761069b61163a565b815260200190815260200160002080546106b490611650565b80601f01602080910402602001604051908101604052809291908181526020018280546106e090611650565b801561072d5780601f106107025761010080835404028352916020019161072d565b820191906000526020600020905b81548152906001019060200180831161071057829003601f168201915b5050505050610b27565b306392cdaaf360e01b610b46565b90506107a76040518060400160405280600481526020016331b7b4b760e11b81525085858080601f016020809104026020016040519081016040528093929190818152602001838380828437600092019190915250869493925050610b6b9050565b6107f3604051806040016040528060048152602001630e0c2e8d60e31b815250604051806040016040528060038152602001621554d160ea1b81525083610b6b9092919063ffffffff16565b60408051808201909152600581526474696d657360d81b602082015261081c9082906064610b8e565b600954600090610854906001600160a01b031683600a610845670de0b6b3a764000060016117e3565b61084f9190611810565b610bac565b6000818152600a602052604080822080546001600160a01b031916331790555191925082917ff98d7a37e55105e3a3a0542a6e342405a0dacb863d7476fc531d11cbc7bdaf9c9190a25050505050565b60006108b86002546001600160a01b031690565b90506001600160a01b0381166323b872dd3330600a6108e0670de0b6b3a764000060016117e3565b6108ea9190611810565b6040516001600160e01b031960e086901b1681526001600160a01b03938416600482015292909116602483015260448201526064016020604051808303816000875af115801561093e573d6000803e3d6000fd5b505050506040513d601f19601f8201168201806040525081019061096291906117ab565b6109a75760405162461bcd60e51b8152602060048201526016602482015275556e61626c6520746f207472616e736665722066656560501b60448201526064016101f9565b60006109b9610737600b83600161068a565b9050610a07604051806040016040528060048152602001630e0c2e8d60e31b815250604051806040016040528060038152602001621554d160ea1b81525083610b6b9092919063ffffffff16565b60408051808201909152600581526474696d657360d81b6020820152610a309082906064610b8e565b600954600090610a59906001600160a01b031683600a610845670de0b6b3a764000060016117e3565b6000818152600a602052604080822080546001600160a01b031916331790555191925082917ff98d7a37e55105e3a3a0542a6e342405a0dacb863d7476fc531d11cbc7bdaf9c9190a2505050565b610aaf610ad2565b610abb84848484610c3f565b50505050565b610ac9610ad2565b61048681610d11565b6006546001600160a01b03163314610b255760405162461bcd60e51b815260206004820152601660248201527527b7363c9031b0b63630b1363290313c9037bbb732b960511b60448201526064016101f9565b565b805160009082908203610b3d5750600092915050565b50506020015190565b610b4e61142f565b610b5661142f565b610b6281868686610dbb565b95945050505050565b6080830151610b7a9083610e01565b6080830151610b899082610e01565b505050565b6080830151610b9d9083610e01565b6080830151610b899082610e18565b600454600090610bbd816001611824565b600455835160408086015160808701515191516000936320214ca360e11b93610bf59386938493923092918a9160019160240161187d565b60408051601f198184030181529190526020810180516001600160e01b03166001600160e01b0319909316929092179091529050610c3586838684610e78565b9695505050505050565b60008481526005602052604080822080546001600160a01b0319811690915590516001600160a01b039091169186917fe1fe3afa0f7f761ff0a8b89086790efd5140d2907ebd5b7ff6bfcb5e075fd4c59190a2604051636ee4d55360e01b815260048101869052602481018590526001600160e01b031984166044820152606481018390526001600160a01b03821690636ee4d55390608401600060405180830381600087803b158015610cf257600080fd5b505af1158015610d06573d6000803e3d6000fd5b505050505050505050565b336001600160a01b03821603610d695760405162461bcd60e51b815260206004820152601760248201527f43616e6e6f74207472616e7366657220746f2073656c6600000000000000000060448201526064016101f9565b600780546001600160a01b0319166001600160a01b03838116918217909255600654604051919216907fed8889f560326eb138920d842192f0eb3dd22b4f139c87a2c57538e05bae127890600090a350565b610dc361142f565b610dd38560800151610100610fd6565b50508284526001600160a01b03821660208501526001600160e01b031981166040850152835b949350505050565b610e0e8260038351611041565b610b898282611150565b67ffffffffffffffff19811215610e3357610235828261117e565b67ffffffffffffffff811315610e4d5761023582826111c0565b60008112610e615761023582600083611041565b610235826001610e73846000196118e5565b611041565b6040516bffffffffffffffffffffffff193060601b1660208201526034810184905260009060540160408051808303601f1901815282825280516020918201206000818152600590925291812080546001600160a01b0319166001600160a01b038a1617905590925082917fb5e6e01e79f91267dc17b4e6314d5d4d03593d2ceee0fbb452b750bd70ea5af99190a2600254604051630200057560e51b81526001600160a01b0390911690634000aea090610f3b9088908790879060040161190c565b6020604051808303816000875af1158015610f5a573d6000803e3d6000fd5b505050506040513d601f19601f82011682018060405250810190610f7e91906117ab565b610df95760405162461bcd60e51b815260206004820152602360248201527f756e61626c6520746f207472616e73666572416e6443616c6c20746f206f7261604482015262636c6560e81b60648201526084016101f9565b604080518082019091526060815260006020820152610ff6602083611933565b1561101e57611006602083611933565b611011906020611947565b61101b9083611824565b91505b506020808301829052604080518085526000815283019091019052815b92915050565b60178167ffffffffffffffff161161106657610abb8360e0600585901b1683176111e3565b60ff8167ffffffffffffffff16116110a45761108d836018611fe0600586901b16176111e3565b50610abb8367ffffffffffffffff83166001611208565b61ffff8167ffffffffffffffff16116110e3576110cc836019611fe0600586901b16176111e3565b50610abb8367ffffffffffffffff83166002611208565b63ffffffff8167ffffffffffffffff16116111245761110d83601a611fe0600586901b16176111e3565b50610abb8367ffffffffffffffff83166004611208565b61113983601b611fe0600586901b16176111e3565b50610abb8367ffffffffffffffff83166008611208565b6040805180820190915260608152600060208201526111778384600001515184855161122e565b9392505050565b6111898260c36111e3565b506102358261119a836000196118e5565b6040516020016111ac91815260200190565b604051602081830303815290604052611318565b6111cb8260c26111e3565b5061023582826040516020016111ac91815260200190565b6040805180820190915260608152600060208201526111778384600001515184611325565b604080518082019091526060815260006020820152610df9848560000151518585611380565b604080518082019091526060815260006020820152825182111561125157600080fd5b60208501516112608386611824565b111561129357611293856112838760200151878661127e9190611824565b611401565b61128e9060026117e3565b611418565b6000808651805187602083010193508088870111156112b25787860182525b505050602084015b602084106112f257805182526112d1602083611824565b91506112de602082611824565b90506112eb602085611947565b93506112ba565b51815160001960208690036101000a019081169019919091161790525083949350505050565b610e0e8260028351611041565b6040805180820190915260608152600060208201528360200151831061135a5761135a848560200151600261128e91906117e3565b8351805160208583010184815350808503611376576001810182525b5093949350505050565b60408051808201909152606081526000602082015260208501516113a48584611824565b11156113b8576113b8856112838685611824565b600060016113c884610100611a3e565b6113d29190611947565b90508551838682010185831982511617815250805184870111156113f65783860181525b509495945050505050565b60008183111561141257508161103b565b50919050565b81516114248383610fd6565b50610abb8382611150565b6040805160a0810182526000808252602080830182905282840182905260608084018390528451808601909552845283015290608082015290565b634e487b7160e01b600052604160045260246000fd5b60006020828403121561149257600080fd5b813567ffffffffffffffff808211156114aa57600080fd5b818401915084601f8301126114be57600080fd5b8135818111156114d0576114d061146a565b604051601f8201601f19908116603f011681019083821181831017156114f8576114f861146a565b8160405282815287602084870101111561151157600080fd5b826020860160208301376000928101602001929092525095945050505050565b6000806040838503121561154457600080fd5b50508035926020909101359150565b6000806020838503121561156657600080fd5b823567ffffffffffffffff8082111561157e57600080fd5b818501915085601f83011261159257600080fd5b8135818111156115a157600080fd5b8660208285010111156115b357600080fd5b60209290920196919550909350505050565b600080600080608085870312156115db57600080fd5b843593506020850135925060408501356001600160e01b03198116811461160157600080fd5b9396929550929360600135925050565b60006020828403121561162357600080fd5b81356001600160a01b038116811461117757600080fd5b634e487b7160e01b600052602160045260246000fd5b600181811c9082168061166457607f821691505b60208210810361141257634e487b7160e01b600052602260045260246000fd5b601f821115610b8957600081815260208120601f850160051c810160208610156116ab5750805b601f850160051c820191505b818110156116ca578281556001016116b7565b505050505050565b815167ffffffffffffffff8111156116ec576116ec61146a565b611700816116fa8454611650565b84611684565b602080601f831160018114611735576000841561171d5750858301515b600019600386901b1c1916600185901b1785556116ca565b600085815260208120601f198616915b8281101561176457888601518255948401946001909101908401611745565b50858210156117825787850151600019600388901b60f8161c191681555b5050505050600190811b01905550565b6000602082840312156117a457600080fd5b5051919050565b6000602082840312156117bd57600080fd5b8151801515811461117757600080fd5b634e487b7160e01b600052601160045260246000fd5b808202811582820484141761103b5761103b6117cd565b634e487b7160e01b600052601260045260246000fd5b60008261181f5761181f6117fa565b500490565b8082018082111561103b5761103b6117cd565b6000815180845260005b8181101561185d57602081850181015186830182015201611841565b506000602082860101526020601f19601f83011685010191505092915050565b6001600160a01b0389811682526020820189905260408201889052861660608201526001600160e01b03198516608082015260a0810184905260c0810183905261010060e082018190526000906118d683820185611837565b9b9a5050505050505050505050565b8181036000831280158383131683831282161715611905576119056117cd565b5092915050565b60018060a01b0384168152826020820152606060408201526000610b626060830184611837565b600082611942576119426117fa565b500690565b8181038181111561103b5761103b6117cd565b600181815b8085111561199557816000190482111561197b5761197b6117cd565b8085161561198857918102915b93841c939080029061195f565b509250929050565b6000826119ac5750600161103b565b816119b95750600061103b565b81600181146119cf57600281146119d9576119f5565b600191505061103b565b60ff8411156119ea576119ea6117cd565b50506001821b61103b565b5060208310610133831016604e8410600b8410161715611a18575081810a61103b565b611a22838361195a565b8060001904821115611a3657611a366117cd565b029392505050565b6000611177838361199d56fea2646970667358221220b45219e51dc48fe882d081d3e0f120206f00973691d480e3161f080389e4bd2c64736f6c63430008130033",
  "linkReferences": {},
  "deployedLinkReferences": {}
}