{
  "_format": "hh-sol-artifact-1",
  "contractName": "Operator",
  "sourceName": "contracts/Operator.sol",
  "abi": [
    {
      "inputs": [
        {
          "internalType": "address",
          "name": "link",
          "type": "address"
        },
        {
          "internalType": "address",
          "name": "owner",
          "type": "address"
        }
      ],
      "stateMutability": "nonpayable",
      "type": "constructor"
    },
    {
      "inputs": [
        {
          "internalType": "uint8",
          "name": "bits",
          "type": "uint8"
        },
        {
          "internalType": "uint256",
          "name": "value",
          "type": "uint256"
        }
      ],
      "name": "SafeCastOverflowedUintDowncast",
      "type": "error"
    },
    {
      "anonymous": false,
      "inputs": [
        {
          "indexed": false,
          "internalType": "address[]",
          "name": "senders",
          "type": "address[]"
        },
        {
          "indexed": false,
          "internalType": "address",
          "name": "changedBy",
          "type": "address"
        }
      ],
      "name": "AuthorizedSendersChanged",
      "type": "event"
    },
    {
      "anonymous": false,
      "inputs": [
        {
          "indexed": true,
          "internalType": "bytes32",
          "name": "requestId",
          "type": "bytes32"
        }
      ],
      "name": "CancelOracleRequest",
      "type": "event"
    },
    {
      "anonymous": false,
      "inputs": [
        {
          "indexed": true,
          "internalType": "bytes32",
          "name": "specId",
          "type": "bytes32"
        },
        {
          "indexed": false,
          "internalType": "address",
          "name": "requester",
          "type": "address"
        },
        {
          "indexed": false,
          "internalType": "bytes32",
          "name": "requestId",
          "type": "bytes32"
        },
        {
          "indexed": false,
          "internalType": "uint256",
          "name": "payment",
          "type": "uint256"
        },
        {
          "indexed": false,
          "internalType": "address",
          "name": "callbackAddr",
          "type": "address"
        },
        {
          "indexed": false,
          "internalType": "bytes4",
          "name": "callbackFunctionId",
          "type": "bytes4"
        },
        {
          "indexed": false,
          "internalType": "uint256",
          "name": "cancelExpiration",
          "type": "uint256"
        },
        {
          "indexed": false,
          "internalType": "uint256",
          "name": "dataVersion",
          "type": "uint256"
        },
        {
          "indexed": false,
          "internalType": "bytes",
          "name": "data",
          "type": "bytes"
        }
      ],
      "name": "OracleRequest",
      "type": "event"
    },
    {
      "anonymous": false,
      "inputs": [
        {
          "indexed": true,
          "internalType": "bytes32",
          "name": "requestId",
          "type": "bytes32"
        }
      ],
      "name": "OracleResponse",
      "type": "event"
    },
    {
      "anonymous": false,
      "inputs": [
        {
          "indexed": true,
          "internalType": "address",
          "name": "acceptedContract",
          "type": "address"
        }
      ],
      "name": "OwnableContractAccepted",
      "type": "event"
    },
    {
      "anonymous": false,
      "inputs": [
        {
          "indexed": true,
          "internalType": "address",
          "name": "from",
          "type": "address"
        },
        {
          "indexed": true,
          "internalType": "address",
          "name": "to",
          "type": "address"
        }
      ],
      "name": "OwnershipTransferRequested",
      "type": "event"
    },
    {
      "anonymous": false,
      "inputs": [
        {
          "indexed": true,
          "internalType": "address",
          "name": "from",
          "type": "address"
        },
        {
          "indexed": true,
          "internalType": "address",
          "name": "to",
          "type": "address"
        }
      ],
      "name": "OwnershipTransferred",
      "type": "event"
    },
    {
      "anonymous": false,
      "inputs": [
        {
          "indexed": false,
          "internalType": "address[]",
          "name": "targets",
          "type": "address[]"
        },
        {
          "indexed": false,
          "internalType": "address[]",
          "name": "senders",
          "type": "address[]"
        },
        {
          "indexed": false,
          "internalType": "address",
          "name": "changedBy",
          "type": "address"
        }
      ],
      "name": "TargetsUpdatedAuthorizedSenders",
      "type": "event"
    },
    {
      "inputs": [],
      "name": "EXPIRYTIME",
      "outputs": [
        {
          "internalType": "uint256",
          "name": "",
          "type": "uint256"
        }
      ],
      "stateMutability": "view",
      "type": "function"
    },
    {
      "inputs": [
        {
          "internalType": "address[]",
          "name": "targets",
          "type": "address[]"
        },
        {
          "internalType": "address[]",
          "name": "senders",
          "type": "address[]"
        }
      ],
      "name": "acceptAuthorizedReceivers",
      "outputs": [],
      "stateMutability": "nonpayable",
      "type": "function"
    },
    {
      "inputs": [
        {
          "internalType": "address[]",
          "name": "ownable",
          "type": "address[]"
        }
      ],
      "name": "acceptOwnableContracts",
      "outputs": [],
      "stateMutability": "nonpayable",
      "type": "function"
    },
    {
      "inputs": [],
      "name": "acceptOwnership",
      "outputs": [],
      "stateMutability": "nonpayable",
      "type": "function"
    },
    {
      "inputs": [
        {
          "internalType": "bytes32",
          "name": "requestId",
          "type": "bytes32"
        },
        {
          "internalType": "uint256",
          "name": "payment",
          "type": "uint256"
        },
        {
          "internalType": "bytes4",
          "name": "callbackFunc",
          "type": "bytes4"
        },
        {
          "internalType": "uint256",
          "name": "expiration",
          "type": "uint256"
        }
      ],
      "name": "cancelOracleRequest",
      "outputs": [],
      "stateMutability": "nonpayable",
      "type": "function"
    },
    {
      "inputs": [
        {
          "internalType": "uint256",
          "name": "nonce",
          "type": "uint256"
        },
        {
          "internalType": "uint256",
          "name": "payment",
          "type": "uint256"
        },
        {
          "internalType": "bytes4",
          "name": "callbackFunc",
          "type": "bytes4"
        },
        {
          "internalType": "uint256",
          "name": "expiration",
          "type": "uint256"
        }
      ],
      "name": "cancelOracleRequestByRequester",
      "outputs": [],
      "stateMutability": "nonpayable",
      "type": "function"
    },
    {
      "inputs": [
        {
          "internalType": "address payable[]",
          "name": "receivers",
          "type": "address[]"
        },
        {
          "internalType": "uint256[]",
          "name": "amounts",
          "type": "uint256[]"
        }
      ],
      "name": "distributeFunds",
      "outputs": [],
      "stateMutability": "payable",
      "type": "function"
    },
    {
      "inputs": [
        {
          "internalType": "bytes32",
          "name": "requestId",
          "type": "bytes32"
        },
        {
          "internalType": "uint256",
          "name": "payment",
          "type": "uint256"
        },
        {
          "internalType": "address",
          "name": "callbackAddress",
          "type": "address"
        },
        {
          "internalType": "bytes4",
          "name": "callbackFunctionId",
          "type": "bytes4"
        },
        {
          "internalType": "uint256",
          "name": "expiration",
          "type": "uint256"
        },
        {
          "internalType": "bytes32",
          "name": "data",
          "type": "bytes32"
        }
      ],
      "name": "fulfillOracleRequest",
      "outputs": [
        {
          "internalType": "bool",
          "name": "",
          "type": "bool"
        }
      ],
      "stateMutability": "nonpayable",
      "type": "function"
    },
    {
      "inputs": [
        {
          "internalType": "bytes32",
          "name": "requestId",
          "type": "bytes32"
        },
        {
          "internalType": "uint256",
          "name": "payment",
          "type": "uint256"
        },
        {
          "internalType": "address",
          "name": "callbackAddress",
          "type": "address"
        },
        {
          "internalType": "bytes4",
          "name": "callbackFunctionId",
          "type": "bytes4"
        },
        {
          "internalType": "uint256",
          "name": "expiration",
          "type": "uint256"
        },
        {
          "internalType": "bytes",
          "name": "data",
          "type": "bytes"
        }
      ],
      "name": "fulfillOracleRequest2",
      "outputs": [
        {
          "internalType": "bool",
          "name": "",
          "type": "bool"
        }
      ],
      "stateMutability": "nonpayable",
      "type": "function"
    },
    {
      "inputs": [],
      "name": "getAuthorizedSenders",
      "outputs": [
        {
          "internalType": "address[]",
          "name": "",
          "type": "address[]"
        }
      ],
      "stateMutability": "view",
      "type": "function"
    },
    {
      "inputs": [],
      "name": "getChainlinkToken",
      "outputs": [
        {
          "internalType": "address",
          "name": "",
          "type": "address"
        }
      ],
      "stateMutability": "view",
      "type": "function"
    },
    {
      "inputs": [
        {
          "internalType": "address",
          "name": "sender",
          "type": "address"
        }
      ],
      "name": "isAuthorizedSender",
      "outputs": [
        {
          "internalType": "bool",
          "name": "",
          "type": "bool"
        }
      ],
      "stateMutability": "view",
      "type": "function"
    },
    {
      "inputs": [
        {
          "internalType": "address",
          "name": "sender",
          "type": "address"
        },
        {
          "internalType": "uint256",
          "name": "amount",
          "type": "uint256"
        },
        {
          "internalType": "bytes",
          "name": "data",
          "type": "bytes"
        }
      ],
      "name": "onTokenTransfer",
      "outputs": [],
      "stateMutability": "nonpayable",
      "type": "function"
    },
    {
      "inputs": [
        {
          "internalType": "address",
          "name": "sender",
          "type": "address"
        },
        {
          "internalType": "uint256",
          "name": "payment",
          "type": "uint256"
        },
        {
          "internalType": "bytes32",
          "name": "specId",
          "type": "bytes32"
        },
        {
          "internalType": "bytes4",
          "name": "callbackFunctionId",
          "type": "bytes4"
        },
        {
          "internalType": "uint256",
          "name": "nonce",
          "type": "uint256"
        },
        {
          "internalType": "uint256",
          "name": "dataVersion",
          "type": "uint256"
        },
        {
          "internalType": "bytes",
          "name": "data",
          "type": "bytes"
        }
      ],
      "name": "operatorRequest",
      "outputs": [],
      "stateMutability": "nonpayable",
      "type": "function"
    },
    {
      "inputs": [
        {
          "internalType": "address",
          "name": "sender",
          "type": "address"
        },
        {
          "internalType": "uint256",
          "name": "payment",
          "type": "uint256"
        },
        {
          "internalType": "bytes32",
          "name": "specId",
          "type": "bytes32"
        },
        {
          "internalType": "address",
          "name": "callbackAddress",
          "type": "address"
        },
        {
          "internalType": "bytes4",
          "name": "callbackFunctionId",
          "type": "bytes4"
        },
        {
          "internalType": "uint256",
          "name": "nonce",
          "type": "uint256"
        },
        {
          "internalType": "uint256",
          "name": "dataVersion",
          "type": "uint256"
        },
        {
          "internalType": "bytes",
          "name": "data",
          "type": "bytes"
        }
      ],
      "name": "oracleRequest",
      "outputs": [],
      "stateMutability": "nonpayable",
      "type": "function"
    },
    {
      "inputs": [],
      "name": "owner",
      "outputs": [
        {
          "internalType": "address",
          "name": "",
          "type": "address"
        }
      ],
      "stateMutability": "view",
      "type": "function"
    },
    {
      "inputs": [
        {
          "internalType": "address",
          "name": "to",
          "type": "address"
        },
        {
          "internalType": "bytes",
          "name": "data",
          "type": "bytes"
        }
      ],
      "name": "ownerForward",
      "outputs": [],
      "stateMutability": "nonpayable",
      "type": "function"
    },
    {
      "inputs": [
        {
          "internalType": "address",
          "name": "to",
          "type": "address"
        },
        {
          "internalType": "uint256",
          "name": "value",
          "type": "uint256"
        },
        {
          "internalType": "bytes",
          "name": "data",
          "type": "bytes"
        }
      ],
      "name": "ownerTransferAndCall",
      "outputs": [
        {
          "internalType": "bool",
          "name": "success",
          "type": "bool"
        }
      ],
      "stateMutability": "nonpayable",
      "type": "function"
    },
    {
      "inputs": [
        {
          "internalType": "address[]",
          "name": "senders",
          "type": "address[]"
        }
      ],
      "name": "setAuthorizedSenders",
      "outputs": [],
      "stateMutability": "nonpayable",
      "type": "function"
    },
    {
      "inputs": [
        {
          "internalType": "address[]",
          "name": "targets",
          "type": "address[]"
        },
        {
          "internalType": "address[]",
          "name": "senders",
          "type": "address[]"
        }
      ],
      "name": "setAuthorizedSendersOn",
      "outputs": [],
      "stateMutability": "nonpayable",
      "type": "function"
    },
    {
      "inputs": [
        {
          "internalType": "address[]",
          "name": "ownable",
          "type": "address[]"
        },
        {
          "internalType": "address",
          "name": "newOwner",
          "type": "address"
        }
      ],
      "name": "transferOwnableContracts",
      "outputs": [],
      "stateMutability": "nonpayable",
      "type": "function"
    },
    {
      "inputs": [
        {
          "internalType": "address",
          "name": "to",
          "type": "address"
        }
      ],
      "name": "transferOwnership",
      "outputs": [],
      "stateMutability": "nonpayable",
      "type": "function"
    },
    {
      "inputs": [],
      "name": "typeAndVersion",
      "outputs": [
        {
          "internalType": "string",
          "name": "",
          "type": "string"
        }
      ],
      "stateMutability": "view",
      "type": "function"
    },
    {
      "inputs": [
        {
          "internalType": "address",
          "name": "recipient",
          "type": "address"
        },
        {
          "internalType": "uint256",
          "name": "amount",
          "type": "uint256"
        }
      ],
      "name": "withdraw",
      "outputs": [],
      "stateMutability": "nonpayable",
      "type": "function"
    },
    {
      "inputs": [],
      "name": "withdrawable",
      "outputs": [
        {
          "internalType": "uint256",
          "name": "",
          "type": "uint256"
        }
      ],
      "stateMutability": "view",
      "type": "function"
    }
  ],
  "bytecode": "0x60a060405260016006553480156200001657600080fd5b5060405162002d1438038062002d148339810160408190526200003991620001ab565b808060006001600160a01b038216620000995760405162461bcd60e51b815260206004820152601860248201527f43616e6e6f7420736574206f776e657220746f207a65726f000000000000000060448201526064015b60405180910390fd5b600280546001600160a01b0319166001600160a01b0384811691909117909155811615620000cc57620000cc81620000e2565b505050506001600160a01b0316608052620001e3565b336001600160a01b038216036200013c5760405162461bcd60e51b815260206004820152601760248201527f43616e6e6f74207472616e7366657220746f2073656c66000000000000000000604482015260640162000090565b600380546001600160a01b0319166001600160a01b03838116918217909255600254604051919216907fed8889f560326eb138920d842192f0eb3dd22b4f139c87a2c57538e05bae127890600090a350565b80516001600160a01b0381168114620001a657600080fd5b919050565b60008060408385031215620001bf57600080fd5b620001ca836200018e565b9150620001da602084016200018e565b90509250929050565b608051612ad66200023e600039600081816101bc0152818161066701528181610851015281816109ff015281816112b201528181611426015281816114b90152818161188701528181611a950152611dc10152612ad66000f3fe6080604052600436106101665760003560e01c80636ae0bc76116100d1578063a4c0ed361161008a578063f2fde38b11610064578063f2fde38b14610451578063f3fef3a314610471578063fa00763a14610491578063fc4a03ed146104ca57600080fd5b8063a4c0ed36146103f1578063eb007d9914610411578063ee56997b1461043157600080fd5b80636ae0bc761461034b5780636bd59ec01461036b5780636ee4d5531461037e57806379ba50971461039e5780638da5cb5b146103b3578063902fc370146103d157600080fd5b80633ec5bc14116101235780633ec5bc141461028257806340429946146102a25780634ab0d190146102c257806350188301146102f257806352043783146103155780635ffa62881461032b57600080fd5b806301994b991461016b578063033f49f71461018d578063165d35e1146101ad578063181f5a77146101f95780632408afaa146102405780633c6d41b914610262575b600080fd5b34801561017757600080fd5b5061018b610186366004612109565b6104ea565b005b34801561019957600080fd5b5061018b6101a83660046121a2565b61065c565b3480156101b957600080fd5b507f00000000000000000000000000000000000000000000000000000000000000005b6040516001600160a01b0390911681526020015b60405180910390f35b34801561020557600080fd5b506102336040518060400160405280600e81526020016d04f70657261746f7220312e302e360941b81525081565b6040516101f0919061221b565b34801561024c57600080fd5b506102556107e4565b6040516101f0919061224e565b34801561026e57600080fd5b5061018b61027d3660046122b8565b610846565b34801561028e57600080fd5b5061018b61029d366004612345565b6108f7565b3480156102ae57600080fd5b5061018b6102bd36600461239c565b6109f4565b3480156102ce57600080fd5b506102e26102dd36600461243f565b610aa6565b60405190151581526020016101f0565b3480156102fe57600080fd5b50610307610ccb565b6040519081526020016101f0565b34801561032157600080fd5b5061030761012c81565b34801561033757600080fd5b5061018b610346366004612499565b610cda565b34801561035757600080fd5b506102e2610366366004612505565b610d14565b61018b610379366004612499565b610fb8565b34801561038a57600080fd5b5061018b610399366004612589565b611185565b3480156103aa57600080fd5b5061018b61132f565b3480156103bf57600080fd5b506002546001600160a01b03166101dc565b3480156103dd57600080fd5b506102e26103ec3660046125c6565b6113dd565b3480156103fd57600080fd5b5061018b61040c36600461262c565b6114ae565b34801561041d57600080fd5b5061018b61042c366004612589565b6115be565b34801561043d57600080fd5b5061018b61044c366004612109565b611600565b34801561045d57600080fd5b5061018b61046c3660046126f9565b61181d565b34801561047d57600080fd5b5061018b61048c36600461271d565b611831565b34801561049d57600080fd5b506102e26104ac3660046126f9565b6001600160a01b031660009081526020819052604090205460ff1690565b3480156104d657600080fd5b5061018b6104e5366004612499565b611900565b6104f26119ff565b6105175760405162461bcd60e51b815260040161050e90612749565b60405180910390fd5b60005b818110156106575760016005600085858581811061053a5761053a612780565b905060200201602081019061054f91906126f9565b6001600160a01b031681526020810191909152604001600020805460ff191691151591909117905582828281811061058957610589612780565b905060200201602081019061059e91906126f9565b6001600160a01b03167f615a0c1cb00a60d4acd77ec67acf2f17f223ef0932d591052fabc33643fe7e8260405160405180910390a28282828181106105e5576105e5612780565b90506020020160208101906105fa91906126f9565b6001600160a01b03166379ba50976040518163ffffffff1660e01b8152600401600060405180830381600087803b15801561063457600080fd5b505af1158015610648573d6000803e3d6000fd5b5050505080600101905061051a565b505050565b610664611a3a565b827f00000000000000000000000000000000000000000000000000000000000000006001600160a01b0316816001600160a01b0316036106dc5760405162461bcd60e51b815260206004820152601360248201527243616e6e6f742063616c6c20746f204c494e4b60681b604482015260640161050e565b836001600160a01b03163b6000036107365760405162461bcd60e51b815260206004820152601a60248201527f4d75737420666f727761726420746f206120636f6e7472616374000000000000604482015260640161050e565b6000846001600160a01b03168484604051610752929190612796565b6000604051808303816000865af19150503d806000811461078f576040519150601f19603f3d011682016040523d82523d6000602084013e610794565b606091505b50509050806107dd5760405162461bcd60e51b8152602060048201526015602482015274119bdc9dd85c9919590818d85b1b0819985a5b1959605a1b604482015260640161050e565b5050505050565b6060600180548060200260200160405190810160405280929190818152602001828054801561083c57602002820191906000526020600020905b81546001600160a01b0316815260019091019060200180831161081e575b5050505050905090565b336001600160a01b037f0000000000000000000000000000000000000000000000000000000000000000161461088e5760405162461bcd60e51b815260040161050e906127a6565b60008061089f8a8a8c8a8a8a611a8f565b91509150877fd8d7ecc4800d25fa53ce0372f13a416d98907a7ef3d8d3bdd79cf4fe75529c658b848c8e8c878c8c8c6040516108e3999897969594939291906127fc565b60405180910390a250505050505050505050565b6108ff611a3a565b60005b828110156109ee5760006005600086868581811061092257610922612780565b905060200201602081019061093791906126f9565b6001600160a01b031681526020810191909152604001600020805460ff191691151591909117905583838281811061097157610971612780565b905060200201602081019061098691906126f9565b60405163f2fde38b60e01b81526001600160a01b038481166004830152919091169063f2fde38b90602401600060405180830381600087803b1580156109cb57600080fd5b505af11580156109df573d6000803e3d6000fd5b50505050806001019050610902565b50505050565b336001600160a01b037f00000000000000000000000000000000000000000000000000000000000000001614610a3c5760405162461bcd60e51b815260040161050e906127a6565b600080610a4d8b8b8a8a8a8a611a8f565b91509150887fd8d7ecc4800d25fa53ce0372f13a416d98907a7ef3d8d3bdd79cf4fe75529c658c848d8f8c878c8c8c604051610a91999897969594939291906127fc565b60405180910390a25050505050505050505050565b6000610ab0611c2d565b600087815260046020526040812054889160089190911b60ff19169003610b195760405162461bcd60e51b815260206004820152601b60248201527f4d757374206861766520612076616c6964207265717565737449640000000000604482015260640161050e565b6001600160a01b038616600090815260056020526040902054869060ff1615610b845760405162461bcd60e51b815260206004820152601a60248201527f43616e6e6f742063616c6c206f776e656420636f6e7472616374000000000000604482015260640161050e565b610b9389898989896001611c84565b60405189907f9e9bc7616d42c2835d05ae617e508454e63b30b934be8aa932ebc125e0e58a6490600090a262061a805a1015610c115760405162461bcd60e51b815260206004820181905260248201527f4d7573742070726f7669646520636f6e73756d657220656e6f75676820676173604482015260640161050e565b6000876001600160a01b0316878b87604051602401610c3a929190918252602082015260400190565b60408051601f198184030181529181526020820180516001600160e01b03166001600160e01b0319909416939093179092529051610c789190612866565b6000604051808303816000865af19150503d8060008114610cb5576040519150601f19603f3d011682016040523d82523d6000602084013e610cba565b606091505b50909b9a5050505050505050505050565b6000610cd5611d9b565b905090565b610ce26119ff565b610cfe5760405162461bcd60e51b815260040161050e90612749565b610d0884846104ea565b6109ee84848484611900565b6000610d1e611c2d565b600088815260046020526040812054899160089190911b60ff19169003610d875760405162461bcd60e51b815260206004820152601b60248201527f4d757374206861766520612076616c6964207265717565737449640000000000604482015260640161050e565b6001600160a01b038716600090815260056020526040902054879060ff1615610df25760405162461bcd60e51b815260206004820152601a60248201527f43616e6e6f742063616c6c206f776e656420636f6e7472616374000000000000604482015260640161050e565b8985856020811015610e465760405162461bcd60e51b815260206004820152601b60248201527f526573706f6e7365206d757374206265203e2033322062797465730000000000604482015260640161050e565b8135838114610e975760405162461bcd60e51b815260206004820152601c60248201527f466972737420776f7264206d7573742062652072657175657374496400000000604482015260640161050e565b610ea68e8e8e8e8e6002611c84565b6040518e907f9e9bc7616d42c2835d05ae617e508454e63b30b934be8aa932ebc125e0e58a6490600090a262061a805a1015610f245760405162461bcd60e51b815260206004820181905260248201527f4d7573742070726f7669646520636f6e73756d657220656e6f75676820676173604482015260640161050e565b60008c6001600160a01b03168c8b8b604051602001610f4593929190612882565b60408051601f1981840301815290829052610f5f91612866565b6000604051808303816000865af19150503d8060008114610f9c576040519150601f19603f3d011682016040523d82523d6000602084013e610fa1565b606091505b509098505050505050505050979650505050505050565b8215801590610fc657508281145b6110125760405162461bcd60e51b815260206004820152601760248201527f496e76616c6964206172726179206c656e677468287329000000000000000000604482015260640161050e565b3460005b8481101561114257600084848381811061103257611032612780565b905060200201359050808361104791906128bc565b9250600087878481811061105d5761105d612780565b905060200201602081019061107291906126f9565b6001600160a01b03168260405160006040518083038185875af1925050503d80600081146110bc576040519150601f19603f3d011682016040523d82523d6000602084013e6110c1565b606091505b50509050806111385760405162461bcd60e51b815260206004820152603a60248201527f416464726573733a20756e61626c6520746f2073656e642076616c75652c207260448201527f6563697069656e74206d61792068617665207265766572746564000000000000606482015260840161050e565b5050600101611016565b5080156107dd5760405162461bcd60e51b8152602060048201526011602482015270151bdbc81b5d58da08115512081cd95b9d607a1b604482015260640161050e565b600061119384338585611e3e565b60008681526004602052604090205490915060081b60ff19908116908216146111fe5760405162461bcd60e51b815260206004820152601e60248201527f506172616d7320646f206e6f74206d6174636820726571756573742049440000604482015260640161050e565b428211156112475760405162461bcd60e51b815260206004820152601660248201527514995c5d595cdd081a5cc81b9bdd08195e1c1a5c995960521b604482015260640161050e565b6000858152600460205260408082208290555186917fa7842b9ec549398102c0d91b1b9919b2f20558aefdadf57528a95c6cd3292e9391a2836006600082825461129191906128bc565b909155505060405163a9059cbb60e01b8152336004820152602481018590527f00000000000000000000000000000000000000000000000000000000000000006001600160a01b03169063a9059cbb906044016020604051808303816000875af1158015611303573d6000803e3d6000fd5b505050506040513d601f19601f8201168201806040525081019061132791906128d5565b505050505050565b6003546001600160a01b031633146113825760405162461bcd60e51b815260206004820152601660248201527526bab9ba10313290383937b837b9b2b21037bbb732b960511b604482015260640161050e565b600280546001600160a01b0319808216339081179093556003805490911690556040516001600160a01b03909116919082907f8be0079c531659141344cd1fd0a4f28419497f9722a3daafe3b4186f6b6457e090600090a350565b60006113e7611a3a565b83806113f1611d9b565b101561140f5760405162461bcd60e51b815260040161050e906128f7565b604051630200057560e51b81526001600160a01b037f00000000000000000000000000000000000000000000000000000000000000001690634000aea09061146190899089908990899060040161294c565b6020604051808303816000875af1158015611480573d6000803e3d6000fd5b505050506040513d601f19601f820116820180604052508101906114a491906128d5565b9695505050505050565b336001600160a01b037f000000000000000000000000000000000000000000000000000000000000000016146114f65760405162461bcd60e51b815260040161050e906127a6565b602081015181906115078183611e93565b8460248401528360448401526000306001600160a01b03168460405161152d9190612866565b600060405180830381855af49150503d8060008114611568576040519150601f19603f3d011682016040523d82523d6000602084013e61156d565b606091505b50509050806113275760405162461bcd60e51b815260206004820152601860248201527f556e61626c6520746f2063726561746520726571756573740000000000000000604482015260640161050e565b6040516001600160601b03193360601b166020820152603481018590526109ee9060540160405160208183030381529060405280519060200120848484611185565b6116086119ff565b6116245760405162461bcd60e51b815260040161050e90612749565b806116715760405162461bcd60e51b815260206004820152601b60248201527f4d7573742068617665206174206c6561737420312073656e6465720000000000604482015260640161050e565b60015460005b818110156116d35760008060006001848154811061169757611697612780565b6000918252602080832091909101546001600160a01b031683528201929092526040019020805460ff1916911515919091179055600101611677565b5060005b828110156117cf576000808585848181106116f4576116f4612780565b905060200201602081019061170991906126f9565b6001600160a01b0316815260208101919091526040016000205460ff16156117735760405162461bcd60e51b815260206004820152601f60248201527f4d757374206e6f742068617665206475706c69636174652073656e6465727300604482015260640161050e565b600160008086868581811061178a5761178a612780565b905060200201602081019061179f91906126f9565b6001600160a01b031681526020810191909152604001600020805460ff19169115159190911790556001016116d7565b506117dc6001848461204e565b507ff263cfb3e4298332e776194610cf9fdc09ccb3ada8b9aa39764d882e11fbf0a0838333604051611810939291906129bd565b60405180910390a1505050565b611825611a3a565b61182e81611f72565b50565b611839611a3a565b8080611843611d9b565b10156118615760405162461bcd60e51b815260040161050e906128f7565b60405163a9059cbb60e01b81526001600160a01b038481166004830152602482018490527f0000000000000000000000000000000000000000000000000000000000000000169063a9059cbb906044016020604051808303816000875af11580156118d0573d6000803e3d6000fd5b505050506040513d601f19601f820116820180604052508101906118f491906128d5565b610657576106576129e9565b6119086119ff565b6119245760405162461bcd60e51b815260040161050e90612749565b7f1bb185903e2cb2f1b303523128b60e314dea81df4f8d9b7351cadd344f6e7727848484843360405161195b9594939291906129ff565b60405180910390a160005b838110156107dd5784848281811061198057611980612780565b905060200201602081019061199591906126f9565b6001600160a01b031663ee56997b84846040518363ffffffff1660e01b81526004016119c2929190612a41565b600060405180830381600087803b1580156119dc57600080fd5b505af11580156119f0573d6000803e3d6000fd5b50505050806001019050611966565b3360009081526020819052604081205460ff1680610cd5575033611a2b6002546001600160a01b031690565b6001600160a01b031614905090565b6002546001600160a01b03163314611a8d5760405162461bcd60e51b815260206004820152601660248201527527b7363c9031b0b63630b1363290313c9037bbb732b960511b604482015260640161050e565b565b600080857f00000000000000000000000000000000000000000000000000000000000000006001600160a01b0316816001600160a01b031603611b0a5760405162461bcd60e51b815260206004820152601360248201527243616e6e6f742063616c6c20746f204c494e4b60681b604482015260640161050e565b6040516001600160601b031960608b901b1660208201526034810186905260540160408051808303601f1901815291815281516020928301206000818152600490935291205490935060081b60ff191615611b9e5760405162461bcd60e51b8152602060048201526014602482015273135d5cdd081d5cd94818481d5b9a5c5d5948125160621b604482015260640161050e565b611baa61012c42612a5d565b91506000611bba89898986611e3e565b905060405180604001604052808260ff19168152602001611bda8761201c565b60ff908116909152600086815260046020908152604090912083519390910151909116600160f81b0260089290921c919091179055600654611c1d908a90612a5d565b6006555050965096945050505050565b3360009081526020819052604090205460ff16611a8d5760405162461bcd60e51b81526020600482015260156024820152742737ba1030baba3437b934bd32b21039b2b73232b960591b604482015260640161050e565b6000611c9286868686611e3e565b60008881526004602052604090205490915060081b60ff1990811690821614611cfd5760405162461bcd60e51b815260206004820152601e60248201527f506172616d7320646f206e6f74206d6174636820726571756573742049440000604482015260640161050e565b611d068261201c565b60008881526004602052604090205460ff918216600160f81b9091049091161115611d735760405162461bcd60e51b815260206004820152601860248201527f446174612076657273696f6e73206d757374206d617463680000000000000000604482015260640161050e565b85600654611d8191906128bc565b600655505050600093845250506004602052506040812055565b60006001600654611dac91906128bc565b6040516370a0823160e01b81523060048201527f00000000000000000000000000000000000000000000000000000000000000006001600160a01b0316906370a0823190602401602060405180830381865afa158015611e10573d6000803e3d6000fd5b505050506040513d601f19601f82011682018060405250810190611e349190612a70565b610cd591906128bc565b6040805160208082019690965260609490941b6001600160601b031916848201526001600160e01b03199290921660548401526058808401919091528151808403909101815260789092019052805191012090565b611e9f60026020612a89565b611eaa906004612a5d565b81511015611ef35760405162461bcd60e51b8152602060048201526016602482015275092dcecc2d8d2c840e4cae2eacae6e840d8cadccee8d60531b604482015260640161050e565b6001600160e01b03198216633c6d41b960e01b1480611f2257506001600160e01b031982166320214ca360e11b145b611f6e5760405162461bcd60e51b815260206004820152601e60248201527f4d757374207573652077686974656c69737465642066756e6374696f6e730000604482015260640161050e565b5050565b336001600160a01b03821603611fca5760405162461bcd60e51b815260206004820152601760248201527f43616e6e6f74207472616e7366657220746f2073656c66000000000000000000604482015260640161050e565b600380546001600160a01b0319166001600160a01b03838116918217909255600254604051919216907fed8889f560326eb138920d842192f0eb3dd22b4f139c87a2c57538e05bae127890600090a350565b600060ff82111561204a576040516306dfcc6560e41b8152600860048201526024810183905260440161050e565b5090565b8280548282559060005260206000209081019282156120a1579160200282015b828111156120a15781546001600160a01b0319166001600160a01b0384351617825560209092019160019091019061206e565b5061204a9291505b8082111561204a57600081556001016120a9565b60008083601f8401126120cf57600080fd5b50813567ffffffffffffffff8111156120e757600080fd5b6020830191508360208260051b850101111561210257600080fd5b9250929050565b6000806020838503121561211c57600080fd5b823567ffffffffffffffff81111561213357600080fd5b61213f858286016120bd565b90969095509350505050565b6001600160a01b038116811461182e57600080fd5b60008083601f84011261217257600080fd5b50813567ffffffffffffffff81111561218a57600080fd5b60208301915083602082850101111561210257600080fd5b6000806000604084860312156121b757600080fd5b83356121c28161214b565b9250602084013567ffffffffffffffff8111156121de57600080fd5b6121ea86828701612160565b9497909650939450505050565b60005b838110156122125781810151838201526020016121fa565b50506000910152565b602081526000825180602084015261223a8160408501602087016121f7565b601f01601f19169190910160400192915050565b6020808252825182820181905260009190848201906040850190845b8181101561228f5783516001600160a01b03168352928401929184019160010161226a565b50909695505050505050565b80356001600160e01b0319811681146122b357600080fd5b919050565b60008060008060008060008060e0898b0312156122d457600080fd5b88356122df8161214b565b975060208901359650604089013595506122fb60608a0161229b565b94506080890135935060a0890135925060c089013567ffffffffffffffff81111561232557600080fd5b6123318b828c01612160565b999c989b5096995094979396929594505050565b60008060006040848603121561235a57600080fd5b833567ffffffffffffffff81111561237157600080fd5b61237d868287016120bd565b90945092505060208401356123918161214b565b809150509250925092565b60008060008060008060008060006101008a8c0312156123bb57600080fd5b89356123c68161214b565b985060208a0135975060408a0135965060608a01356123e48161214b565b95506123f260808b0161229b565b945060a08a0135935060c08a0135925060e08a013567ffffffffffffffff81111561241c57600080fd5b6124288c828d01612160565b915080935050809150509295985092959850929598565b60008060008060008060c0878903121561245857600080fd5b863595506020870135945060408701356124718161214b565b935061247f6060880161229b565b92506080870135915060a087013590509295509295509295565b600080600080604085870312156124af57600080fd5b843567ffffffffffffffff808211156124c757600080fd5b6124d3888389016120bd565b909650945060208701359150808211156124ec57600080fd5b506124f9878288016120bd565b95989497509550505050565b600080600080600080600060c0888a03121561252057600080fd5b873596506020880135955060408801356125398161214b565b94506125476060890161229b565b93506080880135925060a088013567ffffffffffffffff81111561256a57600080fd5b6125768a828b01612160565b989b979a50959850939692959293505050565b6000806000806080858703121561259f57600080fd5b84359350602085013592506125b66040860161229b565b9396929550929360600135925050565b600080600080606085870312156125dc57600080fd5b84356125e78161214b565b935060208501359250604085013567ffffffffffffffff81111561260a57600080fd5b6124f987828801612160565b634e487b7160e01b600052604160045260246000fd5b60008060006060848603121561264157600080fd5b833561264c8161214b565b925060208401359150604084013567ffffffffffffffff8082111561267057600080fd5b818601915086601f83011261268457600080fd5b81358181111561269657612696612616565b604051601f8201601f19908116603f011681019083821181831017156126be576126be612616565b816040528281528960208487010111156126d757600080fd5b8260208601602083013760006020848301015280955050505050509250925092565b60006020828403121561270b57600080fd5b81356127168161214b565b9392505050565b6000806040838503121561273057600080fd5b823561273b8161214b565b946020939093013593505050565b6020808252601d908201527f43616e6e6f742073657420617574686f72697a65642073656e64657273000000604082015260600190565b634e487b7160e01b600052603260045260246000fd5b8183823760009101908152919050565b60208082526013908201527226bab9ba103ab9b2902624a725903a37b5b2b760691b604082015260600190565b81835281816020850137506000828201602090810191909152601f909101601f19169091010190565b6001600160a01b038a81168252602082018a905260408201899052871660608201526001600160e01b03198616608082015260a0810185905260c0810184905261010060e0820181905260009061285683820185876127d3565b9c9b505050505050505050505050565b600082516128788184602087016121f7565b9190910192915050565b6001600160e01b031984168152818360048301376000910160040190815292915050565b634e487b7160e01b600052601160045260246000fd5b818103818111156128cf576128cf6128a6565b92915050565b6000602082840312156128e757600080fd5b8151801515811461271657600080fd5b60208082526035908201527f416d6f756e74207265717565737465642069732067726561746572207468616e60408201527420776974686472617761626c652062616c616e636560581b606082015260800190565b60018060a01b03851681528360208201526060604082015260006114a46060830184866127d3565b8183526000602080850194508260005b858110156129b25781356129978161214b565b6001600160a01b031687529582019590820190600101612984565b509495945050505050565b6040815260006129d1604083018587612974565b905060018060a01b0383166020830152949350505050565b634e487b7160e01b600052600160045260246000fd5b606081526000612a13606083018789612974565b8281036020840152612a26818688612974565b91505060018060a01b03831660408301529695505050505050565b602081526000612a55602083018486612974565b949350505050565b808201808211156128cf576128cf6128a6565b600060208284031215612a8257600080fd5b5051919050565b80820281158282048414176128cf576128cf6128a656fea2646970667358221220cfe226c4784f03b0b52363c4abe16ab98d4293eddabd91f8f2d28b77358ffd2264736f6c63430008180033",
  "linkReferences": {},
  "deployedLinkReferences": {}
}