{
  "_format": "hh-sol-artifact-1",
  "contractName": "PriceOracle",
  "sourceName": "contracts/PriceOracle.sol",
  "abi": [
    {
      "inputs": [
        {
          "internalType": "address",
          "name": "_oracleToken",
          "type": "address"
        },
        {
          "internalType": "address",
          "name": "_oracle",
          "type": "address"
        }
      ],
      "stateMutability": "nonpayable",
      "type": "constructor"
    },
    {
      "anonymous": false,
      "inputs": [
        {
          "indexed": true,
          "internalType": "bytes32",
          "name": "requestId",
          "type": "bytes32"
        }
      ],
      "name": "CanceledRequest",
      "type": "event"
    },
    {
      "anonymous": false,
      "inputs": [
        {
          "indexed": true,
          "internalType": "bytes32",
          "name": "id",
          "type": "bytes32"
        }
      ],
      "name": "ChainlinkCancelled",
      "type": "event"
    },
    {
      "anonymous": false,
      "inputs": [
        {
          "indexed": true,
          "internalType": "bytes32",
          "name": "id",
          "type": "bytes32"
        }
      ],
      "name": "ChainlinkFulfilled",
      "type": "event"
    },
    {
      "anonymous": false,
      "inputs": [
        {
          "indexed": true,
          "internalType": "bytes32",
          "name": "id",
          "type": "bytes32"
        }
      ],
      "name": "ChainlinkRequested",
      "type": "event"
    },
    {
      "anonymous": false,
      "inputs": [
        {
          "indexed": true,
          "internalType": "bytes32",
          "name": "requestId",
          "type": "bytes32"
        }
      ],
      "name": "CrossChainPriceRequested",
      "type": "event"
    },
    {
      "anonymous": false,
      "inputs": [
        {
          "indexed": true,
          "internalType": "bytes32",
          "name": "requestId",
          "type": "bytes32"
        },
        {
          "indexed": false,
          "internalType": "string",
          "name": "coin",
          "type": "string"
        }
      ],
      "name": "CryptocompareCoinPriceRequested",
      "type": "event"
    },
    {
      "anonymous": false,
      "inputs": [
        {
          "indexed": true,
          "internalType": "address",
          "name": "from",
          "type": "address"
        },
        {
          "indexed": true,
          "internalType": "address",
          "name": "to",
          "type": "address"
        }
      ],
      "name": "OwnershipTransferRequested",
      "type": "event"
    },
    {
      "anonymous": false,
      "inputs": [
        {
          "indexed": true,
          "internalType": "address",
          "name": "from",
          "type": "address"
        },
        {
          "indexed": true,
          "internalType": "address",
          "name": "to",
          "type": "address"
        }
      ],
      "name": "OwnershipTransferred",
      "type": "event"
    },
    {
      "anonymous": false,
      "inputs": [
        {
          "indexed": true,
          "internalType": "bytes32",
          "name": "requestId",
          "type": "bytes32"
        },
        {
          "indexed": false,
          "internalType": "uint256",
          "name": "chain",
          "type": "uint256"
        },
        {
          "indexed": false,
          "internalType": "uint256",
          "name": "price",
          "type": "uint256"
        }
      ],
      "name": "RequestCrossChainPriceFulfilled",
      "type": "event"
    },
    {
      "anonymous": false,
      "inputs": [
        {
          "indexed": true,
          "internalType": "bytes32",
          "name": "requestId",
          "type": "bytes32"
        },
        {
          "indexed": false,
          "internalType": "uint256",
          "name": "price",
          "type": "uint256"
        },
        {
          "indexed": false,
          "internalType": "string",
          "name": "coin",
          "type": "string"
        }
      ],
      "name": "RequestEthereumPriceFulfilled",
      "type": "event"
    },
    {
      "inputs": [],
      "name": "acceptOwnership",
      "outputs": [],
      "stateMutability": "nonpayable",
      "type": "function"
    },
    {
      "inputs": [
        {
          "internalType": "bytes32",
          "name": "_requestId",
          "type": "bytes32"
        },
        {
          "internalType": "uint256",
          "name": "_payment",
          "type": "uint256"
        },
        {
          "internalType": "bytes4",
          "name": "_callbackFunctionId",
          "type": "bytes4"
        },
        {
          "internalType": "uint256",
          "name": "_expiration",
          "type": "uint256"
        }
      ],
      "name": "cancelRequest",
      "outputs": [],
      "stateMutability": "nonpayable",
      "type": "function"
    },
    {
      "inputs": [
        {
          "internalType": "bytes32",
          "name": "_requestId",
          "type": "bytes32"
        },
        {
          "internalType": "uint256[3]",
          "name": "_prices",
          "type": "uint256[3]"
        },
        {
          "internalType": "uint256[3]",
          "name": "_chains",
          "type": "uint256[3]"
        }
      ],
      "name": "fulfillCrossChainCoinPrice",
      "outputs": [],
      "stateMutability": "nonpayable",
      "type": "function"
    },
    {
      "inputs": [
        {
          "internalType": "bytes32",
          "name": "_requestId",
          "type": "bytes32"
        },
        {
          "internalType": "uint256",
          "name": "_price",
          "type": "uint256"
        },
        {
          "internalType": "string",
          "name": "_coin",
          "type": "string"
        }
      ],
      "name": "fulfillCryptocompareCoinPrice",
      "outputs": [],
      "stateMutability": "nonpayable",
      "type": "function"
    },
    {
      "inputs": [],
      "name": "getOracleToken",
      "outputs": [
        {
          "internalType": "address",
          "name": "",
          "type": "address"
        }
      ],
      "stateMutability": "view",
      "type": "function"
    },
    {
      "inputs": [],
      "name": "owner",
      "outputs": [
        {
          "internalType": "address",
          "name": "",
          "type": "address"
        }
      ],
      "stateMutability": "view",
      "type": "function"
    },
    {
      "inputs": [
        {
          "components": [
            {
              "internalType": "string",
              "name": "rpcUrl",
              "type": "string"
            },
            {
              "internalType": "string",
              "name": "priceFeedContract",
              "type": "string"
            }
          ],
          "internalType": "struct PriceOracle.ChainlinkCrossChainCoinPriceRequest[3]",
          "name": "_request",
          "type": "tuple[3]"
        }
      ],
      "name": "requestCrossChainCoinPrice",
      "outputs": [],
      "stateMutability": "nonpayable",
      "type": "function"
    },
    {
      "inputs": [
        {
          "internalType": "string",
          "name": "_coin",
          "type": "string"
        }
      ],
      "name": "requestCryptocompareCoinPrice",
      "outputs": [],
      "stateMutability": "nonpayable",
      "type": "function"
    },
    {
      "inputs": [],
      "name": "requestCryptocompareETHPrice",
      "outputs": [],
      "stateMutability": "nonpayable",
      "type": "function"
    },
    {
      "inputs": [
        {
          "internalType": "string",
          "name": "_jobId",
          "type": "string"
        },
        {
          "internalType": "uint256",
          "name": "_requestType",
          "type": "uint256"
        }
      ],
      "name": "setJobIDToRequestType",
      "outputs": [],
      "stateMutability": "nonpayable",
      "type": "function"
    },
    {
      "inputs": [
        {
          "internalType": "address",
          "name": "to",
          "type": "address"
        }
      ],
      "name": "transferOwnership",
      "outputs": [],
      "stateMutability": "nonpayable",
      "type": "function"
    }
  ],
  "bytecode": "0x60806040526001600455600a670de0b6b3a76400006001620000229190620001f4565b6200002e919062000220565b6008553480156200003e57600080fd5b506040516200232e3803806200232e833981016040819052620000619162000260565b3380600081620000b85760405162461bcd60e51b815260206004820152601860248201527f43616e6e6f7420736574206f776e657220746f207a65726f000000000000000060448201526064015b60405180910390fd5b600680546001600160a01b0319166001600160a01b0384811691909117909155811615620000eb57620000eb8162000126565b505050620000ff82620001d260201b60201c565b600980546001600160a01b0319166001600160a01b03929092169190911790555062000298565b336001600160a01b03821603620001805760405162461bcd60e51b815260206004820152601760248201527f43616e6e6f74207472616e7366657220746f2073656c660000000000000000006044820152606401620000af565b600780546001600160a01b0319166001600160a01b03838116918217909255600654604051919216907fed8889f560326eb138920d842192f0eb3dd22b4f139c87a2c57538e05bae127890600090a350565b600280546001600160a01b0319166001600160a01b0392909216919091179055565b80820281158282048414176200021a57634e487b7160e01b600052601160045260246000fd5b92915050565b6000826200023e57634e487b7160e01b600052601260045260246000fd5b500490565b80516001600160a01b03811681146200025b57600080fd5b919050565b600080604083850312156200027457600080fd5b6200027f8362000243565b91506200028f6020840162000243565b90509250929050565b61208680620002a86000396000f3fe608060405234801561001057600080fd5b50600436106100a95760003560e01c80639446cec4116100715780639446cec414610113578063a368258914610126578063db0d753714610139578063ec65d0f814610141578063eee78bc814610154578063f2fde38b1461016757600080fd5b80631ff064bd146100ae5780634e6ee6c2146100c3578063608752c4146100e757806379ba5097146100fa5780638da5cb5b14610102575b600080fd5b6100c16100bc3660046118fd565b61017a565b005b6100cb61023e565b6040516001600160a01b03909116815260200160405180910390f35b6100c16100f536600461195d565b610257565b6100c161066e565b6006546001600160a01b03166100cb565b6100c1610121366004611991565b61071c565b6100c16101343660046119cf565b61082b565b6100c161089a565b6100c161014f366004611a13565b610b8a565b6100c1610162366004611a5f565b610bcf565b6100c1610175366004611ad0565b610eb3565b60008381526005602052604090205483906001600160a01b031633146101bb5760405162461bcd60e51b81526004016101b290611af9565b60405180910390fd5b60008181526005602052604080822080546001600160a01b03191690555182917f7cc135e0cebb02c3480ae5d74d377283180a2601f8f644edf7987b009316c63a91a2837f0dff8cfb42d17b717034c4e74d993bf575bd9e2e70d95f622768d5a09a0dc3a78484604051610230929190611b87565b60405180910390a250505050565b60006102526002546001600160a01b031690565b905090565b600061026b6002546001600160a01b031690565b6008546040516323b872dd60e01b815233600482015230602482015260448101919091529091506001600160a01b038216906323b872dd906064016020604051808303816000875af11580156102c5573d6000803e3d6000fd5b505050506040513d601f19601f820116820180604052508101906102e99190611ba0565b6103055760405162461bcd60e51b81526004016101b290611bc2565b60026000818152600a6020527fbff4442b8ed600beeb8e26b1279a0f0d14c6edfaec26d968ee13c86f7d4c2ba8805461033d90611bf2565b80601f016020809104026020016040519081016040528092919081815260200182805461036990611bf2565b80156103b65780601f1061038b576101008083540402835291602001916103b6565b820191906000526020600020905b81548152906001019060200180831161039957829003601f168201915b5050505050905060008151116103de5760405162461bcd60e51b81526004016101b290611c26565b6000828152600a60205260408120805461049091610482916103ff90611bf2565b80601f016020809104026020016040519081016040528092919081815260200182805461042b90611bf2565b80156104785780601f1061044d57610100808354040283529160200191610478565b820191906000526020600020905b81548152906001019060200180831161045b57829003601f168201915b5050505050610ec7565b30632511b3b160e21b610ee6565b604080518082019091526009815268636861696e3152504360b81b6020820152909150610513908660005b6020028101906104cb9190611c73565b6104d59080611c93565b8080601f016020809104026020016040519081016040528093929190818152602001838380828437600092019190915250869493925050610f0b9050565b60408051808201909152600e81526d18da185a5b8c50dbdb9d1c9858dd60921b602082015261055e908660005b6020028101906105509190611c73565b6104d5906020810190611c93565b604080518082019091526009815268636861696e3252504360b81b602082015261058a908660016104bb565b60408051808201909152600e81526d18da185a5b8c90dbdb9d1c9858dd60921b60208201526105bb90866001610540565b604080518082019091526009815268636861696e3352504360b81b60208201526105e7908660026104bb565b60408051808201909152600e81526d18da185a5b8cd0dbdb9d1c9858dd60921b602082015261061890866002610540565b600954600854600091610638916001600160a01b03909116908490610f29565b60405190915081907f865e27aaa4b957c7dd636bbdc33855f94e43f37905ba6eec220e31650402cf1290600090a2505050505050565b6007546001600160a01b031633146106c15760405162461bcd60e51b815260206004820152601660248201527526bab9ba10313290383937b837b9b2b21037bbb732b960511b60448201526064016101b2565b600680546001600160a01b0319808216339081179093556007805490911690556040516001600160a01b03909116919082907f8be0079c531659141344cd1fd0a4f28419497f9722a3daafe3b4186f6b6457e090600090a350565b60008381526005602052604090205483906001600160a01b031633146107545760405162461bcd60e51b81526004016101b290611af9565b60008181526005602052604080822080546001600160a01b03191690555182917f7cc135e0cebb02c3480ae5d74d377283180a2601f8f644edf7987b009316c63a91a260005b600381101561082457847f3d0a9847a1a5b6fe37f83045616de71049be47052530e5c23bc1e2b931420c308483600381106107d7576107d7611c5d565b60200201358684600381106107ee576107ee611c5d565b602002013560405161080a929190918252602082015260400190565b60405180910390a28061081c81611cf6565b91505061079a565b5050505050565b610833610fbc565b600082511161087d5760405162461bcd60e51b81526020600482015260166024820152754a6f622049442063616e6e6f7420626520656d70747960501b60448201526064016101b2565b6000818152600a602052604090206108958382611d5d565b505050565b60006108ae6002546001600160a01b031690565b6008546040516323b872dd60e01b815233600482015230602482015260448101919091529091506001600160a01b038216906323b872dd906064016020604051808303816000875af1158015610908573d6000803e3d6000fd5b505050506040513d601f19601f8201168201806040525081019061092c9190611ba0565b6109485760405162461bcd60e51b81526004016101b290611bc2565b60016000818152600a6020527fbbc70db1b6c7afd11e79c0fb0051300458f1a3acb8ee9789d9b6b26c61ad9bc7805461098090611bf2565b80601f01602080910402602001604051908101604052809291908181526020018280546109ac90611bf2565b80156109f95780601f106109ce576101008083540402835291602001916109f9565b820191906000526020600020905b8154815290600101906020018083116109dc57829003601f168201915b505050505090506000815111610a215760405162461bcd60e51b81526004016101b290611c26565b6000828152600a602052604081208054610a5091610a42916103ff90611bf2565b30631ff064bd60e01b610ee6565b9050610a9e6040518060400160405280600481526020016331b7b4b760e11b8152506040518060400160405280600381526020016208aa8960eb1b81525083610f0b9092919063ffffffff16565b610aea604051806040016040528060048152602001630e0c2e8d60e31b815250604051806040016040528060038152602001621554d160ea1b81525083610f0b9092919063ffffffff16565b60408051808201909152600581526474696d657360d81b6020820152610b139082906064611011565b600954600854600091610b33916001600160a01b03909116908490610f29565b9050807f2b8a804fc9bcbd3daf5a73e8f6a219851cdfffaa1d3cc39c80e2529726104e4f604051610b7b9060208082526003908201526208aa8960eb1b604082015260600190565b60405180910390a25050505050565b610b92610fbc565b610b9e8484848461102f565b60405184907fe6d2a5cc9e540e8741deb1171f45c1d5451f8524e1e62dec4ab71ea0250e3ee290600090a250505050565b6000610be36002546001600160a01b031690565b6008546040516323b872dd60e01b815233600482015230602482015260448101919091529091506001600160a01b038216906323b872dd906064016020604051808303816000875af1158015610c3d573d6000803e3d6000fd5b505050506040513d601f19601f82011682018060405250810190610c619190611ba0565b610c7d5760405162461bcd60e51b81526004016101b290611bc2565b60016000818152600a6020527fbbc70db1b6c7afd11e79c0fb0051300458f1a3acb8ee9789d9b6b26c61ad9bc78054610cb590611bf2565b80601f0160208091040260200160405190810160405280929190818152602001828054610ce190611bf2565b8015610d2e5780601f10610d0357610100808354040283529160200191610d2e565b820191906000526020600020905b815481529060010190602001808311610d1157829003601f168201915b505050505090506000815111610d565760405162461bcd60e51b81526004016101b290611c26565b6000828152600a602052604081208054610d7791610a42916103ff90611bf2565b9050610dd96040518060400160405280600481526020016331b7b4b760e11b81525087878080601f016020809104026020016040519081016040528093929190818152602001838380828437600092019190915250869493925050610f0b9050565b610e25604051806040016040528060048152602001630e0c2e8d60e31b815250604051806040016040528060038152602001621554d160ea1b81525083610f0b9092919063ffffffff16565b60408051808201909152600581526474696d657360d81b6020820152610e4e9082906064611011565b600954600854600091610e6e916001600160a01b03909116908490610f29565b9050807f2b8a804fc9bcbd3daf5a73e8f6a219851cdfffaa1d3cc39c80e2529726104e4f8888604051610ea2929190611e1c565b60405180910390a250505050505050565b610ebb610fbc565b610ec481611101565b50565b805160009082908203610edd5750600092915050565b50506020015190565b610eee611820565b610ef6611820565b610f02818686866111ab565b95945050505050565b6080830151610f1a90836111f1565b608083015161089590826111f1565b600454600090610f3a816001611e4b565b600455835160408086015160808701515191516000936320214ca360e11b93610f729386938493923092918a91600191602401611e5e565b60408051601f198184030181529190526020810180516001600160e01b03166001600160e01b0319909316929092179091529050610fb286838684611208565b9695505050505050565b6006546001600160a01b0316331461100f5760405162461bcd60e51b815260206004820152601660248201527527b7363c9031b0b63630b1363290313c9037bbb732b960511b60448201526064016101b2565b565b608083015161102090836111f1565b60808301516108959082611366565b60008481526005602052604080822080546001600160a01b0319811690915590516001600160a01b039091169186917fe1fe3afa0f7f761ff0a8b89086790efd5140d2907ebd5b7ff6bfcb5e075fd4c59190a2604051636ee4d55360e01b815260048101869052602481018590526001600160e01b031984166044820152606481018390526001600160a01b03821690636ee4d55390608401600060405180830381600087803b1580156110e257600080fd5b505af11580156110f6573d6000803e3d6000fd5b505050505050505050565b336001600160a01b038216036111595760405162461bcd60e51b815260206004820152601760248201527f43616e6e6f74207472616e7366657220746f2073656c6600000000000000000060448201526064016101b2565b600780546001600160a01b0319166001600160a01b03838116918217909255600654604051919216907fed8889f560326eb138920d842192f0eb3dd22b4f139c87a2c57538e05bae127890600090a350565b6111b3611820565b6111c385608001516101006113c9565b50508284526001600160a01b03821660208501526001600160e01b031981166040850152835b949350505050565b6111fe8260038351611434565b6108958282611541565b6040516bffffffffffffffffffffffff193060601b1660208201526034810184905260009060540160408051808303601f1901815282825280516020918201206000818152600590925291812080546001600160a01b0319166001600160a01b038a1617905590925082917fb5e6e01e79f91267dc17b4e6314d5d4d03593d2ceee0fbb452b750bd70ea5af99190a2600254604051630200057560e51b81526001600160a01b0390911690634000aea0906112cb90889087908790600401611ec6565b6020604051808303816000875af11580156112ea573d6000803e3d6000fd5b505050506040513d601f19601f8201168201806040525081019061130e9190611ba0565b6111e95760405162461bcd60e51b815260206004820152602360248201527f756e61626c6520746f207472616e73666572416e6443616c6c20746f206f7261604482015262636c6560e81b60648201526084016101b2565b67ffffffffffffffff1981121561138557611381828261156f565b5050565b6001600160401b0381131561139e5761138182826115b1565b600081126113b25761138182600083611434565b6113818260016113c484600019611eed565b611434565b6040805180820190915260608152600060208201526113e9602083611f14565b15611411576113f9602083611f14565b611404906020611f36565b61140e9083611e4b565b91505b506020808301829052604080518085526000815283019091019052815b92915050565b6017816001600160401b03161161145e576114588360e0600585901b1683176115d4565b50505050565b60ff816001600160401b03161161149a57611484836018611fe0600586901b16176115d4565b50611458836001600160401b03831660016115f9565b61ffff816001600160401b0316116114d7576114c1836019611fe0600586901b16176115d4565b50611458836001600160401b03831660026115f9565b63ffffffff816001600160401b0316116115165761150083601a611fe0600586901b16176115d4565b50611458836001600160401b03831660046115f9565b61152b83601b611fe0600586901b16176115d4565b50611458836001600160401b03831660086115f9565b6040805180820190915260608152600060208201526115688384600001515184855161161f565b9392505050565b61157a8260c36115d4565b506113818261158b83600019611eed565b60405160200161159d91815260200190565b604051602081830303815290604052611709565b6115bc8260c26115d4565b50611381828260405160200161159d91815260200190565b6040805180820190915260608152600060208201526115688384600001515184611716565b6040805180820190915260608152600060208201526111e9848560000151518585611771565b604080518082019091526060815260006020820152825182111561164257600080fd5b60208501516116518386611e4b565b111561168457611684856116748760200151878661166f9190611e4b565b6117f2565b61167f906002611f49565b611809565b6000808651805187602083010193508088870111156116a35787860182525b505050602084015b602084106116e357805182526116c2602083611e4b565b91506116cf602082611e4b565b90506116dc602085611f36565b93506116ab565b51815160001960208690036101000a019081169019919091161790525083949350505050565b6111fe8260028351611434565b6040805180820190915260608152600060208201528360200151831061174b5761174b848560200151600261167f9190611f49565b8351805160208583010184815350808503611767576001810182525b5093949350505050565b60408051808201909152606081526000602082015260208501516117958584611e4b565b11156117a9576117a9856116748685611e4b565b600060016117b984610100612044565b6117c39190611f36565b90508551838682010185831982511617815250805184870111156117e75783860181525b509495945050505050565b60008183111561180357508161142e565b50919050565b815161181583836113c9565b506114588382611541565b6040805160a0810182526000808252602080830182905282840182905260608084018390528451808601909552845283015290608082015290565b634e487b7160e01b600052604160045260246000fd5b600082601f83011261188257600080fd5b81356001600160401b038082111561189c5761189c61185b565b604051601f8301601f19908116603f011681019082821181831017156118c4576118c461185b565b816040528381528660208588010111156118dd57600080fd5b836020870160208301376000602085830101528094505050505092915050565b60008060006060848603121561191257600080fd5b833592506020840135915060408401356001600160401b0381111561193657600080fd5b61194286828701611871565b9150509250925092565b806060810183101561142e57600080fd5b60006020828403121561196f57600080fd5b81356001600160401b0381111561198557600080fd5b6111e98482850161194c565b600080600060e084860312156119a657600080fd5b833592506119b7856020860161194c565b91506119c6856080860161194c565b90509250925092565b600080604083850312156119e257600080fd5b82356001600160401b038111156119f857600080fd5b611a0485828601611871565b95602094909401359450505050565b60008060008060808587031215611a2957600080fd5b843593506020850135925060408501356001600160e01b031981168114611a4f57600080fd5b9396929550929360600135925050565b60008060208385031215611a7257600080fd5b82356001600160401b0380821115611a8957600080fd5b818501915085601f830112611a9d57600080fd5b813581811115611aac57600080fd5b866020828501011115611abe57600080fd5b60209290920196919550909350505050565b600060208284031215611ae257600080fd5b81356001600160a01b038116811461156857600080fd5b60208082526028908201527f536f75726365206d75737420626520746865206f7261636c65206f6620746865604082015267081c995c5d595cdd60c21b606082015260800190565b6000815180845260005b81811015611b6757602081850181015186830182015201611b4b565b506000602082860101526020601f19601f83011685010191505092915050565b8281526040602082015260006111e96040830184611b41565b600060208284031215611bb257600080fd5b8151801515811461156857600080fd5b602080825260169082015275556e61626c6520746f207472616e736665722066656560501b604082015260600190565b600181811c90821680611c0657607f821691505b60208210810361180357634e487b7160e01b600052602260045260246000fd5b6020808252601e908201527f4a6f62204944206e6f742073657420666f722072657175657374547970650000604082015260600190565b634e487b7160e01b600052603260045260246000fd5b60008235603e19833603018112611c8957600080fd5b9190910192915050565b6000808335601e19843603018112611caa57600080fd5b8301803591506001600160401b03821115611cc457600080fd5b602001915036819003821315611cd957600080fd5b9250929050565b634e487b7160e01b600052601160045260246000fd5b600060018201611d0857611d08611ce0565b5060010190565b601f82111561089557600081815260208120601f850160051c81016020861015611d365750805b601f850160051c820191505b81811015611d5557828155600101611d42565b505050505050565b81516001600160401b03811115611d7657611d7661185b565b611d8a81611d848454611bf2565b84611d0f565b602080601f831160018114611dbf5760008415611da75750858301515b600019600386901b1c1916600185901b178555611d55565b600085815260208120601f198616915b82811015611dee57888601518255948401946001909101908401611dcf565b5085821015611e0c5787850151600019600388901b60f8161c191681555b5050505050600190811b01905550565b60208152816020820152818360408301376000818301604090810191909152601f909201601f19160101919050565b8082018082111561142e5761142e611ce0565b6001600160a01b0389811682526020820189905260408201889052861660608201526001600160e01b03198516608082015260a0810184905260c0810183905261010060e08201819052600090611eb783820185611b41565b9b9a5050505050505050505050565b60018060a01b0384168152826020820152606060408201526000610f026060830184611b41565b8181036000831280158383131683831282161715611f0d57611f0d611ce0565b5092915050565b600082611f3157634e487b7160e01b600052601260045260246000fd5b500690565b8181038181111561142e5761142e611ce0565b808202811582820484141761142e5761142e611ce0565b600181815b80851115611f9b578160001904821115611f8157611f81611ce0565b80851615611f8e57918102915b93841c9390800290611f65565b509250929050565b600082611fb25750600161142e565b81611fbf5750600061142e565b8160018114611fd55760028114611fdf57611ffb565b600191505061142e565b60ff841115611ff057611ff0611ce0565b50506001821b61142e565b5060208310610133831016604e8410600b841016171561201e575081810a61142e565b6120288383611f60565b806000190482111561203c5761203c611ce0565b029392505050565b60006115688383611fa356fea264697066735822122093357d4f5ed08c96f59b6c8551132a2668bc583e7480f51707ed96fb35f128b864736f6c63430008130033",
  "linkReferences": {},
  "deployedLinkReferences": {}
}